{
  "contractName": "RewardCourts",
  "abi": [
    {
      "constant": true,
      "inputs": [
        {
          "name": "",
          "type": "uint256"
        },
        {
          "name": "",
          "type": "uint256"
        }
      ],
      "name": "trustedCourtsList",
      "outputs": [
        {
          "name": "",
          "type": "uint256"
        }
      ],
      "payable": false,
      "stateMutability": "view",
      "type": "function"
    },
    {
      "constant": true,
      "inputs": [],
      "name": "decimals",
      "outputs": [
        {
          "name": "",
          "type": "uint8"
        }
      ],
      "payable": false,
      "stateMutability": "view",
      "type": "function"
    },
    {
      "constant": true,
      "inputs": [
        {
          "name": "",
          "type": "uint256"
        }
      ],
      "name": "courtOwners",
      "outputs": [
        {
          "name": "",
          "type": "address"
        }
      ],
      "payable": false,
      "stateMutability": "view",
      "type": "function"
    },
    {
      "constant": true,
      "inputs": [
        {
          "name": "",
          "type": "uint256"
        },
        {
          "name": "",
          "type": "uint256"
        }
      ],
      "name": "trustedCourts",
      "outputs": [
        {
          "name": "",
          "type": "bool"
        }
      ],
      "payable": false,
      "stateMutability": "view",
      "type": "function"
    },
    {
      "anonymous": false,
      "inputs": [
        {
          "indexed": true,
          "name": "owner",
          "type": "address"
        },
        {
          "indexed": true,
          "name": "createdCourt",
          "type": "uint256"
        }
      ],
      "name": "CourtCreated",
      "type": "event"
    },
    {
      "anonymous": false,
      "inputs": [
        {
          "indexed": true,
          "name": "ictoken",
          "type": "uint256"
        }
      ],
      "name": "IntercourtTokenCreated",
      "type": "event"
    },
    {
      "anonymous": false,
      "inputs": [
        {
          "indexed": true,
          "name": "court",
          "type": "uint256"
        },
        {
          "indexed": true,
          "name": "owner",
          "type": "address"
        }
      ],
      "name": "SetOwner",
      "type": "event"
    },
    {
      "anonymous": false,
      "inputs": [
        {
          "indexed": true,
          "name": "truster",
          "type": "uint256"
        },
        {
          "indexed": false,
          "name": "trustees",
          "type": "uint256[]"
        }
      ],
      "name": "TrustCourts",
      "type": "event"
    },
    {
      "anonymous": false,
      "inputs": [
        {
          "indexed": true,
          "name": "truster",
          "type": "uint256"
        },
        {
          "indexed": false,
          "name": "trustees",
          "type": "uint256[]"
        }
      ],
      "name": "UntrustCourts",
      "type": "event"
    },
    {
      "anonymous": false,
      "inputs": [
        {
          "indexed": true,
          "name": "_operator",
          "type": "address"
        },
        {
          "indexed": true,
          "name": "_from",
          "type": "address"
        },
        {
          "indexed": true,
          "name": "_to",
          "type": "address"
        },
        {
          "indexed": false,
          "name": "_id",
          "type": "uint256"
        },
        {
          "indexed": false,
          "name": "_value",
          "type": "uint256"
        }
      ],
      "name": "TransferSingle",
      "type": "event"
    },
    {
      "anonymous": false,
      "inputs": [
        {
          "indexed": true,
          "name": "_operator",
          "type": "address"
        },
        {
          "indexed": true,
          "name": "_from",
          "type": "address"
        },
        {
          "indexed": true,
          "name": "_to",
          "type": "address"
        },
        {
          "indexed": false,
          "name": "_ids",
          "type": "uint256[]"
        },
        {
          "indexed": false,
          "name": "_values",
          "type": "uint256[]"
        }
      ],
      "name": "TransferBatch",
      "type": "event"
    },
    {
      "anonymous": false,
      "inputs": [
        {
          "indexed": true,
          "name": "_owner",
          "type": "address"
        },
        {
          "indexed": true,
          "name": "_operator",
          "type": "address"
        },
        {
          "indexed": false,
          "name": "_approved",
          "type": "bool"
        }
      ],
      "name": "ApprovalForAll",
      "type": "event"
    },
    {
      "anonymous": false,
      "inputs": [
        {
          "indexed": false,
          "name": "_value",
          "type": "string"
        },
        {
          "indexed": true,
          "name": "_id",
          "type": "uint256"
        }
      ],
      "name": "URI",
      "type": "event"
    },
    {
      "constant": true,
      "inputs": [
        {
          "name": "_interfaceId",
          "type": "bytes4"
        }
      ],
      "name": "supportsInterface",
      "outputs": [
        {
          "name": "",
          "type": "bool"
        }
      ],
      "payable": false,
      "stateMutability": "view",
      "type": "function"
    },
    {
      "constant": false,
      "inputs": [
        {
          "name": "_from",
          "type": "address"
        },
        {
          "name": "_to",
          "type": "address"
        },
        {
          "name": "_id",
          "type": "uint256"
        },
        {
          "name": "_value",
          "type": "uint256"
        },
        {
          "name": "_data",
          "type": "bytes"
        }
      ],
      "name": "safeTransferFrom",
      "outputs": [],
      "payable": false,
      "stateMutability": "nonpayable",
      "type": "function"
    },
    {
      "constant": false,
      "inputs": [
        {
          "name": "_from",
          "type": "address"
        },
        {
          "name": "_to",
          "type": "address"
        },
        {
          "name": "_ids",
          "type": "uint256[]"
        },
        {
          "name": "_values",
          "type": "uint256[]"
        },
        {
          "name": "_data",
          "type": "bytes"
        }
      ],
      "name": "safeBatchTransferFrom",
      "outputs": [],
      "payable": false,
      "stateMutability": "nonpayable",
      "type": "function"
    },
    {
      "constant": true,
      "inputs": [
        {
          "name": "_owner",
          "type": "address"
        },
        {
          "name": "_id",
          "type": "uint256"
        }
      ],
      "name": "balanceOf",
      "outputs": [
        {
          "name": "",
          "type": "uint256"
        }
      ],
      "payable": false,
      "stateMutability": "view",
      "type": "function"
    },
    {
      "constant": true,
      "inputs": [
        {
          "name": "_owners",
          "type": "address[]"
        },
        {
          "name": "_ids",
          "type": "uint256[]"
        }
      ],
      "name": "balanceOfBatch",
      "outputs": [
        {
          "name": "",
          "type": "uint256[]"
        }
      ],
      "payable": false,
      "stateMutability": "view",
      "type": "function"
    },
    {
      "constant": false,
      "inputs": [
        {
          "name": "_operator",
          "type": "address"
        },
        {
          "name": "_approved",
          "type": "bool"
        }
      ],
      "name": "setApprovalForAll",
      "outputs": [],
      "payable": false,
      "stateMutability": "nonpayable",
      "type": "function"
    },
    {
      "constant": true,
      "inputs": [
        {
          "name": "_owner",
          "type": "address"
        },
        {
          "name": "_operator",
          "type": "address"
        }
      ],
      "name": "isApprovedForAll",
      "outputs": [
        {
          "name": "",
          "type": "bool"
        }
      ],
      "payable": false,
      "stateMutability": "view",
      "type": "function"
    },
    {
      "constant": false,
      "inputs": [
        {
          "name": "_from",
          "type": "address"
        },
        {
          "name": "_to",
          "type": "address"
        },
        {
          "name": "_intercourtToken",
          "type": "uint256"
        },
        {
          "name": "_value",
          "type": "uint256"
        },
        {
          "name": "_courtsPath",
          "type": "uint256[]"
        },
        {
          "name": "_data",
          "type": "bytes"
        }
      ],
      "name": "intercourtTransfer",
      "outputs": [],
      "payable": false,
      "stateMutability": "nonpayable",
      "type": "function"
    },
    {
      "constant": false,
      "inputs": [
        {
          "name": "_from",
          "type": "address"
        },
        {
          "name": "_to",
          "type": "address"
        },
        {
          "name": "_intercourtTokens",
          "type": "uint256[]"
        },
        {
          "name": "_values",
          "type": "uint256[]"
        },
        {
          "name": "_courtsPath",
          "type": "uint256[]"
        },
        {
          "name": "_data",
          "type": "bytes"
        }
      ],
      "name": "intercourtTransferBatch",
      "outputs": [],
      "payable": false,
      "stateMutability": "nonpayable",
      "type": "function"
    },
    {
      "constant": false,
      "inputs": [
        {
          "name": "_from",
          "type": "address"
        },
        {
          "name": "_to",
          "type": "address"
        },
        {
          "name": "_id",
          "type": "uint256"
        },
        {
          "name": "_value",
          "type": "uint256"
        },
        {
          "name": "_data",
          "type": "bytes"
        },
        {
          "name": "_courtsPath",
          "type": "uint256[]"
        }
      ],
      "name": "mintFrom",
      "outputs": [],
      "payable": false,
      "stateMutability": "nonpayable",
      "type": "function"
    },
    {
      "constant": false,
      "inputs": [
        {
          "name": "_from",
          "type": "address"
        },
        {
          "name": "_to",
          "type": "address"
        },
        {
          "name": "_ids",
          "type": "uint256[]"
        },
        {
          "name": "_values",
          "type": "uint256[]"
        },
        {
          "name": "_data",
          "type": "bytes"
        },
        {
          "name": "_courtsPath",
          "type": "uint256[]"
        }
      ],
      "name": "batchMintFrom",
      "outputs": [],
      "payable": false,
      "stateMutability": "nonpayable",
      "type": "function"
    },
    {
      "constant": false,
      "inputs": [
        {
          "name": "_from",
          "type": "address"
        },
        {
          "name": "_id",
          "type": "uint256"
        },
        {
          "name": "_value",
          "type": "uint256"
        },
        {
          "name": "_data",
          "type": "bytes"
        }
      ],
      "name": "burnFrom",
      "outputs": [],
      "payable": false,
      "stateMutability": "nonpayable",
      "type": "function"
    },
    {
      "constant": false,
      "inputs": [
        {
          "name": "_from",
          "type": "address"
        },
        {
          "name": "_ids",
          "type": "uint256[]"
        },
        {
          "name": "_values",
          "type": "uint256[]"
        },
        {
          "name": "_data",
          "type": "bytes"
        }
      ],
      "name": "batchBurnFrom",
      "outputs": [],
      "payable": false,
      "stateMutability": "nonpayable",
      "type": "function"
    },
    {
      "constant": true,
      "inputs": [
        {
          "name": "_truster",
          "type": "uint256"
        }
      ],
      "name": "getTrustedCourtsList",
      "outputs": [
        {
          "name": "",
          "type": "uint256[]"
        }
      ],
      "payable": false,
      "stateMutability": "view",
      "type": "function"
    },
    {
      "constant": false,
      "inputs": [
        {
          "name": "_court",
          "type": "uint256"
        },
        {
          "name": "_owner",
          "type": "address"
        }
      ],
      "name": "setOwner",
      "outputs": [],
      "payable": false,
      "stateMutability": "nonpayable",
      "type": "function"
    },
    {
      "constant": false,
      "inputs": [],
      "name": "createCourt",
      "outputs": [
        {
          "name": "_id",
          "type": "uint256"
        }
      ],
      "payable": false,
      "stateMutability": "nonpayable",
      "type": "function"
    },
    {
      "constant": false,
      "inputs": [],
      "name": "createIntercourtToken",
      "outputs": [
        {
          "name": "",
          "type": "uint256"
        }
      ],
      "payable": false,
      "stateMutability": "nonpayable",
      "type": "function"
    },
    {
      "constant": false,
      "inputs": [
        {
          "name": "_truster",
          "type": "uint256"
        },
        {
          "name": "_trustees",
          "type": "uint256[]"
        }
      ],
      "name": "trustCourts",
      "outputs": [],
      "payable": false,
      "stateMutability": "nonpayable",
      "type": "function"
    },
    {
      "constant": false,
      "inputs": [
        {
          "name": "_truster",
          "type": "uint256"
        },
        {
          "name": "_trustees",
          "type": "uint256[]"
        }
      ],
      "name": "untrustCourts",
      "outputs": [],
      "payable": false,
      "stateMutability": "nonpayable",
      "type": "function"
    },
    {
      "constant": false,
      "inputs": [
        {
          "name": "_court",
          "type": "uint256"
        },
        {
          "name": "_intercourtToken",
          "type": "uint256"
        }
      ],
      "name": "_generateTokenId",
      "outputs": [
        {
          "name": "_token",
          "type": "uint256"
        }
      ],
      "payable": false,
      "stateMutability": "nonpayable",
      "type": "function"
    },
    {
      "constant": false,
      "inputs": [
        {
          "name": "_court",
          "type": "uint256"
        },
        {
          "name": "_intercourtToken",
          "type": "uint256"
        }
      ],
      "name": "_uncheckedGenerateTokenId",
      "outputs": [
        {
          "name": "_token",
          "type": "uint256"
        }
      ],
      "payable": false,
      "stateMutability": "nonpayable",
      "type": "function"
    },
    {
      "constant": false,
      "inputs": [
        {
          "name": "_id",
          "type": "uint256"
        }
      ],
      "name": "_getCourt",
      "outputs": [
        {
          "name": "",
          "type": "uint256"
        }
      ],
      "payable": false,
      "stateMutability": "nonpayable",
      "type": "function"
    },
    {
      "constant": false,
      "inputs": [
        {
          "name": "_id",
          "type": "uint256"
        }
      ],
      "name": "_getIntercourtToken",
      "outputs": [
        {
          "name": "",
          "type": "uint256"
        }
      ],
      "payable": false,
      "stateMutability": "nonpayable",
      "type": "function"
    }
  ],
  "bytecode": "0x608060405234801561001057600080fd5b506139b4806100206000396000f30060806040526004361061015d5763ffffffff7c0100000000000000000000000000000000000000000000000000000000600035041662fdd58e811461016257806301ffc9a7146101a5578063149b192d146101f35780632276a84d1461020b57806327c7e5c8146102315780632eb2c2d61461024c5780632f752b9f146102a6578063313ce567146102c15780633ea7cd96146102ec57806347dbe4e8146103045780634b9c669b1461036a5780634e1273f4146103d25780636bd7fa5d146103fe57806371f296881461043f5780637fd39247146104545780638d37a44914610485578063920380eb146104a057806393724905146104f6578063985641e01461050b578063a22cb46514610571578063b4ba8a1e146105a4578063cb0985eb146105e6578063e79390c51461060a578063e985e9c514610625578063f0f1beba14610659578063f242432a146106ab578063faf060d0146106f5575b600080fd5b34801561016e57600080fd5b5061019373ffffffffffffffffffffffffffffffffffffffff6004351660243561074b565b60408051918252519081900360200190f35b3480156101b157600080fd5b506101df7fffffffff000000000000000000000000000000000000000000000000000000006004351661077f565b604080519115158252519081900360200190f35b3480156101ff57600080fd5b50610193600435610874565b34801561021757600080fd5b5061022f60048035906024803590810191013561088b565b005b34801561023d57600080fd5b50610193600435602435610b92565b34801561025857600080fd5b5061022f73ffffffffffffffffffffffffffffffffffffffff600480358216916024803590911691604435808301929082013591606435808301929082013591608435918201910135610bc2565b3480156102b257600080fd5b50610193600435602435610fc8565b3480156102cd57600080fd5b506102d6611020565b6040805160ff9092168252519081900360200190f35b3480156102f857600080fd5b50610193600435611025565b34801561031057600080fd5b5061022f73ffffffffffffffffffffffffffffffffffffffff60048035821691602480359091169160443580830192908201359160643580830192908201359160843580830192908201359160a43591820191013561103a565b34801561037657600080fd5b50610382600435611401565b60408051602080825283518183015283519192839290830191858101910280838360005b838110156103be5781810151838201526020016103a6565b505050509050019250505060405180910390f35b3480156103de57600080fd5b506103826024600480358281019290820135918135918201910135611463565b34801561040a57600080fd5b50610416600435611564565b6040805173ffffffffffffffffffffffffffffffffffffffff9092168252519081900360200190f35b34801561044b57600080fd5b5061019361158c565b34801561046057600080fd5b5061022f60043573ffffffffffffffffffffffffffffffffffffffff602435166115fb565b34801561049157600080fd5b506101df6004356024356116a9565b3480156104ac57600080fd5b5061022f73ffffffffffffffffffffffffffffffffffffffff600480358216916024803590911691604435916064359160843580830192908201359160a4359182019101356116c9565b34801561050257600080fd5b506101936118e1565b34801561051757600080fd5b5061022f73ffffffffffffffffffffffffffffffffffffffff60048035821691602480359091169160443580830192908201359160643580830192908201359160843580830192908201359160a435918201910135611921565b34801561057d57600080fd5b5061022f73ffffffffffffffffffffffffffffffffffffffff600435166024351515611d42565b3480156105b057600080fd5b5061022f6004803573ffffffffffffffffffffffffffffffffffffffff1690602480359160443591606435908101910135611ddb565b3480156105f257600080fd5b5061022f600480359060248035908101910135611f7e565b34801561061657600080fd5b50610193600435602435612231565b34801561063157600080fd5b506101df73ffffffffffffffffffffffffffffffffffffffff6004358116906024351661225d565b34801561066557600080fd5b5061022f6004803573ffffffffffffffffffffffffffffffffffffffff169060248035808201929081013591604435808201929081013591606435908101910135612298565b3480156106b757600080fd5b5061022f73ffffffffffffffffffffffffffffffffffffffff60048035821691602480359091169160443591606435916084359182019101356125a5565b34801561070157600080fd5b5061022f73ffffffffffffffffffffffffffffffffffffffff600480358216916024803590911691604435916064359160843580830192908201359160a43591820191013561280f565b600090815260026020908152604080832073ffffffffffffffffffffffffffffffffffffffff949094168352929052205490565b60007fffffffff0000000000000000000000000000000000000000000000000000000082167f01ffc9a700000000000000000000000000000000000000000000000000000000148061081257507fffffffff0000000000000000000000000000000000000000000000000000000082167fd9b67a2600000000000000000000000000000000000000000000000000000000145b8061085e57507fffffffff0000000000000000000000000000000000000000000000000000000082167f0e89341c00000000000000000000000000000000000000000000000000000000145b1561086b5750600161086f565b5060005b919050565b700100000000000000000000000000000000900490565b60008381526006602052604081205481908190819073ffffffffffffffffffffffffffffffffffffffff16331461092357604080517f08c379a000000000000000000000000000000000000000000000000000000000815260206004820152601660248201527f576520617265206e6f7420636f757274206f776e657200000000000000000000604482015290519081900360640190fd5b600087815260056020526040812054945084935091505b84821015610a3557600086868481811061095057fe5b90506020020135118015610978575060005486868481811061096e57fe5b9050602002013511155b15156109e557604080517f08c379a000000000000000000000000000000000000000000000000000000000815260206004820152601560248201527f436f75727420646f6573206e6f742065786973742e0000000000000000000000604482015290519081900360640190fd5b600087815260046020526040812090878785818110610a0057fe5b602090810292909201358352508101919091526040016000205460ff161515610a2a576001830192505b81600101915061093a565b60008781526005602052604090208390610a4f9082613942565b50600090505b84811015610b3557600087815260046020526040812090878784818110610a7857fe5b602090810292909201358352508101919091526040016000205460ff161515610b2d57858582818110610aa757fe5b905060200201356005600089815260200190815260200160002085806001019650815481101515610ad457fe5b6000918252602080832090910192909255888152600490915260408120600191888885818110610b0057fe5b90506020020135815260200190815260200160002060006101000a81548160ff0219169083151502179055505b600101610a55565b867f01835e37708ef8e93c16d8a37f55b44f532c6dc9bafa814e7af773f271312d7387876040518080602001828103825284848281815260200192506020028082843760405192018290039550909350505050a250505050505050565b600560205281600052604060002081815481101515610bad57fe5b90600052602060002001600091509150505481565b6000808073ffffffffffffffffffffffffffffffffffffffff8a161515610c7057604080517f08c379a000000000000000000000000000000000000000000000000000000000815260206004820152602560248201527f64657374696e6174696f6e2061646472657373206d757374206265206e6f6e2d60448201527f7a65726f2e000000000000000000000000000000000000000000000000000000606482015290519081900360840190fd5b878614610d0457604080517f08c379a000000000000000000000000000000000000000000000000000000000815260206004820152602960248201527f5f69647320616e64205f76616c756573206172726179206c656e677468206d7560448201527f7374206d617463682e0000000000000000000000000000000000000000000000606482015290519081900360840190fd5b73ffffffffffffffffffffffffffffffffffffffff8b16331480610d5d575073ffffffffffffffffffffffffffffffffffffffff8b16600090815260036020908152604080832033845290915290205460ff1615156001145b1515610df057604080517f08c379a000000000000000000000000000000000000000000000000000000000815260206004820152602f60248201527f4e656564206f70657261746f7220617070726f76616c20666f7220337264207060448201527f61727479207472616e73666572732e0000000000000000000000000000000000606482015290519081900360840190fd5b600092505b87831015610e4057888884818110610e0957fe5b9050602002013591508686848181101515610e2057fe5b905060200201359050610e358b8b8484612a7d565b826001019250610df5565b8973ffffffffffffffffffffffffffffffffffffffff168b73ffffffffffffffffffffffffffffffffffffffff163373ffffffffffffffffffffffffffffffffffffffff167f4a39dc06d4c0dbc64b70af90fd698a233a518aa5d07e595d983b8c0526c8f7fb8c8c8c8c6040518080602001806020018381038352878782818152602001925060200280828437909101848103835285815260209081019150869086028082843760405192018290039850909650505050505050a4610f1a8a73ffffffffffffffffffffffffffffffffffffffff16612b3c565b15610fbb57610fbb338c8c8c8c808060200260200160405190810160405280939291908181526020018383602002808284378201915050505050508b8b808060200260200160405190810160405280939291908181526020018383602002808284378201915050505050508a8a8080601f01602080910402602001604051908101604052809392919081815260200183838082843750612b44945050505050565b5050505050505050505050565b600070010000000000000000000000000000000083108015610ffa575070010000000000000000000000000000000082105b151561100557600080fd5b50700100000000000000000000000000000000919091020190565b601281565b6fffffffffffffffffffffffffffffffff1690565b606060008887146110d257604080517f08c379a000000000000000000000000000000000000000000000000000000000815260206004820152603660248201527f5f696e746572636f757274546f6b656e7320616e64205f76616c75657320617260448201527f726179206c656e677468206d757374206d617463682e00000000000000000000606482015290519081900360840190fd5b61116a8c8c8c8c808060200260200160405190810160405280939291908181526020018383602002808284378201915050505050508b8b808060200260200160405190810160405280939291908181526020018383602002808284378201915050505050508a8a8080602002602001604051908101604052809392919081815260200183836020028082843750612e2c945050505050565b60008c73ffffffffffffffffffffffffffffffffffffffff163373ffffffffffffffffffffffffffffffffffffffff167f4a39dc06d4c0dbc64b70af90fd698a233a518aa5d07e595d983b8c0526c8f7fb8d8d8d8d6040518080602001806020018381038352878782818152602001925060200280828437909101848103835285815260209081019150869086028082843760405192018290039850909650505050505050a48a73ffffffffffffffffffffffffffffffffffffffff1660003373ffffffffffffffffffffffffffffffffffffffff167f4a39dc06d4c0dbc64b70af90fd698a233a518aa5d07e595d983b8c0526c8f7fb8d8d8d8d6040518080602001806020018381038352878782818152602001925060200280828437909101848103835285815260209081019150869086028082843760405192018290039850909650505050505050a4604080518a81526020808c028201019091528980156112df578160200160208202803883390190505b509150600090505b81518110156113625761134286867fffffffffffffffffffffffffffffffffffffffffffffffffffffffffffffffff810181811061132157fe5b905060200201358b8b84818110151561133657fe5b90506020020135612231565b828281518110151561135057fe5b602090810290910101526001016112e7565b6113818b73ffffffffffffffffffffffffffffffffffffffff16612b3c565b156113f3576113f3338d8d858c8c8080602002602001604051908101604052809392919081815260200183836020028082843782019150505050505089898080601f01602080910402602001604051908101604052809392919081815260200183838082843750612b44945050505050565b505050505050505050505050565b60008181526005602090815260409182902080548351818402810184019094528084526060939283018282801561145757602002820191906000526020600020905b815481526020019060010190808311611443575b50505050509050919050565b606080600085841461147457600080fd5b60408051878152602080890282010190915286801561149d578160200160208202803883390190505b509150600090505b8581101561155a57600260008686848181106114bd57fe5b905060200201358152602001908152602001600020600088888481811015156114e257fe5b9050602002013573ffffffffffffffffffffffffffffffffffffffff1673ffffffffffffffffffffffffffffffffffffffff1673ffffffffffffffffffffffffffffffffffffffff16815260200190815260200160002054828281518110151561154857fe5b602090810290910101526001016114a5565b5095945050505050565b60066020526000908152604090205473ffffffffffffffffffffffffffffffffffffffff1681565b600080546001018082558082526006602052604080832080547fffffffffffffffffffffffff000000000000000000000000000000000000000016339081179091559051919283927f710eef371f5a53fba3ba016ef4d1dcbe6d090be1d240ca0a7f5b6a640cadff589190a390565b60008281526006602052604090205473ffffffffffffffffffffffffffffffffffffffff16331461162b57600080fd5b60008281526006602052604080822080547fffffffffffffffffffffffff00000000000000000000000000000000000000001673ffffffffffffffffffffffffffffffffffffffff85169081179091559051909184917f38b2cbf571fbace074ff0149476c2adcf9c2f47d18bb39f9924473108a47278d9190a35050565b600460209081526000928352604080842090915290825290205460ff1681565b60408051600180825281830190925260609182919060208083019080388339019050509150878260008151811015156116fe57fe5b60209081029091010152604080516001808252818301909252908160200160208202803883390190505090508681600081518110151561173a57fe5b90602001906020020181815250506117828a8a84848a8a8080602002602001604051908101604052809392919081815260200183836020028082843750612e2c945050505050565b600073ffffffffffffffffffffffffffffffffffffffff8b16337fc3d58168c5ae7397731d063d5bbf3d657854427343f4c083240f7aacaa2d0f626117d98a8a868181106117cc57fe5b905060200201358d610fc8565b60408051918252602082018d90528051918290030190a473ffffffffffffffffffffffffffffffffffffffff89166000337fc3d58168c5ae7397731d063d5bbf3d657854427343f4c083240f7aacaa2d0f6261185c8a8a7fffffffffffffffffffffffffffffffffffffffffffffffffffffffffffffffff81018181106117cc57fe5b60408051918252602082018d90528051918290030190a46118928973ffffffffffffffffffffffffffffffffffffffff16612b3c565b156118d5576118d5338b8b8b8b89898080601f016020809104026020016040519081016040528093929190818152602001838380828437506132a7945050505050565b50505050505050505050565b600180548101908190556040516000919081907fdcb245c4b02a51eb30e854a8476b3a4640d7648b4c22af3d710a3b1a2f906c8b908490a28091505b5090565b6000808073ffffffffffffffffffffffffffffffffffffffff8c1615156119cf57604080517f08c379a000000000000000000000000000000000000000000000000000000000815260206004820152602560248201527f64657374696e6174696f6e2061646472657373206d757374206265206e6f6e2d60448201527f7a65726f2e000000000000000000000000000000000000000000000000000000606482015290519081900360840190fd5b898814611a6357604080517f08c379a000000000000000000000000000000000000000000000000000000000815260206004820152602960248201527f5f69647320616e64205f76616c756573206172726179206c656e677468206d7560448201527f7374206d617463682e0000000000000000000000000000000000000000000000606482015290519081900360840190fd5b73ffffffffffffffffffffffffffffffffffffffff8d16331480611abc575073ffffffffffffffffffffffffffffffffffffffff8d16600090815260036020908152604080832033845290915290205460ff1615156001145b1515611b4f57604080517f08c379a000000000000000000000000000000000000000000000000000000000815260206004820152602f60248201527f4e656564206f70657261746f7220617070726f76616c20666f7220337264207060448201527f61727479207472616e73666572732e0000000000000000000000000000000000606482015290519081900360840190fd5b600092505b89831015611bcd578a8a84818110611b6857fe5b9050602002013591508888848181101515611b7f57fe5b905060200201359050611bc28d8d848489898080602002602001604051908101604052809392919081815260200183836020028082843750613513945050505050565b826001019250611b54565b8b73ffffffffffffffffffffffffffffffffffffffff1660003373ffffffffffffffffffffffffffffffffffffffff167f4a39dc06d4c0dbc64b70af90fd698a233a518aa5d07e595d983b8c0526c8f7fb8e8e8e8e6040518080602001806020018381038352878782818152602001925060200280828437909101848103835285815260209081019150869086028082843760405192018290039850909650505050505050a4611c928c73ffffffffffffffffffffffffffffffffffffffff16612b3c565b15611d3357611d33338e8e8e8e808060200260200160405190810160405280939291908181526020018383602002808284378201915050505050508d8d808060200260200160405190810160405280939291908181526020018383602002808284378201915050505050508c8c8080601f01602080910402602001604051908101604052809392919081815260200183838082843750612b44945050505050565b50505050505050505050505050565b33600081815260036020908152604080832073ffffffffffffffffffffffffffffffffffffffff87168085529083529281902080547fffffffffffffffffffffffffffffffffffffffffffffffffffffffffffffff0016861515908117909155815190815290519293927f17307eab39ab6107e8899845ad3d59bd9653f200f220920489ca2b5937696c31929181900390910190a35050565b73ffffffffffffffffffffffffffffffffffffffff8516331480611e34575073ffffffffffffffffffffffffffffffffffffffff8516600090815260036020908152604080832033845290915290205460ff1615156001145b1515611ec757604080517f08c379a000000000000000000000000000000000000000000000000000000000815260206004820152602f60248201527f4e656564206f70657261746f7220617070726f76616c20666f7220337264207060448201527f61727479207472616e73666572732e0000000000000000000000000000000000606482015290519081900360840190fd5b600084815260026020908152604080832073ffffffffffffffffffffffffffffffffffffffff89168452909152902054611f07908463ffffffff6137ae16565b600085815260026020908152604080832073ffffffffffffffffffffffffffffffffffffffff8a16808552908352818420949094558051888152918201879052805192939233927fc3d58168c5ae7397731d063d5bbf3d657854427343f4c083240f7aacaa2d0f6292908290030190a45050505050565b600083815260066020526040812054819073ffffffffffffffffffffffffffffffffffffffff16331461201257604080517f08c379a000000000000000000000000000000000000000000000000000000000815260206004820152601660248201527f576520617265206e6f7420636f757274206f776e657200000000000000000000604482015290519081900360640190fd5b5050600083815260056020526040812054905b828110156121bb57600084848381811061203b57fe5b90506020020135118015612063575060005484848381811061205957fe5b9050602002013511155b15156120d057604080517f08c379a000000000000000000000000000000000000000000000000000000000815260206004820152601560248201527f436f75727420646f6573206e6f742065786973742e0000000000000000000000604482015290519081900360640190fd5b6000858152600460205260408120908585848181106120eb57fe5b602090810292909201358352508101919091526040016000205460ff16156121b35760008581526004602052604081208186868581811061212857fe5b90506020020135815260200190815260200160002060006101000a81548160ff02191690831515021790555060056000868152602001908152602001600020826001900392508281548110151561217b57fe5b906000526020600020015460056000878152602001908152602001600020828154811015156121a657fe5b6000918252602090912001555b600101612025565b600085815260056020526040902082906121d59082613942565b50847f9beb7615ce5f9480ff031ec5ffcec6b73e8409db31266fe0d1dab8ed23c9354885856040518080602001828103825284848281815260200192506020028082843760405192018290039550909350505050a25050505050565b6000821580159061224157508115155b151561224c57600080fd5b6122568383610fc8565b9392505050565b73ffffffffffffffffffffffffffffffffffffffff918216600090815260036020908152604080832093909416825291909152205460ff1690565b6000808087861461233057604080517f08c379a000000000000000000000000000000000000000000000000000000000815260206004820152602960248201527f5f69647320616e64205f76616c756573206172726179206c656e677468206d7560448201527f7374206d617463682e0000000000000000000000000000000000000000000000606482015290519081900360840190fd5b73ffffffffffffffffffffffffffffffffffffffff8a16331480612389575073ffffffffffffffffffffffffffffffffffffffff8a16600090815260036020908152604080832033845290915290205460ff1615156001145b151561241c57604080517f08c379a000000000000000000000000000000000000000000000000000000000815260206004820152602f60248201527f4e656564206f70657261746f7220617070726f76616c20666f7220337264207060448201527f61727479207472616e73666572732e0000000000000000000000000000000000606482015290519081900360840190fd5b600092505b878310156124f35788888481811061243557fe5b905060200201359150868684818110151561244c57fe5b9050602002013590506124b8816002600085815260200190815260200160002060008d73ffffffffffffffffffffffffffffffffffffffff1673ffffffffffffffffffffffffffffffffffffffff168152602001908152602001600020546137ae90919063ffffffff16565b600083815260026020908152604080832073ffffffffffffffffffffffffffffffffffffffff8f168452909152902055600190920191612421565b60008a73ffffffffffffffffffffffffffffffffffffffff163373ffffffffffffffffffffffffffffffffffffffff167f4a39dc06d4c0dbc64b70af90fd698a233a518aa5d07e595d983b8c0526c8f7fb8c8c8c8c6040518080602001806020018381038352878782818152602001925060200280828437909101848103835285815260209081019150869086028082843760405192018290039850909650505050505050a450505050505050505050565b73ffffffffffffffffffffffffffffffffffffffff8516151561262957604080517f08c379a000000000000000000000000000000000000000000000000000000000815260206004820152601560248201527f5f746f206d757374206265206e6f6e2d7a65726f2e0000000000000000000000604482015290519081900360640190fd5b73ffffffffffffffffffffffffffffffffffffffff8616331480612682575073ffffffffffffffffffffffffffffffffffffffff8616600090815260036020908152604080832033845290915290205460ff1615156001145b151561271557604080517f08c379a000000000000000000000000000000000000000000000000000000000815260206004820152602f60248201527f4e656564206f70657261746f7220617070726f76616c20666f7220337264207060448201527f61727479207472616e73666572732e0000000000000000000000000000000000606482015290519081900360840190fd5b61272186868686612a7d565b8473ffffffffffffffffffffffffffffffffffffffff168673ffffffffffffffffffffffffffffffffffffffff163373ffffffffffffffffffffffffffffffffffffffff167fc3d58168c5ae7397731d063d5bbf3d657854427343f4c083240f7aacaa2d0f628787604051808381526020018281526020019250505060405180910390a46127c48573ffffffffffffffffffffffffffffffffffffffff16612b3c565b1561280757612807338787878787878080601f016020809104026020016040519081016040528093929190818152602001838380828437506132a7945050505050565b505050505050565b73ffffffffffffffffffffffffffffffffffffffff8716151561289357604080517f08c379a000000000000000000000000000000000000000000000000000000000815260206004820152601560248201527f5f746f206d757374206265206e6f6e2d7a65726f2e0000000000000000000000604482015290519081900360640190fd5b73ffffffffffffffffffffffffffffffffffffffff88163314806128ec575073ffffffffffffffffffffffffffffffffffffffff8816600090815260036020908152604080832033845290915290205460ff1615156001145b151561297f57604080517f08c379a000000000000000000000000000000000000000000000000000000000815260206004820152602f60248201527f4e656564206f70657261746f7220617070726f76616c20666f7220337264207060448201527f61727479207472616e73666572732e0000000000000000000000000000000000606482015290519081900360840190fd5b6129b98888888886868080602002602001604051908101604052809392919081815260200183836020028082843750613513945050505050565b6040805187815260208101879052815173ffffffffffffffffffffffffffffffffffffffff8a169260009233927fc3d58168c5ae7397731d063d5bbf3d657854427343f4c083240f7aacaa2d0f62929181900390910190a4612a308773ffffffffffffffffffffffffffffffffffffffff16612b3c565b15612a7357612a73338989898989898080601f016020809104026020016040519081016040528093929190818152602001838380828437506132a7945050505050565b5050505050505050565b600082815260026020908152604080832073ffffffffffffffffffffffffffffffffffffffff88168452909152902054612abd908263ffffffff6137ae16565b600083815260026020908152604080832073ffffffffffffffffffffffffffffffffffffffff8981168552925280832093909355851681522054612b02908290613895565b600092835260026020908152604080852073ffffffffffffffffffffffffffffffffffffffff909616855294905292909120919091555050565b6000903b1190565b63bc197c817c0100000000000000000000000000000000000000000000000000000000027bffffffffffffffffffffffffffffffffffffffffffffffffffffffff19168473ffffffffffffffffffffffffffffffffffffffff1663bc197c8188888787876040518663ffffffff167c0100000000000000000000000000000000000000000000000000000000028152600401808673ffffffffffffffffffffffffffffffffffffffff1673ffffffffffffffffffffffffffffffffffffffff1681526020018573ffffffffffffffffffffffffffffffffffffffff1673ffffffffffffffffffffffffffffffffffffffff168152602001806020018060200180602001848103845287818151815260200191508051906020019060200280838360005b83811015612c7f578181015183820152602001612c67565b50505050905001848103835286818151815260200191508051906020019060200280838360005b83811015612cbe578181015183820152602001612ca6565b50505050905001848103825285818151815260200191508051906020019080838360005b83811015612cfa578181015183820152602001612ce2565b50505050905090810190601f168015612d275780820380516001836020036101000a031916815260200191505b5098505050505050505050602060405180830381600087803b158015612d4c57600080fd5b505af1158015612d60573d6000803e3d6000fd5b505050506040513d6020811015612d7657600080fd5b50517fffffffff00000000000000000000000000000000000000000000000000000000161461280757604080517f08c379a000000000000000000000000000000000000000000000000000000000815260206004820152603e60248201527f636f6e74726163742072657475726e656420616e20756e6b6e6f776e2076616c60448201527f75652066726f6d206f6e45524331313535426174636852656365697665640000606482015290519081900360840190fd5b60008080808073ffffffffffffffffffffffffffffffffffffffff89161515612eb657604080517f08c379a000000000000000000000000000000000000000000000000000000000815260206004820152601560248201527f5f746f206d757374206265206e6f6e2d7a65726f2e0000000000000000000000604482015290519081900360640190fd5b8651885114612ec157fe5b85511515612ece57600080fd5b73ffffffffffffffffffffffffffffffffffffffff8a16331480612f27575073ffffffffffffffffffffffffffffffffffffffff8a16600090815260036020908152604080832033845290915290205460ff1615156001145b1515612fba57604080517f08c379a000000000000000000000000000000000000000000000000000000000815260206004820152602f60248201527f4e656564206f70657261746f7220617070726f76616c20666f7220337264207060448201527f61727479207472616e73666572732e0000000000000000000000000000000000606482015290519081900360840190fd5b600094505b60018651038510156130c357600460008787600101815181101515612fe057fe5b9060200190602002015181526020019081526020016000206000878781518110151561300857fe5b602090810290910181015182528101919091526040016000205460ff1615156130b857604080517f08c379a000000000000000000000000000000000000000000000000000000000815260206004820152602d60248201527f4120636f75727420696e207468652070617468206973206e6f7420696e20612060448201527f74727573746564206c6973742e00000000000000000000000000000000000000606482015290519081900360840190fd5b846001019450612fbf565b600093505b87518410156118d55787848151811015156130df57fe5b90602001906020020151925061310d8660008151811015156130fd57fe5b9060200190602002015184612231565b91506131248660018851038151811015156130fd57fe5b90506131a0878581518110151561313757fe5b906020019060200201516002600085815260200190815260200160002060008d73ffffffffffffffffffffffffffffffffffffffff1673ffffffffffffffffffffffffffffffffffffffff168152602001908152602001600020546137ae90919063ffffffff16565b6002600084815260200190815260200160002060008c73ffffffffffffffffffffffffffffffffffffffff1673ffffffffffffffffffffffffffffffffffffffff1681526020019081526020016000208190555061326c6002600083815260200190815260200160002060008b73ffffffffffffffffffffffffffffffffffffffff1673ffffffffffffffffffffffffffffffffffffffff16815260200190815260200160002054888681518110151561325657fe5b602090810290910101519063ffffffff61389516565b600082815260026020908152604080832073ffffffffffffffffffffffffffffffffffffffff8e1684529091529020556001909301926130c8565b63f23a6e617c0100000000000000000000000000000000000000000000000000000000027bffffffffffffffffffffffffffffffffffffffffffffffffffffffff19168473ffffffffffffffffffffffffffffffffffffffff1663f23a6e6188888787876040518663ffffffff167c0100000000000000000000000000000000000000000000000000000000028152600401808673ffffffffffffffffffffffffffffffffffffffff1673ffffffffffffffffffffffffffffffffffffffff1681526020018573ffffffffffffffffffffffffffffffffffffffff1673ffffffffffffffffffffffffffffffffffffffff16815260200184815260200183815260200180602001828103825283818151815260200191508051906020019080838360005b838110156133e35781810151838201526020016133cb565b50505050905090810190601f1680156134105780820380516001836020036101000a031916815260200191505b509650505050505050602060405180830381600087803b15801561343357600080fd5b505af1158015613447573d6000803e3d6000fd5b505050506040513d602081101561345d57600080fd5b50517fffffffff00000000000000000000000000000000000000000000000000000000161461280757604080517f08c379a000000000000000000000000000000000000000000000000000000000815260206004820152603960248201527f636f6e74726163742072657475726e656420616e20756e6b6e6f776e2076616c60448201527f75652066726f6d206f6e45524331313535526563656976656400000000000000606482015290519081900360840190fd5b60008060008061352287610874565b60008181526006602052604090205490945073ffffffffffffffffffffffffffffffffffffffff1633146135b757604080517f08c379a000000000000000000000000000000000000000000000000000000000815260206004820152601260248201527f4e6f74206120636f757274206f776e65722e0000000000000000000000000000604482015290519081900360640190fd5b6135c087611025565b9250600091505b84518210156136a65784828151811015156135de57fe5b60209081029091018101516000818152600483526040808220888352909352919091205490915060ff16151561369b57604080517f08c379a000000000000000000000000000000000000000000000000000000000815260206004820152602d60248201527f4120636f75727420696e207468652070617468206973206e6f7420696e20612060448201527f74727573746564206c6973742e00000000000000000000000000000000000000606482015290519081900360840190fd5b9250600101826135c7565b83158015906136b457508215155b151561372157604080517f08c379a000000000000000000000000000000000000000000000000000000000815260206004820152600e60248201527f496e76616c696420746f6b656e2e000000000000000000000000000000000000604482015290519081900360640190fd5b61372b8484612231565b600081815260026020908152604080832073ffffffffffffffffffffffffffffffffffffffff8d16845290915290205490975061376f90879063ffffffff61389516565b6000978852600260209081526040808a2073ffffffffffffffffffffffffffffffffffffffff909b168a52999052979096209690965550505050505050565b60408051808201909152601281527f4d4154485f5355425f554e444552464c4f570000000000000000000000000000602082015260009081908484111561388d576040517f08c379a00000000000000000000000000000000000000000000000000000000081526004018080602001828103825283818151815260200191508051906020019080838360005b8381101561385257818101518382015260200161383a565b50505050905090810190601f16801561387f5780820380516001836020036101000a031916815260200191505b509250505060405180910390fd5b505050900390565b60408051808201909152601181527f4d4154485f4144445f4f564552464c4f570000000000000000000000000000006020820152600090838301908482101561393a576040517f08c379a00000000000000000000000000000000000000000000000000000000081526004018080602001828103825283818151815260200191508051906020019080838360008381101561385257818101518382015260200161383a565b509392505050565b8154818355818111156139665760008381526020902061396691810190830161396b565b505050565b61398591905b8082111561191d5760008155600101613971565b905600a165627a7a723058200790bc98724d672e2b365be7594f09da7376d557f8e337aa067f284a96ad46da0029",
  "source": "pragma solidity ^0.4.0;\n\nimport \"@aragon/os/contracts/lib/math/SafeMath.sol\";\nimport \"./Address.sol\";\nimport \"./Common.sol\";\nimport \"./IERC1155TokenReceiver.sol\";\nimport \"./IERC1155.sol\";\n\ncontract RewardCourts is IERC1155, ERC165, CommonConstants\n{\n    using SafeMath for uint256;\n    using Address for address;\n    \n    uint8 public constant decimals = 18;\n\n    uint256 internal courtNonce;\n    uint256 internal icTokenNonce;\n\n    // token => (owner => balance)\n    mapping (uint256 => mapping(address => uint256)) internal balances;\n\n    // owner => (operator => approved)\n    mapping (address => mapping(address => bool)) internal operatorApproval;\n    \n    // token => (owner => spentLimit)\n    //mapping (address => mapping (address => uint256)) public spentLimit; // It is better done in the wrapper (voting) contract.\n    \n    // truster => (trustee => bool)\n    mapping (uint256 => mapping (uint256 => bool)) public trustedCourts; // which courts are trusted\n    \n    // truster => trustees[]\n    mapping (uint256 => uint256[]) public trustedCourtsList;\n    \n    // token => court\n    //mapping (address => uint256) public tokenControllingCourts;\n\n    // token => intercourt token\n    //mapping (address => uint256) public interCourtTokens;\n    \n    // court ID => owner\n    mapping (uint256 => address) public courtOwners;\n\n    event CourtCreated(address indexed owner, uint256 indexed createdCourt);\n    event IntercourtTokenCreated(uint256 indexed ictoken);\n    event SetOwner(uint256 indexed court, address indexed owner);\n    event TrustCourts(uint256 indexed truster, uint256[] trustees);\n    event UntrustCourts(uint256 indexed truster, uint256[] trustees);\n\n/////////////////////////////////////////// ERC165 //////////////////////////////////////////////\n\n    /*\n        bytes4(keccak256('supportsInterface(bytes4)'));\n    */\n    bytes4 constant private INTERFACE_SIGNATURE_ERC165 = 0x01ffc9a7;\n\n    /*\n        bytes4(keccak256(\"safeTransferFrom(address,address,uint256,uint256,bytes)\")) ^\n        bytes4(keccak256(\"safeBatchTransferFrom(address,address,uint256[],uint256[],bytes)\")) ^\n        bytes4(keccak256(\"balanceOf(address,uint256)\")) ^\n        bytes4(keccak256(\"balanceOfBatch(address[],uint256[])\")) ^\n        bytes4(keccak256(\"setApprovalForAll(address,bool)\")) ^\n        bytes4(keccak256(\"isApprovedForAll(address,address)\"));\n    */\n    bytes4 constant private INTERFACE_SIGNATURE_ERC1155 = 0xd9b67a26;\n\n    bytes4 constant private INTERFACE_SIGNATURE_URI = 0x0e89341c;\n    \n    function supportsInterface(bytes4 _interfaceId)\n    public\n    view\n    returns (bool) {\n         if (_interfaceId == INTERFACE_SIGNATURE_ERC165 ||\n             _interfaceId == INTERFACE_SIGNATURE_ERC1155 ||\n             _interfaceId == INTERFACE_SIGNATURE_URI) {\n            return true;\n         }\n\n         return false;\n    }\n\n/////////////////////////////////////////// ERC1155 //////////////////////////////////////////////\n\n    /**\n        @notice Transfers `_value` amount of an `_id` from the `_from` address to the `_to` address specified (with safety call).\n        @dev Caller must be approved to manage the tokens being transferred out of the `_from` account (see \"Approval\" section of the standard).\n        MUST revert if `_to` is the zero address.\n        MUST revert if balance of holder for token `_id` is lower than the `_value` sent.\n        MUST revert on any other error.\n        MUST emit the `TransferSingle` event to reflect the balance change (see \"Safe Transfer Rules\" section of the standard).\n        After the above conditions are met, this function MUST check if `_to` is a smart contract (e.g. code size > 0). If so, it MUST call `onERC1155Received` on `_to` and act appropriately (see \"Safe Transfer Rules\" section of the standard).\n        @param _from    Source address\n        @param _to      Target address\n        @param _id      ID of the token type\n        @param _value   Transfer amount\n        @param _data    Additional data with no specified format, MUST be sent unaltered in call to `onERC1155Received` on `_to`\n    */\n    function safeTransferFrom(address _from, address _to, uint256 _id, uint256 _value, bytes _data) external {\n\n        require(_to != address(0x0), \"_to must be non-zero.\");\n        require(_from == msg.sender || operatorApproval[_from][msg.sender] == true, \"Need operator approval for 3rd party transfers.\");\n\n        _doSafeTransferFrom(_from, _to, _id, _value);\n\n        // MUST emit event\n        emit TransferSingle(msg.sender, _from, _to, _id, _value);\n\n        // Now that the balance is updated and the event was emitted,\n        // call onERC1155Received if the destination is a contract.\n        if (_to.isContract()) {\n            _doSafeTransferAcceptanceCheck(msg.sender, _from, _to, _id, _value, _data);\n        }\n    }\n\n    /**\n        @notice Transfers `_values` amount(s) of `_ids` from the `_from` address to the `_to` address specified (with safety call).\n        @dev Caller must be approved to manage the tokens being transferred out of the `_from` account (see \"Approval\" section of the standard).\n        MUST revert if `_to` is the zero address.\n        MUST revert if length of `_ids` is not the same as length of `_values`.\n        MUST revert if any of the balance(s) of the holder(s) for token(s) in `_ids` is lower than the respective amount(s) in `_values` sent to the recipient.\n        MUST revert on any other error.\n        MUST emit `TransferSingle` or `TransferBatch` event(s) such that all the balance changes are reflected (see \"Safe Transfer Rules\" section of the standard).\n        Balance changes and events MUST follow the ordering of the arrays (_ids[0]/_values[0] before _ids[1]/_values[1], etc).\n        After the above conditions for the transfer(s) in the batch are met, this function MUST check if `_to` is a smart contract (e.g. code size > 0). If so, it MUST call the relevant `ERC1155TokenReceiver` hook(s) on `_to` and act appropriately (see \"Safe Transfer Rules\" section of the standard).\n        @param _from    Source address\n        @param _to      Target address\n        @param _ids     IDs of each token type (order and length must match _values array)\n        @param _values  Transfer amounts per token type (order and length must match _ids array)\n        @param _data    Additional data with no specified format, MUST be sent unaltered in call to the `ERC1155TokenReceiver` hook(s) on `_to`\n    */\n    function safeBatchTransferFrom(address _from, address _to, uint256[] _ids, uint256[] _values, bytes _data) external {\n\n        // MUST Throw on errors\n        require(_to != address(0x0), \"destination address must be non-zero.\");\n        require(_ids.length == _values.length, \"_ids and _values array length must match.\");\n        require(_from == msg.sender || operatorApproval[_from][msg.sender] == true, \"Need operator approval for 3rd party transfers.\");\n\n        for (uint256 i = 0; i < _ids.length; ++i) {\n            uint256 _id = _ids[i];\n            uint256 _value = _values[i];\n\n            _doSafeTransferFrom(_from, _to, _id, _value);\n        }\n\n        // Note: instead of the below batch versions of event and acceptance check you MAY have emitted a TransferSingle\n        // event and a subsequent call to _doSafeTransferAcceptanceCheck in above loop for each balance change instead.\n        // Or emitted a TransferSingle event for each in the loop and then the single _doSafeBatchTransferAcceptanceCheck below.\n        // However it is implemented the balance changes and events MUST match when a check (i.e. calling an external contract) is done.\n\n        // MUST emit event\n        emit TransferBatch(msg.sender, _from, _to, _ids, _values);\n\n        // Now that the balances are updated and the events are emitted,\n        // call onERC1155BatchReceived if the destination is a contract.\n        if (_to.isContract()) {\n            _doSafeBatchTransferAcceptanceCheck(msg.sender, _from, _to, _ids, _values, _data);\n        }\n    }\n\n    /**\n        @notice Get the balance of an account's Tokens.\n        @param _owner  The address of the token holder\n        @param _id     ID of the Token\n        @return        The _owner's balance of the Token type requested\n     */\n    function balanceOf(address _owner, uint256 _id) external view returns (uint256) {\n        // The balance of any account can be calculated from the Transfer events history.\n        // However, since we need to keep the balances to validate transfer request,\n        // there is no extra cost to also privide a querry function.\n        return balances[_id][_owner];\n    }\n\n\n    /**\n        @notice Get the balance of multiple account/token pairs\n        @param _owners The addresses of the token holders\n        @param _ids    ID of the Tokens\n        @return        The _owner's balance of the Token types requested (i.e. balance for each (owner, id) pair)\n     */\n    function balanceOfBatch(address[] _owners, uint256[] _ids) external view returns (uint256[] memory) {\n\n        require(_owners.length == _ids.length);\n\n        uint256[] memory balances_ = new uint256[](_owners.length);\n\n        for (uint256 i = 0; i < _owners.length; ++i) {\n            balances_[i] = balances[_ids[i]][_owners[i]];\n        }\n\n        return balances_;\n    }\n\n    /**\n        @notice Enable or disable approval for a third party (\"operator\") to manage all of the caller's tokens.\n        @dev MUST emit the ApprovalForAll event on success.\n        @param _operator  Address to add to the set of authorized operators\n        @param _approved  True if the operator is approved, false to revoke approval\n    */\n    function setApprovalForAll(address _operator, bool _approved) external {\n        operatorApproval[msg.sender][_operator] = _approved;\n        emit ApprovalForAll(msg.sender, _operator, _approved);\n    }\n\n    /**\n        @notice Queries the approval status of an operator for a given owner.\n        @param _owner     The owner of the Tokens\n        @param _operator  Address of authorized operator\n        @return           True if the operator is approved, false if not\n    */\n    function isApprovedForAll(address _owner, address _operator) external view returns (bool) {\n        return operatorApproval[_owner][_operator];\n    }\n\n/////////////////////////////////////////// Court //////////////////////////////////////////////\n\n    /// Transfer through Multiple Courts ///\n\n    /**\n        @notice Transfer money through several courts with automatic currency conversion between court tokens.\n        @param _from    Source address\n        @param _to      Target address\n        @param _intercourtToken Intercourt token\n        @param _value   Transfer amount\n        @param _courtsPath Through which courts to transfer\n        @param _data    Additional data with no specified format, MUST be sent unaltered in call to `onERC1155Received` on `_to`\n    */\n    function intercourtTransfer(address _from, address _to, uint256 _intercourtToken, uint256 _value, uint256[] _courtsPath, bytes _data) external {\n        uint256[] memory _ids = new uint256[](1);\n        _ids[0] = _intercourtToken;\n        uint256[] memory _values = new uint256[](1);\n        _values[0] = _value;\n        _doIntercourtTransferBatch(_from, _to, _ids, _values, _courtsPath);\n\n        // Using _uncheckedGenerateTokenId because already checked in _doIntercourtTransferBatch().\n        emit TransferSingle(msg.sender, _from, 0x0, _uncheckedGenerateTokenId(_courtsPath[0], _intercourtToken), _value);\n        emit TransferSingle(msg.sender, 0x0, _to, _uncheckedGenerateTokenId(_courtsPath[_courtsPath.length - 1], _intercourtToken), _value);\n\n        // Now that the balance is updated and the event was emitted,\n        // call onERC1155Received if the destination is a contract.\n        if (_to.isContract()) {\n            _doSafeTransferAcceptanceCheck(msg.sender, _from, _to, _intercourtToken, _value, _data);\n        }\n    }\n\n    /**\n        @notice Transfer money through several courts with automatic currency conversion between court tokens.\n        @param _from    Source address\n        @param _to      Target address\n        @param _intercourtTokens Intercourt tokens (order and length must match _values array)\n        @param _values  Transfer amounts per token type (order and length must match _intercourtTokens array)\n        @param _courtsPath Through which courts to transfer\n        @param _data    Additional data with no specified format, MUST be sent unaltered in call to `onERC1155Received` on `_to`\n    */\n    function intercourtTransferBatch(address _from, address _to, uint256[] _intercourtTokens, uint256[] _values, uint256[] _courtsPath, bytes _data) external {\n        require(_intercourtTokens.length == _values.length, \"_intercourtTokens and _values array length must match.\");\n\n        _doIntercourtTransferBatch(_from, _to, _intercourtTokens, _values, _courtsPath);\n\n        emit TransferBatch(msg.sender, _from, 0x0, _intercourtTokens, _values);\n        emit TransferBatch(msg.sender, 0x0, _to, _intercourtTokens, _values);\n\n        uint256[] memory _ids = new uint256[](_intercourtTokens.length);\n        for (uint i = 0; i < _ids.length; ++i) {\n            _ids[i] = _generateTokenId(_courtsPath[_courtsPath.length - 1], _intercourtTokens[i]);\n        }\n        \n        // Now that the balances are updated and the events are emitted,\n        // call onERC1155BatchReceived if the destination is a contract.\n        if (_to.isContract()) {\n            _doSafeBatchTransferAcceptanceCheck(msg.sender, _from, _to, _ids, _values, _data);\n        }\n    }\n\n/////////////////////////////////////////// Minting //////////////////////////////////////////////\n\n    /**\n        @notice Mints `_value` amount of an `_id` from the `_from` address to the `_to` address specified (with safety call).\n        @dev Caller must be approved to manage the tokens being transferred out of the `_from` account (see \"Approval\" section of the standard).\n        MUST revert if `_to` is the zero address.\n        MUST revert on any other error.\n        MUST emit the `TransferSingle` event to reflect the balance change.\n        After the above conditions are met, this function MUST check if `_to` is a smart contract (e.g. code size > 0). If so, it MUST call `onERC1155Received` on `_to` and act appropriately (see \"Safe Transfer Rules\" section of the standard).\n        @param _from    Source address\n        @param _to      Target address\n        @param _id      ID of the token type\n        @param _value   Transfer amount\n        @param _data    Additional data with no specified format, MUST be sent unaltered in call to `onERC1155Received` on `_to`\n        @param _courtsPath Mint for trusters (`[]` to mint for ourservers)\n    */\n    function mintFrom(address _from, address _to, uint256 _id, uint256 _value, bytes _data, uint256[] _courtsPath) external {\n\n        require(_to != address(0x0), \"_to must be non-zero.\");\n        require(_from == msg.sender || operatorApproval[_from][msg.sender] == true, \"Need operator approval for 3rd party transfers.\");\n\n        _doMintFrom(_from, _to, _id, _value, _courtsPath);\n\n        // MUST emit event\n        emit TransferSingle(msg.sender, 0x0, _to, _id, _value);\n\n        // Now that the balance is updated and the event was emitted,\n        // call onERC1155Received if the destination is a contract.\n        if (_to.isContract()) {\n            _doSafeTransferAcceptanceCheck(msg.sender, _from, _to, _id, _value, _data);\n        }\n    }\n\n    /**\n        @notice Mints `_values` amount(s) of `_ids` from the `_from` address to the `_to` address specified (with safety call).\n        @dev Caller must be approved to manage the tokens being transferred out of the `_from` account (see \"Approval\" section of the standard).\n        MUST revert if `_to` is the zero address.\n        MUST revert if length of `_ids` is not the same as length of `_values`.\n        MUST revert on any other error.\n        MUST emit `TransferSingle` or `TransferBatch` event(s) such that all the balance changes are reflected.\n        Balance changes and events MUST follow the ordering of the arrays (_ids[0]/_values[0] before _ids[1]/_values[1], etc).\n        After the above conditions for the transfer(s) in the batch are met, this function MUST check if `_to` is a smart contract (e.g. code size > 0). If so, it MUST call the relevant `ERC1155TokenReceiver` hook(s) on `_to` and act appropriately (see \"Safe Transfer Rules\" section of the standard).\n        @param _from    Source address\n        @param _to      Target address\n        @param _ids     IDs of each token type (order and length must match _values array)\n        @param _values  Transfer amounts per token type (order and length must match _ids array)\n        @param _data    Additional data with no specified format, MUST be sent unaltered in call to the `ERC1155TokenReceiver` hook(s) on `_to`\n        @param _courtsPath Mint for trusters (`[]` to mint for ourservers)\n    */\n    function batchMintFrom(address _from, address _to, uint256[] _ids, uint256[] _values, bytes _data, uint256[] _courtsPath) external {\n\n        // MUST Throw on errors\n        require(_to != address(0x0), \"destination address must be non-zero.\");\n        require(_ids.length == _values.length, \"_ids and _values array length must match.\");\n        require(_from == msg.sender || operatorApproval[_from][msg.sender] == true, \"Need operator approval for 3rd party transfers.\");\n\n        for (uint256 i = 0; i < _ids.length; ++i) {\n            uint256 _id = _ids[i];\n            uint256 _value = _values[i];\n\n            _doMintFrom(_from, _to, _id, _value, _courtsPath);\n        }\n\n        // Note: instead of the below batch versions of event and acceptance check you MAY have emitted a TransferSingle\n        // event and a subsequent call to _doSafeTransferAcceptanceCheck in above loop for each balance change instead.\n        // Or emitted a TransferSingle event for each in the loop and then the single _doSafeBatchTransferAcceptanceCheck below.\n        // However it is implemented the balance changes and events MUST match when a check (i.e. calling an external contract) is done.\n\n        // MUST emit event\n        emit TransferBatch(msg.sender, 0x0, _to, _ids, _values);\n\n        // Now that the balances are updated and the events are emitted,\n        // call onERC1155BatchReceived if the destination is a contract.\n        if (_to.isContract()) {\n            _doSafeBatchTransferAcceptanceCheck(msg.sender, _from, _to, _ids, _values, _data);\n        }\n    }\n\n/////////////////////////////////////////// Burning //////////////////////////////////////////////\n\n    /**\n        @notice Burns `_value` amount of an `_id` from the `_from` address specified (with safety call).\n        @dev Caller must be approved to manage the tokens being transferred out of the `_from` account (see \"Approval\" section of the standard).\n        MUST revert on any other error.\n        MUST emit the `TransferSingle` event to reflect the balance change.\n        @param _from    Source address\n        @param _id      ID of the token type\n        @param _value   Transfer amount\n        @param _data    Additional data with no specified format, MUST be sent unaltered in call to `onERC1155Received` on `_to`\n    */\n    function burnFrom(address _from, uint256 _id, uint256 _value, bytes _data) external {\n\n        require(_from == msg.sender || operatorApproval[_from][msg.sender] == true, \"Need operator approval for 3rd party transfers.\");\n\n        balances[_id][_from] = balances[_id][_from].sub(_value);\n\n        // MUST emit event\n        emit TransferSingle(msg.sender, _from, 0x0, _id, _value);\n    }\n\n    /**\n        @notice Burns `_values` amount(s) of `_ids` from the `_from` address specified (with safety call).\n        @dev Caller must be approved to manage the tokens being transferred out of the `_from` account (see \"Approval\" section of the standard).\n        MUST revert if length of `_ids` is not the same as length of `_values`.\n        MUST revert on any other error.\n        MUST emit `TransferSingle` or `TransferBatch` event(s) such that all the balance changes are reflected.\n        Balance changes and events MUST follow the ordering of the arrays (_ids[0]/_values[0] before _ids[1]/_values[1], etc).\n        @param _from    Source address\n        @param _ids     IDs of each token type (order and length must match _values array)\n        @param _values  Transfer amounts per token type (order and length must match _ids array)\n        @param _data    Additional data with no specified format, MUST be sent unaltered in call to the `ERC1155TokenReceiver` hook(s) on `_to`\n    */\n    function batchBurnFrom(address _from, uint256[] _ids, uint256[] _values, bytes _data) external {\n\n        // MUST Throw on errors\n        require(_ids.length == _values.length, \"_ids and _values array length must match.\");\n        require(_from == msg.sender || operatorApproval[_from][msg.sender] == true, \"Need operator approval for 3rd party transfers.\");\n\n        for (uint256 i = 0; i < _ids.length; ++i) {\n            uint256 _id = _ids[i];\n            uint256 _value = _values[i];\n\n            balances[_id][_from] = balances[_id][_from].sub(_value);\n        }\n\n        // Note: instead of the below batch versions of event and acceptance check you MAY have emitted a TransferSingle\n        // event and a subsequent call to _doSafeTransferAcceptanceCheck in above loop for each balance change instead.\n        // Or emitted a TransferSingle event for each in the loop and then the single _doSafeBatchTransferAcceptanceCheck below.\n        // However it is implemented the balance changes and events MUST match when a check (i.e. calling an external contract) is done.\n\n        // MUST emit event\n        emit TransferBatch(msg.sender, _from, 0x0, _ids, _values);\n    }\n\n/////////////////////////////////////////// Administrativia //////////////////////////////////////////////\n\n    /**\n        @notice Get `trustedCourtsList` for a court.\n        @param _truster Court\n    */\n    function getTrustedCourtsList(uint256 _truster) public view returns (uint256[]) {\n        return trustedCourtsList[_truster];\n    }\n\n    /**\n        @notice Set court owner.\n        @param _court   Court\n        @param _owner   New owner\n    */\n    function setOwner(uint256 _court, address _owner) external {\n        require(courtOwners[_court] == msg.sender);\n\n        courtOwners[_court] = _owner;\n        emit SetOwner(_court, _owner);\n    }\n\n    /**\n        @notice Create a regular court.\n        @return           Court ID\n    */\n    function createCourt() external returns (uint256 _id) {\n        _id = ++courtNonce;\n        courtOwners[_id] = msg.sender;\n        emit CourtCreated(msg.sender, _id);\n    }\n\n\n    /**\n        @notice Create an intercourt token.\n        @return           Intercourt token\n    */\n    function createIntercourtToken(/*string _uri*/) external returns (uint256) {\n        uint256 _id = ++icTokenNonce;\n        // _id is Intercourt token, not a token\n        // if (bytes(_uri).length > 0)\n        //     emit URI(_uri, _id);\n        emit IntercourtTokenCreated(_id);\n        return _id;\n    }\n\n    // function setURI(string _uri, uint256 _id) external {\n    //     // It's impossible to determine _intercourtToken (unless we store it for every token generated\n    //     // what would be to resource-intensive)\n    //     require(courtOwners[_intercourtToken] == msg.sender); // Also, it is not a court.\n    //     emit URI(_uri, _id);\n    // }\n    \n    /**\n        @notice Trust these courts.\n        @param _truster The truster court\n        @param _trustees The trustee courts to add\n    */\n    function trustCourts(uint256 _truster, uint256[] _trustees) external {\n        require(courtOwners[_truster] == msg.sender, \"We are not court owner\");\n\n        uint _pos = trustedCourtsList[_truster].length; // position to insert\n        uint _newLength = _pos;\n        for (uint i = 0; i < _trustees.length; ++i) {\n            require(_trustees[i] > 0 && _trustees[i] <= courtNonce, \"Court does not exist.\");\n            if (!trustedCourts[_truster][_trustees[i]])\n                _newLength += 1;\n        }\n        \n        trustedCourtsList[_truster].length = _newLength;\n\n        for (uint j = 0; j < _trustees.length; ++j) {\n            if (!trustedCourts[_truster][_trustees[j]]) {\n                trustedCourtsList[_truster][_pos++] = _trustees[j];\n                trustedCourts[_truster][_trustees[j]] = true;\n            }\n        }\n        emit TrustCourts(_truster, _trustees);\n    }\n\n    /**\n        @notice Do not trust these courts anymore.\n        @param _truster The truster court\n        @param _trustees The trustee courts to remove\n    */\n    function untrustCourts(uint256 _truster, uint256[] _trustees) external {\n        require(courtOwners[_truster] == msg.sender, \"We are not court owner\");\n\n        uint max = trustedCourtsList[_truster].length;\n        for (uint i = 0; i < _trustees.length; ++i) {\n            require(_trustees[i] > 0 && _trustees[i] <= courtNonce, \"Court does not exist.\");\n            if (trustedCourts[_truster][_trustees[i]]) {\n                trustedCourts[_truster][_trustees[i]] = false;\n                trustedCourtsList[_truster][i] = trustedCourtsList[_truster][--max];\n            }\n        }\n        trustedCourtsList[_truster].length = max;\n        emit UntrustCourts(_truster, _trustees);\n    }\n\n/////////////////////////////////////////// Internal //////////////////////////////////////////////\n\n    function _doSafeTransferFrom(address _from, address _to, uint256 _id, uint256 _value) private {\n\n        // SafeMath will throw with insufficient funds _from\n        // or if _id is not valid (balance will be 0)\n        balances[_id][_from] = balances[_id][_from].sub(_value);\n        balances[_id][_to]   = _value.add(balances[_id][_to]);\n    }\n\n    function _doMintFrom(address _from, address _to, uint256 _id, uint256 _value, uint256[] _courtsPath) private {\n\n        uint256 _court = _getCourt(_id);\n\n        require(courtOwners[_court] == msg.sender, \"Not a court owner.\");\n\n        uint256 _intercourtToken = _getIntercourtToken(_id);\n        \n        for (uint i = 0; i < _courtsPath.length; ++i) {\n            uint256 _nextCourt = _courtsPath[i];\n            require(trustedCourts[_nextCourt][_court], \"A court in the path is not in a trusted list.\");\n            _court = _nextCourt;\n        }\n    \n        require(_court != 0 && _intercourtToken != 0, \"Invalid token.\");\n\n        _id = _generateTokenId(_court, _intercourtToken);\n        balances[_id][_to] = _value.add(balances[_id][_to]); // SafeMath will throw if overflow\n    }\n\n    function _doSafeTransferAcceptanceCheck(address _operator, address _from, address _to, uint256 _id, uint256 _value, bytes memory _data) internal {\n\n        // If this was a hybrid standards solution you would have to check ERC165(_to).supportsInterface(0x4e2312e0) here but as this is a pure implementation of an ERC-1155 token set as recommended by\n        // the standard, it is not necessary. The below should revert in all failure cases i.e. _to isn't a receiver, or it is and either returns an unknown value or it reverts in the call to indicate non-acceptance.\n\n\n        // Note: if the below reverts in the onERC1155Received function of the _to address you will have an undefined revert reason returned rather than the one in the require test.\n        // If you want predictable revert reasons consider using low level _to.call() style instead so the revert does not bubble up and you can revert yourself on the ERC1155_ACCEPTED test.\n        require(ERC1155TokenReceiver(_to).onERC1155Received(_operator, _from, _id, _value, _data) == ERC1155_ACCEPTED, \"contract returned an unknown value from onERC1155Received\");\n    }\n\n    function _doSafeBatchTransferAcceptanceCheck(address _operator, address _from, address _to, uint256[] memory _ids, uint256[] memory _values, bytes memory _data) internal {\n\n        // If this was a hybrid standards solution you would have to check ERC165(_to).supportsInterface(0x4e2312e0) here but as this is a pure implementation of an ERC-1155 token set as recommended by\n        // the standard, it is not necessary. The below should revert in all failure cases i.e. _to isn't a receiver, or it is and either returns an unknown value or it reverts in the call to indicate non-acceptance.\n\n        // Note: if the below reverts in the onERC1155BatchReceived function of the _to address you will have an undefined revert reason returned rather than the one in the require test.\n        // If you want predictable revert reasons consider using low level _to.call() style instead so the revert does not bubble up and you can revert yourself on the ERC1155_BATCH_ACCEPTED test.\n        require(ERC1155TokenReceiver(_to).onERC1155BatchReceived(_operator, _from, _ids, _values, _data) == ERC1155_BATCH_ACCEPTED, \"contract returned an unknown value from onERC1155BatchReceived\");\n    }\n    \n    function _generateTokenId(uint256 _court, uint256 _intercourtToken) public returns (uint256 _token) {\n        require (_court != 0 && _intercourtToken != 0);\n\n        _token = _uncheckedGenerateTokenId(_court, _intercourtToken);\n    }\n\n    function _uncheckedGenerateTokenId(uint256 _court, uint256 _intercourtToken) public returns (uint256 _token) {\n        require(_court < 1 << 128 && _intercourtToken < 1 << 128);\n\n        return (_court << 128) + _intercourtToken;\n    }\n    \n    function _getCourt(uint256 _id) public returns (uint256) {\n        return _id >> 128;\n    }\n    \n    function _getIntercourtToken(uint256 _id) public returns (uint256) {\n        return _id & ((1 << 128) - 1);\n    }\n    \n    function _doIntercourtTransferBatch(address _from, address _to, uint256[] memory _ids, uint256[] memory _values, uint256[] _courtsPath) internal {\n        require(_to != address(0x0), \"_to must be non-zero.\");\n        assert(_ids.length == _values.length);\n        require(_courtsPath.length != 0);\n        require(_from == msg.sender || operatorApproval[_from][msg.sender] == true, \"Need operator approval for 3rd party transfers.\");\n        //require(checkNoDuplicates(_courtsPath), \"Duplicate courts.\");\n\n        for (uint i = 0; i < _courtsPath.length - 1; ++i) {\n            require(trustedCourts[_courtsPath[i+1]][_courtsPath[i]], \"A court in the path is not in a trusted list.\");\n        }\n\n        for (uint k = 0; k < _ids.length; ++k) {\n            uint256 _intercourtToken = _ids[k];\n            uint256 _fromToken = _generateTokenId(_courtsPath[0], _intercourtToken);\n            uint256 _toToken = _generateTokenId(_courtsPath[_courtsPath.length-1], _intercourtToken);\n            // SafeMath will throw with insufficient funds _from\n            // or if _intercourtToken is not valid (balance will be 0)\n            balances[_fromToken][_from] = balances[_fromToken][_from].sub(_values[k]);\n            balances[_toToken][_to] = _values[k].add(balances[_toToken][_to]);\n        }\n    }\n\n    // function checkNoDuplicates(uint256[] memory _array) private pure returns (bool) {\n    //     for (uint256 i = 1; i < _array.length; ++i) {\n    //         for (uint256 j = 0; j < i; ++j)\n    //             if (_array[i] == _array[j]) return false;\n    //     }\n    //     return true;\n    // }\n}\n",
  "sourcePath": "/home/porton/Projects/courts/contracts/RewardCourts.sol",
  "compiler": {
    "name": "solc",
    "version": "0.4.24+commit.e67f0147.Emscripten.clang"
  },
  "schemaVersion": "3.0.23",
  "updatedAt": "2020-03-08T17:56:45.602Z",
  "devdoc": {
    "methods": {
      "balanceOf(address,uint256)": {
        "params": {
          "_id": "ID of the Token",
          "_owner": "The address of the token holder"
        },
        "return": "The _owner's balance of the Token type requested"
      },
      "balanceOfBatch(address[],uint256[])": {
        "params": {
          "_ids": "ID of the Tokens",
          "_owners": "The addresses of the token holders"
        },
        "return": "The _owner's balance of the Token types requested (i.e. balance for each (owner, id) pair)"
      },
      "batchBurnFrom(address,uint256[],uint256[],bytes)": {
        "details": "Caller must be approved to manage the tokens being transferred out of the `_from` account (see \"Approval\" section of the standard). MUST revert if length of `_ids` is not the same as length of `_values`. MUST revert on any other error. MUST emit `TransferSingle` or `TransferBatch` event(s) such that all the balance changes are reflected. Balance changes and events MUST follow the ordering of the arrays (_ids[0]/_values[0] before _ids[1]/_values[1], etc).",
        "params": {
          "_data": "Additional data with no specified format, MUST be sent unaltered in call to the `ERC1155TokenReceiver` hook(s) on `_to`",
          "_from": "Source address",
          "_ids": "IDs of each token type (order and length must match _values array)",
          "_values": "Transfer amounts per token type (order and length must match _ids array)"
        }
      },
      "batchMintFrom(address,address,uint256[],uint256[],bytes,uint256[])": {
        "details": "Caller must be approved to manage the tokens being transferred out of the `_from` account (see \"Approval\" section of the standard). MUST revert if `_to` is the zero address. MUST revert if length of `_ids` is not the same as length of `_values`. MUST revert on any other error. MUST emit `TransferSingle` or `TransferBatch` event(s) such that all the balance changes are reflected. Balance changes and events MUST follow the ordering of the arrays (_ids[0]/_values[0] before _ids[1]/_values[1], etc). After the above conditions for the transfer(s) in the batch are met, this function MUST check if `_to` is a smart contract (e.g. code size > 0). If so, it MUST call the relevant `ERC1155TokenReceiver` hook(s) on `_to` and act appropriately (see \"Safe Transfer Rules\" section of the standard).",
        "params": {
          "_courtsPath": "Mint for trusters (`[]` to mint for ourservers)",
          "_data": "Additional data with no specified format, MUST be sent unaltered in call to the `ERC1155TokenReceiver` hook(s) on `_to`",
          "_from": "Source address",
          "_ids": "IDs of each token type (order and length must match _values array)",
          "_to": "Target address",
          "_values": "Transfer amounts per token type (order and length must match _ids array)"
        }
      },
      "burnFrom(address,uint256,uint256,bytes)": {
        "details": "Caller must be approved to manage the tokens being transferred out of the `_from` account (see \"Approval\" section of the standard). MUST revert on any other error. MUST emit the `TransferSingle` event to reflect the balance change.",
        "params": {
          "_data": "Additional data with no specified format, MUST be sent unaltered in call to `onERC1155Received` on `_to`",
          "_from": "Source address",
          "_id": "ID of the token type",
          "_value": "Transfer amount"
        }
      },
      "createCourt()": {
        "return": "Court ID"
      },
      "createIntercourtToken()": {
        "return": "Intercourt token"
      },
      "getTrustedCourtsList(uint256)": {
        "params": {
          "_truster": "Court"
        }
      },
      "intercourtTransfer(address,address,uint256,uint256,uint256[],bytes)": {
        "params": {
          "_courtsPath": "Through which courts to transfer",
          "_data": "Additional data with no specified format, MUST be sent unaltered in call to `onERC1155Received` on `_to`",
          "_from": "Source address",
          "_intercourtToken": "Intercourt token",
          "_to": "Target address",
          "_value": "Transfer amount"
        }
      },
      "intercourtTransferBatch(address,address,uint256[],uint256[],uint256[],bytes)": {
        "params": {
          "_courtsPath": "Through which courts to transfer",
          "_data": "Additional data with no specified format, MUST be sent unaltered in call to `onERC1155Received` on `_to`",
          "_from": "Source address",
          "_intercourtTokens": "Intercourt tokens (order and length must match _values array)",
          "_to": "Target address",
          "_values": "Transfer amounts per token type (order and length must match _intercourtTokens array)"
        }
      },
      "isApprovedForAll(address,address)": {
        "params": {
          "_operator": "Address of authorized operator",
          "_owner": "The owner of the Tokens"
        },
        "return": "True if the operator is approved, false if not"
      },
      "mintFrom(address,address,uint256,uint256,bytes,uint256[])": {
        "details": "Caller must be approved to manage the tokens being transferred out of the `_from` account (see \"Approval\" section of the standard). MUST revert if `_to` is the zero address. MUST revert on any other error. MUST emit the `TransferSingle` event to reflect the balance change. After the above conditions are met, this function MUST check if `_to` is a smart contract (e.g. code size > 0). If so, it MUST call `onERC1155Received` on `_to` and act appropriately (see \"Safe Transfer Rules\" section of the standard).",
        "params": {
          "_courtsPath": "Mint for trusters (`[]` to mint for ourservers)",
          "_data": "Additional data with no specified format, MUST be sent unaltered in call to `onERC1155Received` on `_to`",
          "_from": "Source address",
          "_id": "ID of the token type",
          "_to": "Target address",
          "_value": "Transfer amount"
        }
      },
      "safeBatchTransferFrom(address,address,uint256[],uint256[],bytes)": {
        "details": "Caller must be approved to manage the tokens being transferred out of the `_from` account (see \"Approval\" section of the standard). MUST revert if `_to` is the zero address. MUST revert if length of `_ids` is not the same as length of `_values`. MUST revert if any of the balance(s) of the holder(s) for token(s) in `_ids` is lower than the respective amount(s) in `_values` sent to the recipient. MUST revert on any other error. MUST emit `TransferSingle` or `TransferBatch` event(s) such that all the balance changes are reflected (see \"Safe Transfer Rules\" section of the standard). Balance changes and events MUST follow the ordering of the arrays (_ids[0]/_values[0] before _ids[1]/_values[1], etc). After the above conditions for the transfer(s) in the batch are met, this function MUST check if `_to` is a smart contract (e.g. code size > 0). If so, it MUST call the relevant `ERC1155TokenReceiver` hook(s) on `_to` and act appropriately (see \"Safe Transfer Rules\" section of the standard).",
        "params": {
          "_data": "Additional data with no specified format, MUST be sent unaltered in call to the `ERC1155TokenReceiver` hook(s) on `_to`",
          "_from": "Source address",
          "_ids": "IDs of each token type (order and length must match _values array)",
          "_to": "Target address",
          "_values": "Transfer amounts per token type (order and length must match _ids array)"
        }
      },
      "safeTransferFrom(address,address,uint256,uint256,bytes)": {
        "details": "Caller must be approved to manage the tokens being transferred out of the `_from` account (see \"Approval\" section of the standard). MUST revert if `_to` is the zero address. MUST revert if balance of holder for token `_id` is lower than the `_value` sent. MUST revert on any other error. MUST emit the `TransferSingle` event to reflect the balance change (see \"Safe Transfer Rules\" section of the standard). After the above conditions are met, this function MUST check if `_to` is a smart contract (e.g. code size > 0). If so, it MUST call `onERC1155Received` on `_to` and act appropriately (see \"Safe Transfer Rules\" section of the standard).",
        "params": {
          "_data": "Additional data with no specified format, MUST be sent unaltered in call to `onERC1155Received` on `_to`",
          "_from": "Source address",
          "_id": "ID of the token type",
          "_to": "Target address",
          "_value": "Transfer amount"
        }
      },
      "setApprovalForAll(address,bool)": {
        "details": "MUST emit the ApprovalForAll event on success.",
        "params": {
          "_approved": "True if the operator is approved, false to revoke approval",
          "_operator": "Address to add to the set of authorized operators"
        }
      },
      "setOwner(uint256,address)": {
        "params": {
          "_court": "Court",
          "_owner": "New owner"
        }
      },
      "trustCourts(uint256,uint256[])": {
        "params": {
          "_trustees": "The trustee courts to add",
          "_truster": "The truster court"
        }
      },
      "untrustCourts(uint256,uint256[])": {
        "params": {
          "_trustees": "The trustee courts to remove",
          "_truster": "The truster court"
        }
      }
    }
  },
  "userdoc": {
    "methods": {
      "balanceOf(address,uint256)": {
        "notice": "Get the balance of an account's Tokens."
      },
      "balanceOfBatch(address[],uint256[])": {
        "notice": "Get the balance of multiple account/token pairs"
      },
      "batchBurnFrom(address,uint256[],uint256[],bytes)": {
        "notice": "Burns `_values` amount(s) of `_ids` from the `_from` address specified (with safety call)."
      },
      "batchMintFrom(address,address,uint256[],uint256[],bytes,uint256[])": {
        "notice": "Mints `_values` amount(s) of `_ids` from the `_from` address to the `_to` address specified (with safety call)."
      },
      "burnFrom(address,uint256,uint256,bytes)": {
        "notice": "Burns `_value` amount of an `_id` from the `_from` address specified (with safety call)."
      },
      "createCourt()": {
        "notice": "Create a regular court."
      },
      "createIntercourtToken()": {
        "notice": "Create an intercourt token."
      },
      "getTrustedCourtsList(uint256)": {
        "notice": "Get `trustedCourtsList` for a court."
      },
      "intercourtTransfer(address,address,uint256,uint256,uint256[],bytes)": {
        "notice": "Transfer money through several courts with automatic currency conversion between court tokens."
      },
      "intercourtTransferBatch(address,address,uint256[],uint256[],uint256[],bytes)": {
        "notice": "Transfer money through several courts with automatic currency conversion between court tokens."
      },
      "isApprovedForAll(address,address)": {
        "notice": "Queries the approval status of an operator for a given owner."
      },
      "mintFrom(address,address,uint256,uint256,bytes,uint256[])": {
        "notice": "Mints `_value` amount of an `_id` from the `_from` address to the `_to` address specified (with safety call)."
      },
      "safeBatchTransferFrom(address,address,uint256[],uint256[],bytes)": {
        "notice": "Transfers `_values` amount(s) of `_ids` from the `_from` address to the `_to` address specified (with safety call)."
      },
      "safeTransferFrom(address,address,uint256,uint256,bytes)": {
        "notice": "Transfers `_value` amount of an `_id` from the `_from` address to the `_to` address specified (with safety call)."
      },
      "setApprovalForAll(address,bool)": {
        "notice": "Enable or disable approval for a third party (\"operator\") to manage all of the caller's tokens."
      },
      "setOwner(uint256,address)": {
        "notice": "Set court owner."
      },
      "trustCourts(uint256,uint256[])": {
        "notice": "Trust these courts."
      },
      "untrustCourts(uint256,uint256[])": {
        "notice": "Do not trust these courts anymore."
      }
    }
  }
}