{
  "contractName": "RewardCourts",
  "abi": [
    {
      "constant": true,
      "inputs": [
        {
          "name": "",
          "type": "uint256"
        },
        {
          "name": "",
          "type": "uint256"
        }
      ],
      "name": "trustedCourtsList",
      "outputs": [
        {
          "name": "",
          "type": "uint256"
        }
      ],
      "payable": false,
      "stateMutability": "view",
      "type": "function"
    },
    {
      "constant": true,
      "inputs": [
        {
          "name": "",
          "type": "uint256"
        }
      ],
      "name": "courtOwners",
      "outputs": [
        {
          "name": "",
          "type": "address"
        }
      ],
      "payable": false,
      "stateMutability": "view",
      "type": "function"
    },
    {
      "constant": true,
      "inputs": [
        {
          "name": "",
          "type": "uint256"
        },
        {
          "name": "",
          "type": "uint256"
        }
      ],
      "name": "trustedCourts",
      "outputs": [
        {
          "name": "",
          "type": "bool"
        }
      ],
      "payable": false,
      "stateMutability": "view",
      "type": "function"
    },
    {
      "anonymous": false,
      "inputs": [
        {
          "indexed": true,
          "name": "owner",
          "type": "address"
        },
        {
          "indexed": true,
          "name": "createdCourt",
          "type": "uint256"
        }
      ],
      "name": "CourtCreated",
      "type": "event"
    },
    {
      "anonymous": false,
      "inputs": [
        {
          "indexed": true,
          "name": "ictoken",
          "type": "uint256"
        }
      ],
      "name": "IntercourtTokenCreated",
      "type": "event"
    },
    {
      "anonymous": false,
      "inputs": [
        {
          "indexed": true,
          "name": "court",
          "type": "uint256"
        },
        {
          "indexed": true,
          "name": "owner",
          "type": "address"
        }
      ],
      "name": "SetOwner",
      "type": "event"
    },
    {
      "anonymous": false,
      "inputs": [
        {
          "indexed": true,
          "name": "truster",
          "type": "uint256"
        },
        {
          "indexed": false,
          "name": "trustees",
          "type": "uint256[]"
        }
      ],
      "name": "TrustCourts",
      "type": "event"
    },
    {
      "anonymous": false,
      "inputs": [
        {
          "indexed": true,
          "name": "truster",
          "type": "uint256"
        },
        {
          "indexed": false,
          "name": "trustees",
          "type": "uint256[]"
        }
      ],
      "name": "UntrustCourts",
      "type": "event"
    },
    {
      "anonymous": false,
      "inputs": [
        {
          "indexed": true,
          "name": "_operator",
          "type": "address"
        },
        {
          "indexed": true,
          "name": "_from",
          "type": "address"
        },
        {
          "indexed": true,
          "name": "_to",
          "type": "address"
        },
        {
          "indexed": false,
          "name": "_id",
          "type": "uint256"
        },
        {
          "indexed": false,
          "name": "_value",
          "type": "uint256"
        }
      ],
      "name": "TransferSingle",
      "type": "event"
    },
    {
      "anonymous": false,
      "inputs": [
        {
          "indexed": true,
          "name": "_operator",
          "type": "address"
        },
        {
          "indexed": true,
          "name": "_from",
          "type": "address"
        },
        {
          "indexed": true,
          "name": "_to",
          "type": "address"
        },
        {
          "indexed": false,
          "name": "_ids",
          "type": "uint256[]"
        },
        {
          "indexed": false,
          "name": "_values",
          "type": "uint256[]"
        }
      ],
      "name": "TransferBatch",
      "type": "event"
    },
    {
      "anonymous": false,
      "inputs": [
        {
          "indexed": true,
          "name": "_owner",
          "type": "address"
        },
        {
          "indexed": true,
          "name": "_operator",
          "type": "address"
        },
        {
          "indexed": false,
          "name": "_approved",
          "type": "bool"
        }
      ],
      "name": "ApprovalForAll",
      "type": "event"
    },
    {
      "anonymous": false,
      "inputs": [
        {
          "indexed": false,
          "name": "_value",
          "type": "string"
        },
        {
          "indexed": true,
          "name": "_id",
          "type": "uint256"
        }
      ],
      "name": "URI",
      "type": "event"
    },
    {
      "constant": true,
      "inputs": [
        {
          "name": "_interfaceId",
          "type": "bytes4"
        }
      ],
      "name": "supportsInterface",
      "outputs": [
        {
          "name": "",
          "type": "bool"
        }
      ],
      "payable": false,
      "stateMutability": "view",
      "type": "function"
    },
    {
      "constant": false,
      "inputs": [
        {
          "name": "_from",
          "type": "address"
        },
        {
          "name": "_to",
          "type": "address"
        },
        {
          "name": "_id",
          "type": "uint256"
        },
        {
          "name": "_value",
          "type": "uint256"
        },
        {
          "name": "_data",
          "type": "bytes"
        }
      ],
      "name": "safeTransferFrom",
      "outputs": [],
      "payable": false,
      "stateMutability": "nonpayable",
      "type": "function"
    },
    {
      "constant": false,
      "inputs": [
        {
          "name": "_from",
          "type": "address"
        },
        {
          "name": "_to",
          "type": "address"
        },
        {
          "name": "_ids",
          "type": "uint256[]"
        },
        {
          "name": "_values",
          "type": "uint256[]"
        },
        {
          "name": "_data",
          "type": "bytes"
        }
      ],
      "name": "safeBatchTransferFrom",
      "outputs": [],
      "payable": false,
      "stateMutability": "nonpayable",
      "type": "function"
    },
    {
      "constant": true,
      "inputs": [
        {
          "name": "_owner",
          "type": "address"
        },
        {
          "name": "_id",
          "type": "uint256"
        }
      ],
      "name": "balanceOf",
      "outputs": [
        {
          "name": "",
          "type": "uint256"
        }
      ],
      "payable": false,
      "stateMutability": "view",
      "type": "function"
    },
    {
      "constant": true,
      "inputs": [
        {
          "name": "_owners",
          "type": "address[]"
        },
        {
          "name": "_ids",
          "type": "uint256[]"
        }
      ],
      "name": "balanceOfBatch",
      "outputs": [
        {
          "name": "",
          "type": "uint256[]"
        }
      ],
      "payable": false,
      "stateMutability": "view",
      "type": "function"
    },
    {
      "constant": false,
      "inputs": [
        {
          "name": "_operator",
          "type": "address"
        },
        {
          "name": "_approved",
          "type": "bool"
        }
      ],
      "name": "setApprovalForAll",
      "outputs": [],
      "payable": false,
      "stateMutability": "nonpayable",
      "type": "function"
    },
    {
      "constant": true,
      "inputs": [
        {
          "name": "_owner",
          "type": "address"
        },
        {
          "name": "_operator",
          "type": "address"
        }
      ],
      "name": "isApprovedForAll",
      "outputs": [
        {
          "name": "",
          "type": "bool"
        }
      ],
      "payable": false,
      "stateMutability": "view",
      "type": "function"
    },
    {
      "constant": false,
      "inputs": [
        {
          "name": "_from",
          "type": "address"
        },
        {
          "name": "_to",
          "type": "address"
        },
        {
          "name": "_intercourtToken",
          "type": "uint256"
        },
        {
          "name": "_value",
          "type": "uint256"
        },
        {
          "name": "_courtsPath",
          "type": "uint256[]"
        },
        {
          "name": "_data",
          "type": "bytes"
        }
      ],
      "name": "intercourtTransfer",
      "outputs": [],
      "payable": false,
      "stateMutability": "nonpayable",
      "type": "function"
    },
    {
      "constant": false,
      "inputs": [
        {
          "name": "_from",
          "type": "address"
        },
        {
          "name": "_to",
          "type": "address"
        },
        {
          "name": "_intercourtTokens",
          "type": "uint256[]"
        },
        {
          "name": "_values",
          "type": "uint256[]"
        },
        {
          "name": "_courtsPath",
          "type": "uint256[]"
        },
        {
          "name": "_data",
          "type": "bytes"
        }
      ],
      "name": "intercourtTransferBatch",
      "outputs": [],
      "payable": false,
      "stateMutability": "nonpayable",
      "type": "function"
    },
    {
      "constant": false,
      "inputs": [
        {
          "name": "_from",
          "type": "address"
        },
        {
          "name": "_to",
          "type": "address"
        },
        {
          "name": "_id",
          "type": "uint256"
        },
        {
          "name": "_value",
          "type": "uint256"
        },
        {
          "name": "_data",
          "type": "bytes"
        },
        {
          "name": "_courtsPath",
          "type": "uint256[]"
        }
      ],
      "name": "mintFrom",
      "outputs": [],
      "payable": false,
      "stateMutability": "nonpayable",
      "type": "function"
    },
    {
      "constant": false,
      "inputs": [
        {
          "name": "_from",
          "type": "address"
        },
        {
          "name": "_to",
          "type": "address"
        },
        {
          "name": "_ids",
          "type": "uint256[]"
        },
        {
          "name": "_values",
          "type": "uint256[]"
        },
        {
          "name": "_data",
          "type": "bytes"
        },
        {
          "name": "_courtsPath",
          "type": "uint256[]"
        }
      ],
      "name": "batchMintFrom",
      "outputs": [],
      "payable": false,
      "stateMutability": "nonpayable",
      "type": "function"
    },
    {
      "constant": false,
      "inputs": [
        {
          "name": "_from",
          "type": "address"
        },
        {
          "name": "_id",
          "type": "uint256"
        },
        {
          "name": "_value",
          "type": "uint256"
        },
        {
          "name": "_data",
          "type": "bytes"
        }
      ],
      "name": "burnFrom",
      "outputs": [],
      "payable": false,
      "stateMutability": "nonpayable",
      "type": "function"
    },
    {
      "constant": false,
      "inputs": [
        {
          "name": "_from",
          "type": "address"
        },
        {
          "name": "_ids",
          "type": "uint256[]"
        },
        {
          "name": "_values",
          "type": "uint256[]"
        },
        {
          "name": "_data",
          "type": "bytes"
        }
      ],
      "name": "batchBurnFrom",
      "outputs": [],
      "payable": false,
      "stateMutability": "nonpayable",
      "type": "function"
    },
    {
      "constant": true,
      "inputs": [
        {
          "name": "_truster",
          "type": "uint256"
        }
      ],
      "name": "getTrustedCourtsList",
      "outputs": [
        {
          "name": "",
          "type": "uint256[]"
        }
      ],
      "payable": false,
      "stateMutability": "view",
      "type": "function"
    },
    {
      "constant": false,
      "inputs": [
        {
          "name": "_court",
          "type": "uint256"
        },
        {
          "name": "_owner",
          "type": "address"
        }
      ],
      "name": "setOwner",
      "outputs": [],
      "payable": false,
      "stateMutability": "nonpayable",
      "type": "function"
    },
    {
      "constant": false,
      "inputs": [],
      "name": "createCourt",
      "outputs": [
        {
          "name": "_id",
          "type": "uint256"
        }
      ],
      "payable": false,
      "stateMutability": "nonpayable",
      "type": "function"
    },
    {
      "constant": false,
      "inputs": [],
      "name": "createIntercourtToken",
      "outputs": [
        {
          "name": "",
          "type": "uint256"
        }
      ],
      "payable": false,
      "stateMutability": "nonpayable",
      "type": "function"
    },
    {
      "constant": false,
      "inputs": [
        {
          "name": "_truster",
          "type": "uint256"
        },
        {
          "name": "_trustees",
          "type": "uint256[]"
        }
      ],
      "name": "trustCourts",
      "outputs": [],
      "payable": false,
      "stateMutability": "nonpayable",
      "type": "function"
    },
    {
      "constant": false,
      "inputs": [
        {
          "name": "_truster",
          "type": "uint256"
        },
        {
          "name": "_trustees",
          "type": "uint256[]"
        }
      ],
      "name": "untrustCourts",
      "outputs": [],
      "payable": false,
      "stateMutability": "nonpayable",
      "type": "function"
    },
    {
      "constant": false,
      "inputs": [
        {
          "name": "_court",
          "type": "uint256"
        },
        {
          "name": "_intercourtToken",
          "type": "uint256"
        }
      ],
      "name": "_generateTokenId",
      "outputs": [
        {
          "name": "_token",
          "type": "uint256"
        }
      ],
      "payable": false,
      "stateMutability": "nonpayable",
      "type": "function"
    },
    {
      "constant": false,
      "inputs": [
        {
          "name": "_court",
          "type": "uint256"
        },
        {
          "name": "_intercourtToken",
          "type": "uint256"
        }
      ],
      "name": "_uncheckedGenerateTokenId",
      "outputs": [
        {
          "name": "_token",
          "type": "uint256"
        }
      ],
      "payable": false,
      "stateMutability": "nonpayable",
      "type": "function"
    },
    {
      "constant": false,
      "inputs": [
        {
          "name": "_id",
          "type": "uint256"
        }
      ],
      "name": "_getCourt",
      "outputs": [
        {
          "name": "",
          "type": "uint256"
        }
      ],
      "payable": false,
      "stateMutability": "nonpayable",
      "type": "function"
    },
    {
      "constant": false,
      "inputs": [
        {
          "name": "_id",
          "type": "uint256"
        }
      ],
      "name": "_getIntercourtToken",
      "outputs": [
        {
          "name": "",
          "type": "uint256"
        }
      ],
      "payable": false,
      "stateMutability": "nonpayable",
      "type": "function"
    }
  ],
  "bytecode": "0x608060405234801561001057600080fd5b50613979806100206000396000f3006080604052600436106101525763ffffffff7c0100000000000000000000000000000000000000000000000000000000600035041662fdd58e811461015757806301ffc9a71461019a578063149b192d146101e85780632276a84d1461020057806327c7e5c8146102265780632eb2c2d6146102415780632f752b9f1461029b5780633ea7cd96146102b657806347dbe4e8146102ce5780634b9c669b146103345780634e1273f41461039c5780636bd7fa5d146103c857806371f29688146104095780637fd392471461041e5780638d37a4491461044f578063920380eb1461046a57806393724905146104c0578063985641e0146104d5578063a22cb4651461053b578063b4ba8a1e1461056e578063cb0985eb146105b0578063e79390c5146105d4578063e985e9c5146105ef578063f0f1beba14610623578063f242432a14610675578063faf060d0146106bf575b600080fd5b34801561016357600080fd5b5061018873ffffffffffffffffffffffffffffffffffffffff60043516602435610715565b60408051918252519081900360200190f35b3480156101a657600080fd5b506101d47fffffffff0000000000000000000000000000000000000000000000000000000060043516610749565b604080519115158252519081900360200190f35b3480156101f457600080fd5b5061018860043561083e565b34801561020c57600080fd5b50610224600480359060248035908101910135610855565b005b34801561023257600080fd5b50610188600435602435610b5c565b34801561024d57600080fd5b5061022473ffffffffffffffffffffffffffffffffffffffff600480358216916024803590911691604435808301929082013591606435808301929082013591608435918201910135610b8c565b3480156102a757600080fd5b50610188600435602435610f92565b3480156102c257600080fd5b50610188600435610fea565b3480156102da57600080fd5b5061022473ffffffffffffffffffffffffffffffffffffffff60048035821691602480359091169160443580830192908201359160643580830192908201359160843580830192908201359160a435918201910135610fff565b34801561034057600080fd5b5061034c6004356113c6565b60408051602080825283518183015283519192839290830191858101910280838360005b83811015610388578181015183820152602001610370565b505050509050019250505060405180910390f35b3480156103a857600080fd5b5061034c6024600480358281019290820135918135918201910135611428565b3480156103d457600080fd5b506103e0600435611529565b6040805173ffffffffffffffffffffffffffffffffffffffff9092168252519081900360200190f35b34801561041557600080fd5b50610188611551565b34801561042a57600080fd5b5061022460043573ffffffffffffffffffffffffffffffffffffffff602435166115c0565b34801561045b57600080fd5b506101d460043560243561166e565b34801561047657600080fd5b5061022473ffffffffffffffffffffffffffffffffffffffff600480358216916024803590911691604435916064359160843580830192908201359160a43591820191013561168e565b3480156104cc57600080fd5b506101886118a6565b3480156104e157600080fd5b5061022473ffffffffffffffffffffffffffffffffffffffff60048035821691602480359091169160443580830192908201359160643580830192908201359160843580830192908201359160a4359182019101356118e6565b34801561054757600080fd5b5061022473ffffffffffffffffffffffffffffffffffffffff600435166024351515611d07565b34801561057a57600080fd5b506102246004803573ffffffffffffffffffffffffffffffffffffffff1690602480359160443591606435908101910135611da0565b3480156105bc57600080fd5b50610224600480359060248035908101910135611f43565b3480156105e057600080fd5b506101886004356024356121f6565b3480156105fb57600080fd5b506101d473ffffffffffffffffffffffffffffffffffffffff60043581169060243516612222565b34801561062f57600080fd5b506102246004803573ffffffffffffffffffffffffffffffffffffffff16906024803580820192908101359160443580820192908101359160643590810191013561225d565b34801561068157600080fd5b5061022473ffffffffffffffffffffffffffffffffffffffff600480358216916024803590911691604435916064359160843591820191013561256a565b3480156106cb57600080fd5b5061022473ffffffffffffffffffffffffffffffffffffffff600480358216916024803590911691604435916064359160843580830192908201359160a4359182019101356127d4565b600090815260026020908152604080832073ffffffffffffffffffffffffffffffffffffffff949094168352929052205490565b60007fffffffff0000000000000000000000000000000000000000000000000000000082167f01ffc9a70000000000000000000000000000000000000000000000000000000014806107dc57507fffffffff0000000000000000000000000000000000000000000000000000000082167fd9b67a2600000000000000000000000000000000000000000000000000000000145b8061082857507fffffffff0000000000000000000000000000000000000000000000000000000082167f0e89341c00000000000000000000000000000000000000000000000000000000145b1561083557506001610839565b5060005b919050565b700100000000000000000000000000000000900490565b60008381526006602052604081205481908190819073ffffffffffffffffffffffffffffffffffffffff1633146108ed57604080517f08c379a000000000000000000000000000000000000000000000000000000000815260206004820152601660248201527f576520617265206e6f7420636f757274206f776e657200000000000000000000604482015290519081900360640190fd5b600087815260056020526040812054945084935091505b848210156109ff57600086868481811061091a57fe5b90506020020135118015610942575060005486868481811061093857fe5b9050602002013511155b15156109af57604080517f08c379a000000000000000000000000000000000000000000000000000000000815260206004820152601560248201527f436f75727420646f6573206e6f742065786973742e0000000000000000000000604482015290519081900360640190fd5b6000878152600460205260408120908787858181106109ca57fe5b602090810292909201358352508101919091526040016000205460ff1615156109f4576001830192505b816001019150610904565b60008781526005602052604090208390610a199082613907565b50600090505b84811015610aff57600087815260046020526040812090878784818110610a4257fe5b602090810292909201358352508101919091526040016000205460ff161515610af757858582818110610a7157fe5b905060200201356005600089815260200190815260200160002085806001019650815481101515610a9e57fe5b6000918252602080832090910192909255888152600490915260408120600191888885818110610aca57fe5b90506020020135815260200190815260200160002060006101000a81548160ff0219169083151502179055505b600101610a1f565b867f01835e37708ef8e93c16d8a37f55b44f532c6dc9bafa814e7af773f271312d7387876040518080602001828103825284848281815260200192506020028082843760405192018290039550909350505050a250505050505050565b600560205281600052604060002081815481101515610b7757fe5b90600052602060002001600091509150505481565b6000808073ffffffffffffffffffffffffffffffffffffffff8a161515610c3a57604080517f08c379a000000000000000000000000000000000000000000000000000000000815260206004820152602560248201527f64657374696e6174696f6e2061646472657373206d757374206265206e6f6e2d60448201527f7a65726f2e000000000000000000000000000000000000000000000000000000606482015290519081900360840190fd5b878614610cce57604080517f08c379a000000000000000000000000000000000000000000000000000000000815260206004820152602960248201527f5f69647320616e64205f76616c756573206172726179206c656e677468206d7560448201527f7374206d617463682e0000000000000000000000000000000000000000000000606482015290519081900360840190fd5b73ffffffffffffffffffffffffffffffffffffffff8b16331480610d27575073ffffffffffffffffffffffffffffffffffffffff8b16600090815260036020908152604080832033845290915290205460ff1615156001145b1515610dba57604080517f08c379a000000000000000000000000000000000000000000000000000000000815260206004820152602f60248201527f4e656564206f70657261746f7220617070726f76616c20666f7220337264207060448201527f61727479207472616e73666572732e0000000000000000000000000000000000606482015290519081900360840190fd5b600092505b87831015610e0a57888884818110610dd357fe5b9050602002013591508686848181101515610dea57fe5b905060200201359050610dff8b8b8484612a42565b826001019250610dbf565b8973ffffffffffffffffffffffffffffffffffffffff168b73ffffffffffffffffffffffffffffffffffffffff163373ffffffffffffffffffffffffffffffffffffffff167f4a39dc06d4c0dbc64b70af90fd698a233a518aa5d07e595d983b8c0526c8f7fb8c8c8c8c6040518080602001806020018381038352878782818152602001925060200280828437909101848103835285815260209081019150869086028082843760405192018290039850909650505050505050a4610ee48a73ffffffffffffffffffffffffffffffffffffffff16612b01565b15610f8557610f85338c8c8c8c808060200260200160405190810160405280939291908181526020018383602002808284378201915050505050508b8b808060200260200160405190810160405280939291908181526020018383602002808284378201915050505050508a8a8080601f01602080910402602001604051908101604052809392919081815260200183838082843750612b09945050505050565b5050505050505050505050565b600070010000000000000000000000000000000083108015610fc4575070010000000000000000000000000000000082105b1515610fcf57600080fd5b50700100000000000000000000000000000000919091020190565b6fffffffffffffffffffffffffffffffff1690565b6060600088871461109757604080517f08c379a000000000000000000000000000000000000000000000000000000000815260206004820152603660248201527f5f696e746572636f757274546f6b656e7320616e64205f76616c75657320617260448201527f726179206c656e677468206d757374206d617463682e00000000000000000000606482015290519081900360840190fd5b61112f8c8c8c8c808060200260200160405190810160405280939291908181526020018383602002808284378201915050505050508b8b808060200260200160405190810160405280939291908181526020018383602002808284378201915050505050508a8a8080602002602001604051908101604052809392919081815260200183836020028082843750612df1945050505050565b60008c73ffffffffffffffffffffffffffffffffffffffff163373ffffffffffffffffffffffffffffffffffffffff167f4a39dc06d4c0dbc64b70af90fd698a233a518aa5d07e595d983b8c0526c8f7fb8d8d8d8d6040518080602001806020018381038352878782818152602001925060200280828437909101848103835285815260209081019150869086028082843760405192018290039850909650505050505050a48a73ffffffffffffffffffffffffffffffffffffffff1660003373ffffffffffffffffffffffffffffffffffffffff167f4a39dc06d4c0dbc64b70af90fd698a233a518aa5d07e595d983b8c0526c8f7fb8d8d8d8d6040518080602001806020018381038352878782818152602001925060200280828437909101848103835285815260209081019150869086028082843760405192018290039850909650505050505050a4604080518a81526020808c028201019091528980156112a4578160200160208202803883390190505b509150600090505b81518110156113275761130786867fffffffffffffffffffffffffffffffffffffffffffffffffffffffffffffffff81018181106112e657fe5b905060200201358b8b8481811015156112fb57fe5b905060200201356121f6565b828281518110151561131557fe5b602090810290910101526001016112ac565b6113468b73ffffffffffffffffffffffffffffffffffffffff16612b01565b156113b8576113b8338d8d858c8c8080602002602001604051908101604052809392919081815260200183836020028082843782019150505050505089898080601f01602080910402602001604051908101604052809392919081815260200183838082843750612b09945050505050565b505050505050505050505050565b60008181526005602090815260409182902080548351818402810184019094528084526060939283018282801561141c57602002820191906000526020600020905b815481526020019060010190808311611408575b50505050509050919050565b606080600085841461143957600080fd5b604080518781526020808902820101909152868015611462578160200160208202803883390190505b509150600090505b8581101561151f576002600086868481811061148257fe5b905060200201358152602001908152602001600020600088888481811015156114a757fe5b9050602002013573ffffffffffffffffffffffffffffffffffffffff1673ffffffffffffffffffffffffffffffffffffffff1673ffffffffffffffffffffffffffffffffffffffff16815260200190815260200160002054828281518110151561150d57fe5b6020908102909101015260010161146a565b5095945050505050565b60066020526000908152604090205473ffffffffffffffffffffffffffffffffffffffff1681565b600080546001018082558082526006602052604080832080547fffffffffffffffffffffffff000000000000000000000000000000000000000016339081179091559051919283927f710eef371f5a53fba3ba016ef4d1dcbe6d090be1d240ca0a7f5b6a640cadff589190a390565b60008281526006602052604090205473ffffffffffffffffffffffffffffffffffffffff1633146115f057600080fd5b60008281526006602052604080822080547fffffffffffffffffffffffff00000000000000000000000000000000000000001673ffffffffffffffffffffffffffffffffffffffff85169081179091559051909184917f38b2cbf571fbace074ff0149476c2adcf9c2f47d18bb39f9924473108a47278d9190a35050565b600460209081526000928352604080842090915290825290205460ff1681565b60408051600180825281830190925260609182919060208083019080388339019050509150878260008151811015156116c357fe5b6020908102909101015260408051600180825281830190925290816020016020820280388339019050509050868160008151811015156116ff57fe5b90602001906020020181815250506117478a8a84848a8a8080602002602001604051908101604052809392919081815260200183836020028082843750612df1945050505050565b600073ffffffffffffffffffffffffffffffffffffffff8b16337fc3d58168c5ae7397731d063d5bbf3d657854427343f4c083240f7aacaa2d0f6261179e8a8a8681811061179157fe5b905060200201358d610f92565b60408051918252602082018d90528051918290030190a473ffffffffffffffffffffffffffffffffffffffff89166000337fc3d58168c5ae7397731d063d5bbf3d657854427343f4c083240f7aacaa2d0f626118218a8a7fffffffffffffffffffffffffffffffffffffffffffffffffffffffffffffffff810181811061179157fe5b60408051918252602082018d90528051918290030190a46118578973ffffffffffffffffffffffffffffffffffffffff16612b01565b1561189a5761189a338b8b8b8b89898080601f0160208091040260200160405190810160405280939291908181526020018383808284375061326c945050505050565b50505050505050505050565b600180548101908190556040516000919081907fdcb245c4b02a51eb30e854a8476b3a4640d7648b4c22af3d710a3b1a2f906c8b908490a28091505b5090565b6000808073ffffffffffffffffffffffffffffffffffffffff8c16151561199457604080517f08c379a000000000000000000000000000000000000000000000000000000000815260206004820152602560248201527f64657374696e6174696f6e2061646472657373206d757374206265206e6f6e2d60448201527f7a65726f2e000000000000000000000000000000000000000000000000000000606482015290519081900360840190fd5b898814611a2857604080517f08c379a000000000000000000000000000000000000000000000000000000000815260206004820152602960248201527f5f69647320616e64205f76616c756573206172726179206c656e677468206d7560448201527f7374206d617463682e0000000000000000000000000000000000000000000000606482015290519081900360840190fd5b73ffffffffffffffffffffffffffffffffffffffff8d16331480611a81575073ffffffffffffffffffffffffffffffffffffffff8d16600090815260036020908152604080832033845290915290205460ff1615156001145b1515611b1457604080517f08c379a000000000000000000000000000000000000000000000000000000000815260206004820152602f60248201527f4e656564206f70657261746f7220617070726f76616c20666f7220337264207060448201527f61727479207472616e73666572732e0000000000000000000000000000000000606482015290519081900360840190fd5b600092505b89831015611b92578a8a84818110611b2d57fe5b9050602002013591508888848181101515611b4457fe5b905060200201359050611b878d8d8484898980806020026020016040519081016040528093929190818152602001838360200280828437506134d8945050505050565b826001019250611b19565b8b73ffffffffffffffffffffffffffffffffffffffff1660003373ffffffffffffffffffffffffffffffffffffffff167f4a39dc06d4c0dbc64b70af90fd698a233a518aa5d07e595d983b8c0526c8f7fb8e8e8e8e6040518080602001806020018381038352878782818152602001925060200280828437909101848103835285815260209081019150869086028082843760405192018290039850909650505050505050a4611c578c73ffffffffffffffffffffffffffffffffffffffff16612b01565b15611cf857611cf8338e8e8e8e808060200260200160405190810160405280939291908181526020018383602002808284378201915050505050508d8d808060200260200160405190810160405280939291908181526020018383602002808284378201915050505050508c8c8080601f01602080910402602001604051908101604052809392919081815260200183838082843750612b09945050505050565b50505050505050505050505050565b33600081815260036020908152604080832073ffffffffffffffffffffffffffffffffffffffff87168085529083529281902080547fffffffffffffffffffffffffffffffffffffffffffffffffffffffffffffff0016861515908117909155815190815290519293927f17307eab39ab6107e8899845ad3d59bd9653f200f220920489ca2b5937696c31929181900390910190a35050565b73ffffffffffffffffffffffffffffffffffffffff8516331480611df9575073ffffffffffffffffffffffffffffffffffffffff8516600090815260036020908152604080832033845290915290205460ff1615156001145b1515611e8c57604080517f08c379a000000000000000000000000000000000000000000000000000000000815260206004820152602f60248201527f4e656564206f70657261746f7220617070726f76616c20666f7220337264207060448201527f61727479207472616e73666572732e0000000000000000000000000000000000606482015290519081900360840190fd5b600084815260026020908152604080832073ffffffffffffffffffffffffffffffffffffffff89168452909152902054611ecc908463ffffffff61377316565b600085815260026020908152604080832073ffffffffffffffffffffffffffffffffffffffff8a16808552908352818420949094558051888152918201879052805192939233927fc3d58168c5ae7397731d063d5bbf3d657854427343f4c083240f7aacaa2d0f6292908290030190a45050505050565b600083815260066020526040812054819073ffffffffffffffffffffffffffffffffffffffff163314611fd757604080517f08c379a000000000000000000000000000000000000000000000000000000000815260206004820152601660248201527f576520617265206e6f7420636f757274206f776e657200000000000000000000604482015290519081900360640190fd5b5050600083815260056020526040812054905b8281101561218057600084848381811061200057fe5b90506020020135118015612028575060005484848381811061201e57fe5b9050602002013511155b151561209557604080517f08c379a000000000000000000000000000000000000000000000000000000000815260206004820152601560248201527f436f75727420646f6573206e6f742065786973742e0000000000000000000000604482015290519081900360640190fd5b6000858152600460205260408120908585848181106120b057fe5b602090810292909201358352508101919091526040016000205460ff1615612178576000858152600460205260408120818686858181106120ed57fe5b90506020020135815260200190815260200160002060006101000a81548160ff02191690831515021790555060056000868152602001908152602001600020826001900392508281548110151561214057fe5b9060005260206000200154600560008781526020019081526020016000208281548110151561216b57fe5b6000918252602090912001555b600101611fea565b6000858152600560205260409020829061219a9082613907565b50847f9beb7615ce5f9480ff031ec5ffcec6b73e8409db31266fe0d1dab8ed23c9354885856040518080602001828103825284848281815260200192506020028082843760405192018290039550909350505050a25050505050565b6000821580159061220657508115155b151561221157600080fd5b61221b8383610f92565b9392505050565b73ffffffffffffffffffffffffffffffffffffffff918216600090815260036020908152604080832093909416825291909152205460ff1690565b600080808786146122f557604080517f08c379a000000000000000000000000000000000000000000000000000000000815260206004820152602960248201527f5f69647320616e64205f76616c756573206172726179206c656e677468206d7560448201527f7374206d617463682e0000000000000000000000000000000000000000000000606482015290519081900360840190fd5b73ffffffffffffffffffffffffffffffffffffffff8a1633148061234e575073ffffffffffffffffffffffffffffffffffffffff8a16600090815260036020908152604080832033845290915290205460ff1615156001145b15156123e157604080517f08c379a000000000000000000000000000000000000000000000000000000000815260206004820152602f60248201527f4e656564206f70657261746f7220617070726f76616c20666f7220337264207060448201527f61727479207472616e73666572732e0000000000000000000000000000000000606482015290519081900360840190fd5b600092505b878310156124b8578888848181106123fa57fe5b905060200201359150868684818110151561241157fe5b90506020020135905061247d816002600085815260200190815260200160002060008d73ffffffffffffffffffffffffffffffffffffffff1673ffffffffffffffffffffffffffffffffffffffff1681526020019081526020016000205461377390919063ffffffff16565b600083815260026020908152604080832073ffffffffffffffffffffffffffffffffffffffff8f1684529091529020556001909201916123e6565b60008a73ffffffffffffffffffffffffffffffffffffffff163373ffffffffffffffffffffffffffffffffffffffff167f4a39dc06d4c0dbc64b70af90fd698a233a518aa5d07e595d983b8c0526c8f7fb8c8c8c8c6040518080602001806020018381038352878782818152602001925060200280828437909101848103835285815260209081019150869086028082843760405192018290039850909650505050505050a450505050505050505050565b73ffffffffffffffffffffffffffffffffffffffff851615156125ee57604080517f08c379a000000000000000000000000000000000000000000000000000000000815260206004820152601560248201527f5f746f206d757374206265206e6f6e2d7a65726f2e0000000000000000000000604482015290519081900360640190fd5b73ffffffffffffffffffffffffffffffffffffffff8616331480612647575073ffffffffffffffffffffffffffffffffffffffff8616600090815260036020908152604080832033845290915290205460ff1615156001145b15156126da57604080517f08c379a000000000000000000000000000000000000000000000000000000000815260206004820152602f60248201527f4e656564206f70657261746f7220617070726f76616c20666f7220337264207060448201527f61727479207472616e73666572732e0000000000000000000000000000000000606482015290519081900360840190fd5b6126e686868686612a42565b8473ffffffffffffffffffffffffffffffffffffffff168673ffffffffffffffffffffffffffffffffffffffff163373ffffffffffffffffffffffffffffffffffffffff167fc3d58168c5ae7397731d063d5bbf3d657854427343f4c083240f7aacaa2d0f628787604051808381526020018281526020019250505060405180910390a46127898573ffffffffffffffffffffffffffffffffffffffff16612b01565b156127cc576127cc338787878787878080601f0160208091040260200160405190810160405280939291908181526020018383808284375061326c945050505050565b505050505050565b73ffffffffffffffffffffffffffffffffffffffff8716151561285857604080517f08c379a000000000000000000000000000000000000000000000000000000000815260206004820152601560248201527f5f746f206d757374206265206e6f6e2d7a65726f2e0000000000000000000000604482015290519081900360640190fd5b73ffffffffffffffffffffffffffffffffffffffff88163314806128b1575073ffffffffffffffffffffffffffffffffffffffff8816600090815260036020908152604080832033845290915290205460ff1615156001145b151561294457604080517f08c379a000000000000000000000000000000000000000000000000000000000815260206004820152602f60248201527f4e656564206f70657261746f7220617070726f76616c20666f7220337264207060448201527f61727479207472616e73666572732e0000000000000000000000000000000000606482015290519081900360840190fd5b61297e88888888868680806020026020016040519081016040528093929190818152602001838360200280828437506134d8945050505050565b6040805187815260208101879052815173ffffffffffffffffffffffffffffffffffffffff8a169260009233927fc3d58168c5ae7397731d063d5bbf3d657854427343f4c083240f7aacaa2d0f62929181900390910190a46129f58773ffffffffffffffffffffffffffffffffffffffff16612b01565b15612a3857612a38338989898989898080601f0160208091040260200160405190810160405280939291908181526020018383808284375061326c945050505050565b5050505050505050565b600082815260026020908152604080832073ffffffffffffffffffffffffffffffffffffffff88168452909152902054612a82908263ffffffff61377316565b600083815260026020908152604080832073ffffffffffffffffffffffffffffffffffffffff8981168552925280832093909355851681522054612ac790829061385a565b600092835260026020908152604080852073ffffffffffffffffffffffffffffffffffffffff909616855294905292909120919091555050565b6000903b1190565b63bc197c817c0100000000000000000000000000000000000000000000000000000000027bffffffffffffffffffffffffffffffffffffffffffffffffffffffff19168473ffffffffffffffffffffffffffffffffffffffff1663bc197c8188888787876040518663ffffffff167c0100000000000000000000000000000000000000000000000000000000028152600401808673ffffffffffffffffffffffffffffffffffffffff1673ffffffffffffffffffffffffffffffffffffffff1681526020018573ffffffffffffffffffffffffffffffffffffffff1673ffffffffffffffffffffffffffffffffffffffff168152602001806020018060200180602001848103845287818151815260200191508051906020019060200280838360005b83811015612c44578181015183820152602001612c2c565b50505050905001848103835286818151815260200191508051906020019060200280838360005b83811015612c83578181015183820152602001612c6b565b50505050905001848103825285818151815260200191508051906020019080838360005b83811015612cbf578181015183820152602001612ca7565b50505050905090810190601f168015612cec5780820380516001836020036101000a031916815260200191505b5098505050505050505050602060405180830381600087803b158015612d1157600080fd5b505af1158015612d25573d6000803e3d6000fd5b505050506040513d6020811015612d3b57600080fd5b50517fffffffff0000000000000000000000000000000000000000000000000000000016146127cc57604080517f08c379a000000000000000000000000000000000000000000000000000000000815260206004820152603e60248201527f636f6e74726163742072657475726e656420616e20756e6b6e6f776e2076616c60448201527f75652066726f6d206f6e45524331313535426174636852656365697665640000606482015290519081900360840190fd5b60008080808073ffffffffffffffffffffffffffffffffffffffff89161515612e7b57604080517f08c379a000000000000000000000000000000000000000000000000000000000815260206004820152601560248201527f5f746f206d757374206265206e6f6e2d7a65726f2e0000000000000000000000604482015290519081900360640190fd5b8651885114612e8657fe5b85511515612e9357600080fd5b73ffffffffffffffffffffffffffffffffffffffff8a16331480612eec575073ffffffffffffffffffffffffffffffffffffffff8a16600090815260036020908152604080832033845290915290205460ff1615156001145b1515612f7f57604080517f08c379a000000000000000000000000000000000000000000000000000000000815260206004820152602f60248201527f4e656564206f70657261746f7220617070726f76616c20666f7220337264207060448201527f61727479207472616e73666572732e0000000000000000000000000000000000606482015290519081900360840190fd5b600094505b600186510385101561308857600460008787600101815181101515612fa557fe5b90602001906020020151815260200190815260200160002060008787815181101515612fcd57fe5b602090810290910181015182528101919091526040016000205460ff16151561307d57604080517f08c379a000000000000000000000000000000000000000000000000000000000815260206004820152602d60248201527f4120636f75727420696e207468652070617468206973206e6f7420696e20612060448201527f74727573746564206c6973742e00000000000000000000000000000000000000606482015290519081900360840190fd5b846001019450612f84565b600093505b875184101561189a5787848151811015156130a457fe5b9060200190602002015192506130d28660008151811015156130c257fe5b90602001906020020151846121f6565b91506130e98660018851038151811015156130c257fe5b905061316587858151811015156130fc57fe5b906020019060200201516002600085815260200190815260200160002060008d73ffffffffffffffffffffffffffffffffffffffff1673ffffffffffffffffffffffffffffffffffffffff1681526020019081526020016000205461377390919063ffffffff16565b6002600084815260200190815260200160002060008c73ffffffffffffffffffffffffffffffffffffffff1673ffffffffffffffffffffffffffffffffffffffff168152602001908152602001600020819055506132316002600083815260200190815260200160002060008b73ffffffffffffffffffffffffffffffffffffffff1673ffffffffffffffffffffffffffffffffffffffff16815260200190815260200160002054888681518110151561321b57fe5b602090810290910101519063ffffffff61385a16565b600082815260026020908152604080832073ffffffffffffffffffffffffffffffffffffffff8e16845290915290205560019093019261308d565b63f23a6e617c0100000000000000000000000000000000000000000000000000000000027bffffffffffffffffffffffffffffffffffffffffffffffffffffffff19168473ffffffffffffffffffffffffffffffffffffffff1663f23a6e6188888787876040518663ffffffff167c0100000000000000000000000000000000000000000000000000000000028152600401808673ffffffffffffffffffffffffffffffffffffffff1673ffffffffffffffffffffffffffffffffffffffff1681526020018573ffffffffffffffffffffffffffffffffffffffff1673ffffffffffffffffffffffffffffffffffffffff16815260200184815260200183815260200180602001828103825283818151815260200191508051906020019080838360005b838110156133a8578181015183820152602001613390565b50505050905090810190601f1680156133d55780820380516001836020036101000a031916815260200191505b509650505050505050602060405180830381600087803b1580156133f857600080fd5b505af115801561340c573d6000803e3d6000fd5b505050506040513d602081101561342257600080fd5b50517fffffffff0000000000000000000000000000000000000000000000000000000016146127cc57604080517f08c379a000000000000000000000000000000000000000000000000000000000815260206004820152603960248201527f636f6e74726163742072657475726e656420616e20756e6b6e6f776e2076616c60448201527f75652066726f6d206f6e45524331313535526563656976656400000000000000606482015290519081900360840190fd5b6000806000806134e78761083e565b60008181526006602052604090205490945073ffffffffffffffffffffffffffffffffffffffff16331461357c57604080517f08c379a000000000000000000000000000000000000000000000000000000000815260206004820152601260248201527f4e6f74206120636f757274206f776e65722e0000000000000000000000000000604482015290519081900360640190fd5b61358587610fea565b9250600091505b845182101561366b5784828151811015156135a357fe5b60209081029091018101516000818152600483526040808220888352909352919091205490915060ff16151561366057604080517f08c379a000000000000000000000000000000000000000000000000000000000815260206004820152602d60248201527f4120636f75727420696e207468652070617468206973206e6f7420696e20612060448201527f74727573746564206c6973742e00000000000000000000000000000000000000606482015290519081900360840190fd5b92506001018261358c565b831580159061367957508215155b15156136e657604080517f08c379a000000000000000000000000000000000000000000000000000000000815260206004820152600e60248201527f496e76616c696420746f6b656e2e000000000000000000000000000000000000604482015290519081900360640190fd5b6136f084846121f6565b600081815260026020908152604080832073ffffffffffffffffffffffffffffffffffffffff8d16845290915290205490975061373490879063ffffffff61385a16565b6000978852600260209081526040808a2073ffffffffffffffffffffffffffffffffffffffff909b168a52999052979096209690965550505050505050565b60408051808201909152601281527f4d4154485f5355425f554e444552464c4f5700000000000000000000000000006020820152600090819084841115613852576040517f08c379a00000000000000000000000000000000000000000000000000000000081526004018080602001828103825283818151815260200191508051906020019080838360005b838110156138175781810151838201526020016137ff565b50505050905090810190601f1680156138445780820380516001836020036101000a031916815260200191505b509250505060405180910390fd5b505050900390565b60408051808201909152601181527f4d4154485f4144445f4f564552464c4f57000000000000000000000000000000602082015260009083830190848210156138ff576040517f08c379a0000000000000000000000000000000000000000000000000000000008152600401808060200182810382528381815181526020019150805190602001908083836000838110156138175781810151838201526020016137ff565b509392505050565b81548183558181111561392b5760008381526020902061392b918101908301613930565b505050565b61394a91905b808211156118e25760008155600101613936565b905600a165627a7a72305820c97d71e189ee3b1983b4dd08e08e359af7bcd3f56673ac8bbc8b487a7ae793740029",
  "source": "pragma solidity ^0.4.0;\n\nimport \"@aragon/os/contracts/lib/math/SafeMath.sol\";\nimport \"./Address.sol\";\nimport \"./Common.sol\";\nimport \"./IERC1155TokenReceiver.sol\";\nimport \"./IERC1155.sol\";\n\ncontract RewardCourts is IERC1155, ERC165, CommonConstants\n{\n    using SafeMath for uint256;\n    using Address for address;\n\n    uint256 internal courtNonce;\n    uint256 internal icTokenNonce;\n\n    // token => (owner => balance)\n    mapping (uint256 => mapping(address => uint256)) internal balances;\n\n    // owner => (operator => approved)\n    mapping (address => mapping(address => bool)) internal operatorApproval;\n    \n    // token => (owner => spentLimit)\n    //mapping (address => mapping (address => uint256)) public spentLimit; // It is better done in the wrapper (voting) contract.\n    \n    // truster => (trustee => bool)\n    mapping (uint256 => mapping (uint256 => bool)) public trustedCourts; // which courts are trusted\n    \n    // truster => trustees[]\n    mapping (uint256 => uint256[]) public trustedCourtsList;\n    \n    // token => court\n    //mapping (address => uint256) public tokenControllingCourts;\n\n    // token => intercourt token\n    //mapping (address => uint256) public interCourtTokens;\n    \n    // court ID => owner\n    mapping (uint256 => address) public courtOwners;\n\n    event CourtCreated(address indexed owner, uint256 indexed createdCourt);\n    event IntercourtTokenCreated(uint256 indexed ictoken);\n    event SetOwner(uint256 indexed court, address indexed owner);\n    event TrustCourts(uint256 indexed truster, uint256[] trustees);\n    event UntrustCourts(uint256 indexed truster, uint256[] trustees);\n\n/////////////////////////////////////////// ERC165 //////////////////////////////////////////////\n\n    /*\n        bytes4(keccak256('supportsInterface(bytes4)'));\n    */\n    bytes4 constant private INTERFACE_SIGNATURE_ERC165 = 0x01ffc9a7;\n\n    /*\n        bytes4(keccak256(\"safeTransferFrom(address,address,uint256,uint256,bytes)\")) ^\n        bytes4(keccak256(\"safeBatchTransferFrom(address,address,uint256[],uint256[],bytes)\")) ^\n        bytes4(keccak256(\"balanceOf(address,uint256)\")) ^\n        bytes4(keccak256(\"balanceOfBatch(address[],uint256[])\")) ^\n        bytes4(keccak256(\"setApprovalForAll(address,bool)\")) ^\n        bytes4(keccak256(\"isApprovedForAll(address,address)\"));\n    */\n    bytes4 constant private INTERFACE_SIGNATURE_ERC1155 = 0xd9b67a26;\n\n    bytes4 constant private INTERFACE_SIGNATURE_URI = 0x0e89341c;\n    \n    function supportsInterface(bytes4 _interfaceId)\n    public\n    view\n    returns (bool) {\n         if (_interfaceId == INTERFACE_SIGNATURE_ERC165 ||\n             _interfaceId == INTERFACE_SIGNATURE_ERC1155 ||\n             _interfaceId == INTERFACE_SIGNATURE_URI) {\n            return true;\n         }\n\n         return false;\n    }\n\n/////////////////////////////////////////// ERC1155 //////////////////////////////////////////////\n\n    /**\n        @notice Transfers `_value` amount of an `_id` from the `_from` address to the `_to` address specified (with safety call).\n        @dev Caller must be approved to manage the tokens being transferred out of the `_from` account (see \"Approval\" section of the standard).\n        MUST revert if `_to` is the zero address.\n        MUST revert if balance of holder for token `_id` is lower than the `_value` sent.\n        MUST revert on any other error.\n        MUST emit the `TransferSingle` event to reflect the balance change (see \"Safe Transfer Rules\" section of the standard).\n        After the above conditions are met, this function MUST check if `_to` is a smart contract (e.g. code size > 0). If so, it MUST call `onERC1155Received` on `_to` and act appropriately (see \"Safe Transfer Rules\" section of the standard).\n        @param _from    Source address\n        @param _to      Target address\n        @param _id      ID of the token type\n        @param _value   Transfer amount\n        @param _data    Additional data with no specified format, MUST be sent unaltered in call to `onERC1155Received` on `_to`\n    */\n    function safeTransferFrom(address _from, address _to, uint256 _id, uint256 _value, bytes _data) external {\n\n        require(_to != address(0x0), \"_to must be non-zero.\");\n        require(_from == msg.sender || operatorApproval[_from][msg.sender] == true, \"Need operator approval for 3rd party transfers.\");\n\n        _doSafeTransferFrom(_from, _to, _id, _value);\n\n        // MUST emit event\n        emit TransferSingle(msg.sender, _from, _to, _id, _value);\n\n        // Now that the balance is updated and the event was emitted,\n        // call onERC1155Received if the destination is a contract.\n        if (_to.isContract()) {\n            _doSafeTransferAcceptanceCheck(msg.sender, _from, _to, _id, _value, _data);\n        }\n    }\n\n    /**\n        @notice Transfers `_values` amount(s) of `_ids` from the `_from` address to the `_to` address specified (with safety call).\n        @dev Caller must be approved to manage the tokens being transferred out of the `_from` account (see \"Approval\" section of the standard).\n        MUST revert if `_to` is the zero address.\n        MUST revert if length of `_ids` is not the same as length of `_values`.\n        MUST revert if any of the balance(s) of the holder(s) for token(s) in `_ids` is lower than the respective amount(s) in `_values` sent to the recipient.\n        MUST revert on any other error.\n        MUST emit `TransferSingle` or `TransferBatch` event(s) such that all the balance changes are reflected (see \"Safe Transfer Rules\" section of the standard).\n        Balance changes and events MUST follow the ordering of the arrays (_ids[0]/_values[0] before _ids[1]/_values[1], etc).\n        After the above conditions for the transfer(s) in the batch are met, this function MUST check if `_to` is a smart contract (e.g. code size > 0). If so, it MUST call the relevant `ERC1155TokenReceiver` hook(s) on `_to` and act appropriately (see \"Safe Transfer Rules\" section of the standard).\n        @param _from    Source address\n        @param _to      Target address\n        @param _ids     IDs of each token type (order and length must match _values array)\n        @param _values  Transfer amounts per token type (order and length must match _ids array)\n        @param _data    Additional data with no specified format, MUST be sent unaltered in call to the `ERC1155TokenReceiver` hook(s) on `_to`\n    */\n    function safeBatchTransferFrom(address _from, address _to, uint256[] _ids, uint256[] _values, bytes _data) external {\n\n        // MUST Throw on errors\n        require(_to != address(0x0), \"destination address must be non-zero.\");\n        require(_ids.length == _values.length, \"_ids and _values array length must match.\");\n        require(_from == msg.sender || operatorApproval[_from][msg.sender] == true, \"Need operator approval for 3rd party transfers.\");\n\n        for (uint256 i = 0; i < _ids.length; ++i) {\n            uint256 _id = _ids[i];\n            uint256 _value = _values[i];\n\n            _doSafeTransferFrom(_from, _to, _id, _value);\n        }\n\n        // Note: instead of the below batch versions of event and acceptance check you MAY have emitted a TransferSingle\n        // event and a subsequent call to _doSafeTransferAcceptanceCheck in above loop for each balance change instead.\n        // Or emitted a TransferSingle event for each in the loop and then the single _doSafeBatchTransferAcceptanceCheck below.\n        // However it is implemented the balance changes and events MUST match when a check (i.e. calling an external contract) is done.\n\n        // MUST emit event\n        emit TransferBatch(msg.sender, _from, _to, _ids, _values);\n\n        // Now that the balances are updated and the events are emitted,\n        // call onERC1155BatchReceived if the destination is a contract.\n        if (_to.isContract()) {\n            _doSafeBatchTransferAcceptanceCheck(msg.sender, _from, _to, _ids, _values, _data);\n        }\n    }\n\n    /**\n        @notice Get the balance of an account's Tokens.\n        @param _owner  The address of the token holder\n        @param _id     ID of the Token\n        @return        The _owner's balance of the Token type requested\n     */\n    function balanceOf(address _owner, uint256 _id) external view returns (uint256) {\n        // The balance of any account can be calculated from the Transfer events history.\n        // However, since we need to keep the balances to validate transfer request,\n        // there is no extra cost to also privide a querry function.\n        return balances[_id][_owner];\n    }\n\n\n    /**\n        @notice Get the balance of multiple account/token pairs\n        @param _owners The addresses of the token holders\n        @param _ids    ID of the Tokens\n        @return        The _owner's balance of the Token types requested (i.e. balance for each (owner, id) pair)\n     */\n    function balanceOfBatch(address[] _owners, uint256[] _ids) external view returns (uint256[] memory) {\n\n        require(_owners.length == _ids.length);\n\n        uint256[] memory balances_ = new uint256[](_owners.length);\n\n        for (uint256 i = 0; i < _owners.length; ++i) {\n            balances_[i] = balances[_ids[i]][_owners[i]];\n        }\n\n        return balances_;\n    }\n\n    /**\n        @notice Enable or disable approval for a third party (\"operator\") to manage all of the caller's tokens.\n        @dev MUST emit the ApprovalForAll event on success.\n        @param _operator  Address to add to the set of authorized operators\n        @param _approved  True if the operator is approved, false to revoke approval\n    */\n    function setApprovalForAll(address _operator, bool _approved) external {\n        operatorApproval[msg.sender][_operator] = _approved;\n        emit ApprovalForAll(msg.sender, _operator, _approved);\n    }\n\n    /**\n        @notice Queries the approval status of an operator for a given owner.\n        @param _owner     The owner of the Tokens\n        @param _operator  Address of authorized operator\n        @return           True if the operator is approved, false if not\n    */\n    function isApprovedForAll(address _owner, address _operator) external view returns (bool) {\n        return operatorApproval[_owner][_operator];\n    }\n\n/////////////////////////////////////////// Court //////////////////////////////////////////////\n\n    /// Transfer through Multiple Courts ///\n\n    /**\n        @notice Transfer money through several courts with automatic currency conversion between court tokens.\n        @param _from    Source address\n        @param _to      Target address\n        @param _intercourtToken Intercourt token\n        @param _value   Transfer amount\n        @param _courtsPath Through which courts to transfer\n        @param _data    Additional data with no specified format, MUST be sent unaltered in call to `onERC1155Received` on `_to`\n    */\n    function intercourtTransfer(address _from, address _to, uint256 _intercourtToken, uint256 _value, uint256[] _courtsPath, bytes _data) external {\n        uint256[] memory _ids = new uint256[](1);\n        _ids[0] = _intercourtToken;\n        uint256[] memory _values = new uint256[](1);\n        _values[0] = _value;\n        _doIntercourtTransferBatch(_from, _to, _ids, _values, _courtsPath);\n\n        // Using _uncheckedGenerateTokenId because already checked in _doIntercourtTransferBatch().\n        emit TransferSingle(msg.sender, _from, 0x0, _uncheckedGenerateTokenId(_courtsPath[0], _intercourtToken), _value);\n        emit TransferSingle(msg.sender, 0x0, _to, _uncheckedGenerateTokenId(_courtsPath[_courtsPath.length - 1], _intercourtToken), _value);\n\n        // Now that the balance is updated and the event was emitted,\n        // call onERC1155Received if the destination is a contract.\n        if (_to.isContract()) {\n            _doSafeTransferAcceptanceCheck(msg.sender, _from, _to, _intercourtToken, _value, _data);\n        }\n    }\n\n    /**\n        @notice Transfer money through several courts with automatic currency conversion between court tokens.\n        @param _from    Source address\n        @param _to      Target address\n        @param _intercourtTokens Intercourt tokens (order and length must match _values array)\n        @param _values  Transfer amounts per token type (order and length must match _intercourtTokens array)\n        @param _courtsPath Through which courts to transfer\n        @param _data    Additional data with no specified format, MUST be sent unaltered in call to `onERC1155Received` on `_to`\n    */\n    function intercourtTransferBatch(address _from, address _to, uint256[] _intercourtTokens, uint256[] _values, uint256[] _courtsPath, bytes _data) external {\n        require(_intercourtTokens.length == _values.length, \"_intercourtTokens and _values array length must match.\");\n\n        _doIntercourtTransferBatch(_from, _to, _intercourtTokens, _values, _courtsPath);\n\n        emit TransferBatch(msg.sender, _from, 0x0, _intercourtTokens, _values);\n        emit TransferBatch(msg.sender, 0x0, _to, _intercourtTokens, _values);\n\n        uint256[] memory _ids = new uint256[](_intercourtTokens.length);\n        for (uint i = 0; i < _ids.length; ++i) {\n            _ids[i] = _generateTokenId(_courtsPath[_courtsPath.length - 1], _intercourtTokens[i]);\n        }\n        \n        // Now that the balances are updated and the events are emitted,\n        // call onERC1155BatchReceived if the destination is a contract.\n        if (_to.isContract()) {\n            _doSafeBatchTransferAcceptanceCheck(msg.sender, _from, _to, _ids, _values, _data);\n        }\n    }\n\n/////////////////////////////////////////// Minting //////////////////////////////////////////////\n\n    /**\n        @notice Mints `_value` amount of an `_id` from the `_from` address to the `_to` address specified (with safety call).\n        @dev Caller must be approved to manage the tokens being transferred out of the `_from` account (see \"Approval\" section of the standard).\n        MUST revert if `_to` is the zero address.\n        MUST revert on any other error.\n        MUST emit the `TransferSingle` event to reflect the balance change.\n        After the above conditions are met, this function MUST check if `_to` is a smart contract (e.g. code size > 0). If so, it MUST call `onERC1155Received` on `_to` and act appropriately (see \"Safe Transfer Rules\" section of the standard).\n        @param _from    Source address\n        @param _to      Target address\n        @param _id      ID of the token type\n        @param _value   Transfer amount\n        @param _data    Additional data with no specified format, MUST be sent unaltered in call to `onERC1155Received` on `_to`\n        @param _courtsPath Mint for trusters (`[]` to mint for ourservers)\n    */\n    function mintFrom(address _from, address _to, uint256 _id, uint256 _value, bytes _data, uint256[] _courtsPath) external {\n\n        require(_to != address(0x0), \"_to must be non-zero.\");\n        require(_from == msg.sender || operatorApproval[_from][msg.sender] == true, \"Need operator approval for 3rd party transfers.\");\n\n        _doMintFrom(_from, _to, _id, _value, _courtsPath);\n\n        // MUST emit event\n        emit TransferSingle(msg.sender, 0x0, _to, _id, _value);\n\n        // Now that the balance is updated and the event was emitted,\n        // call onERC1155Received if the destination is a contract.\n        if (_to.isContract()) {\n            _doSafeTransferAcceptanceCheck(msg.sender, _from, _to, _id, _value, _data);\n        }\n    }\n\n    /**\n        @notice Mints `_values` amount(s) of `_ids` from the `_from` address to the `_to` address specified (with safety call).\n        @dev Caller must be approved to manage the tokens being transferred out of the `_from` account (see \"Approval\" section of the standard).\n        MUST revert if `_to` is the zero address.\n        MUST revert if length of `_ids` is not the same as length of `_values`.\n        MUST revert on any other error.\n        MUST emit `TransferSingle` or `TransferBatch` event(s) such that all the balance changes are reflected.\n        Balance changes and events MUST follow the ordering of the arrays (_ids[0]/_values[0] before _ids[1]/_values[1], etc).\n        After the above conditions for the transfer(s) in the batch are met, this function MUST check if `_to` is a smart contract (e.g. code size > 0). If so, it MUST call the relevant `ERC1155TokenReceiver` hook(s) on `_to` and act appropriately (see \"Safe Transfer Rules\" section of the standard).\n        @param _from    Source address\n        @param _to      Target address\n        @param _ids     IDs of each token type (order and length must match _values array)\n        @param _values  Transfer amounts per token type (order and length must match _ids array)\n        @param _data    Additional data with no specified format, MUST be sent unaltered in call to the `ERC1155TokenReceiver` hook(s) on `_to`\n        @param _courtsPath Mint for trusters (`[]` to mint for ourservers)\n    */\n    function batchMintFrom(address _from, address _to, uint256[] _ids, uint256[] _values, bytes _data, uint256[] _courtsPath) external {\n\n        // MUST Throw on errors\n        require(_to != address(0x0), \"destination address must be non-zero.\");\n        require(_ids.length == _values.length, \"_ids and _values array length must match.\");\n        require(_from == msg.sender || operatorApproval[_from][msg.sender] == true, \"Need operator approval for 3rd party transfers.\");\n\n        for (uint256 i = 0; i < _ids.length; ++i) {\n            uint256 _id = _ids[i];\n            uint256 _value = _values[i];\n\n            _doMintFrom(_from, _to, _id, _value, _courtsPath);\n        }\n\n        // Note: instead of the below batch versions of event and acceptance check you MAY have emitted a TransferSingle\n        // event and a subsequent call to _doSafeTransferAcceptanceCheck in above loop for each balance change instead.\n        // Or emitted a TransferSingle event for each in the loop and then the single _doSafeBatchTransferAcceptanceCheck below.\n        // However it is implemented the balance changes and events MUST match when a check (i.e. calling an external contract) is done.\n\n        // MUST emit event\n        emit TransferBatch(msg.sender, 0x0, _to, _ids, _values);\n\n        // Now that the balances are updated and the events are emitted,\n        // call onERC1155BatchReceived if the destination is a contract.\n        if (_to.isContract()) {\n            _doSafeBatchTransferAcceptanceCheck(msg.sender, _from, _to, _ids, _values, _data);\n        }\n    }\n\n/////////////////////////////////////////// Burning //////////////////////////////////////////////\n\n    /**\n        @notice Burns `_value` amount of an `_id` from the `_from` address specified (with safety call).\n        @dev Caller must be approved to manage the tokens being transferred out of the `_from` account (see \"Approval\" section of the standard).\n        MUST revert on any other error.\n        MUST emit the `TransferSingle` event to reflect the balance change.\n        @param _from    Source address\n        @param _id      ID of the token type\n        @param _value   Transfer amount\n        @param _data    Additional data with no specified format, MUST be sent unaltered in call to `onERC1155Received` on `_to`\n    */\n    function burnFrom(address _from, uint256 _id, uint256 _value, bytes _data) external {\n\n        require(_from == msg.sender || operatorApproval[_from][msg.sender] == true, \"Need operator approval for 3rd party transfers.\");\n\n        balances[_id][_from] = balances[_id][_from].sub(_value);\n\n        // MUST emit event\n        emit TransferSingle(msg.sender, _from, 0x0, _id, _value);\n    }\n\n    /**\n        @notice Burns `_values` amount(s) of `_ids` from the `_from` address specified (with safety call).\n        @dev Caller must be approved to manage the tokens being transferred out of the `_from` account (see \"Approval\" section of the standard).\n        MUST revert if length of `_ids` is not the same as length of `_values`.\n        MUST revert on any other error.\n        MUST emit `TransferSingle` or `TransferBatch` event(s) such that all the balance changes are reflected.\n        Balance changes and events MUST follow the ordering of the arrays (_ids[0]/_values[0] before _ids[1]/_values[1], etc).\n        @param _from    Source address\n        @param _ids     IDs of each token type (order and length must match _values array)\n        @param _values  Transfer amounts per token type (order and length must match _ids array)\n        @param _data    Additional data with no specified format, MUST be sent unaltered in call to the `ERC1155TokenReceiver` hook(s) on `_to`\n    */\n    function batchBurnFrom(address _from, uint256[] _ids, uint256[] _values, bytes _data) external {\n\n        // MUST Throw on errors\n        require(_ids.length == _values.length, \"_ids and _values array length must match.\");\n        require(_from == msg.sender || operatorApproval[_from][msg.sender] == true, \"Need operator approval for 3rd party transfers.\");\n\n        for (uint256 i = 0; i < _ids.length; ++i) {\n            uint256 _id = _ids[i];\n            uint256 _value = _values[i];\n\n            balances[_id][_from] = balances[_id][_from].sub(_value);\n        }\n\n        // Note: instead of the below batch versions of event and acceptance check you MAY have emitted a TransferSingle\n        // event and a subsequent call to _doSafeTransferAcceptanceCheck in above loop for each balance change instead.\n        // Or emitted a TransferSingle event for each in the loop and then the single _doSafeBatchTransferAcceptanceCheck below.\n        // However it is implemented the balance changes and events MUST match when a check (i.e. calling an external contract) is done.\n\n        // MUST emit event\n        emit TransferBatch(msg.sender, _from, 0x0, _ids, _values);\n    }\n\n/////////////////////////////////////////// Administrativia //////////////////////////////////////////////\n\n    /**\n        @notice Get `trustedCourtsList` for a court.\n        @param _truster Court\n    */\n    function getTrustedCourtsList(uint256 _truster) public view returns (uint256[]) {\n        return trustedCourtsList[_truster];\n    }\n\n    /**\n        @notice Set court owner.\n        @param _court   Court\n        @param _owner   New owner\n    */\n    function setOwner(uint256 _court, address _owner) external {\n        require(courtOwners[_court] == msg.sender);\n\n        courtOwners[_court] = _owner;\n        emit SetOwner(_court, _owner);\n    }\n\n    /**\n        @notice Create a regular court.\n        @return           Court ID\n    */\n    function createCourt() external returns (uint256 _id) {\n        _id = ++courtNonce;\n        courtOwners[_id] = msg.sender;\n        emit CourtCreated(msg.sender, _id);\n    }\n\n\n    /**\n        @notice Create an intercourt token.\n        @return           Intercourt token\n    */\n    function createIntercourtToken(/*string _uri*/) external returns (uint256) {\n        uint256 _id = ++icTokenNonce;\n        // _id is Intercourt token, not a token\n        // if (bytes(_uri).length > 0)\n        //     emit URI(_uri, _id);\n        emit IntercourtTokenCreated(_id);\n        return _id;\n    }\n\n    // function setURI(string _uri, uint256 _id) external {\n    //     // It's impossible to determine _intercourtToken (unless we store it for every token generated\n    //     // what would be to resource-intensive)\n    //     require(courtOwners[_intercourtToken] == msg.sender); // Also, it is not a court.\n    //     emit URI(_uri, _id);\n    // }\n    \n    /**\n        @notice Trust these courts.\n        @param _truster The truster court\n        @param _trustees The trustee courts to add\n    */\n    function trustCourts(uint256 _truster, uint256[] _trustees) external {\n        require(courtOwners[_truster] == msg.sender, \"We are not court owner\");\n\n        uint _pos = trustedCourtsList[_truster].length; // position to insert\n        uint _newLength = _pos;\n        for (uint i = 0; i < _trustees.length; ++i) {\n            require(_trustees[i] > 0 && _trustees[i] <= courtNonce, \"Court does not exist.\");\n            if (!trustedCourts[_truster][_trustees[i]])\n                _newLength += 1;\n        }\n        \n        trustedCourtsList[_truster].length = _newLength;\n\n        for (uint j = 0; j < _trustees.length; ++j) {\n            if (!trustedCourts[_truster][_trustees[j]]) {\n                trustedCourtsList[_truster][_pos++] = _trustees[j];\n                trustedCourts[_truster][_trustees[j]] = true;\n            }\n        }\n        emit TrustCourts(_truster, _trustees);\n    }\n\n    /**\n        @notice Do not trust these courts anymore.\n        @param _truster The truster court\n        @param _trustees The trustee courts to remove\n    */\n    function untrustCourts(uint256 _truster, uint256[] _trustees) external {\n        require(courtOwners[_truster] == msg.sender, \"We are not court owner\");\n\n        uint max = trustedCourtsList[_truster].length;\n        for (uint i = 0; i < _trustees.length; ++i) {\n            require(_trustees[i] > 0 && _trustees[i] <= courtNonce, \"Court does not exist.\");\n            if (trustedCourts[_truster][_trustees[i]]) {\n                trustedCourts[_truster][_trustees[i]] = false;\n                trustedCourtsList[_truster][i] = trustedCourtsList[_truster][--max];\n            }\n        }\n        trustedCourtsList[_truster].length = max;\n        emit UntrustCourts(_truster, _trustees);\n    }\n\n/////////////////////////////////////////// Internal //////////////////////////////////////////////\n\n    function _doSafeTransferFrom(address _from, address _to, uint256 _id, uint256 _value) private {\n\n        // SafeMath will throw with insufficient funds _from\n        // or if _id is not valid (balance will be 0)\n        balances[_id][_from] = balances[_id][_from].sub(_value);\n        balances[_id][_to]   = _value.add(balances[_id][_to]);\n    }\n\n    function _doMintFrom(address _from, address _to, uint256 _id, uint256 _value, uint256[] _courtsPath) private {\n\n        uint256 _court = _getCourt(_id);\n\n        require(courtOwners[_court] == msg.sender, \"Not a court owner.\");\n\n        uint256 _intercourtToken = _getIntercourtToken(_id);\n        \n        for (uint i = 0; i < _courtsPath.length; ++i) {\n            uint256 _nextCourt = _courtsPath[i];\n            require(trustedCourts[_nextCourt][_court], \"A court in the path is not in a trusted list.\");\n            _court = _nextCourt;\n        }\n    \n        require(_court != 0 && _intercourtToken != 0, \"Invalid token.\");\n\n        _id = _generateTokenId(_court, _intercourtToken);\n        balances[_id][_to] = _value.add(balances[_id][_to]); // SafeMath will throw if overflow\n    }\n\n    function _doSafeTransferAcceptanceCheck(address _operator, address _from, address _to, uint256 _id, uint256 _value, bytes memory _data) internal {\n\n        // If this was a hybrid standards solution you would have to check ERC165(_to).supportsInterface(0x4e2312e0) here but as this is a pure implementation of an ERC-1155 token set as recommended by\n        // the standard, it is not necessary. The below should revert in all failure cases i.e. _to isn't a receiver, or it is and either returns an unknown value or it reverts in the call to indicate non-acceptance.\n\n\n        // Note: if the below reverts in the onERC1155Received function of the _to address you will have an undefined revert reason returned rather than the one in the require test.\n        // If you want predictable revert reasons consider using low level _to.call() style instead so the revert does not bubble up and you can revert yourself on the ERC1155_ACCEPTED test.\n        require(ERC1155TokenReceiver(_to).onERC1155Received(_operator, _from, _id, _value, _data) == ERC1155_ACCEPTED, \"contract returned an unknown value from onERC1155Received\");\n    }\n\n    function _doSafeBatchTransferAcceptanceCheck(address _operator, address _from, address _to, uint256[] memory _ids, uint256[] memory _values, bytes memory _data) internal {\n\n        // If this was a hybrid standards solution you would have to check ERC165(_to).supportsInterface(0x4e2312e0) here but as this is a pure implementation of an ERC-1155 token set as recommended by\n        // the standard, it is not necessary. The below should revert in all failure cases i.e. _to isn't a receiver, or it is and either returns an unknown value or it reverts in the call to indicate non-acceptance.\n\n        // Note: if the below reverts in the onERC1155BatchReceived function of the _to address you will have an undefined revert reason returned rather than the one in the require test.\n        // If you want predictable revert reasons consider using low level _to.call() style instead so the revert does not bubble up and you can revert yourself on the ERC1155_BATCH_ACCEPTED test.\n        require(ERC1155TokenReceiver(_to).onERC1155BatchReceived(_operator, _from, _ids, _values, _data) == ERC1155_BATCH_ACCEPTED, \"contract returned an unknown value from onERC1155BatchReceived\");\n    }\n    \n    function _generateTokenId(uint256 _court, uint256 _intercourtToken) public returns (uint256 _token) {\n        require (_court != 0 && _intercourtToken != 0);\n\n        _token = _uncheckedGenerateTokenId(_court, _intercourtToken);\n    }\n\n    function _uncheckedGenerateTokenId(uint256 _court, uint256 _intercourtToken) public returns (uint256 _token) {\n        require(_court < 1 << 128 && _intercourtToken < 1 << 128);\n\n        return (_court << 128) + _intercourtToken;\n    }\n    \n    function _getCourt(uint256 _id) public returns (uint256) {\n        return _id >> 128;\n    }\n    \n    function _getIntercourtToken(uint256 _id) public returns (uint256) {\n        return _id & ((1 << 128) - 1);\n    }\n    \n    function _doIntercourtTransferBatch(address _from, address _to, uint256[] memory _ids, uint256[] memory _values, uint256[] _courtsPath) internal {\n        require(_to != address(0x0), \"_to must be non-zero.\");\n        assert(_ids.length == _values.length);\n        require(_courtsPath.length != 0);\n        require(_from == msg.sender || operatorApproval[_from][msg.sender] == true, \"Need operator approval for 3rd party transfers.\");\n        //require(checkNoDuplicates(_courtsPath), \"Duplicate courts.\");\n\n        for (uint i = 0; i < _courtsPath.length - 1; ++i) {\n            require(trustedCourts[_courtsPath[i+1]][_courtsPath[i]], \"A court in the path is not in a trusted list.\");\n        }\n\n        for (uint k = 0; k < _ids.length; ++k) {\n            uint256 _intercourtToken = _ids[k];\n            uint256 _fromToken = _generateTokenId(_courtsPath[0], _intercourtToken);\n            uint256 _toToken = _generateTokenId(_courtsPath[_courtsPath.length-1], _intercourtToken);\n            // SafeMath will throw with insufficient funds _from\n            // or if _intercourtToken is not valid (balance will be 0)\n            balances[_fromToken][_from] = balances[_fromToken][_from].sub(_values[k]);\n            balances[_toToken][_to] = _values[k].add(balances[_toToken][_to]);\n        }\n    }\n\n    // function checkNoDuplicates(uint256[] memory _array) private pure returns (bool) {\n    //     for (uint256 i = 1; i < _array.length; ++i) {\n    //         for (uint256 j = 0; j < i; ++j)\n    //             if (_array[i] == _array[j]) return false;\n    //     }\n    //     return true;\n    // }\n}\n",
  "sourcePath": "/home/porton/Projects/courts/contracts/RewardCourts.sol",
  "compiler": {
    "name": "solc",
    "version": "0.4.24+commit.e67f0147.Emscripten.clang"
  },
  "schemaVersion": "3.0.23",
  "updatedAt": "2020-02-23T17:06:48.794Z",
  "devdoc": {
    "methods": {
      "balanceOf(address,uint256)": {
        "params": {
          "_id": "ID of the Token",
          "_owner": "The address of the token holder"
        },
        "return": "The _owner's balance of the Token type requested"
      },
      "balanceOfBatch(address[],uint256[])": {
        "params": {
          "_ids": "ID of the Tokens",
          "_owners": "The addresses of the token holders"
        },
        "return": "The _owner's balance of the Token types requested (i.e. balance for each (owner, id) pair)"
      },
      "batchBurnFrom(address,uint256[],uint256[],bytes)": {
        "details": "Caller must be approved to manage the tokens being transferred out of the `_from` account (see \"Approval\" section of the standard). MUST revert if length of `_ids` is not the same as length of `_values`. MUST revert on any other error. MUST emit `TransferSingle` or `TransferBatch` event(s) such that all the balance changes are reflected. Balance changes and events MUST follow the ordering of the arrays (_ids[0]/_values[0] before _ids[1]/_values[1], etc).",
        "params": {
          "_data": "Additional data with no specified format, MUST be sent unaltered in call to the `ERC1155TokenReceiver` hook(s) on `_to`",
          "_from": "Source address",
          "_ids": "IDs of each token type (order and length must match _values array)",
          "_values": "Transfer amounts per token type (order and length must match _ids array)"
        }
      },
      "batchMintFrom(address,address,uint256[],uint256[],bytes,uint256[])": {
        "details": "Caller must be approved to manage the tokens being transferred out of the `_from` account (see \"Approval\" section of the standard). MUST revert if `_to` is the zero address. MUST revert if length of `_ids` is not the same as length of `_values`. MUST revert on any other error. MUST emit `TransferSingle` or `TransferBatch` event(s) such that all the balance changes are reflected. Balance changes and events MUST follow the ordering of the arrays (_ids[0]/_values[0] before _ids[1]/_values[1], etc). After the above conditions for the transfer(s) in the batch are met, this function MUST check if `_to` is a smart contract (e.g. code size > 0). If so, it MUST call the relevant `ERC1155TokenReceiver` hook(s) on `_to` and act appropriately (see \"Safe Transfer Rules\" section of the standard).",
        "params": {
          "_courtsPath": "Mint for trusters (`[]` to mint for ourservers)",
          "_data": "Additional data with no specified format, MUST be sent unaltered in call to the `ERC1155TokenReceiver` hook(s) on `_to`",
          "_from": "Source address",
          "_ids": "IDs of each token type (order and length must match _values array)",
          "_to": "Target address",
          "_values": "Transfer amounts per token type (order and length must match _ids array)"
        }
      },
      "burnFrom(address,uint256,uint256,bytes)": {
        "details": "Caller must be approved to manage the tokens being transferred out of the `_from` account (see \"Approval\" section of the standard). MUST revert on any other error. MUST emit the `TransferSingle` event to reflect the balance change.",
        "params": {
          "_data": "Additional data with no specified format, MUST be sent unaltered in call to `onERC1155Received` on `_to`",
          "_from": "Source address",
          "_id": "ID of the token type",
          "_value": "Transfer amount"
        }
      },
      "createCourt()": {
        "return": "Court ID"
      },
      "createIntercourtToken()": {
        "return": "Intercourt token"
      },
      "getTrustedCourtsList(uint256)": {
        "params": {
          "_truster": "Court"
        }
      },
      "intercourtTransfer(address,address,uint256,uint256,uint256[],bytes)": {
        "params": {
          "_courtsPath": "Through which courts to transfer",
          "_data": "Additional data with no specified format, MUST be sent unaltered in call to `onERC1155Received` on `_to`",
          "_from": "Source address",
          "_intercourtToken": "Intercourt token",
          "_to": "Target address",
          "_value": "Transfer amount"
        }
      },
      "intercourtTransferBatch(address,address,uint256[],uint256[],uint256[],bytes)": {
        "params": {
          "_courtsPath": "Through which courts to transfer",
          "_data": "Additional data with no specified format, MUST be sent unaltered in call to `onERC1155Received` on `_to`",
          "_from": "Source address",
          "_intercourtTokens": "Intercourt tokens (order and length must match _values array)",
          "_to": "Target address",
          "_values": "Transfer amounts per token type (order and length must match _intercourtTokens array)"
        }
      },
      "isApprovedForAll(address,address)": {
        "params": {
          "_operator": "Address of authorized operator",
          "_owner": "The owner of the Tokens"
        },
        "return": "True if the operator is approved, false if not"
      },
      "mintFrom(address,address,uint256,uint256,bytes,uint256[])": {
        "details": "Caller must be approved to manage the tokens being transferred out of the `_from` account (see \"Approval\" section of the standard). MUST revert if `_to` is the zero address. MUST revert on any other error. MUST emit the `TransferSingle` event to reflect the balance change. After the above conditions are met, this function MUST check if `_to` is a smart contract (e.g. code size > 0). If so, it MUST call `onERC1155Received` on `_to` and act appropriately (see \"Safe Transfer Rules\" section of the standard).",
        "params": {
          "_courtsPath": "Mint for trusters (`[]` to mint for ourservers)",
          "_data": "Additional data with no specified format, MUST be sent unaltered in call to `onERC1155Received` on `_to`",
          "_from": "Source address",
          "_id": "ID of the token type",
          "_to": "Target address",
          "_value": "Transfer amount"
        }
      },
      "safeBatchTransferFrom(address,address,uint256[],uint256[],bytes)": {
        "details": "Caller must be approved to manage the tokens being transferred out of the `_from` account (see \"Approval\" section of the standard). MUST revert if `_to` is the zero address. MUST revert if length of `_ids` is not the same as length of `_values`. MUST revert if any of the balance(s) of the holder(s) for token(s) in `_ids` is lower than the respective amount(s) in `_values` sent to the recipient. MUST revert on any other error. MUST emit `TransferSingle` or `TransferBatch` event(s) such that all the balance changes are reflected (see \"Safe Transfer Rules\" section of the standard). Balance changes and events MUST follow the ordering of the arrays (_ids[0]/_values[0] before _ids[1]/_values[1], etc). After the above conditions for the transfer(s) in the batch are met, this function MUST check if `_to` is a smart contract (e.g. code size > 0). If so, it MUST call the relevant `ERC1155TokenReceiver` hook(s) on `_to` and act appropriately (see \"Safe Transfer Rules\" section of the standard).",
        "params": {
          "_data": "Additional data with no specified format, MUST be sent unaltered in call to the `ERC1155TokenReceiver` hook(s) on `_to`",
          "_from": "Source address",
          "_ids": "IDs of each token type (order and length must match _values array)",
          "_to": "Target address",
          "_values": "Transfer amounts per token type (order and length must match _ids array)"
        }
      },
      "safeTransferFrom(address,address,uint256,uint256,bytes)": {
        "details": "Caller must be approved to manage the tokens being transferred out of the `_from` account (see \"Approval\" section of the standard). MUST revert if `_to` is the zero address. MUST revert if balance of holder for token `_id` is lower than the `_value` sent. MUST revert on any other error. MUST emit the `TransferSingle` event to reflect the balance change (see \"Safe Transfer Rules\" section of the standard). After the above conditions are met, this function MUST check if `_to` is a smart contract (e.g. code size > 0). If so, it MUST call `onERC1155Received` on `_to` and act appropriately (see \"Safe Transfer Rules\" section of the standard).",
        "params": {
          "_data": "Additional data with no specified format, MUST be sent unaltered in call to `onERC1155Received` on `_to`",
          "_from": "Source address",
          "_id": "ID of the token type",
          "_to": "Target address",
          "_value": "Transfer amount"
        }
      },
      "setApprovalForAll(address,bool)": {
        "details": "MUST emit the ApprovalForAll event on success.",
        "params": {
          "_approved": "True if the operator is approved, false to revoke approval",
          "_operator": "Address to add to the set of authorized operators"
        }
      },
      "setOwner(uint256,address)": {
        "params": {
          "_court": "Court",
          "_owner": "New owner"
        }
      },
      "trustCourts(uint256,uint256[])": {
        "params": {
          "_trustees": "The trustee courts to add",
          "_truster": "The truster court"
        }
      },
      "untrustCourts(uint256,uint256[])": {
        "params": {
          "_trustees": "The trustee courts to remove",
          "_truster": "The truster court"
        }
      }
    }
  },
  "userdoc": {
    "methods": {
      "balanceOf(address,uint256)": {
        "notice": "Get the balance of an account's Tokens."
      },
      "balanceOfBatch(address[],uint256[])": {
        "notice": "Get the balance of multiple account/token pairs"
      },
      "batchBurnFrom(address,uint256[],uint256[],bytes)": {
        "notice": "Burns `_values` amount(s) of `_ids` from the `_from` address specified (with safety call)."
      },
      "batchMintFrom(address,address,uint256[],uint256[],bytes,uint256[])": {
        "notice": "Mints `_values` amount(s) of `_ids` from the `_from` address to the `_to` address specified (with safety call)."
      },
      "burnFrom(address,uint256,uint256,bytes)": {
        "notice": "Burns `_value` amount of an `_id` from the `_from` address specified (with safety call)."
      },
      "createCourt()": {
        "notice": "Create a regular court."
      },
      "createIntercourtToken()": {
        "notice": "Create an intercourt token."
      },
      "getTrustedCourtsList(uint256)": {
        "notice": "Get `trustedCourtsList` for a court."
      },
      "intercourtTransfer(address,address,uint256,uint256,uint256[],bytes)": {
        "notice": "Transfer money through several courts with automatic currency conversion between court tokens."
      },
      "intercourtTransferBatch(address,address,uint256[],uint256[],uint256[],bytes)": {
        "notice": "Transfer money through several courts with automatic currency conversion between court tokens."
      },
      "isApprovedForAll(address,address)": {
        "notice": "Queries the approval status of an operator for a given owner."
      },
      "mintFrom(address,address,uint256,uint256,bytes,uint256[])": {
        "notice": "Mints `_value` amount of an `_id` from the `_from` address to the `_to` address specified (with safety call)."
      },
      "safeBatchTransferFrom(address,address,uint256[],uint256[],bytes)": {
        "notice": "Transfers `_values` amount(s) of `_ids` from the `_from` address to the `_to` address specified (with safety call)."
      },
      "safeTransferFrom(address,address,uint256,uint256,bytes)": {
        "notice": "Transfers `_value` amount of an `_id` from the `_from` address to the `_to` address specified (with safety call)."
      },
      "setApprovalForAll(address,bool)": {
        "notice": "Enable or disable approval for a third party (\"operator\") to manage all of the caller's tokens."
      },
      "setOwner(uint256,address)": {
        "notice": "Set court owner."
      },
      "trustCourts(uint256,uint256[])": {
        "notice": "Trust these courts."
      },
      "untrustCourts(uint256,uint256[])": {
        "notice": "Do not trust these courts anymore."
      }
    }
  }
}