{
  "contractName": "RewardCourtNames",
  "abi": [
    {
      "constant": true,
      "inputs": [
        {
          "name": "",
          "type": "uint256"
        },
        {
          "name": "",
          "type": "uint256"
        }
      ],
      "name": "icTokenNameChanges",
      "outputs": [
        {
          "name": "",
          "type": "uint256"
        }
      ],
      "payable": false,
      "stateMutability": "view",
      "type": "function"
    },
    {
      "constant": true,
      "inputs": [
        {
          "name": "",
          "type": "uint256"
        },
        {
          "name": "",
          "type": "uint256"
        }
      ],
      "name": "courtNameChanges",
      "outputs": [
        {
          "name": "",
          "type": "uint256"
        }
      ],
      "payable": false,
      "stateMutability": "view",
      "type": "function"
    },
    {
      "inputs": [
        {
          "name": "_rewardCourts",
          "type": "address"
        }
      ],
      "payable": false,
      "stateMutability": "nonpayable",
      "type": "constructor"
    },
    {
      "anonymous": false,
      "inputs": [
        {
          "indexed": false,
          "name": "ourCourtId",
          "type": "uint256"
        },
        {
          "indexed": false,
          "name": "courtId",
          "type": "uint256"
        },
        {
          "indexed": false,
          "name": "name",
          "type": "string"
        },
        {
          "indexed": false,
          "name": "previous",
          "type": "uint256"
        }
      ],
      "name": "SetCourtName",
      "type": "event"
    },
    {
      "anonymous": false,
      "inputs": [
        {
          "indexed": false,
          "name": "ourCourtId",
          "type": "uint256"
        },
        {
          "indexed": false,
          "name": "icToken",
          "type": "uint256"
        },
        {
          "indexed": false,
          "name": "name",
          "type": "string"
        },
        {
          "indexed": false,
          "name": "previous",
          "type": "uint256"
        }
      ],
      "name": "SetIntercourtTokenName",
      "type": "event"
    },
    {
      "constant": false,
      "inputs": [
        {
          "name": "_ourCourtId",
          "type": "uint256"
        },
        {
          "name": "_courtId",
          "type": "uint256"
        },
        {
          "name": "_name",
          "type": "string"
        }
      ],
      "name": "setCourtName",
      "outputs": [],
      "payable": false,
      "stateMutability": "nonpayable",
      "type": "function"
    },
    {
      "constant": false,
      "inputs": [
        {
          "name": "_ourCourtId",
          "type": "uint256"
        },
        {
          "name": "_icToken",
          "type": "uint256"
        },
        {
          "name": "_name",
          "type": "string"
        }
      ],
      "name": "setIntercourtTokenName",
      "outputs": [],
      "payable": false,
      "stateMutability": "nonpayable",
      "type": "function"
    }
  ],
  "bytecode": "0x608060405234801561001057600080fd5b5060405160208061055c833981016040525160008054600160a060020a03909216600160a060020a031990921691909117905561050a806100526000396000f3006080604052600436106100615763ffffffff7c01000000000000000000000000000000000000000000000000000000006000350416632b615a8d8114610066578063cdaf140114610090578063e2493d53146100b8578063fffe76d6146100e5575b600080fd5b34801561007257600080fd5b5061008e60048035906024803591604435918201910135610100565b005b34801561009c57600080fd5b5061008e600480359060248035916044359182019101356102d2565b3480156100c457600080fd5b506100d36004356024356104a4565b60408051918252519081900360200190f35b3480156100f157600080fd5b506100d36004356024356104c1565b60008054604080517f6bd7fa5d000000000000000000000000000000000000000000000000000000008152600481018890529051339373ffffffffffffffffffffffffffffffffffffffff90931692636bd7fa5d92602480820193602093909283900390910190829087803b15801561017857600080fd5b505af115801561018c573d6000803e3d6000fd5b505050506040513d60208110156101a257600080fd5b505173ffffffffffffffffffffffffffffffffffffffff161461022657604080517f08c379a000000000000000000000000000000000000000000000000000000000815260206004820152601d60248201527f596f7520646f6e277420636f6e74726f6c207468697320636f7572742e000000604482015290519081900360640190fd5b7f4d49e29848abd4f2b24a3ff6e5480d28487629ee2f977bc98ffb303ea4e0762c84848484600260008a81526020019081526020016000206000898152602001908152602001600020546040518086815260200185815260200180602001838152602001828103825285858281815260200192508082843760405192018290039850909650505050505050a1505060009182526002602090815260408084209284529190529020439055565b60008054604080517f6bd7fa5d000000000000000000000000000000000000000000000000000000008152600481018890529051339373ffffffffffffffffffffffffffffffffffffffff90931692636bd7fa5d92602480820193602093909283900390910190829087803b15801561034a57600080fd5b505af115801561035e573d6000803e3d6000fd5b505050506040513d602081101561037457600080fd5b505173ffffffffffffffffffffffffffffffffffffffff16146103f857604080517f08c379a000000000000000000000000000000000000000000000000000000000815260206004820152601d60248201527f596f7520646f6e277420636f6e74726f6c207468697320636f7572742e000000604482015290519081900360640190fd5b7f203fb99c582210f7c473d3db2bbfa15a0548242b113a1c8f6d09f7fe638c7a7c84848484600160008a81526020019081526020016000206000898152602001908152602001600020546040518086815260200185815260200180602001838152602001828103825285858281815260200192508082843760405192018290039850909650505050505050a1505060009182526001602090815260408084209284529190529020439055565b600260209081526000928352604080842090915290825290205481565b6001602090815260009283526040808420909152908252902054815600a165627a7a723058202aa5375a3ce2edebc77631659630beeaa5e91f39976c8d043026c6879b6e65830029",
  "source": "pragma solidity ^0.4.0;\n\nimport './RewardCourts.sol';\n\ncontract RewardCourtNames\n{\n    RewardCourts rewardCourts;\n    \n    // See https://ethereum.stackexchange.com/a/78986/36438\n    // ourCourtId => (courtID => prevChange)\n    mapping (uint256 => mapping (uint256 => uint)) public courtNameChanges;\n\n    // ourCourtId => (icToken => prevChange)\n    mapping (uint256 => mapping (uint256 => uint)) public icTokenNameChanges;\n\n    event SetCourtName(uint256 ourCourtId, uint256 courtId, string name, uint previous);\n    event SetIntercourtTokenName(uint256 ourCourtId, uint256 icToken, string name, uint previous);\n    \n    constructor(RewardCourts _rewardCourts) {\n        rewardCourts = _rewardCourts;\n    }\n\n    function setCourtName(uint256 _ourCourtId, uint256 _courtId, string _name) external {\n        require(rewardCourts.courtOwners(_ourCourtId) == msg.sender, \"You don't control this court.\");\n        emit SetCourtName(_ourCourtId, _courtId, _name, courtNameChanges[_ourCourtId][_courtId]);\n        courtNameChanges[_ourCourtId][_courtId] = block.number;\n    }\n\n    function setIntercourtTokenName(uint256 _ourCourtId, uint256 _icToken, string _name) external {\n        require(rewardCourts.courtOwners(_ourCourtId) == msg.sender, \"You don't control this court.\");\n        emit SetIntercourtTokenName(_ourCourtId, _icToken, _name, icTokenNameChanges[_ourCourtId][_icToken]);\n        icTokenNameChanges[_ourCourtId][_icToken] = block.number;\n    }\n}\n",
  "sourcePath": "/home/porton/Projects/courts/contracts/RewardCourtNames.sol",
  "compiler": {
    "name": "solc",
    "version": "0.4.24+commit.e67f0147.Emscripten.clang"
  },
  "schemaVersion": "3.0.21",
  "updatedAt": "2020-02-09T08:18:52.738Z",
  "devdoc": {
    "methods": {}
  },
  "userdoc": {
    "methods": {}
  }
}