{
  "contractName": "RewardCourts",
  "abi": [
    {
      "constant": true,
      "inputs": [
        {
          "name": "",
          "type": "uint256"
        }
      ],
      "name": "courtLimits",
      "outputs": [
        {
          "name": "",
          "type": "uint256"
        }
      ],
      "payable": false,
      "stateMutability": "view",
      "type": "function"
    },
    {
      "constant": true,
      "inputs": [
        {
          "name": "",
          "type": "uint256"
        },
        {
          "name": "",
          "type": "uint256"
        }
      ],
      "name": "trustedCourtsList",
      "outputs": [
        {
          "name": "",
          "type": "uint256"
        }
      ],
      "payable": false,
      "stateMutability": "view",
      "type": "function"
    },
    {
      "constant": true,
      "inputs": [
        {
          "name": "",
          "type": "uint256"
        }
      ],
      "name": "courtOwners",
      "outputs": [
        {
          "name": "",
          "type": "address"
        }
      ],
      "payable": false,
      "stateMutability": "view",
      "type": "function"
    },
    {
      "constant": true,
      "inputs": [
        {
          "name": "",
          "type": "uint256"
        }
      ],
      "name": "courtTotalSpents",
      "outputs": [
        {
          "name": "",
          "type": "uint256"
        }
      ],
      "payable": false,
      "stateMutability": "view",
      "type": "function"
    },
    {
      "constant": true,
      "inputs": [
        {
          "name": "",
          "type": "uint256"
        },
        {
          "name": "",
          "type": "uint256"
        }
      ],
      "name": "trustedCourts",
      "outputs": [
        {
          "name": "",
          "type": "bool"
        }
      ],
      "payable": false,
      "stateMutability": "view",
      "type": "function"
    },
    {
      "constant": true,
      "inputs": [
        {
          "name": "",
          "type": "uint256"
        }
      ],
      "name": "limitCourts",
      "outputs": [
        {
          "name": "",
          "type": "uint256"
        }
      ],
      "payable": false,
      "stateMutability": "view",
      "type": "function"
    },
    {
      "anonymous": false,
      "inputs": [
        {
          "indexed": true,
          "name": "owner",
          "type": "address"
        },
        {
          "indexed": true,
          "name": "createdCourt",
          "type": "uint256"
        }
      ],
      "name": "CourtCreated",
      "type": "event"
    },
    {
      "anonymous": false,
      "inputs": [
        {
          "indexed": true,
          "name": "owner",
          "type": "address"
        },
        {
          "indexed": true,
          "name": "baseCourt",
          "type": "uint256"
        },
        {
          "indexed": true,
          "name": "createdCourt",
          "type": "uint256"
        }
      ],
      "name": "LimitCourtCreated",
      "type": "event"
    },
    {
      "anonymous": false,
      "inputs": [
        {
          "indexed": true,
          "name": "ictoken",
          "type": "uint256"
        }
      ],
      "name": "IntercourtTokenCreated",
      "type": "event"
    },
    {
      "anonymous": false,
      "inputs": [
        {
          "indexed": true,
          "name": "court",
          "type": "uint256"
        },
        {
          "indexed": true,
          "name": "owner",
          "type": "address"
        }
      ],
      "name": "SetOwner",
      "type": "event"
    },
    {
      "anonymous": false,
      "inputs": [
        {
          "indexed": true,
          "name": "courtId",
          "type": "uint256"
        },
        {
          "indexed": false,
          "name": "intercourtTokens",
          "type": "uint256[]"
        },
        {
          "indexed": false,
          "name": "limits",
          "type": "uint256[]"
        }
      ],
      "name": "SetCourtLimits",
      "type": "event"
    },
    {
      "anonymous": false,
      "inputs": [
        {
          "indexed": true,
          "name": "courtId",
          "type": "uint256"
        },
        {
          "indexed": false,
          "name": "intercourtTokens",
          "type": "uint256[]"
        },
        {
          "indexed": false,
          "name": "limits",
          "type": "uint256[]"
        }
      ],
      "name": "AddToCourtLimits",
      "type": "event"
    },
    {
      "anonymous": false,
      "inputs": [
        {
          "indexed": true,
          "name": "truster",
          "type": "uint256"
        },
        {
          "indexed": false,
          "name": "trustees",
          "type": "uint256[]"
        }
      ],
      "name": "TrustCourts",
      "type": "event"
    },
    {
      "anonymous": false,
      "inputs": [
        {
          "indexed": true,
          "name": "truster",
          "type": "uint256"
        },
        {
          "indexed": false,
          "name": "trustees",
          "type": "uint256[]"
        }
      ],
      "name": "UntrustCourts",
      "type": "event"
    },
    {
      "anonymous": false,
      "inputs": [
        {
          "indexed": true,
          "name": "_operator",
          "type": "address"
        },
        {
          "indexed": true,
          "name": "_from",
          "type": "address"
        },
        {
          "indexed": true,
          "name": "_to",
          "type": "address"
        },
        {
          "indexed": false,
          "name": "_id",
          "type": "uint256"
        },
        {
          "indexed": false,
          "name": "_value",
          "type": "uint256"
        }
      ],
      "name": "TransferSingle",
      "type": "event"
    },
    {
      "anonymous": false,
      "inputs": [
        {
          "indexed": true,
          "name": "_operator",
          "type": "address"
        },
        {
          "indexed": true,
          "name": "_from",
          "type": "address"
        },
        {
          "indexed": true,
          "name": "_to",
          "type": "address"
        },
        {
          "indexed": false,
          "name": "_ids",
          "type": "uint256[]"
        },
        {
          "indexed": false,
          "name": "_values",
          "type": "uint256[]"
        }
      ],
      "name": "TransferBatch",
      "type": "event"
    },
    {
      "anonymous": false,
      "inputs": [
        {
          "indexed": true,
          "name": "_owner",
          "type": "address"
        },
        {
          "indexed": true,
          "name": "_operator",
          "type": "address"
        },
        {
          "indexed": false,
          "name": "_approved",
          "type": "bool"
        }
      ],
      "name": "ApprovalForAll",
      "type": "event"
    },
    {
      "anonymous": false,
      "inputs": [
        {
          "indexed": false,
          "name": "_value",
          "type": "string"
        },
        {
          "indexed": true,
          "name": "_id",
          "type": "uint256"
        }
      ],
      "name": "URI",
      "type": "event"
    },
    {
      "constant": true,
      "inputs": [
        {
          "name": "_interfaceId",
          "type": "bytes4"
        }
      ],
      "name": "supportsInterface",
      "outputs": [
        {
          "name": "",
          "type": "bool"
        }
      ],
      "payable": false,
      "stateMutability": "view",
      "type": "function"
    },
    {
      "constant": false,
      "inputs": [
        {
          "name": "_from",
          "type": "address"
        },
        {
          "name": "_to",
          "type": "address"
        },
        {
          "name": "_id",
          "type": "uint256"
        },
        {
          "name": "_value",
          "type": "uint256"
        },
        {
          "name": "_data",
          "type": "bytes"
        }
      ],
      "name": "safeTransferFrom",
      "outputs": [],
      "payable": false,
      "stateMutability": "nonpayable",
      "type": "function"
    },
    {
      "constant": false,
      "inputs": [
        {
          "name": "_from",
          "type": "address"
        },
        {
          "name": "_to",
          "type": "address"
        },
        {
          "name": "_ids",
          "type": "uint256[]"
        },
        {
          "name": "_values",
          "type": "uint256[]"
        },
        {
          "name": "_data",
          "type": "bytes"
        }
      ],
      "name": "safeBatchTransferFrom",
      "outputs": [],
      "payable": false,
      "stateMutability": "nonpayable",
      "type": "function"
    },
    {
      "constant": true,
      "inputs": [
        {
          "name": "_owner",
          "type": "address"
        },
        {
          "name": "_id",
          "type": "uint256"
        }
      ],
      "name": "balanceOf",
      "outputs": [
        {
          "name": "",
          "type": "uint256"
        }
      ],
      "payable": false,
      "stateMutability": "view",
      "type": "function"
    },
    {
      "constant": true,
      "inputs": [
        {
          "name": "_owners",
          "type": "address[]"
        },
        {
          "name": "_ids",
          "type": "uint256[]"
        }
      ],
      "name": "balanceOfBatch",
      "outputs": [
        {
          "name": "",
          "type": "uint256[]"
        }
      ],
      "payable": false,
      "stateMutability": "view",
      "type": "function"
    },
    {
      "constant": false,
      "inputs": [
        {
          "name": "_operator",
          "type": "address"
        },
        {
          "name": "_approved",
          "type": "bool"
        }
      ],
      "name": "setApprovalForAll",
      "outputs": [],
      "payable": false,
      "stateMutability": "nonpayable",
      "type": "function"
    },
    {
      "constant": true,
      "inputs": [
        {
          "name": "_owner",
          "type": "address"
        },
        {
          "name": "_operator",
          "type": "address"
        }
      ],
      "name": "isApprovedForAll",
      "outputs": [
        {
          "name": "",
          "type": "bool"
        }
      ],
      "payable": false,
      "stateMutability": "view",
      "type": "function"
    },
    {
      "constant": true,
      "inputs": [
        {
          "name": "_court",
          "type": "uint256"
        }
      ],
      "name": "isLimitCourt",
      "outputs": [
        {
          "name": "",
          "type": "bool"
        }
      ],
      "payable": false,
      "stateMutability": "view",
      "type": "function"
    },
    {
      "constant": true,
      "inputs": [
        {
          "name": "_court",
          "type": "uint256"
        }
      ],
      "name": "getFinalCourt",
      "outputs": [
        {
          "name": "",
          "type": "uint256"
        }
      ],
      "payable": false,
      "stateMutability": "view",
      "type": "function"
    },
    {
      "constant": false,
      "inputs": [
        {
          "name": "_from",
          "type": "address"
        },
        {
          "name": "_to",
          "type": "address"
        },
        {
          "name": "_intercourtToken",
          "type": "uint256"
        },
        {
          "name": "_value",
          "type": "uint256"
        },
        {
          "name": "_courtsPath",
          "type": "uint256[]"
        },
        {
          "name": "_data",
          "type": "bytes"
        }
      ],
      "name": "intercourtTransfer",
      "outputs": [],
      "payable": false,
      "stateMutability": "nonpayable",
      "type": "function"
    },
    {
      "constant": false,
      "inputs": [
        {
          "name": "_from",
          "type": "address"
        },
        {
          "name": "_to",
          "type": "address"
        },
        {
          "name": "_intercourtTokens",
          "type": "uint256[]"
        },
        {
          "name": "_values",
          "type": "uint256[]"
        },
        {
          "name": "_courtsPath",
          "type": "uint256[]"
        },
        {
          "name": "_data",
          "type": "bytes"
        }
      ],
      "name": "intercourtTransferBatch",
      "outputs": [],
      "payable": false,
      "stateMutability": "nonpayable",
      "type": "function"
    },
    {
      "constant": false,
      "inputs": [
        {
          "name": "_from",
          "type": "address"
        },
        {
          "name": "_to",
          "type": "address"
        },
        {
          "name": "_id",
          "type": "uint256"
        },
        {
          "name": "_value",
          "type": "uint256"
        },
        {
          "name": "_data",
          "type": "bytes"
        }
      ],
      "name": "mintFrom",
      "outputs": [],
      "payable": false,
      "stateMutability": "nonpayable",
      "type": "function"
    },
    {
      "constant": false,
      "inputs": [
        {
          "name": "_from",
          "type": "address"
        },
        {
          "name": "_to",
          "type": "address"
        },
        {
          "name": "_ids",
          "type": "uint256[]"
        },
        {
          "name": "_values",
          "type": "uint256[]"
        },
        {
          "name": "_data",
          "type": "bytes"
        }
      ],
      "name": "batchMintFrom",
      "outputs": [],
      "payable": false,
      "stateMutability": "nonpayable",
      "type": "function"
    },
    {
      "constant": false,
      "inputs": [
        {
          "name": "_from",
          "type": "address"
        },
        {
          "name": "_id",
          "type": "uint256"
        },
        {
          "name": "_value",
          "type": "uint256"
        },
        {
          "name": "_data",
          "type": "bytes"
        }
      ],
      "name": "burnFrom",
      "outputs": [],
      "payable": false,
      "stateMutability": "nonpayable",
      "type": "function"
    },
    {
      "constant": false,
      "inputs": [
        {
          "name": "_from",
          "type": "address"
        },
        {
          "name": "_ids",
          "type": "uint256[]"
        },
        {
          "name": "_values",
          "type": "uint256[]"
        },
        {
          "name": "_data",
          "type": "bytes"
        }
      ],
      "name": "batchBurnFrom",
      "outputs": [],
      "payable": false,
      "stateMutability": "nonpayable",
      "type": "function"
    },
    {
      "constant": true,
      "inputs": [
        {
          "name": "_truster",
          "type": "uint256"
        }
      ],
      "name": "getTrustedCourtsList",
      "outputs": [
        {
          "name": "",
          "type": "uint256[]"
        }
      ],
      "payable": false,
      "stateMutability": "view",
      "type": "function"
    },
    {
      "constant": false,
      "inputs": [
        {
          "name": "_court",
          "type": "uint256"
        },
        {
          "name": "_owner",
          "type": "address"
        }
      ],
      "name": "setOwner",
      "outputs": [],
      "payable": false,
      "stateMutability": "nonpayable",
      "type": "function"
    },
    {
      "constant": false,
      "inputs": [],
      "name": "createCourt",
      "outputs": [
        {
          "name": "_id",
          "type": "uint256"
        }
      ],
      "payable": false,
      "stateMutability": "nonpayable",
      "type": "function"
    },
    {
      "constant": false,
      "inputs": [
        {
          "name": "_court",
          "type": "uint256"
        }
      ],
      "name": "createLimitCourt",
      "outputs": [
        {
          "name": "",
          "type": "uint256"
        }
      ],
      "payable": false,
      "stateMutability": "nonpayable",
      "type": "function"
    },
    {
      "constant": false,
      "inputs": [],
      "name": "createIntercourtToken",
      "outputs": [
        {
          "name": "",
          "type": "uint256"
        }
      ],
      "payable": false,
      "stateMutability": "nonpayable",
      "type": "function"
    },
    {
      "constant": false,
      "inputs": [
        {
          "name": "_courtId",
          "type": "uint256"
        },
        {
          "name": "_intercourtTokens",
          "type": "uint256[]"
        },
        {
          "name": "_limits",
          "type": "uint256[]"
        }
      ],
      "name": "setCourtLimits",
      "outputs": [],
      "payable": false,
      "stateMutability": "nonpayable",
      "type": "function"
    },
    {
      "constant": false,
      "inputs": [
        {
          "name": "_courtId",
          "type": "uint256"
        },
        {
          "name": "_intercourtTokens",
          "type": "uint256[]"
        },
        {
          "name": "_limits",
          "type": "uint256[]"
        }
      ],
      "name": "addToCourtLimits",
      "outputs": [],
      "payable": false,
      "stateMutability": "nonpayable",
      "type": "function"
    },
    {
      "constant": false,
      "inputs": [
        {
          "name": "_truster",
          "type": "uint256"
        },
        {
          "name": "_trustees",
          "type": "uint256[]"
        }
      ],
      "name": "trustCourts",
      "outputs": [],
      "payable": false,
      "stateMutability": "nonpayable",
      "type": "function"
    },
    {
      "constant": false,
      "inputs": [
        {
          "name": "_truster",
          "type": "uint256"
        },
        {
          "name": "_trustees",
          "type": "uint256[]"
        }
      ],
      "name": "untrustCourts",
      "outputs": [],
      "payable": false,
      "stateMutability": "nonpayable",
      "type": "function"
    },
    {
      "constant": false,
      "inputs": [
        {
          "name": "_court",
          "type": "uint256"
        },
        {
          "name": "_intercourtToken",
          "type": "uint256"
        }
      ],
      "name": "_generateTokenId",
      "outputs": [
        {
          "name": "_token",
          "type": "uint256"
        }
      ],
      "payable": false,
      "stateMutability": "nonpayable",
      "type": "function"
    },
    {
      "constant": false,
      "inputs": [
        {
          "name": "_court",
          "type": "uint256"
        },
        {
          "name": "_intercourtToken",
          "type": "uint256"
        }
      ],
      "name": "_uncheckedGenerateTokenId",
      "outputs": [
        {
          "name": "_token",
          "type": "uint256"
        }
      ],
      "payable": false,
      "stateMutability": "nonpayable",
      "type": "function"
    },
    {
      "constant": false,
      "inputs": [
        {
          "name": "_id",
          "type": "uint256"
        }
      ],
      "name": "_getCourt",
      "outputs": [
        {
          "name": "",
          "type": "uint256"
        }
      ],
      "payable": false,
      "stateMutability": "nonpayable",
      "type": "function"
    },
    {
      "constant": false,
      "inputs": [
        {
          "name": "_id",
          "type": "uint256"
        }
      ],
      "name": "_getIntercourtToken",
      "outputs": [
        {
          "name": "",
          "type": "uint256"
        }
      ],
      "payable": false,
      "stateMutability": "nonpayable",
      "type": "function"
    },
    {
      "constant": true,
      "inputs": [
        {
          "name": "_court",
          "type": "uint256"
        }
      ],
      "name": "_getFinalCourt",
      "outputs": [
        {
          "name": "",
          "type": "uint256"
        }
      ],
      "payable": false,
      "stateMutability": "view",
      "type": "function"
    }
  ],
  "bytecode": "0x608060405234801561001057600080fd5b50613e5e806100206000396000f3006080604052600436106101b55763ffffffff7c0100000000000000000000000000000000000000000000000000000000600035041662fdd58e81146101ba57806301ffc9a7146101fd578063149b192d1461024b5780632276a84d1461026357806325c450d61461028957806327c7e5c8146102a15780632eb2c2d6146102bc5780632f752b9f1461031657806330d217c8146103315780633cecf7da146103615780633ea7cd96146103ab57806343fe3f69146103c35780634548d5bc146103db57806347dbe4e8146103f35780634b9c669b146104595780634e1273f4146104c15780636bd7fa5d146104ed57806371f296881461052e5780637593a2fb146105435780637fd392471461055b5780638592e3ab1461058c5780638d37a449146105a4578063920380eb146105bf57806393724905146106155780639eb0e8801461062a578063a22cb46514610684578063b4ba8a1e146106b7578063cb0985eb146106f9578063d7ce44dc1461071d578063d986443514610735578063e79390c514610765578063e985e9c514610780578063f0f1beba146107b4578063f242432a14610806578063ff3c127414610850575b600080fd5b3480156101c657600080fd5b506101eb73ffffffffffffffffffffffffffffffffffffffff60043516602435610868565b60408051918252519081900360200190f35b34801561020957600080fd5b506102377fffffffff000000000000000000000000000000000000000000000000000000006004351661089c565b604080519115158252519081900360200190f35b34801561025757600080fd5b506101eb600435610991565b34801561026f57600080fd5b506102876004803590602480359081019101356109a8565b005b34801561029557600080fd5b506101eb600435610c6b565b3480156102ad57600080fd5b506101eb600435602435610c7d565b3480156102c857600080fd5b5061028773ffffffffffffffffffffffffffffffffffffffff600480358216916024803590911691604435808301929082013591606435808301929082013591608435918201910135610cad565b34801561032257600080fd5b506101eb6004356024356110b3565b34801561033d57600080fd5b506102876004803590602480358082019290810135916044359081019101356110cd565b34801561036d57600080fd5b5061028773ffffffffffffffffffffffffffffffffffffffff6004803582169160248035909116916044359160643591608435918201910135611261565b3480156103b757600080fd5b506101eb60043561149f565b3480156103cf57600080fd5b506101eb6004356114b4565b3480156103e757600080fd5b506101eb6004356115bb565b3480156103ff57600080fd5b5061028773ffffffffffffffffffffffffffffffffffffffff60048035821691602480359091169160443580830192908201359160643580830192908201359160843580830192908201359160a4359182019101356115cc565b34801561046557600080fd5b50610471600435611987565b60408051602080825283518183015283519192839290830191858101910280838360005b838110156104ad578181015183820152602001610495565b505050509050019250505060405180910390f35b3480156104cd57600080fd5b5061047160246004803582810192908201359181359182019101356119e9565b3480156104f957600080fd5b50610505600435611aea565b6040805173ffffffffffffffffffffffffffffffffffffffff9092168252519081900360200190f35b34801561053a57600080fd5b506101eb611b12565b34801561054f57600080fd5b506101eb600435611b81565b34801561056757600080fd5b5061028760043573ffffffffffffffffffffffffffffffffffffffff60243516611bac565b34801561059857600080fd5b506101eb600435611c5a565b3480156105b057600080fd5b50610237600435602435611c6c565b3480156105cb57600080fd5b5061028773ffffffffffffffffffffffffffffffffffffffff600480358216916024803590911691604435916064359160843580830192908201359160a435918201910135611c8c565b34801561062157600080fd5b506101eb611ea4565b34801561063657600080fd5b5061028773ffffffffffffffffffffffffffffffffffffffff600480358216916024803590911691604435808301929082013591606435808301929082013591608435918201910135611ee4565b34801561069057600080fd5b5061028773ffffffffffffffffffffffffffffffffffffffff600435166024351515612227565b3480156106c357600080fd5b506102876004803573ffffffffffffffffffffffffffffffffffffffff16906024803591604435916064359081019101356122c0565b34801561070557600080fd5b50610287600480359060248035908101910135612463565b34801561072957600080fd5b50610237600435612729565b34801561074157600080fd5b5061028760048035906024803580820192908101359160443590810191013561273d565b34801561077157600080fd5b506101eb6004356024356128ed565b34801561078c57600080fd5b5061023773ffffffffffffffffffffffffffffffffffffffff60043581169060243516612919565b3480156107c057600080fd5b506102876004803573ffffffffffffffffffffffffffffffffffffffff169060248035808201929081013591604435808201929081013591606435908101910135612954565b34801561081257600080fd5b5061028773ffffffffffffffffffffffffffffffffffffffff6004803582169160248035909116916044359160643591608435918201910135612c61565b34801561085c57600080fd5b506101eb600435612e80565b600090815260026020908152604080832073ffffffffffffffffffffffffffffffffffffffff949094168352929052205490565b60007fffffffff0000000000000000000000000000000000000000000000000000000082167f01ffc9a700000000000000000000000000000000000000000000000000000000148061092f57507fffffffff0000000000000000000000000000000000000000000000000000000082167fd9b67a2600000000000000000000000000000000000000000000000000000000145b8061097b57507fffffffff0000000000000000000000000000000000000000000000000000000082167f0e89341c00000000000000000000000000000000000000000000000000000000145b156109885750600161098c565b5060005b919050565b700100000000000000000000000000000000900490565b60008381526009602052604081205473ffffffffffffffffffffffffffffffffffffffff163314610a3a57604080517f08c379a000000000000000000000000000000000000000000000000000000000815260206004820152601660248201527f576520617265206e6f7420636f757274206f776e657200000000000000000000604482015290519081900360640190fd5b610a4384612729565b15610a4d57600080fd5b5060005b81811015610c11576000838383818110610a6757fe5b90506020020135118015610a8f5750600054838383818110610a8557fe5b9050602002013511155b1515610afc57604080517f08c379a000000000000000000000000000000000000000000000000000000000815260206004820152601560248201527f436f75727420646f6573206e6f742065786973742e0000000000000000000000604482015290519081900360640190fd5b600084815260046020526040812090848484818110610b1757fe5b602090810292909201358352508101919091526040016000205460ff161515610c09576000848152600560205260409020805460010190610b589082613dec565b50828282818110610b6557fe5b600087815260056020908152604090912080549290910293909301359291507fffffffffffffffffffffffffffffffffffffffffffffffffffffffffffffffff8101908110610bb057fe5b6000918252602080832090910192909255858152600490915260408120600191858585818110610bdc57fe5b90506020020135815260200190815260200160002060006101000a81548160ff0219169083151502179055505b600101610a51565b837f01835e37708ef8e93c16d8a37f55b44f532c6dc9bafa814e7af773f271312d7384846040518080602001828103825284848281815260200192506020028082843760405192018290039550909350505050a250505050565b60076020526000908152604090205481565b600560205281600052604060002081815481101515610c9857fe5b90600052602060002001600091509150505481565b6000808073ffffffffffffffffffffffffffffffffffffffff8a161515610d5b57604080517f08c379a000000000000000000000000000000000000000000000000000000000815260206004820152602560248201527f64657374696e6174696f6e2061646472657373206d757374206265206e6f6e2d60448201527f7a65726f2e000000000000000000000000000000000000000000000000000000606482015290519081900360840190fd5b878614610def57604080517f08c379a000000000000000000000000000000000000000000000000000000000815260206004820152602960248201527f5f69647320616e64205f76616c756573206172726179206c656e677468206d7560448201527f7374206d617463682e0000000000000000000000000000000000000000000000606482015290519081900360840190fd5b73ffffffffffffffffffffffffffffffffffffffff8b16331480610e48575073ffffffffffffffffffffffffffffffffffffffff8b16600090815260036020908152604080832033845290915290205460ff1615156001145b1515610edb57604080517f08c379a000000000000000000000000000000000000000000000000000000000815260206004820152602f60248201527f4e656564206f70657261746f7220617070726f76616c20666f7220337264207060448201527f61727479207472616e73666572732e0000000000000000000000000000000000606482015290519081900360840190fd5b600092505b87831015610f2b57888884818110610ef457fe5b9050602002013591508686848181101515610f0b57fe5b905060200201359050610f208b8b8484612e92565b826001019250610ee0565b8973ffffffffffffffffffffffffffffffffffffffff168b73ffffffffffffffffffffffffffffffffffffffff163373ffffffffffffffffffffffffffffffffffffffff167f4a39dc06d4c0dbc64b70af90fd698a233a518aa5d07e595d983b8c0526c8f7fb8c8c8c8c6040518080602001806020018381038352878782818152602001925060200280828437909101848103835285815260209081019150869086028082843760405192018290039850909650505050505050a46110058a73ffffffffffffffffffffffffffffffffffffffff16612f51565b156110a6576110a6338c8c8c8c808060200260200160405190810160405280939291908181526020018383602002808284378201915050505050508b8b808060200260200160405190810160405280939291908181526020018383602002808284378201915050505050508a8a8080601f01602080910402602001604051908101604052809392919081815260200183838082843750612f59945050505050565b5050505050505050505050565b700100000000000000000000000000000000919091020190565b600085815260096020526040812054819073ffffffffffffffffffffffffffffffffffffffff16331461116157604080517f08c379a000000000000000000000000000000000000000000000000000000000815260206004820152601660248201527f576520617265206e6f7420636f757274206f776e657200000000000000000000604482015290519081900360640190fd5b82851461116d57600080fd5b61117687612729565b151561118157600080fd5b600091505b828210156111e1576111aa8787878581811061119e57fe5b905060200201356128ed565b90508383838181106111b857fe5b905060200201356007600083815260200190815260200160002081905550816001019150611186565b867f9319b2eec226290d5086d5802144e2375aa4559ecf6dd74a110d50f0c5cd1b9d878787876040518080602001806020018381038352878782818152602001925060200280828437909101848103835285815260209081019150869086028082843760405192018290039850909650505050505050a250505050505050565b73ffffffffffffffffffffffffffffffffffffffff851615156112e557604080517f08c379a000000000000000000000000000000000000000000000000000000000815260206004820152601560248201527f5f746f206d757374206265206e6f6e2d7a65726f2e0000000000000000000000604482015290519081900360640190fd5b73ffffffffffffffffffffffffffffffffffffffff861633148061133e575073ffffffffffffffffffffffffffffffffffffffff8616600090815260036020908152604080832033845290915290205460ff1615156001145b15156113d157604080517f08c379a000000000000000000000000000000000000000000000000000000000815260206004820152602f60248201527f4e656564206f70657261746f7220617070726f76616c20666f7220337264207060448201527f61727479207472616e73666572732e0000000000000000000000000000000000606482015290519081900360840190fd5b6113dd86868686613241565b6040805185815260208101859052815173ffffffffffffffffffffffffffffffffffffffff88169260009233927fc3d58168c5ae7397731d063d5bbf3d657854427343f4c083240f7aacaa2d0f62929181900390910190a46114548573ffffffffffffffffffffffffffffffffffffffff16612f51565b1561149757611497338787878787878080601f01602080910402602001604051908101604052809392919081815260200183838082843750613420945050505050565b505050505050565b6fffffffffffffffffffffffffffffffff1690565b6000806000831180156114c957506000548311155b151561153657604080517f08c379a000000000000000000000000000000000000000000000000000000000815260206004820152601560248201527f436f75727420646f6573206e6f742065786973742e0000000000000000000000604482015290519081900360640190fd5b506000805460010180825580825260096020908152604080842080547fffffffffffffffffffffffff00000000000000000000000000000000000000001633908117909155600690925280842086905551919283928692917f6d5a54c82edaac836a5ecd92cfeaa4320dda455508fc7e4f3a5ce7ec37077c3a91a48091505b50919050565b60006115c682611b81565b92915050565b6060600088871461166457604080517f08c379a000000000000000000000000000000000000000000000000000000000815260206004820152603660248201527f5f696e746572636f757274546f6b656e7320616e64205f76616c75657320617260448201527f726179206c656e677468206d757374206d617463682e00000000000000000000606482015290519081900360840190fd5b6116fc8c8c8c8c808060200260200160405190810160405280939291908181526020018383602002808284378201915050505050508b8b808060200260200160405190810160405280939291908181526020018383602002808284378201915050505050508a8a808060200260200160405190810160405280939291908181526020018383602002808284375061368c945050505050565b60008c73ffffffffffffffffffffffffffffffffffffffff163373ffffffffffffffffffffffffffffffffffffffff167f4a39dc06d4c0dbc64b70af90fd698a233a518aa5d07e595d983b8c0526c8f7fb8d8d8d8d6040518080602001806020018381038352878782818152602001925060200280828437909101848103835285815260209081019150869086028082843760405192018290039850909650505050505050a48a73ffffffffffffffffffffffffffffffffffffffff1660003373ffffffffffffffffffffffffffffffffffffffff167f4a39dc06d4c0dbc64b70af90fd698a233a518aa5d07e595d983b8c0526c8f7fb8d8d8d8d6040518080602001806020018381038352878782818152602001925060200280828437909101848103835285815260209081019150869086028082843760405192018290039850909650505050505050a4604080518a81526020808c02820101909152898015611871578160200160208202803883390190505b509150600090505b81518110156118e8576118c886867fffffffffffffffffffffffffffffffffffffffffffffffffffffffffffffffff81018181106118b357fe5b905060200201358b8b84818110151561119e57fe5b82828151811015156118d657fe5b60209081029091010152600101611879565b6119078b73ffffffffffffffffffffffffffffffffffffffff16612f51565b1561197957611979338d8d858c8c8080602002602001604051908101604052809392919081815260200183836020028082843782019150505050505089898080601f01602080910402602001604051908101604052809392919081815260200183838082843750612f59945050505050565b505050505050505050505050565b6000818152600560209081526040918290208054835181840281018401909452808452606093928301828280156119dd57602002820191906000526020600020905b8154815260200190600101908083116119c9575b50505050509050919050565b60608060008584146119fa57600080fd5b604080518781526020808902820101909152868015611a23578160200160208202803883390190505b509150600090505b85811015611ae05760026000868684818110611a4357fe5b90506020020135815260200190815260200160002060008888848181101515611a6857fe5b9050602002013573ffffffffffffffffffffffffffffffffffffffff1673ffffffffffffffffffffffffffffffffffffffff1673ffffffffffffffffffffffffffffffffffffffff168152602001908152602001600020548282815181101515611ace57fe5b60209081029091010152600101611a2b565b5095945050505050565b60096020526000908152604090205473ffffffffffffffffffffffffffffffffffffffff1681565b600080546001018082558082526009602052604080832080547fffffffffffffffffffffffff000000000000000000000000000000000000000016339081179091559051919283927f710eef371f5a53fba3ba016ef4d1dcbe6d090be1d240ca0a7f5b6a640cadff589190a390565b6000805b50600082815260066020526040902054801515611ba4578291506115b5565b809250611b85565b60008281526009602052604090205473ffffffffffffffffffffffffffffffffffffffff163314611bdc57600080fd5b60008281526009602052604080822080547fffffffffffffffffffffffff00000000000000000000000000000000000000001673ffffffffffffffffffffffffffffffffffffffff85169081179091559051909184917f38b2cbf571fbace074ff0149476c2adcf9c2f47d18bb39f9924473108a47278d9190a35050565b60086020526000908152604090205481565b600460209081526000928352604080842090915290825290205460ff1681565b6040805160018082528183019092526060918291906020808301908038833901905050915087826000815181101515611cc157fe5b602090810290910101526040805160018082528183019092529081602001602082028038833901905050905086816000815181101515611cfd57fe5b9060200190602002018181525050611d458a8a84848a8a808060200260200160405190810160405280939291908181526020018383602002808284375061368c945050505050565b600073ffffffffffffffffffffffffffffffffffffffff8b16337fc3d58168c5ae7397731d063d5bbf3d657854427343f4c083240f7aacaa2d0f62611d9c8a8a86818110611d8f57fe5b905060200201358d6110b3565b60408051918252602082018d90528051918290030190a473ffffffffffffffffffffffffffffffffffffffff89166000337fc3d58168c5ae7397731d063d5bbf3d657854427343f4c083240f7aacaa2d0f62611e1f8a8a7fffffffffffffffffffffffffffffffffffffffffffffffffffffffffffffffff8101818110611d8f57fe5b60408051918252602082018d90528051918290030190a4611e558973ffffffffffffffffffffffffffffffffffffffff16612f51565b15611e9857611e98338b8b8b8b89898080601f01602080910402602001604051908101604052809392919081815260200183838082843750613420945050505050565b50505050505050505050565b600180548101908190556040516000919081907fdcb245c4b02a51eb30e854a8476b3a4640d7648b4c22af3d710a3b1a2f906c8b908490a28091505b5090565b6000808073ffffffffffffffffffffffffffffffffffffffff8a161515611f9257604080517f08c379a000000000000000000000000000000000000000000000000000000000815260206004820152602560248201527f64657374696e6174696f6e2061646472657373206d757374206265206e6f6e2d60448201527f7a65726f2e000000000000000000000000000000000000000000000000000000606482015290519081900360840190fd5b87861461202657604080517f08c379a000000000000000000000000000000000000000000000000000000000815260206004820152602960248201527f5f69647320616e64205f76616c756573206172726179206c656e677468206d7560448201527f7374206d617463682e0000000000000000000000000000000000000000000000606482015290519081900360840190fd5b73ffffffffffffffffffffffffffffffffffffffff8b1633148061207f575073ffffffffffffffffffffffffffffffffffffffff8b16600090815260036020908152604080832033845290915290205460ff1615156001145b151561211257604080517f08c379a000000000000000000000000000000000000000000000000000000000815260206004820152602f60248201527f4e656564206f70657261746f7220617070726f76616c20666f7220337264207060448201527f61727479207472616e73666572732e0000000000000000000000000000000000606482015290519081900360840190fd5b600092505b878310156121625788888481811061212b57fe5b905060200201359150868684818110151561214257fe5b9050602002013590506121578b8b8484613241565b826001019250612117565b8973ffffffffffffffffffffffffffffffffffffffff1660003373ffffffffffffffffffffffffffffffffffffffff167f4a39dc06d4c0dbc64b70af90fd698a233a518aa5d07e595d983b8c0526c8f7fb8c8c8c8c6040518080602001806020018381038352878782818152602001925060200280828437909101848103835285815260209081019150869086028082843760405192018290039850909650505050505050a46110058a73ffffffffffffffffffffffffffffffffffffffff16612f51565b33600081815260036020908152604080832073ffffffffffffffffffffffffffffffffffffffff87168085529083529281902080547fffffffffffffffffffffffffffffffffffffffffffffffffffffffffffffff0016861515908117909155815190815290519293927f17307eab39ab6107e8899845ad3d59bd9653f200f220920489ca2b5937696c31929181900390910190a35050565b73ffffffffffffffffffffffffffffffffffffffff8516331480612319575073ffffffffffffffffffffffffffffffffffffffff8516600090815260036020908152604080832033845290915290205460ff1615156001145b15156123ac57604080517f08c379a000000000000000000000000000000000000000000000000000000000815260206004820152602f60248201527f4e656564206f70657261746f7220617070726f76616c20666f7220337264207060448201527f61727479207472616e73666572732e0000000000000000000000000000000000606482015290519081900360840190fd5b600084815260026020908152604080832073ffffffffffffffffffffffffffffffffffffffff891684529091529020546123ec908463ffffffff613c5816565b600085815260026020908152604080832073ffffffffffffffffffffffffffffffffffffffff8a16808552908352818420949094558051888152918201879052805192939233927fc3d58168c5ae7397731d063d5bbf3d657854427343f4c083240f7aacaa2d0f6292908290030190a45050505050565b600083815260096020526040812054819073ffffffffffffffffffffffffffffffffffffffff1633146124f757604080517f08c379a000000000000000000000000000000000000000000000000000000000815260206004820152601660248201527f576520617265206e6f7420636f757274206f776e657200000000000000000000604482015290519081900360640190fd5b61250085612729565b1561250a57600080fd5b5050600083815260056020526040812054905b828110156126b357600084848381811061253357fe5b9050602002013511801561255b575060005484848381811061255157fe5b9050602002013511155b15156125c857604080517f08c379a000000000000000000000000000000000000000000000000000000000815260206004820152601560248201527f436f75727420646f6573206e6f742065786973742e0000000000000000000000604482015290519081900360640190fd5b6000858152600460205260408120908585848181106125e357fe5b602090810292909201358352508101919091526040016000205460ff16156126ab5760008581526004602052604081208186868581811061262057fe5b90506020020135815260200190815260200160002060006101000a81548160ff02191690831515021790555060056000868152602001908152602001600020826001900392508281548110151561267357fe5b9060005260206000200154600560008781526020019081526020016000208281548110151561269e57fe5b6000918252602090912001555b60010161251d565b600085815260056020526040902082906126cd9082613dec565b50847f9beb7615ce5f9480ff031ec5ffcec6b73e8409db31266fe0d1dab8ed23c9354885856040518080602001828103825284848281815260200192506020028082843760405192018290039550909350505050a25050505050565b600090815260066020526040902054151590565b6000858152600960205260408120548190819073ffffffffffffffffffffffffffffffffffffffff1633146127d357604080517f08c379a000000000000000000000000000000000000000000000000000000000815260206004820152601660248201527f576520617265206e6f7420636f757274206f776e657200000000000000000000604482015290519081900360640190fd5b8386146127df57600080fd5b6127e888612729565b15156127f357600080fd5b600092505b8383101561286c576128108888888681811061119e57fe5b6000818152600760205260409020549092506128479086868681811061283257fe5b90506020020135613d3f90919063ffffffff16565b905080156128615760008281526007602052604090208190555b8260010192506127f8565b877fb0f70555aa39457ca9af095564f9e0f9e0b1dce2a63b7f5f46f5961f9f3b0811888888886040518080602001806020018381038352878782818152602001925060200280828437909101848103835285815260209081019150869086028082843760405192018290039850909650505050505050a25050505050505050565b600082158015906128fd57508115155b151561290857600080fd5b61291283836110b3565b9392505050565b73ffffffffffffffffffffffffffffffffffffffff918216600090815260036020908152604080832093909416825291909152205460ff1690565b600080808786146129ec57604080517f08c379a000000000000000000000000000000000000000000000000000000000815260206004820152602960248201527f5f69647320616e64205f76616c756573206172726179206c656e677468206d7560448201527f7374206d617463682e0000000000000000000000000000000000000000000000606482015290519081900360840190fd5b73ffffffffffffffffffffffffffffffffffffffff8a16331480612a45575073ffffffffffffffffffffffffffffffffffffffff8a16600090815260036020908152604080832033845290915290205460ff1615156001145b1515612ad857604080517f08c379a000000000000000000000000000000000000000000000000000000000815260206004820152602f60248201527f4e656564206f70657261746f7220617070726f76616c20666f7220337264207060448201527f61727479207472616e73666572732e0000000000000000000000000000000000606482015290519081900360840190fd5b600092505b87831015612baf57888884818110612af157fe5b9050602002013591508686848181101515612b0857fe5b905060200201359050612b74816002600085815260200190815260200160002060008d73ffffffffffffffffffffffffffffffffffffffff1673ffffffffffffffffffffffffffffffffffffffff16815260200190815260200160002054613c5890919063ffffffff16565b600083815260026020908152604080832073ffffffffffffffffffffffffffffffffffffffff8f168452909152902055600190920191612add565b60008a73ffffffffffffffffffffffffffffffffffffffff163373ffffffffffffffffffffffffffffffffffffffff167f4a39dc06d4c0dbc64b70af90fd698a233a518aa5d07e595d983b8c0526c8f7fb8c8c8c8c6040518080602001806020018381038352878782818152602001925060200280828437909101848103835285815260209081019150869086028082843760405192018290039850909650505050505050a450505050505050505050565b73ffffffffffffffffffffffffffffffffffffffff85161515612ce557604080517f08c379a000000000000000000000000000000000000000000000000000000000815260206004820152601560248201527f5f746f206d757374206265206e6f6e2d7a65726f2e0000000000000000000000604482015290519081900360640190fd5b73ffffffffffffffffffffffffffffffffffffffff8616331480612d3e575073ffffffffffffffffffffffffffffffffffffffff8616600090815260036020908152604080832033845290915290205460ff1615156001145b1515612dd157604080517f08c379a000000000000000000000000000000000000000000000000000000000815260206004820152602f60248201527f4e656564206f70657261746f7220617070726f76616c20666f7220337264207060448201527f61727479207472616e73666572732e0000000000000000000000000000000000606482015290519081900360840190fd5b612ddd86868686612e92565b8473ffffffffffffffffffffffffffffffffffffffff168673ffffffffffffffffffffffffffffffffffffffff163373ffffffffffffffffffffffffffffffffffffffff167fc3d58168c5ae7397731d063d5bbf3d657854427343f4c083240f7aacaa2d0f628787604051808381526020018281526020019250505060405180910390a46114548573ffffffffffffffffffffffffffffffffffffffff16612f51565b60066020526000908152604090205481565b600082815260026020908152604080832073ffffffffffffffffffffffffffffffffffffffff88168452909152902054612ed2908263ffffffff613c5816565b600083815260026020908152604080832073ffffffffffffffffffffffffffffffffffffffff8981168552925280832093909355851681522054612f17908290613d3f565b600092835260026020908152604080852073ffffffffffffffffffffffffffffffffffffffff909616855294905292909120919091555050565b6000903b1190565b63bc197c817c0100000000000000000000000000000000000000000000000000000000027bffffffffffffffffffffffffffffffffffffffffffffffffffffffff19168473ffffffffffffffffffffffffffffffffffffffff1663bc197c8188888787876040518663ffffffff167c0100000000000000000000000000000000000000000000000000000000028152600401808673ffffffffffffffffffffffffffffffffffffffff1673ffffffffffffffffffffffffffffffffffffffff1681526020018573ffffffffffffffffffffffffffffffffffffffff1673ffffffffffffffffffffffffffffffffffffffff168152602001806020018060200180602001848103845287818151815260200191508051906020019060200280838360005b8381101561309457818101518382015260200161307c565b50505050905001848103835286818151815260200191508051906020019060200280838360005b838110156130d35781810151838201526020016130bb565b50505050905001848103825285818151815260200191508051906020019080838360005b8381101561310f5781810151838201526020016130f7565b50505050905090810190601f16801561313c5780820380516001836020036101000a031916815260200191505b5098505050505050505050602060405180830381600087803b15801561316157600080fd5b505af1158015613175573d6000803e3d6000fd5b505050506040513d602081101561318b57600080fd5b50517fffffffff00000000000000000000000000000000000000000000000000000000161461149757604080517f08c379a000000000000000000000000000000000000000000000000000000000815260206004820152603e60248201527f636f6e74726163742072657475726e656420616e20756e6b6e6f776e2076616c60448201527f75652066726f6d206f6e45524331313535426174636852656365697665640000606482015290519081900360840190fd5b60008061324d84610991565b91506132588461149f565b9050811580159061326857508015155b15156132d557604080517f08c379a000000000000000000000000000000000000000000000000000000000815260206004820152600e60248201527f496e76616c696420746f6b656e2e000000000000000000000000000000000000604482015290519081900360640190fd5b60008281526009602052604090205473ffffffffffffffffffffffffffffffffffffffff163314806133365750600084815260026020908152604080832073ffffffffffffffffffffffffffffffffffffffff8a1684529091529020548311155b15156133a357604080517f08c379a000000000000000000000000000000000000000000000000000000000815260206004820152601360248201527f496e73756666696369656e742066756e64732e00000000000000000000000000604482015290519081900360640190fd5b600084815260026020908152604080832073ffffffffffffffffffffffffffffffffffffffff891684529091529020546133e490849063ffffffff613d3f16565b600094855260026020908152604080872073ffffffffffffffffffffffffffffffffffffffff9098168752969052949093209390935550505050565b63f23a6e617c0100000000000000000000000000000000000000000000000000000000027bffffffffffffffffffffffffffffffffffffffffffffffffffffffff19168473ffffffffffffffffffffffffffffffffffffffff1663f23a6e6188888787876040518663ffffffff167c0100000000000000000000000000000000000000000000000000000000028152600401808673ffffffffffffffffffffffffffffffffffffffff1673ffffffffffffffffffffffffffffffffffffffff1681526020018573ffffffffffffffffffffffffffffffffffffffff1673ffffffffffffffffffffffffffffffffffffffff16815260200184815260200183815260200180602001828103825283818151815260200191508051906020019080838360005b8381101561355c578181015183820152602001613544565b50505050905090810190601f1680156135895780820380516001836020036101000a031916815260200191505b509650505050505050602060405180830381600087803b1580156135ac57600080fd5b505af11580156135c0573d6000803e3d6000fd5b505050506040513d60208110156135d657600080fd5b50517fffffffff00000000000000000000000000000000000000000000000000000000161461149757604080517f08c379a000000000000000000000000000000000000000000000000000000000815260206004820152603960248201527f636f6e74726163742072657475726e656420616e20756e6b6e6f776e2076616c60448201527f75652066726f6d206f6e45524331313535526563656976656400000000000000606482015290519081900360840190fd5b600080808080808073ffffffffffffffffffffffffffffffffffffffff8b16151561371857604080517f08c379a000000000000000000000000000000000000000000000000000000000815260206004820152601560248201527f5f746f206d757374206265206e6f6e2d7a65726f2e0000000000000000000000604482015290519081900360640190fd5b88518a511461372357fe5b8751151561373057600080fd5b73ffffffffffffffffffffffffffffffffffffffff8c16331480613789575073ffffffffffffffffffffffffffffffffffffffff8c16600090815260036020908152604080832033845290915290205460ff1615156001145b151561381c57604080517f08c379a000000000000000000000000000000000000000000000000000000000815260206004820152602f60248201527f4e656564206f70657261746f7220617070726f76616c20666f7220337264207060448201527f61727479207472616e73666572732e0000000000000000000000000000000000606482015290519081900360840190fd5b600096505b600188510387101561392d57600460006138548a8a60010181518110151561384557fe5b90602001906020020151611b81565b81526020019081526020016000206000898981518110151561387257fe5b602090810290910181015182528101919091526040016000205460ff16151561392257604080517f08c379a000000000000000000000000000000000000000000000000000000000815260206004820152602d60248201527f4120636f75727420696e207468652070617468206973206e6f7420696e20612060448201527f74727573746564206c6973742e00000000000000000000000000000000000000606482015290519081900360840190fd5b866001019650613821565b600095505b895186101561197957898681518110151561394957fe5b90602001906020020151945061397061396a89600081518110151561384557fe5b866128ed565b935061398a61396a8960018b510381518110151561384557fe5b9250613a06898781518110151561399d57fe5b906020019060200201516002600087815260200190815260200160002060008f73ffffffffffffffffffffffffffffffffffffffff1673ffffffffffffffffffffffffffffffffffffffff16815260200190815260200160002054613c5890919063ffffffff16565b6002600086815260200190815260200160002060008e73ffffffffffffffffffffffffffffffffffffffff1673ffffffffffffffffffffffffffffffffffffffff16815260200190815260200160002081905550613ad26002600085815260200190815260200160002060008d73ffffffffffffffffffffffffffffffffffffffff1673ffffffffffffffffffffffffffffffffffffffff168152602001908152602001600020548a88815181101515613abc57fe5b602090810290910101519063ffffffff613d3f16565b6002600085815260200190815260200160002060008d73ffffffffffffffffffffffffffffffffffffffff1673ffffffffffffffffffffffffffffffffffffffff16815260200190815260200160002081905550600096505b8751871015613c4d578787815181101515613b4257fe5b9060200190602002015191505b613b5882612729565b15613c4257613b6782866128ed565b9050613ba18987815181101515613b7a57fe5b6020908102909101810151600084815260089092526040909120549063ffffffff613d3f16565b6000828152600860208181526040808420859055600782529092205491521015613c2c57604080517f08c379a000000000000000000000000000000000000000000000000000000000815260206004820152601560248201527f436f757274206c696d69742065786365656465642e0000000000000000000000604482015290519081900360640190fd5b6000918252600660205260409091205490613b4f565b866001019650613b2b565b856001019550613932565b60408051808201909152601281527f4d4154485f5355425f554e444552464c4f5700000000000000000000000000006020820152600090819084841115613d37576040517f08c379a00000000000000000000000000000000000000000000000000000000081526004018080602001828103825283818151815260200191508051906020019080838360005b83811015613cfc578181015183820152602001613ce4565b50505050905090810190601f168015613d295780820380516001836020036101000a031916815260200191505b509250505060405180910390fd5b505050900390565b60408051808201909152601181527f4d4154485f4144445f4f564552464c4f5700000000000000000000000000000060208201526000908383019084821015613de4576040517f08c379a000000000000000000000000000000000000000000000000000000000815260040180806020018281038252838181518152602001915080519060200190808383600083811015613cfc578181015183820152602001613ce4565b509392505050565b815481835581811115613e1057600083815260209020613e10918101908301613e15565b505050565b613e2f91905b80821115611ee05760008155600101613e1b565b905600a165627a7a72305820f8582d3d0ec40e89b7b2b32d31cb5cc1099de811b1e864a37560a3a8ac5fcf0a0029",
  "source": "pragma solidity ^0.4.0;\n\nimport \"@aragon/os/contracts/lib/math/SafeMath.sol\";\nimport \"./Address.sol\";\nimport \"./Common.sol\";\nimport \"./IERC1155TokenReceiver.sol\";\nimport \"./IERC1155.sol\";\n\ncontract RewardCourts is IERC1155, ERC165, CommonConstants\n{\n    using SafeMath for uint256;\n    using Address for address;\n\n    uint256 internal courtNonce;\n    uint256 internal icTokenNonce;\n\n    // token => (owner => balance)\n    mapping (uint256 => mapping(address => uint256)) internal balances;\n\n    // owner => (operator => approved)\n    mapping (address => mapping(address => bool)) internal operatorApproval;\n    \n    // token => (owner => spentLimit)\n    //mapping (address => mapping (address => uint256)) public spentLimit; // It is better done in the wrapper (voting) contract.\n    \n    // Trustee can be either a court ID or limit ID.\n    // truster => (trustee => bool)\n    mapping (uint256 => mapping (uint256 => bool)) public trustedCourts; // which courts are trusted\n    \n    // truster => trustees[]\n    mapping (uint256 => uint256[]) public trustedCourtsList;\n    \n    // limitId => court\n    mapping (uint256 => uint256) public limitCourts;\n    \n    // token => amount\n    mapping (uint256 => uint256) public courtLimits;\n    \n    // How much limit courts used\n    // token => amount\n    mapping (uint256 => uint256) public courtTotalSpents;\n    \n    // token => court\n    //mapping (address => uint256) public tokenControllingCourts;\n\n    // token => intercourt token\n    //mapping (address => uint256) public interCourtTokens;\n    \n    // court ID or limit ID => owner\n    mapping (uint256 => address) public courtOwners;\n\n    event CourtCreated(address indexed owner, uint256 indexed createdCourt);\n    event LimitCourtCreated(address indexed owner, uint256 indexed baseCourt, uint256 indexed createdCourt);\n    event IntercourtTokenCreated(uint256 indexed ictoken);\n    event SetOwner(uint256 indexed court, address indexed owner);\n    event SetCourtLimits(uint256 indexed courtId, uint256[] intercourtTokens, uint256[] limits);\n    event AddToCourtLimits(uint256 indexed courtId, uint256[] intercourtTokens, uint256[] limits);\n    event TrustCourts(uint256 indexed truster, uint256[] trustees);\n    event UntrustCourts(uint256 indexed truster, uint256[] trustees);\n\n/////////////////////////////////////////// ERC165 //////////////////////////////////////////////\n\n    /*\n        bytes4(keccak256('supportsInterface(bytes4)'));\n    */\n    bytes4 constant private INTERFACE_SIGNATURE_ERC165 = 0x01ffc9a7;\n\n    /*\n        bytes4(keccak256(\"safeTransferFrom(address,address,uint256,uint256,bytes)\")) ^\n        bytes4(keccak256(\"safeBatchTransferFrom(address,address,uint256[],uint256[],bytes)\")) ^\n        bytes4(keccak256(\"balanceOf(address,uint256)\")) ^\n        bytes4(keccak256(\"balanceOfBatch(address[],uint256[])\")) ^\n        bytes4(keccak256(\"setApprovalForAll(address,bool)\")) ^\n        bytes4(keccak256(\"isApprovedForAll(address,address)\"));\n    */\n    bytes4 constant private INTERFACE_SIGNATURE_ERC1155 = 0xd9b67a26;\n\n    bytes4 constant private INTERFACE_SIGNATURE_URI = 0x0e89341c;\n    \n    function supportsInterface(bytes4 _interfaceId)\n    public\n    view\n    returns (bool) {\n         if (_interfaceId == INTERFACE_SIGNATURE_ERC165 ||\n             _interfaceId == INTERFACE_SIGNATURE_ERC1155 ||\n             _interfaceId == INTERFACE_SIGNATURE_URI) {\n            return true;\n         }\n\n         return false;\n    }\n\n/////////////////////////////////////////// ERC1155 //////////////////////////////////////////////\n\n    /**\n        @notice Transfers `_value` amount of an `_id` from the `_from` address to the `_to` address specified (with safety call).\n        @dev Caller must be approved to manage the tokens being transferred out of the `_from` account (see \"Approval\" section of the standard).\n        MUST revert if `_to` is the zero address.\n        MUST revert if balance of holder for token `_id` is lower than the `_value` sent.\n        MUST revert on any other error.\n        MUST emit the `TransferSingle` event to reflect the balance change (see \"Safe Transfer Rules\" section of the standard).\n        After the above conditions are met, this function MUST check if `_to` is a smart contract (e.g. code size > 0). If so, it MUST call `onERC1155Received` on `_to` and act appropriately (see \"Safe Transfer Rules\" section of the standard).\n        @param _from    Source address\n        @param _to      Target address\n        @param _id      ID of the token type\n        @param _value   Transfer amount\n        @param _data    Additional data with no specified format, MUST be sent unaltered in call to `onERC1155Received` on `_to`\n    */\n    function safeTransferFrom(address _from, address _to, uint256 _id, uint256 _value, bytes _data) external {\n\n        require(_to != address(0x0), \"_to must be non-zero.\");\n        require(_from == msg.sender || operatorApproval[_from][msg.sender] == true, \"Need operator approval for 3rd party transfers.\");\n\n        _doSafeTransferFrom(_from, _to, _id, _value);\n\n        // MUST emit event\n        emit TransferSingle(msg.sender, _from, _to, _id, _value);\n\n        // Now that the balance is updated and the event was emitted,\n        // call onERC1155Received if the destination is a contract.\n        if (_to.isContract()) {\n            _doSafeTransferAcceptanceCheck(msg.sender, _from, _to, _id, _value, _data);\n        }\n    }\n\n    /**\n        @notice Transfers `_values` amount(s) of `_ids` from the `_from` address to the `_to` address specified (with safety call).\n        @dev Caller must be approved to manage the tokens being transferred out of the `_from` account (see \"Approval\" section of the standard).\n        MUST revert if `_to` is the zero address.\n        MUST revert if length of `_ids` is not the same as length of `_values`.\n        MUST revert if any of the balance(s) of the holder(s) for token(s) in `_ids` is lower than the respective amount(s) in `_values` sent to the recipient.\n        MUST revert on any other error.\n        MUST emit `TransferSingle` or `TransferBatch` event(s) such that all the balance changes are reflected (see \"Safe Transfer Rules\" section of the standard).\n        Balance changes and events MUST follow the ordering of the arrays (_ids[0]/_values[0] before _ids[1]/_values[1], etc).\n        After the above conditions for the transfer(s) in the batch are met, this function MUST check if `_to` is a smart contract (e.g. code size > 0). If so, it MUST call the relevant `ERC1155TokenReceiver` hook(s) on `_to` and act appropriately (see \"Safe Transfer Rules\" section of the standard).\n        @param _from    Source address\n        @param _to      Target address\n        @param _ids     IDs of each token type (order and length must match _values array)\n        @param _values  Transfer amounts per token type (order and length must match _ids array)\n        @param _data    Additional data with no specified format, MUST be sent unaltered in call to the `ERC1155TokenReceiver` hook(s) on `_to`\n    */\n    function safeBatchTransferFrom(address _from, address _to, uint256[] _ids, uint256[] _values, bytes _data) external {\n\n        // MUST Throw on errors\n        require(_to != address(0x0), \"destination address must be non-zero.\");\n        require(_ids.length == _values.length, \"_ids and _values array length must match.\");\n        require(_from == msg.sender || operatorApproval[_from][msg.sender] == true, \"Need operator approval for 3rd party transfers.\");\n\n        for (uint256 i = 0; i < _ids.length; ++i) {\n            uint256 _id = _ids[i];\n            uint256 _value = _values[i];\n\n            _doSafeTransferFrom(_from, _to, _id, _value);\n        }\n\n        // Note: instead of the below batch versions of event and acceptance check you MAY have emitted a TransferSingle\n        // event and a subsequent call to _doSafeTransferAcceptanceCheck in above loop for each balance change instead.\n        // Or emitted a TransferSingle event for each in the loop and then the single _doSafeBatchTransferAcceptanceCheck below.\n        // However it is implemented the balance changes and events MUST match when a check (i.e. calling an external contract) is done.\n\n        // MUST emit event\n        emit TransferBatch(msg.sender, _from, _to, _ids, _values);\n\n        // Now that the balances are updated and the events are emitted,\n        // call onERC1155BatchReceived if the destination is a contract.\n        if (_to.isContract()) {\n            _doSafeBatchTransferAcceptanceCheck(msg.sender, _from, _to, _ids, _values, _data);\n        }\n    }\n\n    /**\n        @notice Get the balance of an account's Tokens.\n        @param _owner  The address of the token holder\n        @param _id     ID of the Token\n        @return        The _owner's balance of the Token type requested\n     */\n    function balanceOf(address _owner, uint256 _id) external view returns (uint256) {\n        // The balance of any account can be calculated from the Transfer events history.\n        // However, since we need to keep the balances to validate transfer request,\n        // there is no extra cost to also privide a querry function.\n        return balances[_id][_owner];\n    }\n\n\n    /**\n        @notice Get the balance of multiple account/token pairs\n        @param _owners The addresses of the token holders\n        @param _ids    ID of the Tokens\n        @return        The _owner's balance of the Token types requested (i.e. balance for each (owner, id) pair)\n     */\n    function balanceOfBatch(address[] _owners, uint256[] _ids) external view returns (uint256[] memory) {\n\n        require(_owners.length == _ids.length);\n\n        uint256[] memory balances_ = new uint256[](_owners.length);\n\n        for (uint256 i = 0; i < _owners.length; ++i) {\n            balances_[i] = balances[_ids[i]][_owners[i]];\n        }\n\n        return balances_;\n    }\n\n    /**\n        @notice Enable or disable approval for a third party (\"operator\") to manage all of the caller's tokens.\n        @dev MUST emit the ApprovalForAll event on success.\n        @param _operator  Address to add to the set of authorized operators\n        @param _approved  True if the operator is approved, false to revoke approval\n    */\n    function setApprovalForAll(address _operator, bool _approved) external {\n        operatorApproval[msg.sender][_operator] = _approved;\n        emit ApprovalForAll(msg.sender, _operator, _approved);\n    }\n\n    /**\n        @notice Queries the approval status of an operator for a given owner.\n        @param _owner     The owner of the Tokens\n        @param _operator  Address of authorized operator\n        @return           True if the operator is approved, false if not\n    */\n    function isApprovedForAll(address _owner, address _operator) external view returns (bool) {\n        return operatorApproval[_owner][_operator];\n    }\n\n/////////////////////////////////////////// Court //////////////////////////////////////////////\n\n    /**\n        @notice Check if given court ID corresponds to a limit court.\n        @param _court     Court ID\n        @return           True if it is a limit court\n    */\n    function isLimitCourt(uint256 _court) public view returns (bool) {\n        return limitCourts[_court] != 0;\n    }\n\n    /**\n        @notice Get final (non-limit) court in a chain of courts.\n        @param _court     Court ID to start with\n        @return           Non-limit court ID\n    */\n    function getFinalCourt(uint256 _court) external view returns (uint256) {\n        return _getFinalCourt(_court);\n    }\n\n    /// Transfer through Multiple Courts ///\n\n    /**\n        @notice Transfer money through several courts with automatic currency conversion between court tokens.\n        @param _from    Source address\n        @param _to      Target address\n        @param _intercourtToken Intercourt token\n        @param _value   Transfer amount\n        @param _courtsPath Through which courts to transfer\n        @param _data    Additional data with no specified format, MUST be sent unaltered in call to `onERC1155Received` on `_to`\n    */\n    function intercourtTransfer(address _from, address _to, uint256 _intercourtToken, uint256 _value, uint256[] _courtsPath, bytes _data) external {\n        uint256[] memory _ids = new uint256[](1);\n        _ids[0] = _intercourtToken;\n        uint256[] memory _values = new uint256[](1);\n        _values[0] = _value;\n        _doIntercourtTransferBatch(_from, _to, _ids, _values, _courtsPath);\n\n        // Using _uncheckedGenerateTokenId because already checked in _doIntercourtTransferBatch().\n        emit TransferSingle(msg.sender, _from, 0x0, _uncheckedGenerateTokenId(_courtsPath[0], _intercourtToken), _value);\n        emit TransferSingle(msg.sender, 0x0, _to, _uncheckedGenerateTokenId(_courtsPath[_courtsPath.length - 1], _intercourtToken), _value);\n\n        // Now that the balance is updated and the event was emitted,\n        // call onERC1155Received if the destination is a contract.\n        if (_to.isContract()) {\n            _doSafeTransferAcceptanceCheck(msg.sender, _from, _to, _intercourtToken, _value, _data);\n        }\n    }\n\n    /**\n        @notice Transfer money through several courts with automatic currency conversion between court tokens.\n        @param _from    Source address\n        @param _to      Target address\n        @param _intercourtTokens Intercourt tokens (order and length must match _values array)\n        @param _values  Transfer amounts per token type (order and length must match _intercourtTokens array)\n        @param _courtsPath Through which courts to transfer\n        @param _data    Additional data with no specified format, MUST be sent unaltered in call to `onERC1155Received` on `_to`\n    */\n    function intercourtTransferBatch(address _from, address _to, uint256[] _intercourtTokens, uint256[] _values, uint256[] _courtsPath, bytes _data) external {\n        require(_intercourtTokens.length == _values.length, \"_intercourtTokens and _values array length must match.\");\n\n        _doIntercourtTransferBatch(_from, _to, _intercourtTokens, _values, _courtsPath);\n\n        emit TransferBatch(msg.sender, _from, 0x0, _intercourtTokens, _values);\n        emit TransferBatch(msg.sender, 0x0, _to, _intercourtTokens, _values);\n\n        uint256[] memory _ids = new uint256[](_intercourtTokens.length);\n        for (uint i = 0; i < _ids.length; ++i) {\n            _ids[i] = _generateTokenId(_courtsPath[_courtsPath.length - 1], _intercourtTokens[i]);\n        }\n        \n        // Now that the balances are updated and the events are emitted,\n        // call onERC1155BatchReceived if the destination is a contract.\n        if (_to.isContract()) {\n            _doSafeBatchTransferAcceptanceCheck(msg.sender, _from, _to, _ids, _values, _data);\n        }\n    }\n\n/////////////////////////////////////////// Minting //////////////////////////////////////////////\n\n    /**\n        @notice Mints `_value` amount of an `_id` from the `_from` address to the `_to` address specified (with safety call).\n        @dev Caller must be approved to manage the tokens being transferred out of the `_from` account (see \"Approval\" section of the standard).\n        MUST revert if `_to` is the zero address.\n        MUST revert on any other error.\n        MUST emit the `TransferSingle` event to reflect the balance change.\n        After the above conditions are met, this function MUST check if `_to` is a smart contract (e.g. code size > 0). If so, it MUST call `onERC1155Received` on `_to` and act appropriately (see \"Safe Transfer Rules\" section of the standard).\n        @param _from    Source address\n        @param _to      Target address\n        @param _id      ID of the token type\n        @param _value   Transfer amount\n        @param _data    Additional data with no specified format, MUST be sent unaltered in call to `onERC1155Received` on `_to`\n    */\n    function mintFrom(address _from, address _to, uint256 _id, uint256 _value, bytes _data) external {\n\n        require(_to != address(0x0), \"_to must be non-zero.\");\n        require(_from == msg.sender || operatorApproval[_from][msg.sender] == true, \"Need operator approval for 3rd party transfers.\");\n\n        _doMintFrom(_from, _to, _id, _value);\n\n        // MUST emit event\n        emit TransferSingle(msg.sender, 0x0, _to, _id, _value);\n\n        // Now that the balance is updated and the event was emitted,\n        // call onERC1155Received if the destination is a contract.\n        if (_to.isContract()) {\n            _doSafeTransferAcceptanceCheck(msg.sender, _from, _to, _id, _value, _data);\n        }\n    }\n\n    /**\n        @notice Mints `_values` amount(s) of `_ids` from the `_from` address to the `_to` address specified (with safety call).\n        @dev Caller must be approved to manage the tokens being transferred out of the `_from` account (see \"Approval\" section of the standard).\n        MUST revert if `_to` is the zero address.\n        MUST revert if length of `_ids` is not the same as length of `_values`.\n        MUST revert on any other error.\n        MUST emit `TransferSingle` or `TransferBatch` event(s) such that all the balance changes are reflected.\n        Balance changes and events MUST follow the ordering of the arrays (_ids[0]/_values[0] before _ids[1]/_values[1], etc).\n        After the above conditions for the transfer(s) in the batch are met, this function MUST check if `_to` is a smart contract (e.g. code size > 0). If so, it MUST call the relevant `ERC1155TokenReceiver` hook(s) on `_to` and act appropriately (see \"Safe Transfer Rules\" section of the standard).\n        @param _from    Source address\n        @param _to      Target address\n        @param _ids     IDs of each token type (order and length must match _values array)\n        @param _values  Transfer amounts per token type (order and length must match _ids array)\n        @param _data    Additional data with no specified format, MUST be sent unaltered in call to the `ERC1155TokenReceiver` hook(s) on `_to`\n    */\n    function batchMintFrom(address _from, address _to, uint256[] _ids, uint256[] _values, bytes _data) external {\n\n        // MUST Throw on errors\n        require(_to != address(0x0), \"destination address must be non-zero.\");\n        require(_ids.length == _values.length, \"_ids and _values array length must match.\");\n        require(_from == msg.sender || operatorApproval[_from][msg.sender] == true, \"Need operator approval for 3rd party transfers.\");\n\n        for (uint256 i = 0; i < _ids.length; ++i) {\n            uint256 _id = _ids[i];\n            uint256 _value = _values[i];\n\n            _doMintFrom(_from, _to, _id, _value);\n        }\n\n        // Note: instead of the below batch versions of event and acceptance check you MAY have emitted a TransferSingle\n        // event and a subsequent call to _doSafeTransferAcceptanceCheck in above loop for each balance change instead.\n        // Or emitted a TransferSingle event for each in the loop and then the single _doSafeBatchTransferAcceptanceCheck below.\n        // However it is implemented the balance changes and events MUST match when a check (i.e. calling an external contract) is done.\n\n        // MUST emit event\n        emit TransferBatch(msg.sender, 0x0, _to, _ids, _values);\n\n        // Now that the balances are updated and the events are emitted,\n        // call onERC1155BatchReceived if the destination is a contract.\n        if (_to.isContract()) {\n            _doSafeBatchTransferAcceptanceCheck(msg.sender, _from, _to, _ids, _values, _data);\n        }\n    }\n\n/////////////////////////////////////////// Burning //////////////////////////////////////////////\n\n    /**\n        @notice Burns `_value` amount of an `_id` from the `_from` address specified (with safety call).\n        @dev Caller must be approved to manage the tokens being transferred out of the `_from` account (see \"Approval\" section of the standard).\n        MUST revert on any other error.\n        MUST emit the `TransferSingle` event to reflect the balance change.\n        @param _from    Source address\n        @param _id      ID of the token type\n        @param _value   Transfer amount\n        @param _data    Additional data with no specified format, MUST be sent unaltered in call to `onERC1155Received` on `_to`\n    */\n    function burnFrom(address _from, uint256 _id, uint256 _value, bytes _data) external {\n\n        require(_from == msg.sender || operatorApproval[_from][msg.sender] == true, \"Need operator approval for 3rd party transfers.\");\n\n        balances[_id][_from] = balances[_id][_from].sub(_value);\n\n        // MUST emit event\n        emit TransferSingle(msg.sender, _from, 0x0, _id, _value);\n    }\n\n    /**\n        @notice Burns `_values` amount(s) of `_ids` from the `_from` address specified (with safety call).\n        @dev Caller must be approved to manage the tokens being transferred out of the `_from` account (see \"Approval\" section of the standard).\n        MUST revert if length of `_ids` is not the same as length of `_values`.\n        MUST revert on any other error.\n        MUST emit `TransferSingle` or `TransferBatch` event(s) such that all the balance changes are reflected.\n        Balance changes and events MUST follow the ordering of the arrays (_ids[0]/_values[0] before _ids[1]/_values[1], etc).\n        @param _from    Source address\n        @param _ids     IDs of each token type (order and length must match _values array)\n        @param _values  Transfer amounts per token type (order and length must match _ids array)\n        @param _data    Additional data with no specified format, MUST be sent unaltered in call to the `ERC1155TokenReceiver` hook(s) on `_to`\n    */\n    function batchBurnFrom(address _from, uint256[] _ids, uint256[] _values, bytes _data) external {\n\n        // MUST Throw on errors\n        require(_ids.length == _values.length, \"_ids and _values array length must match.\");\n        require(_from == msg.sender || operatorApproval[_from][msg.sender] == true, \"Need operator approval for 3rd party transfers.\");\n\n        for (uint256 i = 0; i < _ids.length; ++i) {\n            uint256 _id = _ids[i];\n            uint256 _value = _values[i];\n\n            balances[_id][_from] = balances[_id][_from].sub(_value);\n        }\n\n        // Note: instead of the below batch versions of event and acceptance check you MAY have emitted a TransferSingle\n        // event and a subsequent call to _doSafeTransferAcceptanceCheck in above loop for each balance change instead.\n        // Or emitted a TransferSingle event for each in the loop and then the single _doSafeBatchTransferAcceptanceCheck below.\n        // However it is implemented the balance changes and events MUST match when a check (i.e. calling an external contract) is done.\n\n        // MUST emit event\n        emit TransferBatch(msg.sender, _from, 0x0, _ids, _values);\n    }\n\n/////////////////////////////////////////// Administrativia //////////////////////////////////////////////\n\n    /**\n        @notice Get `trustedCourtsList` for a court.\n        @param _truster Court\n    */\n    function getTrustedCourtsList(uint256 _truster) public view returns (uint256[]) {\n        return trustedCourtsList[_truster];\n    }\n\n    /**\n        @notice Set court owner.\n        @param _court   Court\n        @param _owner   New owner\n    */\n    function setOwner(uint256 _court, address _owner) external {\n        require(courtOwners[_court] == msg.sender);\n\n        courtOwners[_court] = _owner;\n        emit SetOwner(_court, _owner);\n    }\n\n    /**\n        @notice Create a regular court.\n        @return           Court ID\n    */\n    function createCourt() external returns (uint256 _id) {\n        _id = ++courtNonce;\n        courtOwners[_id] = msg.sender;\n        emit CourtCreated(msg.sender, _id);\n    }\n\n\n    /**\n        @notice Create a limit court.\n        @param _court   Base (limit or non-limit) court\n        @return         Limit court ID\n    */\n    function createLimitCourt(uint256 _court) external returns (uint256) {\n        require(_court > 0 && _court <= courtNonce, \"Court does not exist.\");\n\n        uint256 _id = ++courtNonce;\n        courtOwners[_id] = msg.sender;\n        limitCourts[_id] = _court;\n        emit LimitCourtCreated(msg.sender, _court, _id);\n        return _id;\n    }\n\n    /**\n        @notice Create an intercourt token.\n        @return           Intercourt token\n    */\n    function createIntercourtToken(/*string _uri*/) external returns (uint256) {\n        uint256 _id = ++icTokenNonce;\n        // _id is Intercourt token, not a token\n        // if (bytes(_uri).length > 0)\n        //     emit URI(_uri, _id);\n        emit IntercourtTokenCreated(_id);\n        return _id;\n    }\n\n    // function setURI(string _uri, uint256 _id) external {\n    //     // It's impossible to determine _intercourtToken (unless we store it for every token generated\n    //     // what would be to resource-intensive)\n    //     require(courtOwners[_intercourtToken] == msg.sender); // Also, it is not a court.\n    //     emit URI(_uri, _id);\n    // }\n    \n    /**\n        @notice Set remaining court trust limits.\n        @param _courtId The court\n        @param _intercourtTokens Intercourt tokens (order and length must match _limits array)\n        @param _limits  New limits (order and length must match _intercourtTokens array)\n    */\n    function setCourtLimits(uint256 _courtId, uint256[] _intercourtTokens, uint256[] _limits) external {\n        require(courtOwners[_courtId] == msg.sender, \"We are not court owner\");\n        require(_limits.length == _intercourtTokens.length);\n        require(isLimitCourt(_courtId));\n\n        for (uint i = 0; i < _limits.length; ++i) {\n            uint256 _id = _generateTokenId(_courtId, _intercourtTokens[i]);\n            courtLimits[_id] = _limits[i];\n        }\n\n        emit SetCourtLimits(_courtId, _intercourtTokens, _limits);\n    }\n\n    /**\n        @notice Add to remaining court trust limits.\n        @param _courtId The court\n        @param _intercourtTokens Intercourt tokens (order and length must match _limits array)\n        @param _limits  Limit values to add (order and length must match _intercourtTokens array)\n    */\n    function addToCourtLimits(uint256 _courtId, uint256[] _intercourtTokens, uint256[] _limits) external {\n        require(courtOwners[_courtId] == msg.sender, \"We are not court owner\");\n        require(_limits.length == _intercourtTokens.length);\n        require(isLimitCourt(_courtId));\n\n        for (uint i = 0; i < _limits.length; ++i) {\n            uint256 _id = _generateTokenId(_courtId, _intercourtTokens[i]);\n            uint256 newValue = _limits[i].add(courtLimits[_id]);\n            if (newValue != 0) {\n                courtLimits[_id] = newValue;\n            }\n        }\n        emit AddToCourtLimits(_courtId, _intercourtTokens, _limits);\n    }\n\n    /**\n        @notice Trust these courts.\n        @param _truster The truster court\n        @param _trustees The trustee courts to add\n    */\n    function trustCourts(uint256 _truster, uint256[] _trustees) external {\n        require(courtOwners[_truster] == msg.sender, \"We are not court owner\");\n        require(!isLimitCourt(_truster));\n\n        for (uint i = 0; i < _trustees.length; ++i) {\n            require(_trustees[i] > 0 && _trustees[i] <= courtNonce, \"Court does not exist.\");\n            if (!trustedCourts[_truster][_trustees[i]]) {\n                trustedCourtsList[_truster].length = trustedCourtsList[_truster].length + 1; // TODO: inefficient\n                trustedCourtsList[_truster][trustedCourtsList[_truster].length - 1] = _trustees[i];\n                trustedCourts[_truster][_trustees[i]] = true;\n            }\n        }\n        emit TrustCourts(_truster, _trustees);\n    }\n\n    /**\n        @notice Do not trust these courts anymore.\n        @param _truster The truster court\n        @param _trustees The trustee courts to remove\n    */\n    function untrustCourts(uint256 _truster, uint256[] _trustees) external {\n        require(courtOwners[_truster] == msg.sender, \"We are not court owner\");\n        require(!isLimitCourt(_truster));\n\n        uint max = trustedCourtsList[_truster].length;\n        for (uint i = 0; i < _trustees.length; ++i) {\n            require(_trustees[i] > 0 && _trustees[i] <= courtNonce, \"Court does not exist.\");\n            if (trustedCourts[_truster][_trustees[i]]) {\n                trustedCourts[_truster][_trustees[i]] = false;\n                trustedCourtsList[_truster][i] = trustedCourtsList[_truster][--max];\n            }\n        }\n        trustedCourtsList[_truster].length = max;\n        emit UntrustCourts(_truster, _trustees);\n    }\n\n/////////////////////////////////////////// Internal //////////////////////////////////////////////\n\n    function _doSafeTransferFrom(address _from, address _to, uint256 _id, uint256 _value) private {\n\n        // SafeMath will throw with insufficient funds _from\n        // or if _id is not valid (balance will be 0)\n        balances[_id][_from] = balances[_id][_from].sub(_value);\n        balances[_id][_to]   = _value.add(balances[_id][_to]);\n    }\n\n    function _doMintFrom(address _from, address _to, uint256 _id, uint256 _value) private {\n\n        uint256 _court = _getCourt(_id);\n        uint256 _intercourtToken = _getIntercourtToken(_id);\n    \n        // FIXME: Seems not to decrease balances of foreign tokens.\n        require(_court != 0 && _intercourtToken != 0, \"Invalid token.\");\n        require(courtOwners[_court] == msg.sender || balances[_id][_from] >= _value, \"Insufficient funds.\");\n\n        balances[_id][_to] = _value.add(balances[_id][_to]); // SafeMath will throw if overflow\n    }\n\n    function _doSafeTransferAcceptanceCheck(address _operator, address _from, address _to, uint256 _id, uint256 _value, bytes memory _data) internal {\n\n        // If this was a hybrid standards solution you would have to check ERC165(_to).supportsInterface(0x4e2312e0) here but as this is a pure implementation of an ERC-1155 token set as recommended by\n        // the standard, it is not necessary. The below should revert in all failure cases i.e. _to isn't a receiver, or it is and either returns an unknown value or it reverts in the call to indicate non-acceptance.\n\n\n        // Note: if the below reverts in the onERC1155Received function of the _to address you will have an undefined revert reason returned rather than the one in the require test.\n        // If you want predictable revert reasons consider using low level _to.call() style instead so the revert does not bubble up and you can revert yourself on the ERC1155_ACCEPTED test.\n        require(ERC1155TokenReceiver(_to).onERC1155Received(_operator, _from, _id, _value, _data) == ERC1155_ACCEPTED, \"contract returned an unknown value from onERC1155Received\");\n    }\n\n    function _doSafeBatchTransferAcceptanceCheck(address _operator, address _from, address _to, uint256[] memory _ids, uint256[] memory _values, bytes memory _data) internal {\n\n        // If this was a hybrid standards solution you would have to check ERC165(_to).supportsInterface(0x4e2312e0) here but as this is a pure implementation of an ERC-1155 token set as recommended by\n        // the standard, it is not necessary. The below should revert in all failure cases i.e. _to isn't a receiver, or it is and either returns an unknown value or it reverts in the call to indicate non-acceptance.\n\n        // Note: if the below reverts in the onERC1155BatchReceived function of the _to address you will have an undefined revert reason returned rather than the one in the require test.\n        // If you want predictable revert reasons consider using low level _to.call() style instead so the revert does not bubble up and you can revert yourself on the ERC1155_BATCH_ACCEPTED test.\n        require(ERC1155TokenReceiver(_to).onERC1155BatchReceived(_operator, _from, _ids, _values, _data) == ERC1155_BATCH_ACCEPTED, \"contract returned an unknown value from onERC1155BatchReceived\");\n    }\n    \n    function _generateTokenId(uint256 _court, uint256 _intercourtToken) public returns (uint256 _token) {\n        require (_court != 0 && _intercourtToken != 0);\n\n        _token = _uncheckedGenerateTokenId(_court, _intercourtToken);\n    }\n\n    function _uncheckedGenerateTokenId(uint256 _court, uint256 _intercourtToken) public returns (uint256 _token) {\n        // without any checks\n        // FIXME: Check for no overflows.\n\n        return (_court << 128) + _intercourtToken;\n    }\n    \n    function _getCourt(uint256 _id) public returns (uint256) {\n        return _id >> 128;\n    }\n    \n    function _getIntercourtToken(uint256 _id) public returns (uint256) {\n        return _id & ((1 << 128) - 1);\n    }\n    \n    function _getFinalCourt(uint256 _court) public view returns (uint256) {\n        for (;;) {\n            uint256 _court2 = limitCourts[_court];\n            if (_court2 == 0x0) return _court;\n            _court = _court2;\n        }\n    }\n\n    function _doIntercourtTransferBatch(address _from, address _to, uint256[] memory _ids, uint256[] memory _values, uint256[] memory _courtsPath) internal {\n        require(_to != address(0x0), \"_to must be non-zero.\");\n        assert(_ids.length == _values.length);\n        require(_courtsPath.length != 0);\n        require(_from == msg.sender || operatorApproval[_from][msg.sender] == true, \"Need operator approval for 3rd party transfers.\");\n        //require(checkNoDuplicates(_courtsPath), \"Duplicate courts.\");\n\n        for (uint i = 0; i < _courtsPath.length - 1; ++i) {\n            require(trustedCourts[_getFinalCourt(_courtsPath[i+1])][_courtsPath[i]], \"A court in the path is not in a trusted list.\");\n        }\n\n        for (uint k = 0; k < _ids.length; ++k) {\n            uint256 _intercourtToken = _ids[k];\n            uint256 _fromToken = _generateTokenId(_getFinalCourt(_courtsPath[0]), _intercourtToken);\n            uint256 _toToken = _generateTokenId(_getFinalCourt(_courtsPath[_courtsPath.length-1]), _intercourtToken);\n            // SafeMath will throw with insufficient funds _from\n            // or if _intercourtToken is not valid (balance will be 0)\n            balances[_fromToken][_from] = balances[_fromToken][_from].sub(_values[k]);\n            balances[_toToken][_to] = _values[k].add(balances[_toToken][_to]);\n            for (i = 0; i < _courtsPath.length; ++i) {\n                for (uint256 _court = _courtsPath[i]; isLimitCourt(_court); _court = limitCourts[_court]) {\n                    uint256 _id = _generateTokenId(_court, _intercourtToken);\n                    courtTotalSpents[_id] = courtTotalSpents[_id].add(_values[k]);\n                    require(courtTotalSpents[_id] <= courtLimits[_id], \"Court limit exceeded.\");\n                }\n            }\n        }\n    }\n\n    // function checkNoDuplicates(uint256[] memory _array) private pure returns (bool) {\n    //     for (uint256 i = 1; i < _array.length; ++i) {\n    //         for (uint256 j = 0; j < i; ++j)\n    //             if (_array[i] == _array[j]) return false;\n    //     }\n    //     return true;\n    // }\n}\n",
  "sourcePath": "/home/porton/Projects/courts/contracts/RewardCourts.sol",
  "compiler": {
    "name": "solc",
    "version": "0.4.24+commit.e67f0147.Emscripten.clang"
  },
  "schemaVersion": "3.0.21",
  "updatedAt": "2020-02-20T18:14:56.433Z",
  "devdoc": {
    "methods": {
      "addToCourtLimits(uint256,uint256[],uint256[])": {
        "params": {
          "_courtId": "The court",
          "_intercourtTokens": "Intercourt tokens (order and length must match _limits array)",
          "_limits": "Limit values to add (order and length must match _intercourtTokens array)"
        }
      },
      "balanceOf(address,uint256)": {
        "params": {
          "_id": "ID of the Token",
          "_owner": "The address of the token holder"
        },
        "return": "The _owner's balance of the Token type requested"
      },
      "balanceOfBatch(address[],uint256[])": {
        "params": {
          "_ids": "ID of the Tokens",
          "_owners": "The addresses of the token holders"
        },
        "return": "The _owner's balance of the Token types requested (i.e. balance for each (owner, id) pair)"
      },
      "batchBurnFrom(address,uint256[],uint256[],bytes)": {
        "details": "Caller must be approved to manage the tokens being transferred out of the `_from` account (see \"Approval\" section of the standard). MUST revert if length of `_ids` is not the same as length of `_values`. MUST revert on any other error. MUST emit `TransferSingle` or `TransferBatch` event(s) such that all the balance changes are reflected. Balance changes and events MUST follow the ordering of the arrays (_ids[0]/_values[0] before _ids[1]/_values[1], etc).",
        "params": {
          "_data": "Additional data with no specified format, MUST be sent unaltered in call to the `ERC1155TokenReceiver` hook(s) on `_to`",
          "_from": "Source address",
          "_ids": "IDs of each token type (order and length must match _values array)",
          "_values": "Transfer amounts per token type (order and length must match _ids array)"
        }
      },
      "batchMintFrom(address,address,uint256[],uint256[],bytes)": {
        "details": "Caller must be approved to manage the tokens being transferred out of the `_from` account (see \"Approval\" section of the standard). MUST revert if `_to` is the zero address. MUST revert if length of `_ids` is not the same as length of `_values`. MUST revert on any other error. MUST emit `TransferSingle` or `TransferBatch` event(s) such that all the balance changes are reflected. Balance changes and events MUST follow the ordering of the arrays (_ids[0]/_values[0] before _ids[1]/_values[1], etc). After the above conditions for the transfer(s) in the batch are met, this function MUST check if `_to` is a smart contract (e.g. code size > 0). If so, it MUST call the relevant `ERC1155TokenReceiver` hook(s) on `_to` and act appropriately (see \"Safe Transfer Rules\" section of the standard).",
        "params": {
          "_data": "Additional data with no specified format, MUST be sent unaltered in call to the `ERC1155TokenReceiver` hook(s) on `_to`",
          "_from": "Source address",
          "_ids": "IDs of each token type (order and length must match _values array)",
          "_to": "Target address",
          "_values": "Transfer amounts per token type (order and length must match _ids array)"
        }
      },
      "burnFrom(address,uint256,uint256,bytes)": {
        "details": "Caller must be approved to manage the tokens being transferred out of the `_from` account (see \"Approval\" section of the standard). MUST revert on any other error. MUST emit the `TransferSingle` event to reflect the balance change.",
        "params": {
          "_data": "Additional data with no specified format, MUST be sent unaltered in call to `onERC1155Received` on `_to`",
          "_from": "Source address",
          "_id": "ID of the token type",
          "_value": "Transfer amount"
        }
      },
      "createCourt()": {
        "return": "Court ID"
      },
      "createIntercourtToken()": {
        "return": "Intercourt token"
      },
      "createLimitCourt(uint256)": {
        "params": {
          "_court": "Base (limit or non-limit) court"
        },
        "return": "Limit court ID"
      },
      "getFinalCourt(uint256)": {
        "params": {
          "_court": "Court ID to start with"
        },
        "return": "Non-limit court ID"
      },
      "getTrustedCourtsList(uint256)": {
        "params": {
          "_truster": "Court"
        }
      },
      "intercourtTransfer(address,address,uint256,uint256,uint256[],bytes)": {
        "params": {
          "_courtsPath": "Through which courts to transfer",
          "_data": "Additional data with no specified format, MUST be sent unaltered in call to `onERC1155Received` on `_to`",
          "_from": "Source address",
          "_intercourtToken": "Intercourt token",
          "_to": "Target address",
          "_value": "Transfer amount"
        }
      },
      "intercourtTransferBatch(address,address,uint256[],uint256[],uint256[],bytes)": {
        "params": {
          "_courtsPath": "Through which courts to transfer",
          "_data": "Additional data with no specified format, MUST be sent unaltered in call to `onERC1155Received` on `_to`",
          "_from": "Source address",
          "_intercourtTokens": "Intercourt tokens (order and length must match _values array)",
          "_to": "Target address",
          "_values": "Transfer amounts per token type (order and length must match _intercourtTokens array)"
        }
      },
      "isApprovedForAll(address,address)": {
        "params": {
          "_operator": "Address of authorized operator",
          "_owner": "The owner of the Tokens"
        },
        "return": "True if the operator is approved, false if not"
      },
      "isLimitCourt(uint256)": {
        "params": {
          "_court": "Court ID"
        },
        "return": "True if it is a limit court"
      },
      "mintFrom(address,address,uint256,uint256,bytes)": {
        "details": "Caller must be approved to manage the tokens being transferred out of the `_from` account (see \"Approval\" section of the standard). MUST revert if `_to` is the zero address. MUST revert on any other error. MUST emit the `TransferSingle` event to reflect the balance change. After the above conditions are met, this function MUST check if `_to` is a smart contract (e.g. code size > 0). If so, it MUST call `onERC1155Received` on `_to` and act appropriately (see \"Safe Transfer Rules\" section of the standard).",
        "params": {
          "_data": "Additional data with no specified format, MUST be sent unaltered in call to `onERC1155Received` on `_to`",
          "_from": "Source address",
          "_id": "ID of the token type",
          "_to": "Target address",
          "_value": "Transfer amount"
        }
      },
      "safeBatchTransferFrom(address,address,uint256[],uint256[],bytes)": {
        "details": "Caller must be approved to manage the tokens being transferred out of the `_from` account (see \"Approval\" section of the standard). MUST revert if `_to` is the zero address. MUST revert if length of `_ids` is not the same as length of `_values`. MUST revert if any of the balance(s) of the holder(s) for token(s) in `_ids` is lower than the respective amount(s) in `_values` sent to the recipient. MUST revert on any other error. MUST emit `TransferSingle` or `TransferBatch` event(s) such that all the balance changes are reflected (see \"Safe Transfer Rules\" section of the standard). Balance changes and events MUST follow the ordering of the arrays (_ids[0]/_values[0] before _ids[1]/_values[1], etc). After the above conditions for the transfer(s) in the batch are met, this function MUST check if `_to` is a smart contract (e.g. code size > 0). If so, it MUST call the relevant `ERC1155TokenReceiver` hook(s) on `_to` and act appropriately (see \"Safe Transfer Rules\" section of the standard).",
        "params": {
          "_data": "Additional data with no specified format, MUST be sent unaltered in call to the `ERC1155TokenReceiver` hook(s) on `_to`",
          "_from": "Source address",
          "_ids": "IDs of each token type (order and length must match _values array)",
          "_to": "Target address",
          "_values": "Transfer amounts per token type (order and length must match _ids array)"
        }
      },
      "safeTransferFrom(address,address,uint256,uint256,bytes)": {
        "details": "Caller must be approved to manage the tokens being transferred out of the `_from` account (see \"Approval\" section of the standard). MUST revert if `_to` is the zero address. MUST revert if balance of holder for token `_id` is lower than the `_value` sent. MUST revert on any other error. MUST emit the `TransferSingle` event to reflect the balance change (see \"Safe Transfer Rules\" section of the standard). After the above conditions are met, this function MUST check if `_to` is a smart contract (e.g. code size > 0). If so, it MUST call `onERC1155Received` on `_to` and act appropriately (see \"Safe Transfer Rules\" section of the standard).",
        "params": {
          "_data": "Additional data with no specified format, MUST be sent unaltered in call to `onERC1155Received` on `_to`",
          "_from": "Source address",
          "_id": "ID of the token type",
          "_to": "Target address",
          "_value": "Transfer amount"
        }
      },
      "setApprovalForAll(address,bool)": {
        "details": "MUST emit the ApprovalForAll event on success.",
        "params": {
          "_approved": "True if the operator is approved, false to revoke approval",
          "_operator": "Address to add to the set of authorized operators"
        }
      },
      "setCourtLimits(uint256,uint256[],uint256[])": {
        "params": {
          "_courtId": "The court",
          "_intercourtTokens": "Intercourt tokens (order and length must match _limits array)",
          "_limits": "New limits (order and length must match _intercourtTokens array)"
        }
      },
      "setOwner(uint256,address)": {
        "params": {
          "_court": "Court",
          "_owner": "New owner"
        }
      },
      "trustCourts(uint256,uint256[])": {
        "params": {
          "_trustees": "The trustee courts to add",
          "_truster": "The truster court"
        }
      },
      "untrustCourts(uint256,uint256[])": {
        "params": {
          "_trustees": "The trustee courts to remove",
          "_truster": "The truster court"
        }
      }
    }
  },
  "userdoc": {
    "methods": {
      "addToCourtLimits(uint256,uint256[],uint256[])": {
        "notice": "Add to remaining court trust limits."
      },
      "balanceOf(address,uint256)": {
        "notice": "Get the balance of an account's Tokens."
      },
      "balanceOfBatch(address[],uint256[])": {
        "notice": "Get the balance of multiple account/token pairs"
      },
      "batchBurnFrom(address,uint256[],uint256[],bytes)": {
        "notice": "Burns `_values` amount(s) of `_ids` from the `_from` address specified (with safety call)."
      },
      "batchMintFrom(address,address,uint256[],uint256[],bytes)": {
        "notice": "Mints `_values` amount(s) of `_ids` from the `_from` address to the `_to` address specified (with safety call)."
      },
      "burnFrom(address,uint256,uint256,bytes)": {
        "notice": "Burns `_value` amount of an `_id` from the `_from` address specified (with safety call)."
      },
      "createCourt()": {
        "notice": "Create a regular court."
      },
      "createIntercourtToken()": {
        "notice": "Create an intercourt token."
      },
      "createLimitCourt(uint256)": {
        "notice": "Create a limit court."
      },
      "getFinalCourt(uint256)": {
        "notice": "Get final (non-limit) court in a chain of courts."
      },
      "getTrustedCourtsList(uint256)": {
        "notice": "Get `trustedCourtsList` for a court."
      },
      "intercourtTransfer(address,address,uint256,uint256,uint256[],bytes)": {
        "notice": "Transfer money through several courts with automatic currency conversion between court tokens."
      },
      "intercourtTransferBatch(address,address,uint256[],uint256[],uint256[],bytes)": {
        "notice": "Transfer money through several courts with automatic currency conversion between court tokens."
      },
      "isApprovedForAll(address,address)": {
        "notice": "Queries the approval status of an operator for a given owner."
      },
      "isLimitCourt(uint256)": {
        "notice": "Check if given court ID corresponds to a limit court."
      },
      "mintFrom(address,address,uint256,uint256,bytes)": {
        "notice": "Mints `_value` amount of an `_id` from the `_from` address to the `_to` address specified (with safety call)."
      },
      "safeBatchTransferFrom(address,address,uint256[],uint256[],bytes)": {
        "notice": "Transfers `_values` amount(s) of `_ids` from the `_from` address to the `_to` address specified (with safety call)."
      },
      "safeTransferFrom(address,address,uint256,uint256,bytes)": {
        "notice": "Transfers `_value` amount of an `_id` from the `_from` address to the `_to` address specified (with safety call)."
      },
      "setApprovalForAll(address,bool)": {
        "notice": "Enable or disable approval for a third party (\"operator\") to manage all of the caller's tokens."
      },
      "setCourtLimits(uint256,uint256[],uint256[])": {
        "notice": "Set remaining court trust limits."
      },
      "setOwner(uint256,address)": {
        "notice": "Set court owner."
      },
      "trustCourts(uint256,uint256[])": {
        "notice": "Trust these courts."
      },
      "untrustCourts(uint256,uint256[])": {
        "notice": "Do not trust these courts anymore."
      }
    }
  }
}