{
  "contractName": "RewardCourts",
  "abi": [
    {
      "constant": true,
      "inputs": [],
      "name": "decimals",
      "outputs": [
        {
          "name": "",
          "type": "uint8"
        }
      ],
      "payable": false,
      "stateMutability": "view",
      "type": "function"
    },
    {
      "constant": true,
      "inputs": [
        {
          "name": "",
          "type": "uint128"
        },
        {
          "name": "",
          "type": "uint256"
        }
      ],
      "name": "trustedCourtsList",
      "outputs": [
        {
          "name": "",
          "type": "uint128"
        }
      ],
      "payable": false,
      "stateMutability": "view",
      "type": "function"
    },
    {
      "constant": true,
      "inputs": [
        {
          "name": "",
          "type": "uint128"
        }
      ],
      "name": "courtOwners",
      "outputs": [
        {
          "name": "",
          "type": "address"
        }
      ],
      "payable": false,
      "stateMutability": "view",
      "type": "function"
    },
    {
      "anonymous": false,
      "inputs": [
        {
          "indexed": true,
          "name": "owner",
          "type": "address"
        },
        {
          "indexed": true,
          "name": "createdCourt",
          "type": "uint128"
        }
      ],
      "name": "CourtCreated",
      "type": "event"
    },
    {
      "anonymous": false,
      "inputs": [
        {
          "indexed": true,
          "name": "ictoken",
          "type": "uint128"
        }
      ],
      "name": "IntercourtTokenCreated",
      "type": "event"
    },
    {
      "anonymous": false,
      "inputs": [
        {
          "indexed": true,
          "name": "court",
          "type": "uint128"
        },
        {
          "indexed": true,
          "name": "owner",
          "type": "address"
        }
      ],
      "name": "SetOwner",
      "type": "event"
    },
    {
      "anonymous": false,
      "inputs": [
        {
          "indexed": true,
          "name": "truster",
          "type": "uint128"
        },
        {
          "indexed": false,
          "name": "trustees",
          "type": "uint128[]"
        }
      ],
      "name": "TrustCourts",
      "type": "event"
    },
    {
      "anonymous": false,
      "inputs": [
        {
          "indexed": true,
          "name": "truster",
          "type": "uint128"
        },
        {
          "indexed": false,
          "name": "trustees",
          "type": "uint128[]"
        }
      ],
      "name": "UntrustCourts",
      "type": "event"
    },
    {
      "anonymous": false,
      "inputs": [
        {
          "indexed": true,
          "name": "_operator",
          "type": "address"
        },
        {
          "indexed": true,
          "name": "_from",
          "type": "address"
        },
        {
          "indexed": true,
          "name": "_to",
          "type": "address"
        },
        {
          "indexed": false,
          "name": "_id",
          "type": "uint256"
        },
        {
          "indexed": false,
          "name": "_value",
          "type": "uint256"
        }
      ],
      "name": "TransferSingle",
      "type": "event"
    },
    {
      "anonymous": false,
      "inputs": [
        {
          "indexed": true,
          "name": "_operator",
          "type": "address"
        },
        {
          "indexed": true,
          "name": "_from",
          "type": "address"
        },
        {
          "indexed": true,
          "name": "_to",
          "type": "address"
        },
        {
          "indexed": false,
          "name": "_ids",
          "type": "uint256[]"
        },
        {
          "indexed": false,
          "name": "_values",
          "type": "uint256[]"
        }
      ],
      "name": "TransferBatch",
      "type": "event"
    },
    {
      "anonymous": false,
      "inputs": [
        {
          "indexed": true,
          "name": "_owner",
          "type": "address"
        },
        {
          "indexed": true,
          "name": "_operator",
          "type": "address"
        },
        {
          "indexed": false,
          "name": "_approved",
          "type": "bool"
        }
      ],
      "name": "ApprovalForAll",
      "type": "event"
    },
    {
      "anonymous": false,
      "inputs": [
        {
          "indexed": false,
          "name": "_value",
          "type": "string"
        },
        {
          "indexed": true,
          "name": "_id",
          "type": "uint256"
        }
      ],
      "name": "URI",
      "type": "event"
    },
    {
      "constant": true,
      "inputs": [
        {
          "name": "_interfaceId",
          "type": "bytes4"
        }
      ],
      "name": "supportsInterface",
      "outputs": [
        {
          "name": "",
          "type": "bool"
        }
      ],
      "payable": false,
      "stateMutability": "view",
      "type": "function"
    },
    {
      "constant": false,
      "inputs": [
        {
          "name": "_from",
          "type": "address"
        },
        {
          "name": "_to",
          "type": "address"
        },
        {
          "name": "_id",
          "type": "uint256"
        },
        {
          "name": "_value",
          "type": "uint256"
        },
        {
          "name": "_data",
          "type": "bytes"
        }
      ],
      "name": "safeTransferFrom",
      "outputs": [],
      "payable": false,
      "stateMutability": "nonpayable",
      "type": "function"
    },
    {
      "constant": false,
      "inputs": [
        {
          "name": "_from",
          "type": "address"
        },
        {
          "name": "_to",
          "type": "address"
        },
        {
          "name": "_ids",
          "type": "uint256[]"
        },
        {
          "name": "_values",
          "type": "uint256[]"
        },
        {
          "name": "_data",
          "type": "bytes"
        }
      ],
      "name": "safeBatchTransferFrom",
      "outputs": [],
      "payable": false,
      "stateMutability": "nonpayable",
      "type": "function"
    },
    {
      "constant": true,
      "inputs": [
        {
          "name": "_owner",
          "type": "address"
        },
        {
          "name": "_id",
          "type": "uint256"
        }
      ],
      "name": "balanceOf",
      "outputs": [
        {
          "name": "",
          "type": "uint256"
        }
      ],
      "payable": false,
      "stateMutability": "view",
      "type": "function"
    },
    {
      "constant": true,
      "inputs": [
        {
          "name": "_owners",
          "type": "address[]"
        },
        {
          "name": "_ids",
          "type": "uint256[]"
        }
      ],
      "name": "balanceOfBatch",
      "outputs": [
        {
          "name": "",
          "type": "uint256[]"
        }
      ],
      "payable": false,
      "stateMutability": "view",
      "type": "function"
    },
    {
      "constant": false,
      "inputs": [
        {
          "name": "_operator",
          "type": "address"
        },
        {
          "name": "_approved",
          "type": "bool"
        }
      ],
      "name": "setApprovalForAll",
      "outputs": [],
      "payable": false,
      "stateMutability": "nonpayable",
      "type": "function"
    },
    {
      "constant": true,
      "inputs": [
        {
          "name": "_owner",
          "type": "address"
        },
        {
          "name": "_operator",
          "type": "address"
        }
      ],
      "name": "isApprovedForAll",
      "outputs": [
        {
          "name": "",
          "type": "bool"
        }
      ],
      "payable": false,
      "stateMutability": "view",
      "type": "function"
    },
    {
      "constant": false,
      "inputs": [
        {
          "name": "_from",
          "type": "address"
        },
        {
          "name": "_to",
          "type": "address"
        },
        {
          "name": "_intercourtToken",
          "type": "uint128"
        },
        {
          "name": "_value",
          "type": "uint256"
        },
        {
          "name": "_courtsPath",
          "type": "uint128[]"
        },
        {
          "name": "_data",
          "type": "bytes"
        }
      ],
      "name": "intercourtTransfer",
      "outputs": [],
      "payable": false,
      "stateMutability": "nonpayable",
      "type": "function"
    },
    {
      "constant": false,
      "inputs": [
        {
          "name": "_from",
          "type": "address"
        },
        {
          "name": "_to",
          "type": "address"
        },
        {
          "name": "_intercourtTokens",
          "type": "uint128[]"
        },
        {
          "name": "_values",
          "type": "uint256[]"
        },
        {
          "name": "_courtsPath",
          "type": "uint128[]"
        },
        {
          "name": "_data",
          "type": "bytes"
        }
      ],
      "name": "intercourtTransferBatch",
      "outputs": [],
      "payable": false,
      "stateMutability": "nonpayable",
      "type": "function"
    },
    {
      "constant": false,
      "inputs": [
        {
          "name": "_to",
          "type": "address"
        },
        {
          "name": "_id",
          "type": "uint256"
        },
        {
          "name": "_value",
          "type": "uint256"
        },
        {
          "name": "_data",
          "type": "bytes"
        },
        {
          "name": "_courtsPath",
          "type": "uint128[]"
        }
      ],
      "name": "mint",
      "outputs": [],
      "payable": false,
      "stateMutability": "nonpayable",
      "type": "function"
    },
    {
      "constant": false,
      "inputs": [
        {
          "name": "_to",
          "type": "address"
        },
        {
          "name": "_ids",
          "type": "uint256[]"
        },
        {
          "name": "_values",
          "type": "uint256[]"
        },
        {
          "name": "_data",
          "type": "bytes"
        },
        {
          "name": "_courtsPath",
          "type": "uint128[]"
        }
      ],
      "name": "batchMint",
      "outputs": [],
      "payable": false,
      "stateMutability": "nonpayable",
      "type": "function"
    },
    {
      "constant": false,
      "inputs": [
        {
          "name": "_from",
          "type": "address"
        },
        {
          "name": "_id",
          "type": "uint256"
        },
        {
          "name": "_value",
          "type": "uint256"
        },
        {
          "name": "_data",
          "type": "bytes"
        }
      ],
      "name": "burnFrom",
      "outputs": [],
      "payable": false,
      "stateMutability": "nonpayable",
      "type": "function"
    },
    {
      "constant": false,
      "inputs": [
        {
          "name": "_from",
          "type": "address"
        },
        {
          "name": "_ids",
          "type": "uint256[]"
        },
        {
          "name": "_values",
          "type": "uint256[]"
        },
        {
          "name": "_data",
          "type": "bytes"
        }
      ],
      "name": "batchBurnFrom",
      "outputs": [],
      "payable": false,
      "stateMutability": "nonpayable",
      "type": "function"
    },
    {
      "constant": true,
      "inputs": [
        {
          "name": "_truster",
          "type": "uint128"
        },
        {
          "name": "_trustee",
          "type": "uint128"
        }
      ],
      "name": "isCourtTrusted",
      "outputs": [
        {
          "name": "",
          "type": "bool"
        }
      ],
      "payable": false,
      "stateMutability": "view",
      "type": "function"
    },
    {
      "constant": true,
      "inputs": [
        {
          "name": "_truster",
          "type": "uint128"
        }
      ],
      "name": "getTrustedCourtsList",
      "outputs": [
        {
          "name": "",
          "type": "uint128[]"
        }
      ],
      "payable": false,
      "stateMutability": "view",
      "type": "function"
    },
    {
      "constant": false,
      "inputs": [
        {
          "name": "_court",
          "type": "uint128"
        },
        {
          "name": "_owner",
          "type": "address"
        }
      ],
      "name": "setOwner",
      "outputs": [],
      "payable": false,
      "stateMutability": "nonpayable",
      "type": "function"
    },
    {
      "constant": false,
      "inputs": [],
      "name": "createCourt",
      "outputs": [
        {
          "name": "_id",
          "type": "uint128"
        }
      ],
      "payable": false,
      "stateMutability": "nonpayable",
      "type": "function"
    },
    {
      "constant": false,
      "inputs": [],
      "name": "createIntercourtToken",
      "outputs": [
        {
          "name": "",
          "type": "uint128"
        }
      ],
      "payable": false,
      "stateMutability": "nonpayable",
      "type": "function"
    },
    {
      "constant": false,
      "inputs": [
        {
          "name": "_truster",
          "type": "uint128"
        },
        {
          "name": "_trustees",
          "type": "uint128[]"
        }
      ],
      "name": "trustCourts",
      "outputs": [],
      "payable": false,
      "stateMutability": "nonpayable",
      "type": "function"
    },
    {
      "constant": false,
      "inputs": [
        {
          "name": "_truster",
          "type": "uint128"
        },
        {
          "name": "_trustees",
          "type": "uint128[]"
        }
      ],
      "name": "untrustCourts",
      "outputs": [],
      "payable": false,
      "stateMutability": "nonpayable",
      "type": "function"
    },
    {
      "constant": false,
      "inputs": [
        {
          "name": "_court",
          "type": "uint128"
        },
        {
          "name": "_intercourtToken",
          "type": "uint128"
        }
      ],
      "name": "_generateTokenId",
      "outputs": [
        {
          "name": "_token",
          "type": "uint256"
        }
      ],
      "payable": false,
      "stateMutability": "nonpayable",
      "type": "function"
    },
    {
      "constant": false,
      "inputs": [
        {
          "name": "_court",
          "type": "uint128"
        },
        {
          "name": "_intercourtToken",
          "type": "uint128"
        }
      ],
      "name": "_uncheckedGenerateTokenId",
      "outputs": [
        {
          "name": "_token",
          "type": "uint256"
        }
      ],
      "payable": false,
      "stateMutability": "nonpayable",
      "type": "function"
    },
    {
      "constant": false,
      "inputs": [
        {
          "name": "_id",
          "type": "uint256"
        }
      ],
      "name": "_getCourt",
      "outputs": [
        {
          "name": "",
          "type": "uint128"
        }
      ],
      "payable": false,
      "stateMutability": "nonpayable",
      "type": "function"
    },
    {
      "constant": false,
      "inputs": [
        {
          "name": "_id",
          "type": "uint256"
        }
      ],
      "name": "_getIntercourtToken",
      "outputs": [
        {
          "name": "",
          "type": "uint128"
        }
      ],
      "payable": false,
      "stateMutability": "nonpayable",
      "type": "function"
    }
  ],
  "bytecode": "0x608060405234801561001057600080fd5b50614140806100206000396000f30060806040526004361061015d5763ffffffff7c0100000000000000000000000000000000000000000000000000000000600035041662fdd58e811461016257806301ffc9a7146101a5578063149b192d146101f35780632eb2c2d614610230578063313ce5671461028c578063361e50c7146102b75780633ea7cd961461031d5780634e1273f4146103355780635a1c496f146103b157806371f29688146103db57806393724905146103f05780639f70782014610405578063a22cb46514610448578063a3d1b1b21461047b578063ad0a8356146104b1578063b19646df14610519578063b4ba8a1e14610549578063be773fee1461058b578063c695f2ca146105e9578063cc2659371461061f578063cc7982cb1461066d578063dbbbde571461069a578063e0b53e15146106ed578063e985e9c51461071d578063ed386e2014610751578063f0f1beba14610781578063f242432a146107d3575b600080fd5b34801561016e57600080fd5b5061019373ffffffffffffffffffffffffffffffffffffffff6004351660243561081d565b60408051918252519081900360200190f35b3480156101b157600080fd5b506101df7fffffffff0000000000000000000000000000000000000000000000000000000060043516610851565b604080519115158252519081900360200190f35b3480156101ff57600080fd5b5061020b600435610946565b604080516fffffffffffffffffffffffffffffffff9092168252519081900360200190f35b34801561023c57600080fd5b5061028a73ffffffffffffffffffffffffffffffffffffffff60048035821691602480359091169160443580830192908201359160643580830192908201359160843591820191013561095d565b005b34801561029857600080fd5b506102a1610d63565b6040805160ff9092168252519081900360200190f35b3480156102c357600080fd5b5061028a73ffffffffffffffffffffffffffffffffffffffff60048035821691602480359091169160443580830192908201359160643580830192908201359160843580830192908201359160a435918201910135610d68565b34801561032957600080fd5b5061020b6004356111ef565b34801561034157600080fd5b506103616024600480358281019290820135918135918201910135611204565b60408051602080825283518183015283519192839290830191858101910280838360005b8381101561039d578181015183820152602001610385565b505050509050019250505060405180910390f35b3480156103bd57600080fd5b506103616fffffffffffffffffffffffffffffffff6004351661138d565b3480156103e757600080fd5b5061020b611446565b3480156103fc57600080fd5b5061020b6114f1565b34801561041157600080fd5b5061028a6fffffffffffffffffffffffffffffffff6004351673ffffffffffffffffffffffffffffffffffffffff60243516611560565b34801561045457600080fd5b5061028a73ffffffffffffffffffffffffffffffffffffffff600435166024351515611694565b34801561048757600080fd5b5061028a600480356fffffffffffffffffffffffffffffffff16906024803590810191013561172d565b3480156104bd57600080fd5b5061028a73ffffffffffffffffffffffffffffffffffffffff6004803582169160248035909116916fffffffffffffffffffffffffffffffff60443516916064359160843580830192908201359160a435918201910135611b96565b34801561052557600080fd5b506101df6fffffffffffffffffffffffffffffffff60043581169060243516611e02565b34801561055557600080fd5b5061028a6004803573ffffffffffffffffffffffffffffffffffffffff1690602480359160443591606435908101910135611e39565b34801561059757600080fd5b5061028a6004803573ffffffffffffffffffffffffffffffffffffffff169060248035808201929081013591604435808201929081013591606435808201929081013591608435908101910135611fdc565b3480156105f557600080fd5b5061028a600480356fffffffffffffffffffffffffffffffff1690602480359081019101356123b3565b34801561062b57600080fd5b5061028a6004803573ffffffffffffffffffffffffffffffffffffffff1690602480359160443591606435808201929081013591608435908101910135612842565b34801561067957600080fd5b5061020b6fffffffffffffffffffffffffffffffff60043516602435612a76565b3480156106a657600080fd5b506106c46fffffffffffffffffffffffffffffffff60043516612aca565b6040805173ffffffffffffffffffffffffffffffffffffffff9092168252519081900360200190f35b3480156106f957600080fd5b506101936fffffffffffffffffffffffffffffffff60043581169060243516612af2565b34801561072957600080fd5b506101df73ffffffffffffffffffffffffffffffffffffffff60043581169060243516612ba4565b34801561075d57600080fd5b506101936fffffffffffffffffffffffffffffffff60043581169060243516612bdf565b34801561078d57600080fd5b5061028a6004803573ffffffffffffffffffffffffffffffffffffffff169060248035808201929081013591604435808201929081013591606435908101910135612c0c565b3480156107df57600080fd5b5061028a73ffffffffffffffffffffffffffffffffffffffff6004803582169160248035909116916044359160643591608435918201910135612f3d565b600090815260016020908152604080832073ffffffffffffffffffffffffffffffffffffffff949094168352929052205490565b60007fffffffff0000000000000000000000000000000000000000000000000000000082167f01ffc9a70000000000000000000000000000000000000000000000000000000014806108e457507fffffffff0000000000000000000000000000000000000000000000000000000082167fd9b67a2600000000000000000000000000000000000000000000000000000000145b8061093057507fffffffff0000000000000000000000000000000000000000000000000000000082167f0e89341c00000000000000000000000000000000000000000000000000000000145b1561093d57506001610941565b5060005b919050565b700100000000000000000000000000000000900490565b6000808073ffffffffffffffffffffffffffffffffffffffff8a161515610a0b57604080517f08c379a000000000000000000000000000000000000000000000000000000000815260206004820152602560248201527f64657374696e6174696f6e2061646472657373206d757374206265206e6f6e2d60448201527f7a65726f2e000000000000000000000000000000000000000000000000000000606482015290519081900360840190fd5b878614610a9f57604080517f08c379a000000000000000000000000000000000000000000000000000000000815260206004820152602960248201527f5f69647320616e64205f76616c756573206172726179206c656e677468206d7560448201527f7374206d617463682e0000000000000000000000000000000000000000000000606482015290519081900360840190fd5b73ffffffffffffffffffffffffffffffffffffffff8b16331480610af8575073ffffffffffffffffffffffffffffffffffffffff8b16600090815260026020908152604080832033845290915290205460ff1615156001145b1515610b8b57604080517f08c379a000000000000000000000000000000000000000000000000000000000815260206004820152602f60248201527f4e656564206f70657261746f7220617070726f76616c20666f7220337264207060448201527f61727479207472616e73666572732e0000000000000000000000000000000000606482015290519081900360840190fd5b600092505b87831015610bdb57888884818110610ba457fe5b9050602002013591508686848181101515610bbb57fe5b905060200201359050610bd08b8b84846131a7565b826001019250610b90565b8973ffffffffffffffffffffffffffffffffffffffff168b73ffffffffffffffffffffffffffffffffffffffff163373ffffffffffffffffffffffffffffffffffffffff167f4a39dc06d4c0dbc64b70af90fd698a233a518aa5d07e595d983b8c0526c8f7fb8c8c8c8c6040518080602001806020018381038352878782818152602001925060200280828437909101848103835285815260209081019150869086028082843760405192018290039850909650505050505050a4610cb58a73ffffffffffffffffffffffffffffffffffffffff16613266565b15610d5657610d56338c8c8c8c808060200260200160405190810160405280939291908181526020018383602002808284378201915050505050508b8b808060200260200160405190810160405280939291908181526020018383602002808284378201915050505050508a8a8080601f0160208091040260200160405190810160405280939291908181526020018383808284375061326e945050505050565b5050505050505050505050565b601281565b6060806000898814610e0157604080517f08c379a000000000000000000000000000000000000000000000000000000000815260206004820152603660248201527f5f696e746572636f757274546f6b656e7320616e64205f76616c75657320617260448201527f726179206c656e677468206d757374206d617463682e00000000000000000000606482015290519081900360840190fd5b610e998d8d8d8d808060200260200160405190810160405280939291908181526020018383602002808284378201915050505050508c8c808060200260200160405190810160405280939291908181526020018383602002808284378201915050505050508b8b8080602002602001604051908101604052809392919081815260200183836020028082843750613556945050505050565b604080518b81526020808d028201019091528a8015610ec2578160200160208202803883390190505b50604080518c81526020808e028201019091529093508a8015610eef578160200160208202803883390190505b509150600090505b89811015610fbd57610f5487876000818110610f0f57fe5b905060200201356fffffffffffffffffffffffffffffffff168c8c848181101515610f3657fe5b905060200201356fffffffffffffffffffffffffffffffff16612af2565b8382815181101515610f6257fe5b60209081029091010152610f9d87877fffffffffffffffffffffffffffffffffffffffffffffffffffffffffffffffff8101818110610f0f57fe5b8282815181101515610fab57fe5b60209081029091010152600101610ef7565b60008d73ffffffffffffffffffffffffffffffffffffffff163373ffffffffffffffffffffffffffffffffffffffff167f4a39dc06d4c0dbc64b70af90fd698a233a518aa5d07e595d983b8c0526c8f7fb868d8d604051808060200180602001838103835286818151815260200191508051906020019060200280838360005b8381101561105557818101518382015260200161103d565b505050509050018381038252858582818152602001925060200280828437604051920182900397509095505050505050a48b73ffffffffffffffffffffffffffffffffffffffff1660003373ffffffffffffffffffffffffffffffffffffffff167f4a39dc06d4c0dbc64b70af90fd698a233a518aa5d07e595d983b8c0526c8f7fb858d8d604051808060200180602001838103835286818151815260200191508051906020019060200280838360005b8381101561111e578181015183820152602001611106565b505050509050018381038252858582818152602001925060200280828437604051920182900397509095505050505050a461116e8c73ffffffffffffffffffffffffffffffffffffffff16613266565b156111e0576111e0338e8e858d8d808060200260200160405190810160405280939291908181526020018383602002808284378201915050505050508a8a8080601f0160208091040260200160405190810160405280939291908181526020018383808284375061326e945050505050565b50505050505050505050505050565b6fffffffffffffffffffffffffffffffff1690565b606080600085841461129d57604080517f08c379a000000000000000000000000000000000000000000000000000000000815260206004820152602360248201527f6f776e65727320616e6420696473206c656e6774687320646f206e6f74206d6160448201527f7463680000000000000000000000000000000000000000000000000000000000606482015290519081900360840190fd5b6040805187815260208089028201019091528680156112c6578160200160208202803883390190505b509150600090505b8581101561138357600160008686848181106112e657fe5b9050602002013581526020019081526020016000206000888884818110151561130b57fe5b9050602002013573ffffffffffffffffffffffffffffffffffffffff1673ffffffffffffffffffffffffffffffffffffffff1673ffffffffffffffffffffffffffffffffffffffff16815260200190815260200160002054828281518110151561137157fe5b602090810290910101526001016112ce565b5095945050505050565b6fffffffffffffffffffffffffffffffff811660009081526004602090815260409182902080548351818402810184019094528084526060939283018282801561143a57602002820191906000526020600020906000905b82829054906101000a90046fffffffffffffffffffffffffffffffff166fffffffffffffffffffffffffffffffff1681526020019060100190602082600f010492830192600103820291508084116113e55790505b50505050509050919050565b600080546fffffffffffffffffffffffffffffffff8082166001019081167fffffffffffffffffffffffffffffffff00000000000000000000000000000000909216821783558183526005602052604080842080547fffffffffffffffffffffffff000000000000000000000000000000000000000016339081179091559051919390917f06aaef671578a83ca4bb3b42f2d877fa58828fa1f8a25c4ca846de353d7e966f9190a390565b6000805460016fffffffffffffffffffffffffffffffff700100000000000000000000000000000000808404821692909201808216928302919093161783556040517fa24bcd5f649ada13ff17c575568ef9a70bbc9c68a615274f81addca8fbe7794e908490a28091505b5090565b6fffffffffffffffffffffffffffffffff821660009081526005602052604090205473ffffffffffffffffffffffffffffffffffffffff16331461160557604080517f08c379a000000000000000000000000000000000000000000000000000000000815260206004820152601460248201527f576520617265206e6f7420746865206f776e6572000000000000000000000000604482015290519081900360640190fd5b6fffffffffffffffffffffffffffffffff821660008181526005602052604080822080547fffffffffffffffffffffffff00000000000000000000000000000000000000001673ffffffffffffffffffffffffffffffffffffffff861690811790915590519092917fb81cb4b71e909eae005228477de38e63a3921c73cfa6ef5ec92566e4ece1daed91a35050565b33600081815260026020908152604080832073ffffffffffffffffffffffffffffffffffffffff87168085529083529281902080547fffffffffffffffffffffffffffffffffffffffffffffffffffffffffffffff0016861515908117909155815190815290519293927f17307eab39ab6107e8899845ad3d59bd9653f200f220920489ca2b5937696c31929181900390910190a35050565b6fffffffffffffffffffffffffffffffff8316600090815260056020526040812054819073ffffffffffffffffffffffffffffffffffffffff1633146117d457604080517f08c379a000000000000000000000000000000000000000000000000000000000815260206004820152601660248201527f576520617265206e6f7420636f757274206f776e657200000000000000000000604482015290519081900360640190fd5b50506fffffffffffffffffffffffffffffffff8316600090815260046020526040812054905b82811015611afb57600084848381811061181057fe5b905060200201356fffffffffffffffffffffffffffffffff166fffffffffffffffffffffffffffffffff1611801561189257506000546fffffffffffffffffffffffffffffffff1684848381811061186457fe5b905060200201356fffffffffffffffffffffffffffffffff166fffffffffffffffffffffffffffffffff1611155b15156118ff57604080517f08c379a000000000000000000000000000000000000000000000000000000000815260206004820152601560248201527f436f75727420646f6573206e6f742065786973742e0000000000000000000000604482015290519081900360640190fd5b6fffffffffffffffffffffffffffffffff851660009081526003602052604081209085858481811061192d57fe5b602090810292909201356fffffffffffffffffffffffffffffffff168352508101919091526040016000205460ff1615611af3576fffffffffffffffffffffffffffffffff851660009081526003602052604081208186868581811061198f57fe5b905060200201356fffffffffffffffffffffffffffffffff166fffffffffffffffffffffffffffffffff166fffffffffffffffffffffffffffffffff16815260200190815260200160002060006101000a81548160ff0219169083151502179055506001821115611aea576fffffffffffffffffffffffffffffffff8516600090815260046020526040902080547fffffffffffffffffffffffffffffffffffffffffffffffffffffffffffffffff9093019283908110611a4c57fe5b600091825260208083206002830401546fffffffffffffffffffffffffffffffff898116855260049092526040909320805460019093166010026101000a90930416919083908110611a9a57fe5b90600052602060002090600291828204019190066010026101000a8154816fffffffffffffffffffffffffffffffff02191690836fffffffffffffffffffffffffffffffff160217905550611af3565b60009150611afb565b6001016117fa565b6fffffffffffffffffffffffffffffffff851660009081526004602052604090208290611b2890826140be565b50846fffffffffffffffffffffffffffffffff167fe4ce0d7e344fdaa9bc94a8702373907f11151c57cd0a9b419bdb31a64f6b00b385856040518080602001828103825284848281815260200192506020028082843760405192018290039550909350505050a25050505050565b60408051600180825281830190925260609182916000918291906020808301908038833901905050935089846000815181101515611bd057fe5b6fffffffffffffffffffffffffffffffff9290921660209283029190910182015260408051600180825281830190925291828101908038833901905050925088836000815181101515611c1f57fe5b9060200190602002018181525050611c678c8c86868c8c8080602002602001604051908101604052809392919081815260200183836020028082843750613556945050505050565b611c9688886000818110611c7757fe5b905060200201356fffffffffffffffffffffffffffffffff168b612bdf565b9150611cc988887fffffffffffffffffffffffffffffffffffffffffffffffffffffffffffffffff8101818110611c7757fe5b905060008c73ffffffffffffffffffffffffffffffffffffffff163373ffffffffffffffffffffffffffffffffffffffff167fc3d58168c5ae7397731d063d5bbf3d657854427343f4c083240f7aacaa2d0f62858d604051808381526020018281526020019250505060405180910390a460408051828152602081018b9052815173ffffffffffffffffffffffffffffffffffffffff8e169260009233927fc3d58168c5ae7397731d063d5bbf3d657854427343f4c083240f7aacaa2d0f62929181900390910190a4611db18b73ffffffffffffffffffffffffffffffffffffffff16613266565b15611df457611df4338d8d848d8b8b8080601f01602080910402602001604051908101604052809392919081815260200183838082843750613a78945050505050565b505050505050505050505050565b6fffffffffffffffffffffffffffffffff918216600090815260036020908152604080832093909416825291909152205460ff1690565b73ffffffffffffffffffffffffffffffffffffffff8516331480611e92575073ffffffffffffffffffffffffffffffffffffffff8516600090815260026020908152604080832033845290915290205460ff1615156001145b1515611f2557604080517f08c379a000000000000000000000000000000000000000000000000000000000815260206004820152602f60248201527f4e656564206f70657261746f7220617070726f76616c20666f7220337264207060448201527f61727479207472616e73666572732e0000000000000000000000000000000000606482015290519081900360840190fd5b600084815260016020908152604080832073ffffffffffffffffffffffffffffffffffffffff89168452909152902054611f65908463ffffffff613ce416565b600085815260016020908152604080832073ffffffffffffffffffffffffffffffffffffffff8a16808552908352818420949094558051888152918201879052805192939233927fc3d58168c5ae7397731d063d5bbf3d657854427343f4c083240f7aacaa2d0f6292908290030190a45050505050565b600080808073ffffffffffffffffffffffffffffffffffffffff8d16151561208b57604080517f08c379a000000000000000000000000000000000000000000000000000000000815260206004820152602560248201527f64657374696e6174696f6e2061646472657373206d757374206265206e6f6e2d60448201527f7a65726f2e000000000000000000000000000000000000000000000000000000606482015290519081900360840190fd5b8a891461211f57604080517f08c379a000000000000000000000000000000000000000000000000000000000815260206004820152602960248201527f5f69647320616e64205f76616c756573206172726179206c656e677468206d7560448201527f7374206d617463682e0000000000000000000000000000000000000000000000606482015290519081900360840190fd5b61212882610946565b6fffffffffffffffffffffffffffffffff811660009081526005602052604090205490945073ffffffffffffffffffffffffffffffffffffffff1633146121d057604080517f08c379a000000000000000000000000000000000000000000000000000000000815260206004820152601460248201527f4e6f742074686520636f757274206f776e65722e000000000000000000000000604482015290519081900360640190fd5b600092505b8a83101561224d578b8b848181106121e957fe5b905060200201359150898984818110151561220057fe5b9050602002013590506122428d838389898080602002602001604051908101604052809392919081815260200183836020028082843750613dcb945050505050565b8260010192506121d5565b8c73ffffffffffffffffffffffffffffffffffffffff1660003373ffffffffffffffffffffffffffffffffffffffff167f4a39dc06d4c0dbc64b70af90fd698a233a518aa5d07e595d983b8c0526c8f7fb8f8f8f8f6040518080602001806020018381038352878782818152602001925060200280828437909101848103835285815260209081019150869086028082843760405192018290039850909650505050505050a46123128d73ffffffffffffffffffffffffffffffffffffffff16613266565b156111e0576111e033308f8f8f808060200260200160405190810160405280939291908181526020018383602002808284378201915050505050508e8e808060200260200160405190810160405280939291908181526020018383602002808284378201915050505050508d8d8080601f0160208091040260200160405190810160405280939291908181526020018383808284375061326e945050505050565b6fffffffffffffffffffffffffffffffff831660009081526005602052604081205481908190819073ffffffffffffffffffffffffffffffffffffffff16331461245e57604080517f08c379a000000000000000000000000000000000000000000000000000000000815260206004820152601660248201527f576520617265206e6f7420636f757274206f776e657200000000000000000000604482015290519081900360640190fd5b6fffffffffffffffffffffffffffffffff8716600090815260046020526040812054945084935091505b8482101561260257600086868481811061249e57fe5b905060200201356fffffffffffffffffffffffffffffffff166fffffffffffffffffffffffffffffffff1611801561252057506000546fffffffffffffffffffffffffffffffff168686848181106124f257fe5b905060200201356fffffffffffffffffffffffffffffffff166fffffffffffffffffffffffffffffffff1611155b151561258d57604080517f08c379a000000000000000000000000000000000000000000000000000000000815260206004820152601560248201527f436f75727420646f6573206e6f742065786973742e0000000000000000000000604482015290519081900360640190fd5b6fffffffffffffffffffffffffffffffff87166000908152600360205260408120908787858181106125bb57fe5b602090810292909201356fffffffffffffffffffffffffffffffff168352508101919091526040016000205460ff1615156125f7576001830192505b816001019150612488565b6fffffffffffffffffffffffffffffffff87166000908152600460205260409020839061262f90826140be565b50600090505b848110156127d3576fffffffffffffffffffffffffffffffff871660009081526003602052604081209087878481811061266b57fe5b602090810292909201356fffffffffffffffffffffffffffffffff168352508101919091526040016000205460ff1615156127cb578585828181106126ac57fe5b905060200201356fffffffffffffffffffffffffffffffff1660046000896fffffffffffffffffffffffffffffffff166fffffffffffffffffffffffffffffffff1681526020019081526020016000208580600101965081548110151561270f57fe5b60009182526020808320600283040180546fffffffffffffffffffffffffffffffff95861660106001958616026101000a90810290870219909116179055928a1682526003909252604081209088888581811061276857fe5b905060200201356fffffffffffffffffffffffffffffffff166fffffffffffffffffffffffffffffffff166fffffffffffffffffffffffffffffffff16815260200190815260200160002060006101000a81548160ff0219169083151502179055505b600101612635565b866fffffffffffffffffffffffffffffffff167fe6aa644494710b58a491576cba861cd8857924885bad0b4fd431e51d33f66dec87876040518080602001828103825284848281815260200192506020028082843760405192018290039550909350505050a250505050505050565b600073ffffffffffffffffffffffffffffffffffffffff881615156128c857604080517f08c379a000000000000000000000000000000000000000000000000000000000815260206004820152601560248201527f5f746f206d757374206265206e6f6e2d7a65726f2e0000000000000000000000604482015290519081900360640190fd5b6128d187610946565b6fffffffffffffffffffffffffffffffff811660009081526005602052604090205490915073ffffffffffffffffffffffffffffffffffffffff16331461297957604080517f08c379a000000000000000000000000000000000000000000000000000000000815260206004820152601460248201527f4e6f742074686520636f757274206f776e65722e000000000000000000000000604482015290519081900360640190fd5b6129b288888886868080602002602001604051908101604052809392919081815260200183836020028082843750613dcb945050505050565b6040805188815260208101889052815173ffffffffffffffffffffffffffffffffffffffff8b169260009233927fc3d58168c5ae7397731d063d5bbf3d657854427343f4c083240f7aacaa2d0f62929181900390910190a4612a298873ffffffffffffffffffffffffffffffffffffffff16613266565b15612a6c57612a6c33308a8a8a8a8a8080601f01602080910402602001604051908101604052809392919081815260200183838082843750613a78945050505050565b5050505050505050565b600460205281600052604060002081815481101515612a9157fe5b9060005260206000209060029182820401919006601002915091509054906101000a90046fffffffffffffffffffffffffffffffff1681565b60056020526000908152604090205473ffffffffffffffffffffffffffffffffffffffff1681565b60006fffffffffffffffffffffffffffffffff831615801590612b2657506fffffffffffffffffffffffffffffffff821615155b1515612b9357604080517f08c379a000000000000000000000000000000000000000000000000000000000815260206004820152600d60248201527f57726f6e672076616c7565732e00000000000000000000000000000000000000604482015290519081900360640190fd5b612b9d8383612bdf565b9392505050565b73ffffffffffffffffffffffffffffffffffffffff918216600090815260026020908152604080832093909416825291909152205460ff1690565b6fffffffffffffffffffffffffffffffff9081169116700100000000000000000000000000000000021790565b60008080878614612ca457604080517f08c379a000000000000000000000000000000000000000000000000000000000815260206004820152602960248201527f5f69647320616e64205f76616c756573206172726179206c656e677468206d7560448201527f7374206d617463682e0000000000000000000000000000000000000000000000606482015290519081900360840190fd5b73ffffffffffffffffffffffffffffffffffffffff8a16331480612cfd575073ffffffffffffffffffffffffffffffffffffffff8a16600090815260026020908152604080832033845290915290205460ff1615156001145b1515612d9057604080517f08c379a000000000000000000000000000000000000000000000000000000000815260206004820152602f60248201527f4e656564206f70657261746f7220617070726f76616c20666f7220337264207060448201527f61727479207472616e73666572732e0000000000000000000000000000000000606482015290519081900360840190fd5b600092505b87831015612e8b57888884818110612da957fe5b9050602002013591508686848181101515612dc057fe5b905060200201359050612e2c816001600085815260200190815260200160002060008d73ffffffffffffffffffffffffffffffffffffffff1673ffffffffffffffffffffffffffffffffffffffff16815260200190815260200160002054613ce490919063ffffffff16565b6001600084815260200190815260200160002060008c73ffffffffffffffffffffffffffffffffffffffff1673ffffffffffffffffffffffffffffffffffffffff16815260200190815260200160002081905550826001019250612d95565b60008a73ffffffffffffffffffffffffffffffffffffffff163373ffffffffffffffffffffffffffffffffffffffff167f4a39dc06d4c0dbc64b70af90fd698a233a518aa5d07e595d983b8c0526c8f7fb8c8c8c8c6040518080602001806020018381038352878782818152602001925060200280828437909101848103835285815260209081019150869086028082843760405192018290039850909650505050505050a450505050505050505050565b73ffffffffffffffffffffffffffffffffffffffff85161515612fc157604080517f08c379a000000000000000000000000000000000000000000000000000000000815260206004820152601560248201527f5f746f206d757374206265206e6f6e2d7a65726f2e0000000000000000000000604482015290519081900360640190fd5b73ffffffffffffffffffffffffffffffffffffffff861633148061301a575073ffffffffffffffffffffffffffffffffffffffff8616600090815260026020908152604080832033845290915290205460ff1615156001145b15156130ad57604080517f08c379a000000000000000000000000000000000000000000000000000000000815260206004820152602f60248201527f4e656564206f70657261746f7220617070726f76616c20666f7220337264207060448201527f61727479207472616e73666572732e0000000000000000000000000000000000606482015290519081900360840190fd5b6130b9868686866131a7565b8473ffffffffffffffffffffffffffffffffffffffff168673ffffffffffffffffffffffffffffffffffffffff163373ffffffffffffffffffffffffffffffffffffffff167fc3d58168c5ae7397731d063d5bbf3d657854427343f4c083240f7aacaa2d0f628787604051808381526020018281526020019250505060405180910390a461315c8573ffffffffffffffffffffffffffffffffffffffff16613266565b1561319f5761319f338787878787878080601f01602080910402602001604051908101604052809392919081815260200183838082843750613a78945050505050565b505050505050565b600082815260016020908152604080832073ffffffffffffffffffffffffffffffffffffffff881684529091529020546131e7908263ffffffff613ce416565b600083815260016020908152604080832073ffffffffffffffffffffffffffffffffffffffff898116855292528083209390935585168152205461322c908290614011565b600092835260016020908152604080852073ffffffffffffffffffffffffffffffffffffffff909616855294905292909120919091555050565b6000903b1190565b63bc197c817c0100000000000000000000000000000000000000000000000000000000027bffffffffffffffffffffffffffffffffffffffffffffffffffffffff19168473ffffffffffffffffffffffffffffffffffffffff1663bc197c8188888787876040518663ffffffff167c0100000000000000000000000000000000000000000000000000000000028152600401808673ffffffffffffffffffffffffffffffffffffffff1673ffffffffffffffffffffffffffffffffffffffff1681526020018573ffffffffffffffffffffffffffffffffffffffff1673ffffffffffffffffffffffffffffffffffffffff168152602001806020018060200180602001848103845287818151815260200191508051906020019060200280838360005b838110156133a9578181015183820152602001613391565b50505050905001848103835286818151815260200191508051906020019060200280838360005b838110156133e85781810151838201526020016133d0565b50505050905001848103825285818151815260200191508051906020019080838360005b8381101561342457818101518382015260200161340c565b50505050905090810190601f1680156134515780820380516001836020036101000a031916815260200191505b5098505050505050505050602060405180830381600087803b15801561347657600080fd5b505af115801561348a573d6000803e3d6000fd5b505050506040513d60208110156134a057600080fd5b50517fffffffff00000000000000000000000000000000000000000000000000000000161461319f57604080517f08c379a000000000000000000000000000000000000000000000000000000000815260206004820152603e60248201527f636f6e74726163742072657475726e656420616e20756e6b6e6f776e2076616c60448201527f75652066726f6d206f6e45524331313535426174636852656365697665640000606482015290519081900360840190fd5b60008080808073ffffffffffffffffffffffffffffffffffffffff891615156135e057604080517f08c379a000000000000000000000000000000000000000000000000000000000815260206004820152601560248201527f5f746f206d757374206265206e6f6e2d7a65726f2e0000000000000000000000604482015290519081900360640190fd5b86518851146135eb57fe5b8551151561365a57604080517f08c379a000000000000000000000000000000000000000000000000000000000815260206004820152601660248201527f6c656e677468206d757374206265206e6f6e7a65726f00000000000000000000604482015290519081900360640190fd5b73ffffffffffffffffffffffffffffffffffffffff8a163314806136b3575073ffffffffffffffffffffffffffffffffffffffff8a16600090815260026020908152604080832033845290915290205460ff1615156001145b151561374657604080517f08c379a000000000000000000000000000000000000000000000000000000000815260206004820152602f60248201527f4e656564206f70657261746f7220617070726f76616c20666f7220337264207060448201527f61727479207472616e73666572732e0000000000000000000000000000000000606482015290519081900360840190fd5b600094505b60018651038510156138855760036000878760010181518110151561376c57fe5b906020019060200201516fffffffffffffffffffffffffffffffff166fffffffffffffffffffffffffffffffff168152602001908152602001600020600087878151811015156137b857fe5b60209081029091018101516fffffffffffffffffffffffffffffffff1682528101919091526040016000205460ff16151561387a57604080517f08c379a000000000000000000000000000000000000000000000000000000000815260206004820152602d60248201527f4120636f75727420696e207468652070617468206973206e6f7420696e20612060448201527f74727573746564206c6973742e00000000000000000000000000000000000000606482015290519081900360840190fd5b84600101945061374b565b600093505b8751841015613a6c5787848151811015156138a157fe5b9060200190602002015192506138cf8660008151811015156138bf57fe5b9060200190602002015184612af2565b91506138e68660018851038151811015156138bf57fe5b905061396287858151811015156138f957fe5b906020019060200201516001600085815260200190815260200160002060008d73ffffffffffffffffffffffffffffffffffffffff1673ffffffffffffffffffffffffffffffffffffffff16815260200190815260200160002054613ce490919063ffffffff16565b6001600084815260200190815260200160002060008c73ffffffffffffffffffffffffffffffffffffffff1673ffffffffffffffffffffffffffffffffffffffff16815260200190815260200160002081905550613a2e6001600083815260200190815260200160002060008b73ffffffffffffffffffffffffffffffffffffffff1673ffffffffffffffffffffffffffffffffffffffff168152602001908152602001600020548886815181101515613a1857fe5b602090810290910101519063ffffffff61401116565b600082815260016020818152604080842073ffffffffffffffffffffffffffffffffffffffff8f16855290915290912091909155939093019261388a565b50505050505050505050565b63f23a6e617c0100000000000000000000000000000000000000000000000000000000027bffffffffffffffffffffffffffffffffffffffffffffffffffffffff19168473ffffffffffffffffffffffffffffffffffffffff1663f23a6e6188888787876040518663ffffffff167c0100000000000000000000000000000000000000000000000000000000028152600401808673ffffffffffffffffffffffffffffffffffffffff1673ffffffffffffffffffffffffffffffffffffffff1681526020018573ffffffffffffffffffffffffffffffffffffffff1673ffffffffffffffffffffffffffffffffffffffff16815260200184815260200183815260200180602001828103825283818151815260200191508051906020019080838360005b83811015613bb4578181015183820152602001613b9c565b50505050905090810190601f168015613be15780820380516001836020036101000a031916815260200191505b509650505050505050602060405180830381600087803b158015613c0457600080fd5b505af1158015613c18573d6000803e3d6000fd5b505050506040513d6020811015613c2e57600080fd5b50517fffffffff00000000000000000000000000000000000000000000000000000000161461319f57604080517f08c379a000000000000000000000000000000000000000000000000000000000815260206004820152603960248201527f636f6e74726163742072657475726e656420616e20756e6b6e6f776e2076616c60448201527f75652066726f6d206f6e45524331313535526563656976656400000000000000606482015290519081900360840190fd5b60408051808201909152601281527f4d4154485f5355425f554e444552464c4f5700000000000000000000000000006020820152600090819084841115613dc3576040517f08c379a00000000000000000000000000000000000000000000000000000000081526004018080602001828103825283818151815260200191508051906020019080838360005b83811015613d88578181015183820152602001613d70565b50505050905090810190601f168015613db55780820380516001836020036101000a031916815260200191505b509250505060405180910390fd5b505050900390565b6000806000806000613ddc88610946565b9450613de7886111ef565b9350600092505b8551831015613ee6578583815181101515613e0557fe5b60209081029091018101516fffffffffffffffffffffffffffffffff8082166000908152600384526040808220928a168252919093529091205490925060ff161515613ed857604080517f08c379a000000000000000000000000000000000000000000000000000000000815260206004820152602d60248201527f4120636f75727420696e207468652070617468206973206e6f7420696e20612060448201527f74727573746564206c6973742e00000000000000000000000000000000000000606482015290519081900360840190fd5b819450826001019250613dee565b6fffffffffffffffffffffffffffffffff851615801590613f1857506fffffffffffffffffffffffffffffffff841615155b1515613f8557604080517f08c379a000000000000000000000000000000000000000000000000000000000815260206004820152600e60248201527f496e76616c696420746f6b656e2e000000000000000000000000000000000000604482015290519081900360640190fd5b613f8f8585612af2565b600081815260016020908152604080832073ffffffffffffffffffffffffffffffffffffffff8e168452909152902054909150613fd390889063ffffffff61401116565b600091825260016020908152604080842073ffffffffffffffffffffffffffffffffffffffff909c1684529a90529890209790975550505050505050565b60408051808201909152601181527f4d4154485f4144445f4f564552464c4f57000000000000000000000000000000602082015260009083830190848210156140b6576040517f08c379a000000000000000000000000000000000000000000000000000000000815260040180806020018281038252838181518152602001915080519060200190808383600083811015613d88578181015183820152602001613d70565b509392505050565b8154818355818111156140f25760010160029004816001016002900483600052602060002091820191016140f291906140f7565b505050565b61411191905b8082111561155c57600081556001016140fd565b905600a165627a7a7230582036d3e17ba86f8262ba1f7c5823b4950ee474e6ff73a511705f87260cfe7978880029",
  "source": "pragma solidity ^0.4.0;\n\nimport \"@aragon/os/contracts/lib/math/SafeMath.sol\";\nimport \"./Address.sol\";\nimport \"./Common.sol\";\nimport \"./IERC1155TokenReceiver.sol\";\nimport \"./IERC1155.sol\";\n\n\ncontract RewardCourts is IERC1155, ERC165, CommonConstants\n{\n    using SafeMath for uint256;\n    using Address for address;\n\n    uint8 public constant decimals = 18;\n\n    uint128 internal courtNonce;\n    uint128 internal icTokenNonce;\n\n    // token => (owner => balance)\n    mapping (uint256 => mapping(address => uint256)) internal balances;\n\n    // owner => (operator => approved)\n    mapping (address => mapping(address => bool)) internal operatorApproval;\n\n    // token => (owner => spentLimit)\n    //mapping (address => mapping (address => uint256)) public spentLimit; // It is better done in the wrapper (voting) contract.\n\n    // truster => (trustee => bool)\n    mapping (uint128 => mapping (uint128 => bool)) internal trustedCourts; // which courts are trusted\n\n    // truster => trustees[]\n    mapping (uint128 => uint128[]) public trustedCourtsList;\n\n    // token => court\n    //mapping (address => uint128) public tokenControllingCourts;\n\n    // token => intercourt token\n    //mapping (address => uint128) public interCourtTokens;\n\n    // court ID => owner\n    mapping (uint128 => address) public courtOwners;\n\n    event CourtCreated(address indexed owner, uint128 indexed createdCourt);\n    event IntercourtTokenCreated(uint128 indexed ictoken);\n    event SetOwner(uint128 indexed court, address indexed owner);\n    event TrustCourts(uint128 indexed truster, uint128[] trustees);\n    event UntrustCourts(uint128 indexed truster, uint128[] trustees);\n\n/////////////////////////////////////////// ERC165 //////////////////////////////////////////////\n\n    /*\n        bytes4(keccak256('supportsInterface(bytes4)'));\n    */\n    bytes4 constant private INTERFACE_SIGNATURE_ERC165 = 0x01ffc9a7;\n\n    /*\n        bytes4(keccak256(\"safeTransferFrom(address,address,uint256,uint256,bytes)\")) ^\n        bytes4(keccak256(\"safeBatchTransferFrom(address,address,uint256[],uint256[],bytes)\")) ^\n        bytes4(keccak256(\"balanceOf(address,uint256)\")) ^\n        bytes4(keccak256(\"balanceOfBatch(address[],uint256[])\")) ^\n        bytes4(keccak256(\"setApprovalForAll(address,bool)\")) ^\n        bytes4(keccak256(\"isApprovedForAll(address,address)\"));\n    */\n    bytes4 constant private INTERFACE_SIGNATURE_ERC1155 = 0xd9b67a26;\n\n    bytes4 constant private INTERFACE_SIGNATURE_URI = 0x0e89341c;\n\n    function supportsInterface(bytes4 _interfaceId)\n    public\n    view\n    returns (bool) {\n        if (_interfaceId == INTERFACE_SIGNATURE_ERC165 ||\n            _interfaceId == INTERFACE_SIGNATURE_ERC1155 ||\n            _interfaceId == INTERFACE_SIGNATURE_URI) {\n          return true;\n        }\n\n        return false;\n    }\n\n/////////////////////////////////////////// ERC1155 //////////////////////////////////////////////\n\n    /**\n        @notice Transfers `_value` amount of an `_id` from the `_from` address to the `_to` address specified (with safety call).\n        @dev Caller must be approved to manage the tokens being transferred out of the `_from` account (see \"Approval\" section of the standard).\n        MUST revert if `_to` is the zero address.\n        MUST revert if balance of holder for token `_id` is lower than the `_value` sent.\n        MUST revert on any other error.\n        MUST emit the `TransferSingle` event to reflect the balance change (see \"Safe Transfer Rules\" section of the standard).\n        After the above conditions are met, this function MUST check if `_to` is a smart contract (e.g. code size > 0). If so, it MUST call `onERC1155Received` on `_to` and act appropriately (see \"Safe Transfer Rules\" section of the standard).\n        @param _from    Source address\n        @param _to      Target address\n        @param _id      ID of the token type\n        @param _value   Transfer amount\n        @param _data    Additional data with no specified format, MUST be sent unaltered in call to `onERC1155Received` on `_to`\n    */\n    function safeTransferFrom(address _from, address _to, uint256 _id, uint256 _value, bytes _data) external {\n\n        require(_to != address(0x0), \"_to must be non-zero.\");\n        require(_from == msg.sender || operatorApproval[_from][msg.sender] == true, \"Need operator approval for 3rd party transfers.\");\n\n        _doSafeTransferFrom(_from, _to, _id, _value);\n\n        // MUST emit event\n        emit TransferSingle(msg.sender, _from, _to, _id, _value);\n\n        // Now that the balance is updated and the event was emitted,\n        // call onERC1155Received if the destination is a contract.\n        if (_to.isContract()) {\n            _doSafeTransferAcceptanceCheck(msg.sender, _from, _to, _id, _value, _data);\n        }\n    }\n\n    /**\n        @notice Transfers `_values` amount(s) of `_ids` from the `_from` address to the `_to` address specified (with safety call).\n        @dev Caller must be approved to manage the tokens being transferred out of the `_from` account (see \"Approval\" section of the standard).\n        MUST revert if `_to` is the zero address.\n        MUST revert if length of `_ids` is not the same as length of `_values`.\n        MUST revert if any of the balance(s) of the holder(s) for token(s) in `_ids` is lower than the respective amount(s) in `_values` sent to the recipient.\n        MUST revert on any other error.\n        MUST emit `TransferSingle` or `TransferBatch` event(s) such that all the balance changes are reflected (see \"Safe Transfer Rules\" section of the standard).\n        Balance changes and events MUST follow the ordering of the arrays (_ids[0]/_values[0] before _ids[1]/_values[1], etc).\n        After the above conditions for the transfer(s) in the batch are met, this function MUST check if `_to` is a smart contract (e.g. code size > 0). If so, it MUST call the relevant `ERC1155TokenReceiver` hook(s) on `_to` and act appropriately (see \"Safe Transfer Rules\" section of the standard).\n        @param _from    Source address\n        @param _to      Target address\n        @param _ids     IDs of each token type (order and length must match _values array)\n        @param _values  Transfer amounts per token type (order and length must match _ids array)\n        @param _data    Additional data with no specified format, MUST be sent unaltered in call to the `ERC1155TokenReceiver` hook(s) on `_to`\n    */\n    function safeBatchTransferFrom(address _from, address _to, uint256[] _ids, uint256[] _values, bytes _data) external {\n\n        // MUST Throw on errors\n        require(_to != address(0x0), \"destination address must be non-zero.\");\n        require(_ids.length == _values.length, \"_ids and _values array length must match.\");\n        require(_from == msg.sender || operatorApproval[_from][msg.sender] == true, \"Need operator approval for 3rd party transfers.\");\n\n        for (uint256 i = 0; i < _ids.length; ++i) {\n            uint256 _id = _ids[i];\n            uint256 _value = _values[i];\n\n            _doSafeTransferFrom(_from, _to, _id, _value);\n        }\n\n        // Note: instead of the below batch versions of event and acceptance check you MAY have emitted a TransferSingle\n        // event and a subsequent call to _doSafeTransferAcceptanceCheck in above loop for each balance change instead.\n        // Or emitted a TransferSingle event for each in the loop and then the single _doSafeBatchTransferAcceptanceCheck below.\n        // However it is implemented the balance changes and events MUST match when a check (i.e. calling an external contract) is done.\n\n        // MUST emit event\n        emit TransferBatch(msg.sender, _from, _to, _ids, _values);\n\n        // Now that the balances are updated and the events are emitted,\n        // call onERC1155BatchReceived if the destination is a contract.\n        if (_to.isContract()) {\n            _doSafeBatchTransferAcceptanceCheck(msg.sender, _from, _to, _ids, _values, _data);\n        }\n    }\n\n    /**\n        @notice Get the balance of an account's Tokens.\n        @param _owner  The address of the token holder\n        @param _id     ID of the Token\n        @return        The _owner's balance of the Token type requested\n     */\n    function balanceOf(address _owner, uint256 _id) external view returns (uint256) {\n        // The balance of any account can be calculated from the Transfer events history.\n        // However, since we need to keep the balances to validate transfer request,\n        // there is no extra cost to also privide a querry function.\n        return balances[_id][_owner];\n    }\n\n    /**\n        @notice Get the balance of multiple account/token pairs\n        @param _owners The addresses of the token holders\n        @param _ids    ID of the Tokens\n        @return        The _owner's balance of the Token types requested (i.e. balance for each (owner, id) pair)\n     */\n    function balanceOfBatch(address[] _owners, uint256[] _ids) external view returns (uint256[] memory) {\n\n        require(_owners.length == _ids.length, \"owners and ids lengths do not match\");\n\n        uint256[] memory balances_ = new uint256[](_owners.length);\n\n        for (uint256 i = 0; i < _owners.length; ++i) {\n            balances_[i] = balances[_ids[i]][_owners[i]];\n        }\n\n        return balances_;\n    }\n\n    /**\n        @notice Enable or disable approval for a third party (\"operator\") to manage all of the caller's tokens.\n        @dev MUST emit the ApprovalForAll event on success.\n        @param _operator  Address to add to the set of authorized operators\n        @param _approved  True if the operator is approved, false to revoke approval\n    */\n    function setApprovalForAll(address _operator, bool _approved) external {\n        operatorApproval[msg.sender][_operator] = _approved;\n        emit ApprovalForAll(msg.sender, _operator, _approved);\n    }\n\n    /**\n        @notice Queries the approval status of an operator for a given owner.\n        @param _owner     The owner of the Tokens\n        @param _operator  Address of authorized operator\n        @return           True if the operator is approved, false if not\n    */\n    function isApprovedForAll(address _owner, address _operator) external view returns (bool) {\n        return operatorApproval[_owner][_operator];\n    }\n\n/////////////////////////////////////////// Court //////////////////////////////////////////////\n\n    /// Transfer through Multiple Courts ///\n\n    /**\n        @notice Transfer money through several courts with automatic currency conversion between court tokens.\n        @param _from    Source address\n        @param _to      Target address\n        @param _intercourtToken Intercourt token\n        @param _value   Transfer amount\n        @param _courtsPath Through which courts to transfer\n        @param _data    Additional data with no specified format, MUST be sent unaltered in call to `onERC1155Received` on `_to`\n    */\n    function intercourtTransfer(address _from, address _to, uint128 _intercourtToken, uint256 _value, uint128[] _courtsPath, bytes _data) external {\n        uint128[] memory _ids = new uint128[](1);\n        _ids[0] = _intercourtToken;\n        uint256[] memory _values = new uint256[](1);\n        _values[0] = _value;\n        _doIntercourtTransferBatch(_from, _to, _ids, _values, _courtsPath);\n\n        // Using _uncheckedGenerateTokenId because already checked in _doIntercourtTransferBatch().\n        uint256 _id1 = _uncheckedGenerateTokenId(_courtsPath[0], _intercourtToken);\n        uint256 _id2 = _uncheckedGenerateTokenId(_courtsPath[_courtsPath.length - 1], _intercourtToken);\n        emit TransferSingle(msg.sender, _from, 0x0, _id1, _value);\n        emit TransferSingle(msg.sender, 0x0, _to, _id2, _value);\n\n        // Now that the balance is updated and the event was emitted,\n        // call onERC1155Received if the destination is a contract.\n        if (_to.isContract()) {\n            _doSafeTransferAcceptanceCheck(msg.sender, _from, _to, _id2, _value, _data);\n        }\n    }\n\n    /**\n        @notice Transfer money through several courts with automatic currency conversion between court tokens.\n        @param _from    Source address\n        @param _to      Target address\n        @param _intercourtTokens Intercourt tokens (order and length must match _values array)\n        @param _values  Transfer amounts per token type (order and length must match _intercourtTokens array)\n        @param _courtsPath Through which courts to transfer\n        @param _data    Additional data with no specified format, MUST be sent unaltered in call to `onERC1155Received` on `_to`\n    */\n    function intercourtTransferBatch(address _from, address _to, uint128[] _intercourtTokens, uint256[] _values, uint128[] _courtsPath, bytes _data) external {\n        require(_intercourtTokens.length == _values.length, \"_intercourtTokens and _values array length must match.\");\n\n        _doIntercourtTransferBatch(_from, _to, _intercourtTokens, _values, _courtsPath);\n\n        uint256[] memory _ids1 = new uint256[](_intercourtTokens.length);\n        uint256[] memory _ids2 = new uint256[](_intercourtTokens.length);\n        for (uint i = 0; i < _intercourtTokens.length; ++i) {\n            _ids1[i] = _generateTokenId(_courtsPath[0], _intercourtTokens[i]);\n            _ids2[i] = _generateTokenId(_courtsPath[_courtsPath.length - 1], _intercourtTokens[i]);\n        }\n\n        emit TransferBatch(msg.sender, _from, 0x0, _ids1, _values);\n        emit TransferBatch(msg.sender, 0x0, _to, _ids2, _values);\n\n        // Now that the balances are updated and the events are emitted,\n        // call onERC1155BatchReceived if the destination is a contract.\n        if (_to.isContract()) {\n            _doSafeBatchTransferAcceptanceCheck(msg.sender, _from, _to, _ids2, _values, _data);\n        }\n    }\n\n/////////////////////////////////////////// Minting //////////////////////////////////////////////\n\n    /**\n        @notice Mints `_value` amount of an `_id` from the `_from` address to the `_to` address specified (with safety call).\n        @dev Caller must be approved to manage the tokens being transferred out of the `_from` account (see \"Approval\" section of the standard).\n        MUST revert if `_to` is the zero address.\n        MUST revert on any other error.\n        MUST emit the `TransferSingle` event to reflect the balance change.\n        After the above conditions are met, this function MUST check if `_to` is a smart contract (e.g. code size > 0). If so, it MUST call `onERC1155Received` on `_to` and act appropriately (see \"Safe Transfer Rules\" section of the standard).\n        @param _to      Target address\n        @param _id      ID of the token type\n        @param _value   Transfer amount\n        @param _data    Additional data with no specified format, MUST be sent unaltered in call to `onERC1155Received` on `_to`\n        @param _courtsPath Mint for trusters (`[]` to mint for ourservers)\n    */\n    function mint(address _to, uint256 _id, uint256 _value, bytes _data, uint128[] _courtsPath) external {\n\n        require(_to != address(0x0), \"_to must be non-zero.\");\n        uint128 _court = _getCourt(_id);\n        require(courtOwners[_court] == msg.sender, \"Not the court owner.\");\n\n        _doMint(_to, _id, _value, _courtsPath);\n\n        // MUST emit event\n        emit TransferSingle(msg.sender, 0x0, _to, _id, _value);\n\n        // Now that the balance is updated and the event was emitted,\n        // call onERC1155Received if the destination is a contract.\n        if (_to.isContract()) {\n            _doSafeTransferAcceptanceCheck(msg.sender, address(this), _to, _id, _value, _data);\n        }\n    }\n\n    /**\n        @notice Mints `_values` amount(s) of `_ids` from the `_from` address to the `_to` address specified (with safety call).\n        @dev Caller must be approved to manage the tokens being transferred out of the `_from` account (see \"Approval\" section of the standard).\n        MUST revert if `_to` is the zero address.\n        MUST revert if length of `_ids` is not the same as length of `_values`.\n        MUST revert on any other error.\n        MUST emit `TransferSingle` or `TransferBatch` event(s) such that all the balance changes are reflected.\n        Balance changes and events MUST follow the ordering of the arrays (_ids[0]/_values[0] before _ids[1]/_values[1], etc).\n        After the above conditions for the transfer(s) in the batch are met, this function MUST check if `_to` is a smart contract (e.g. code size > 0). If so, it MUST call the relevant `ERC1155TokenReceiver` hook(s) on `_to` and act appropriately (see \"Safe Transfer Rules\" section of the standard).\n        @param _to      Target address\n        @param _ids     IDs of each token type (order and length must match _values array)\n        @param _values  Transfer amounts per token type (order and length must match _ids array)\n        @param _data    Additional data with no specified format, MUST be sent unaltered in call to the `ERC1155TokenReceiver` hook(s) on `_to`\n        @param _courtsPath Mint for trusters (`[]` to mint for ourservers)\n    */\n    function batchMint(address _to, uint256[] _ids, uint256[] _values, bytes _data, uint128[] _courtsPath) external {\n\n        // MUST Throw on errors\n        require(_to != address(0x0), \"destination address must be non-zero.\");\n        require(_ids.length == _values.length, \"_ids and _values array length must match.\");\n        uint128 _court = _getCourt(_id);\n        require(courtOwners[_court] == msg.sender, \"Not the court owner.\");\n\n        for (uint256 i = 0; i < _ids.length; ++i) {\n            uint256 _id = _ids[i];\n            uint256 _value = _values[i];\n\n            _doMint(_to, _id, _value, _courtsPath);\n        }\n\n        // Note: instead of the below batch versions of event and acceptance check you MAY have emitted a TransferSingle\n        // event and a subsequent call to _doSafeTransferAcceptanceCheck in above loop for each balance change instead.\n        // Or emitted a TransferSingle event for each in the loop and then the single _doSafeBatchTransferAcceptanceCheck below.\n        // However it is implemented the balance changes and events MUST match when a check (i.e. calling an external contract) is done.\n\n        // MUST emit event\n        emit TransferBatch(msg.sender, 0x0, _to, _ids, _values);\n\n        // Now that the balances are updated and the events are emitted,\n        // call onERC1155BatchReceived if the destination is a contract.\n        if (_to.isContract()) {\n            _doSafeBatchTransferAcceptanceCheck(msg.sender, address(this), _to, _ids, _values, _data);\n        }\n    }\n\n/////////////////////////////////////////// Burning //////////////////////////////////////////////\n\n    /**\n        @notice Burns `_value` amount of an `_id` from the `_from` address specified (with safety call).\n        @dev Caller must be approved to manage the tokens being transferred out of the `_from` account (see \"Approval\" section of the standard).\n        MUST revert on any other error.\n        MUST emit the `TransferSingle` event to reflect the balance change.\n        @param _from    Source address\n        @param _id      ID of the token type\n        @param _value   Transfer amount\n        @param _data    Additional data with no specified format, MUST be sent unaltered in call to `onERC1155Received` on `_to`\n    */\n    function burnFrom(address _from, uint256 _id, uint256 _value, bytes _data) external {\n\n        require(_from == msg.sender || operatorApproval[_from][msg.sender] == true, \"Need operator approval for 3rd party transfers.\");\n\n        balances[_id][_from] = balances[_id][_from].sub(_value);\n\n        // MUST emit event\n        emit TransferSingle(msg.sender, _from, 0x0, _id, _value);\n    }\n\n    /**\n        @notice Burns `_values` amount(s) of `_ids` from the `_from` address specified (with safety call).\n        @dev Caller must be approved to manage the tokens being transferred out of the `_from` account (see \"Approval\" section of the standard).\n        MUST revert if length of `_ids` is not the same as length of `_values`.\n        MUST revert on any other error.\n        MUST emit `TransferSingle` or `TransferBatch` event(s) such that all the balance changes are reflected.\n        Balance changes and events MUST follow the ordering of the arrays (_ids[0]/_values[0] before _ids[1]/_values[1], etc).\n        @param _from    Source address\n        @param _ids     IDs of each token type (order and length must match _values array)\n        @param _values  Transfer amounts per token type (order and length must match _ids array)\n        @param _data    Additional data with no specified format, MUST be sent unaltered in call to the `ERC1155TokenReceiver` hook(s) on `_to`\n    */\n    function batchBurnFrom(address _from, uint256[] _ids, uint256[] _values, bytes _data) external {\n\n        // MUST Throw on errors\n        require(_ids.length == _values.length, \"_ids and _values array length must match.\");\n        require(_from == msg.sender || operatorApproval[_from][msg.sender] == true, \"Need operator approval for 3rd party transfers.\");\n\n        for (uint256 i = 0; i < _ids.length; ++i) {\n            uint256 _id = _ids[i];\n            uint256 _value = _values[i];\n\n            balances[_id][_from] = balances[_id][_from].sub(_value);\n        }\n\n        // Note: instead of the below batch versions of event and acceptance check you MAY have emitted a TransferSingle\n        // event and a subsequent call to _doSafeTransferAcceptanceCheck in above loop for each balance change instead.\n        // Or emitted a TransferSingle event for each in the loop and then the single _doSafeBatchTransferAcceptanceCheck below.\n        // However it is implemented the balance changes and events MUST match when a check (i.e. calling an external contract) is done.\n\n        // MUST emit event\n        emit TransferBatch(msg.sender, _from, 0x0, _ids, _values);\n    }\n\n/////////////////////////////////////////// Administrativia //////////////////////////////////////////////\n\n    /**\n        @notice Get `trustedCourts` for a court.\n        @param _truster Truster\n        @param _trustee Trustee\n    */\n    function isCourtTrusted(uint128 _truster, uint128 _trustee) external view returns (bool) {\n        return trustedCourts[_truster][_trustee];\n    }\n\n    /**\n        @notice Get `trustedCourtsList` for a court.\n        @param _truster Court\n    */\n    function getTrustedCourtsList(uint128 _truster) external view returns (uint128[]) {\n        return trustedCourtsList[_truster];\n    }\n\n    /**\n        @notice Set court owner.\n        @param _court   Court\n        @param _owner   New owner\n    */\n    function setOwner(uint128 _court, address _owner) external {\n        require(courtOwners[_court] == msg.sender, \"We are not the owner\");\n\n        courtOwners[_court] = _owner;\n        emit SetOwner(_court, _owner);\n    }\n\n    /**\n        @notice Create a court.\n        @return           Court ID\n    */\n    function createCourt() external returns (uint128 _id) {\n        _id = ++courtNonce;\n        courtOwners[_id] = msg.sender;\n        emit CourtCreated(msg.sender, _id);\n    }\n\n    /**\n        @notice Create an intercourt token.\n        @return           Intercourt token\n    */\n    function createIntercourtToken(/*string _uri*/) external returns (uint128) {\n        uint128 _id = ++icTokenNonce;\n        // _id is Intercourt token, not a token\n        // if (bytes(_uri).length > 0)\n        //     emit URI(_uri, _id);\n        emit IntercourtTokenCreated(_id);\n        return _id;\n    }\n\n    // function setURI(string _uri, uint256 _id) external {\n    //     // It's impossible to determine _intercourtToken (unless we store it for every token generated\n    //     // what would be to resource-intensive)\n    //     require(courtOwners[_intercourtToken] == msg.sender); // Also, it is not a court.\n    //     emit URI(_uri, _id);\n    // }\n\n    /**\n        @notice Trust these courts.\n        @param _truster The truster court\n        @param _trustees The trustee courts to add\n    */\n    function trustCourts(uint128 _truster, uint128[] _trustees) external {\n        require(courtOwners[_truster] == msg.sender, \"We are not court owner\");\n\n        uint _pos = trustedCourtsList[_truster].length; // position to insert\n        uint _newLength = _pos;\n        for (uint i = 0; i < _trustees.length; ++i) {\n            require(_trustees[i] > 0 && _trustees[i] <= courtNonce, \"Court does not exist.\");\n            if (!trustedCourts[_truster][_trustees[i]])\n                _newLength += 1;\n        }\n\n        trustedCourtsList[_truster].length = _newLength;\n\n        for (uint j = 0; j < _trustees.length; ++j) {\n            if (!trustedCourts[_truster][_trustees[j]]) {\n                trustedCourtsList[_truster][_pos++] = _trustees[j];\n                trustedCourts[_truster][_trustees[j]] = true;\n            }\n        }\n        emit TrustCourts(_truster, _trustees);\n    }\n\n    /**\n        @notice Do not trust these courts anymore.\n        @param _truster The truster court\n        @param _trustees The trustee courts to remove\n    */\n    function untrustCourts(uint128 _truster, uint128[] _trustees) external {\n        require(courtOwners[_truster] == msg.sender, \"We are not court owner\");\n\n        uint max = trustedCourtsList[_truster].length;\n        for (uint i = 0; i < _trustees.length; ++i) {\n            require(_trustees[i] > 0 && _trustees[i] <= courtNonce, \"Court does not exist.\");\n            if (trustedCourts[_truster][_trustees[i]]) {\n                trustedCourts[_truster][_trustees[i]] = false;\n                if (max > 1) {\n                    trustedCourtsList[_truster][i] = trustedCourtsList[_truster][--max];\n                } else {\n                    max = 0;\n                    break;\n                }\n            }\n        }\n        trustedCourtsList[_truster].length = max;\n        emit UntrustCourts(_truster, _trustees);\n    }\n\n/////////////////////////////////////////// Internal //////////////////////////////////////////////\n\n    function _doSafeTransferFrom(address _from, address _to, uint256 _id, uint256 _value) private {\n\n        // SafeMath will throw with insufficient funds _from\n        // or if _id is not valid (balance will be 0)\n        balances[_id][_from] = balances[_id][_from].sub(_value);\n        balances[_id][_to]   = _value.add(balances[_id][_to]);\n    }\n\n    function _doMint(address _to, uint256 _id, uint256 _value, uint128[] _courtsPath) private {\n\n        uint128 _court = _getCourt(_id);\n\n        //require(courtOwners[_court] == msg.sender, \"Not a court owner.\");\n\n        uint128 _intercourtToken = _getIntercourtToken(_id);\n\n        for (uint i = 0; i < _courtsPath.length; ++i) {\n            uint128 _nextCourt = _courtsPath[i];\n            require(trustedCourts[_nextCourt][_court], \"A court in the path is not in a trusted list.\");\n            _court = _nextCourt;\n        }\n\n        require(_court != 0 && _intercourtToken != 0, \"Invalid token.\");\n\n        uint256 _id2 = _generateTokenId(_court, _intercourtToken);\n        balances[_id2][_to] = _value.add(balances[_id2][_to]); // SafeMath will throw if overflow\n    }\n\n    function _doSafeTransferAcceptanceCheck(address _operator, address _from, address _to, uint256 _id, uint256 _value, bytes memory _data) internal {\n\n        // If this was a hybrid standards solution you would have to check ERC165(_to).supportsInterface(0x4e2312e0) here but as this is a pure implementation of an ERC-1155 token set as recommended by\n        // the standard, it is not necessary. The below should revert in all failure cases i.e. _to isn't a receiver, or it is and either returns an unknown value or it reverts in the call to indicate non-acceptance.\n\n\n        // Note: if the below reverts in the onERC1155Received function of the _to address you will have an undefined revert reason returned rather than the one in the require test.\n        // If you want predictable revert reasons consider using low level _to.call() style instead so the revert does not bubble up and you can revert yourself on the ERC1155_ACCEPTED test.\n        require(ERC1155TokenReceiver(_to).onERC1155Received(_operator, _from, _id, _value, _data) == ERC1155_ACCEPTED, \"contract returned an unknown value from onERC1155Received\");\n    }\n\n    function _doSafeBatchTransferAcceptanceCheck(address _operator, address _from, address _to, uint256[] memory _ids, uint256[] memory _values, bytes memory _data) internal {\n\n        // If this was a hybrid standards solution you would have to check ERC165(_to).supportsInterface(0x4e2312e0) here but as this is a pure implementation of an ERC-1155 token set as recommended by\n        // the standard, it is not necessary. The below should revert in all failure cases i.e. _to isn't a receiver, or it is and either returns an unknown value or it reverts in the call to indicate non-acceptance.\n\n        // Note: if the below reverts in the onERC1155BatchReceived function of the _to address you will have an undefined revert reason returned rather than the one in the require test.\n        // If you want predictable revert reasons consider using low level _to.call() style instead so the revert does not bubble up and you can revert yourself on the ERC1155_BATCH_ACCEPTED test.\n        require(ERC1155TokenReceiver(_to).onERC1155BatchReceived(_operator, _from, _ids, _values, _data) == ERC1155_BATCH_ACCEPTED, \"contract returned an unknown value from onERC1155BatchReceived\");\n    }\n\n    function _generateTokenId(uint128 _court, uint128 _intercourtToken) public returns (uint256 _token) {\n        require (_court != 0 && _intercourtToken != 0, \"Wrong values.\");\n\n        _token = _uncheckedGenerateTokenId(_court, _intercourtToken);\n    }\n\n    function _uncheckedGenerateTokenId(uint128 _court, uint128 _intercourtToken) public returns (uint256 _token) {\n        return (uint256(_court) << 128) | uint256(_intercourtToken);\n    }\n\n    function _getCourt(uint256 _id) public returns (uint128) {\n        return uint128(_id >> 128);\n    }\n\n    function _getIntercourtToken(uint256 _id) public returns (uint128) {\n        return uint128(_id & ((1 << 128) - 1));\n    }\n\n    function _doIntercourtTransferBatch(address _from, address _to, uint128[] memory _ids, uint256[] memory _values, uint128[] _courtsPath) internal {\n        require(_to != address(0x0), \"_to must be non-zero.\");\n        assert(_ids.length == _values.length);\n        require(_courtsPath.length != 0, \"length must be nonzero\");\n        require(_from == msg.sender || operatorApproval[_from][msg.sender] == true, \"Need operator approval for 3rd party transfers.\");\n        //require(checkNoDuplicates(_courtsPath), \"Duplicate courts.\");\n\n        for (uint i = 0; i < _courtsPath.length - 1; ++i) {\n            require(trustedCourts[_courtsPath[i+1]][_courtsPath[i]], \"A court in the path is not in a trusted list.\");\n        }\n\n        for (uint k = 0; k < _ids.length; ++k) {\n            uint128 _intercourtToken = _ids[k];\n            uint256 _fromToken = _generateTokenId(_courtsPath[0], _intercourtToken);\n            uint256 _toToken = _generateTokenId(_courtsPath[_courtsPath.length-1], _intercourtToken);\n            // SafeMath will throw with insufficient funds _from\n            // or if _intercourtToken is not valid (balance will be 0)\n            balances[_fromToken][_from] = balances[_fromToken][_from].sub(_values[k]);\n            balances[_toToken][_to] = _values[k].add(balances[_toToken][_to]);\n        }\n    }\n\n    // function checkNoDuplicates(uint256[] memory _array) private pure returns (bool) {\n    //     for (uint256 i = 1; i < _array.length; ++i) {\n    //         for (uint256 j = 0; j < i; ++j)\n    //             if (_array[i] == _array[j]) return false;\n    //     }\n    //     return true;\n    // }\n}\n",
  "sourcePath": "/home/porton/Projects/courts/contracts/RewardCourts.sol",
  "compiler": {
    "name": "solc",
    "version": "0.4.24+commit.e67f0147.Emscripten.clang"
  },
  "schemaVersion": "3.0.23",
  "updatedAt": "2020-03-13T16:59:21.360Z",
  "devdoc": {
    "methods": {
      "balanceOf(address,uint256)": {
        "params": {
          "_id": "ID of the Token",
          "_owner": "The address of the token holder"
        },
        "return": "The _owner's balance of the Token type requested"
      },
      "balanceOfBatch(address[],uint256[])": {
        "params": {
          "_ids": "ID of the Tokens",
          "_owners": "The addresses of the token holders"
        },
        "return": "The _owner's balance of the Token types requested (i.e. balance for each (owner, id) pair)"
      },
      "batchBurnFrom(address,uint256[],uint256[],bytes)": {
        "details": "Caller must be approved to manage the tokens being transferred out of the `_from` account (see \"Approval\" section of the standard). MUST revert if length of `_ids` is not the same as length of `_values`. MUST revert on any other error. MUST emit `TransferSingle` or `TransferBatch` event(s) such that all the balance changes are reflected. Balance changes and events MUST follow the ordering of the arrays (_ids[0]/_values[0] before _ids[1]/_values[1], etc).",
        "params": {
          "_data": "Additional data with no specified format, MUST be sent unaltered in call to the `ERC1155TokenReceiver` hook(s) on `_to`",
          "_from": "Source address",
          "_ids": "IDs of each token type (order and length must match _values array)",
          "_values": "Transfer amounts per token type (order and length must match _ids array)"
        }
      },
      "batchMint(address,uint256[],uint256[],bytes,uint128[])": {
        "details": "Caller must be approved to manage the tokens being transferred out of the `_from` account (see \"Approval\" section of the standard). MUST revert if `_to` is the zero address. MUST revert if length of `_ids` is not the same as length of `_values`. MUST revert on any other error. MUST emit `TransferSingle` or `TransferBatch` event(s) such that all the balance changes are reflected. Balance changes and events MUST follow the ordering of the arrays (_ids[0]/_values[0] before _ids[1]/_values[1], etc). After the above conditions for the transfer(s) in the batch are met, this function MUST check if `_to` is a smart contract (e.g. code size > 0). If so, it MUST call the relevant `ERC1155TokenReceiver` hook(s) on `_to` and act appropriately (see \"Safe Transfer Rules\" section of the standard).",
        "params": {
          "_courtsPath": "Mint for trusters (`[]` to mint for ourservers)",
          "_data": "Additional data with no specified format, MUST be sent unaltered in call to the `ERC1155TokenReceiver` hook(s) on `_to`",
          "_ids": "IDs of each token type (order and length must match _values array)",
          "_to": "Target address",
          "_values": "Transfer amounts per token type (order and length must match _ids array)"
        }
      },
      "burnFrom(address,uint256,uint256,bytes)": {
        "details": "Caller must be approved to manage the tokens being transferred out of the `_from` account (see \"Approval\" section of the standard). MUST revert on any other error. MUST emit the `TransferSingle` event to reflect the balance change.",
        "params": {
          "_data": "Additional data with no specified format, MUST be sent unaltered in call to `onERC1155Received` on `_to`",
          "_from": "Source address",
          "_id": "ID of the token type",
          "_value": "Transfer amount"
        }
      },
      "createCourt()": {
        "return": "Court ID"
      },
      "createIntercourtToken()": {
        "return": "Intercourt token"
      },
      "getTrustedCourtsList(uint128)": {
        "params": {
          "_truster": "Court"
        }
      },
      "intercourtTransfer(address,address,uint128,uint256,uint128[],bytes)": {
        "params": {
          "_courtsPath": "Through which courts to transfer",
          "_data": "Additional data with no specified format, MUST be sent unaltered in call to `onERC1155Received` on `_to`",
          "_from": "Source address",
          "_intercourtToken": "Intercourt token",
          "_to": "Target address",
          "_value": "Transfer amount"
        }
      },
      "intercourtTransferBatch(address,address,uint128[],uint256[],uint128[],bytes)": {
        "params": {
          "_courtsPath": "Through which courts to transfer",
          "_data": "Additional data with no specified format, MUST be sent unaltered in call to `onERC1155Received` on `_to`",
          "_from": "Source address",
          "_intercourtTokens": "Intercourt tokens (order and length must match _values array)",
          "_to": "Target address",
          "_values": "Transfer amounts per token type (order and length must match _intercourtTokens array)"
        }
      },
      "isApprovedForAll(address,address)": {
        "params": {
          "_operator": "Address of authorized operator",
          "_owner": "The owner of the Tokens"
        },
        "return": "True if the operator is approved, false if not"
      },
      "isCourtTrusted(uint128,uint128)": {
        "params": {
          "_trustee": "Trustee",
          "_truster": "Truster"
        }
      },
      "mint(address,uint256,uint256,bytes,uint128[])": {
        "details": "Caller must be approved to manage the tokens being transferred out of the `_from` account (see \"Approval\" section of the standard). MUST revert if `_to` is the zero address. MUST revert on any other error. MUST emit the `TransferSingle` event to reflect the balance change. After the above conditions are met, this function MUST check if `_to` is a smart contract (e.g. code size > 0). If so, it MUST call `onERC1155Received` on `_to` and act appropriately (see \"Safe Transfer Rules\" section of the standard).",
        "params": {
          "_courtsPath": "Mint for trusters (`[]` to mint for ourservers)",
          "_data": "Additional data with no specified format, MUST be sent unaltered in call to `onERC1155Received` on `_to`",
          "_id": "ID of the token type",
          "_to": "Target address",
          "_value": "Transfer amount"
        }
      },
      "safeBatchTransferFrom(address,address,uint256[],uint256[],bytes)": {
        "details": "Caller must be approved to manage the tokens being transferred out of the `_from` account (see \"Approval\" section of the standard). MUST revert if `_to` is the zero address. MUST revert if length of `_ids` is not the same as length of `_values`. MUST revert if any of the balance(s) of the holder(s) for token(s) in `_ids` is lower than the respective amount(s) in `_values` sent to the recipient. MUST revert on any other error. MUST emit `TransferSingle` or `TransferBatch` event(s) such that all the balance changes are reflected (see \"Safe Transfer Rules\" section of the standard). Balance changes and events MUST follow the ordering of the arrays (_ids[0]/_values[0] before _ids[1]/_values[1], etc). After the above conditions for the transfer(s) in the batch are met, this function MUST check if `_to` is a smart contract (e.g. code size > 0). If so, it MUST call the relevant `ERC1155TokenReceiver` hook(s) on `_to` and act appropriately (see \"Safe Transfer Rules\" section of the standard).",
        "params": {
          "_data": "Additional data with no specified format, MUST be sent unaltered in call to the `ERC1155TokenReceiver` hook(s) on `_to`",
          "_from": "Source address",
          "_ids": "IDs of each token type (order and length must match _values array)",
          "_to": "Target address",
          "_values": "Transfer amounts per token type (order and length must match _ids array)"
        }
      },
      "safeTransferFrom(address,address,uint256,uint256,bytes)": {
        "details": "Caller must be approved to manage the tokens being transferred out of the `_from` account (see \"Approval\" section of the standard). MUST revert if `_to` is the zero address. MUST revert if balance of holder for token `_id` is lower than the `_value` sent. MUST revert on any other error. MUST emit the `TransferSingle` event to reflect the balance change (see \"Safe Transfer Rules\" section of the standard). After the above conditions are met, this function MUST check if `_to` is a smart contract (e.g. code size > 0). If so, it MUST call `onERC1155Received` on `_to` and act appropriately (see \"Safe Transfer Rules\" section of the standard).",
        "params": {
          "_data": "Additional data with no specified format, MUST be sent unaltered in call to `onERC1155Received` on `_to`",
          "_from": "Source address",
          "_id": "ID of the token type",
          "_to": "Target address",
          "_value": "Transfer amount"
        }
      },
      "setApprovalForAll(address,bool)": {
        "details": "MUST emit the ApprovalForAll event on success.",
        "params": {
          "_approved": "True if the operator is approved, false to revoke approval",
          "_operator": "Address to add to the set of authorized operators"
        }
      },
      "setOwner(uint128,address)": {
        "params": {
          "_court": "Court",
          "_owner": "New owner"
        }
      },
      "trustCourts(uint128,uint128[])": {
        "params": {
          "_trustees": "The trustee courts to add",
          "_truster": "The truster court"
        }
      },
      "untrustCourts(uint128,uint128[])": {
        "params": {
          "_trustees": "The trustee courts to remove",
          "_truster": "The truster court"
        }
      }
    }
  },
  "userdoc": {
    "methods": {
      "balanceOf(address,uint256)": {
        "notice": "Get the balance of an account's Tokens."
      },
      "balanceOfBatch(address[],uint256[])": {
        "notice": "Get the balance of multiple account/token pairs"
      },
      "batchBurnFrom(address,uint256[],uint256[],bytes)": {
        "notice": "Burns `_values` amount(s) of `_ids` from the `_from` address specified (with safety call)."
      },
      "batchMint(address,uint256[],uint256[],bytes,uint128[])": {
        "notice": "Mints `_values` amount(s) of `_ids` from the `_from` address to the `_to` address specified (with safety call)."
      },
      "burnFrom(address,uint256,uint256,bytes)": {
        "notice": "Burns `_value` amount of an `_id` from the `_from` address specified (with safety call)."
      },
      "createCourt()": {
        "notice": "Create a court."
      },
      "createIntercourtToken()": {
        "notice": "Create an intercourt token."
      },
      "getTrustedCourtsList(uint128)": {
        "notice": "Get `trustedCourtsList` for a court."
      },
      "intercourtTransfer(address,address,uint128,uint256,uint128[],bytes)": {
        "notice": "Transfer money through several courts with automatic currency conversion between court tokens."
      },
      "intercourtTransferBatch(address,address,uint128[],uint256[],uint128[],bytes)": {
        "notice": "Transfer money through several courts with automatic currency conversion between court tokens."
      },
      "isApprovedForAll(address,address)": {
        "notice": "Queries the approval status of an operator for a given owner."
      },
      "isCourtTrusted(uint128,uint128)": {
        "notice": "Get `trustedCourts` for a court."
      },
      "mint(address,uint256,uint256,bytes,uint128[])": {
        "notice": "Mints `_value` amount of an `_id` from the `_from` address to the `_to` address specified (with safety call)."
      },
      "safeBatchTransferFrom(address,address,uint256[],uint256[],bytes)": {
        "notice": "Transfers `_values` amount(s) of `_ids` from the `_from` address to the `_to` address specified (with safety call)."
      },
      "safeTransferFrom(address,address,uint256,uint256,bytes)": {
        "notice": "Transfers `_value` amount of an `_id` from the `_from` address to the `_to` address specified (with safety call)."
      },
      "setApprovalForAll(address,bool)": {
        "notice": "Enable or disable approval for a third party (\"operator\") to manage all of the caller's tokens."
      },
      "setOwner(uint128,address)": {
        "notice": "Set court owner."
      },
      "trustCourts(uint128,uint128[])": {
        "notice": "Trust these courts."
      },
      "untrustCourts(uint128,uint128[])": {
        "notice": "Do not trust these courts anymore."
      }
    }
  }
}