{
  "contractName": "RewardCourts",
  "abi": [
    {
      "constant": true,
      "inputs": [
        {
          "name": "",
          "type": "uint256"
        },
        {
          "name": "",
          "type": "uint256"
        }
      ],
      "name": "trustedCourtsList",
      "outputs": [
        {
          "name": "",
          "type": "uint256"
        }
      ],
      "payable": false,
      "stateMutability": "view",
      "type": "function"
    },
    {
      "constant": true,
      "inputs": [
        {
          "name": "",
          "type": "uint256"
        }
      ],
      "name": "courtOwners",
      "outputs": [
        {
          "name": "",
          "type": "address"
        }
      ],
      "payable": false,
      "stateMutability": "view",
      "type": "function"
    },
    {
      "constant": true,
      "inputs": [
        {
          "name": "",
          "type": "uint256"
        },
        {
          "name": "",
          "type": "uint256"
        }
      ],
      "name": "trustedCourts",
      "outputs": [
        {
          "name": "",
          "type": "bool"
        }
      ],
      "payable": false,
      "stateMutability": "view",
      "type": "function"
    },
    {
      "anonymous": false,
      "inputs": [
        {
          "indexed": true,
          "name": "owner",
          "type": "address"
        },
        {
          "indexed": true,
          "name": "createdCourt",
          "type": "uint256"
        }
      ],
      "name": "CourtCreated",
      "type": "event"
    },
    {
      "anonymous": false,
      "inputs": [
        {
          "indexed": true,
          "name": "ictoken",
          "type": "uint256"
        }
      ],
      "name": "IntercourtTokenCreated",
      "type": "event"
    },
    {
      "anonymous": false,
      "inputs": [
        {
          "indexed": true,
          "name": "court",
          "type": "uint256"
        },
        {
          "indexed": true,
          "name": "owner",
          "type": "address"
        }
      ],
      "name": "SetOwner",
      "type": "event"
    },
    {
      "anonymous": false,
      "inputs": [
        {
          "indexed": true,
          "name": "truster",
          "type": "uint256"
        },
        {
          "indexed": false,
          "name": "trustees",
          "type": "uint256[]"
        }
      ],
      "name": "TrustCourts",
      "type": "event"
    },
    {
      "anonymous": false,
      "inputs": [
        {
          "indexed": true,
          "name": "truster",
          "type": "uint256"
        },
        {
          "indexed": false,
          "name": "trustees",
          "type": "uint256[]"
        }
      ],
      "name": "UntrustCourts",
      "type": "event"
    },
    {
      "anonymous": false,
      "inputs": [
        {
          "indexed": true,
          "name": "_operator",
          "type": "address"
        },
        {
          "indexed": true,
          "name": "_from",
          "type": "address"
        },
        {
          "indexed": true,
          "name": "_to",
          "type": "address"
        },
        {
          "indexed": false,
          "name": "_id",
          "type": "uint256"
        },
        {
          "indexed": false,
          "name": "_value",
          "type": "uint256"
        }
      ],
      "name": "TransferSingle",
      "type": "event"
    },
    {
      "anonymous": false,
      "inputs": [
        {
          "indexed": true,
          "name": "_operator",
          "type": "address"
        },
        {
          "indexed": true,
          "name": "_from",
          "type": "address"
        },
        {
          "indexed": true,
          "name": "_to",
          "type": "address"
        },
        {
          "indexed": false,
          "name": "_ids",
          "type": "uint256[]"
        },
        {
          "indexed": false,
          "name": "_values",
          "type": "uint256[]"
        }
      ],
      "name": "TransferBatch",
      "type": "event"
    },
    {
      "anonymous": false,
      "inputs": [
        {
          "indexed": true,
          "name": "_owner",
          "type": "address"
        },
        {
          "indexed": true,
          "name": "_operator",
          "type": "address"
        },
        {
          "indexed": false,
          "name": "_approved",
          "type": "bool"
        }
      ],
      "name": "ApprovalForAll",
      "type": "event"
    },
    {
      "anonymous": false,
      "inputs": [
        {
          "indexed": false,
          "name": "_value",
          "type": "string"
        },
        {
          "indexed": true,
          "name": "_id",
          "type": "uint256"
        }
      ],
      "name": "URI",
      "type": "event"
    },
    {
      "constant": true,
      "inputs": [
        {
          "name": "_interfaceId",
          "type": "bytes4"
        }
      ],
      "name": "supportsInterface",
      "outputs": [
        {
          "name": "",
          "type": "bool"
        }
      ],
      "payable": false,
      "stateMutability": "view",
      "type": "function"
    },
    {
      "constant": false,
      "inputs": [
        {
          "name": "_from",
          "type": "address"
        },
        {
          "name": "_to",
          "type": "address"
        },
        {
          "name": "_id",
          "type": "uint256"
        },
        {
          "name": "_value",
          "type": "uint256"
        },
        {
          "name": "_data",
          "type": "bytes"
        }
      ],
      "name": "safeTransferFrom",
      "outputs": [],
      "payable": false,
      "stateMutability": "nonpayable",
      "type": "function"
    },
    {
      "constant": false,
      "inputs": [
        {
          "name": "_from",
          "type": "address"
        },
        {
          "name": "_to",
          "type": "address"
        },
        {
          "name": "_ids",
          "type": "uint256[]"
        },
        {
          "name": "_values",
          "type": "uint256[]"
        },
        {
          "name": "_data",
          "type": "bytes"
        }
      ],
      "name": "safeBatchTransferFrom",
      "outputs": [],
      "payable": false,
      "stateMutability": "nonpayable",
      "type": "function"
    },
    {
      "constant": true,
      "inputs": [
        {
          "name": "_owner",
          "type": "address"
        },
        {
          "name": "_id",
          "type": "uint256"
        }
      ],
      "name": "balanceOf",
      "outputs": [
        {
          "name": "",
          "type": "uint256"
        }
      ],
      "payable": false,
      "stateMutability": "view",
      "type": "function"
    },
    {
      "constant": true,
      "inputs": [
        {
          "name": "_owners",
          "type": "address[]"
        },
        {
          "name": "_ids",
          "type": "uint256[]"
        }
      ],
      "name": "balanceOfBatch",
      "outputs": [
        {
          "name": "",
          "type": "uint256[]"
        }
      ],
      "payable": false,
      "stateMutability": "view",
      "type": "function"
    },
    {
      "constant": false,
      "inputs": [
        {
          "name": "_operator",
          "type": "address"
        },
        {
          "name": "_approved",
          "type": "bool"
        }
      ],
      "name": "setApprovalForAll",
      "outputs": [],
      "payable": false,
      "stateMutability": "nonpayable",
      "type": "function"
    },
    {
      "constant": true,
      "inputs": [
        {
          "name": "_owner",
          "type": "address"
        },
        {
          "name": "_operator",
          "type": "address"
        }
      ],
      "name": "isApprovedForAll",
      "outputs": [
        {
          "name": "",
          "type": "bool"
        }
      ],
      "payable": false,
      "stateMutability": "view",
      "type": "function"
    },
    {
      "constant": false,
      "inputs": [
        {
          "name": "_from",
          "type": "address"
        },
        {
          "name": "_to",
          "type": "address"
        },
        {
          "name": "_intercourtToken",
          "type": "uint256"
        },
        {
          "name": "_value",
          "type": "uint256"
        },
        {
          "name": "_courtsPath",
          "type": "uint256[]"
        },
        {
          "name": "_data",
          "type": "bytes"
        }
      ],
      "name": "intercourtTransfer",
      "outputs": [],
      "payable": false,
      "stateMutability": "nonpayable",
      "type": "function"
    },
    {
      "constant": false,
      "inputs": [
        {
          "name": "_from",
          "type": "address"
        },
        {
          "name": "_to",
          "type": "address"
        },
        {
          "name": "_intercourtTokens",
          "type": "uint256[]"
        },
        {
          "name": "_values",
          "type": "uint256[]"
        },
        {
          "name": "_courtsPath",
          "type": "uint256[]"
        },
        {
          "name": "_data",
          "type": "bytes"
        }
      ],
      "name": "intercourtTransferBatch",
      "outputs": [],
      "payable": false,
      "stateMutability": "nonpayable",
      "type": "function"
    },
    {
      "constant": false,
      "inputs": [
        {
          "name": "_from",
          "type": "address"
        },
        {
          "name": "_to",
          "type": "address"
        },
        {
          "name": "_id",
          "type": "uint256"
        },
        {
          "name": "_value",
          "type": "uint256"
        },
        {
          "name": "_data",
          "type": "bytes"
        }
      ],
      "name": "mintFrom",
      "outputs": [],
      "payable": false,
      "stateMutability": "nonpayable",
      "type": "function"
    },
    {
      "constant": false,
      "inputs": [
        {
          "name": "_from",
          "type": "address"
        },
        {
          "name": "_to",
          "type": "address"
        },
        {
          "name": "_ids",
          "type": "uint256[]"
        },
        {
          "name": "_values",
          "type": "uint256[]"
        },
        {
          "name": "_data",
          "type": "bytes"
        }
      ],
      "name": "batchMintFrom",
      "outputs": [],
      "payable": false,
      "stateMutability": "nonpayable",
      "type": "function"
    },
    {
      "constant": false,
      "inputs": [
        {
          "name": "_from",
          "type": "address"
        },
        {
          "name": "_id",
          "type": "uint256"
        },
        {
          "name": "_value",
          "type": "uint256"
        },
        {
          "name": "_data",
          "type": "bytes"
        }
      ],
      "name": "burnFrom",
      "outputs": [],
      "payable": false,
      "stateMutability": "nonpayable",
      "type": "function"
    },
    {
      "constant": false,
      "inputs": [
        {
          "name": "_from",
          "type": "address"
        },
        {
          "name": "_ids",
          "type": "uint256[]"
        },
        {
          "name": "_values",
          "type": "uint256[]"
        },
        {
          "name": "_data",
          "type": "bytes"
        }
      ],
      "name": "batchBurnFrom",
      "outputs": [],
      "payable": false,
      "stateMutability": "nonpayable",
      "type": "function"
    },
    {
      "constant": true,
      "inputs": [
        {
          "name": "_truster",
          "type": "uint256"
        }
      ],
      "name": "getTrustedCourtsList",
      "outputs": [
        {
          "name": "",
          "type": "uint256[]"
        }
      ],
      "payable": false,
      "stateMutability": "view",
      "type": "function"
    },
    {
      "constant": false,
      "inputs": [
        {
          "name": "_court",
          "type": "uint256"
        },
        {
          "name": "_owner",
          "type": "address"
        }
      ],
      "name": "setOwner",
      "outputs": [],
      "payable": false,
      "stateMutability": "nonpayable",
      "type": "function"
    },
    {
      "constant": false,
      "inputs": [],
      "name": "createCourt",
      "outputs": [
        {
          "name": "_id",
          "type": "uint256"
        }
      ],
      "payable": false,
      "stateMutability": "nonpayable",
      "type": "function"
    },
    {
      "constant": false,
      "inputs": [],
      "name": "createIntercourtToken",
      "outputs": [
        {
          "name": "",
          "type": "uint256"
        }
      ],
      "payable": false,
      "stateMutability": "nonpayable",
      "type": "function"
    },
    {
      "constant": false,
      "inputs": [
        {
          "name": "_truster",
          "type": "uint256"
        },
        {
          "name": "_trustees",
          "type": "uint256[]"
        }
      ],
      "name": "trustCourts",
      "outputs": [],
      "payable": false,
      "stateMutability": "nonpayable",
      "type": "function"
    },
    {
      "constant": false,
      "inputs": [
        {
          "name": "_truster",
          "type": "uint256"
        },
        {
          "name": "_trustees",
          "type": "uint256[]"
        }
      ],
      "name": "untrustCourts",
      "outputs": [],
      "payable": false,
      "stateMutability": "nonpayable",
      "type": "function"
    },
    {
      "constant": false,
      "inputs": [
        {
          "name": "_court",
          "type": "uint256"
        },
        {
          "name": "_intercourtToken",
          "type": "uint256"
        }
      ],
      "name": "_generateTokenId",
      "outputs": [
        {
          "name": "_token",
          "type": "uint256"
        }
      ],
      "payable": false,
      "stateMutability": "nonpayable",
      "type": "function"
    },
    {
      "constant": false,
      "inputs": [
        {
          "name": "_court",
          "type": "uint256"
        },
        {
          "name": "_intercourtToken",
          "type": "uint256"
        }
      ],
      "name": "_uncheckedGenerateTokenId",
      "outputs": [
        {
          "name": "_token",
          "type": "uint256"
        }
      ],
      "payable": false,
      "stateMutability": "nonpayable",
      "type": "function"
    },
    {
      "constant": false,
      "inputs": [
        {
          "name": "_id",
          "type": "uint256"
        }
      ],
      "name": "_getCourt",
      "outputs": [
        {
          "name": "",
          "type": "uint256"
        }
      ],
      "payable": false,
      "stateMutability": "nonpayable",
      "type": "function"
    },
    {
      "constant": false,
      "inputs": [
        {
          "name": "_id",
          "type": "uint256"
        }
      ],
      "name": "_getIntercourtToken",
      "outputs": [
        {
          "name": "",
          "type": "uint256"
        }
      ],
      "payable": false,
      "stateMutability": "nonpayable",
      "type": "function"
    }
  ],
  "bytecode": "0x608060405234801561001057600080fd5b506147c3806100206000396000f300608060405260043610610153576000357c0100000000000000000000000000000000000000000000000000000000900463ffffffff168062fdd58e1461015857806301ffc9a7146101b9578063149b192d1461021d5780632276a84d1461025e57806327c7e5c8146102a35780632eb2c2d6146102ee5780632f752b9f146103995780633cecf7da146103e45780633ea7cd961461047357806347dbe4e8146104b45780634b9c669b146105775780634e1273f4146105f95780636bd7fa5d146106a157806371f296881461070e5780637fd39247146107395780638d37a44914610786578063920380eb146107d5578063937249051461087c5780639eb0e880146108a7578063a22cb46514610952578063b4ba8a1e146109a1578063cb0985eb14610a10578063e79390c514610a55578063e985e9c514610aa0578063f0f1beba14610b1b578063f242432a14610ba6575b600080fd5b34801561016457600080fd5b506101a3600480360381019080803573ffffffffffffffffffffffffffffffffffffffff16906020019092919080359060200190929190505050610c35565b6040518082815260200191505060405180910390f35b3480156101c557600080fd5b5061020360048036038101908080357bffffffffffffffffffffffffffffffffffffffffffffffffffffffff19169060200190929190505050610c90565b604051808215151515815260200191505060405180910390f35b34801561022957600080fd5b5061024860048036038101908080359060200190929190505050610de4565b6040518082815260200191505060405180910390f35b34801561026a57600080fd5b506102a160048036038101908080359060200190929190803590602001908201803590602001919091929391929390505050610df6565b005b3480156102af57600080fd5b506102d86004803603810190808035906020019092919080359060200190929190505050611125565b6040518082815260200191505060405180910390f35b3480156102fa57600080fd5b50610397600480360381019080803573ffffffffffffffffffffffffffffffffffffffff169060200190929190803573ffffffffffffffffffffffffffffffffffffffff169060200190929190803590602001908201803590602001919091929391929390803590602001908201803590602001919091929391929390803590602001908201803590602001919091929391929390505050611155565b005b3480156103a557600080fd5b506103ce600480360381019080803590602001909291908035906020019092919050505061160b565b6040518082815260200191505060405180910390f35b3480156103f057600080fd5b50610471600480360381019080803573ffffffffffffffffffffffffffffffffffffffff169060200190929190803573ffffffffffffffffffffffffffffffffffffffff169060200190929190803590602001909291908035906020019092919080359060200190820180359060200191909192939192939050505061161f565b005b34801561047f57600080fd5b5061049e6004803603810190808035906020019092919050505061190d565b6040518082815260200191505060405180910390f35b3480156104c057600080fd5b50610575600480360381019080803573ffffffffffffffffffffffffffffffffffffffff169060200190929190803573ffffffffffffffffffffffffffffffffffffffff169060200190929190803590602001908201803590602001919091929391929390803590602001908201803590602001919091929391929390803590602001908201803590602001919091929391929390803590602001908201803590602001919091929391929390505050611929565b005b34801561058357600080fd5b506105a260048036038101908080359060200190929190505050611d00565b6040518080602001828103825283818151815260200191508051906020019060200280838360005b838110156105e55780820151818401526020810190506105ca565b505050509050019250505060405180910390f35b34801561060557600080fd5b5061064a600480360381019080803590602001908201803590602001919091929391929390803590602001908201803590602001919091929391929390505050611d6b565b6040518080602001828103825283818151815260200191508051906020019060200280838360005b8381101561068d578082015181840152602081019050610672565b505050509050019250505060405180910390f35b3480156106ad57600080fd5b506106cc60048036038101908080359060200190929190505050611e8c565b604051808273ffffffffffffffffffffffffffffffffffffffff1673ffffffffffffffffffffffffffffffffffffffff16815260200191505060405180910390f35b34801561071a57600080fd5b50610723611ebf565b6040518082815260200191505060405180910390f35b34801561074557600080fd5b5061078460048036038101908080359060200190929190803573ffffffffffffffffffffffffffffffffffffffff169060200190929190505050611f6a565b005b34801561079257600080fd5b506107bb6004803603810190808035906020019092919080359060200190929190505050612071565b604051808215151515815260200191505060405180910390f35b3480156107e157600080fd5b5061087a600480360381019080803573ffffffffffffffffffffffffffffffffffffffff169060200190929190803573ffffffffffffffffffffffffffffffffffffffff16906020019092919080359060200190929190803590602001909291908035906020019082018035906020019190919293919293908035906020019082018035906020019190919293919293905050506120a0565b005b34801561088857600080fd5b50610891612311565b6040518082815260200191505060405180910390f35b3480156108b357600080fd5b50610950600480360381019080803573ffffffffffffffffffffffffffffffffffffffff169060200190929190803573ffffffffffffffffffffffffffffffffffffffff169060200190929190803590602001908201803590602001919091929391929390803590602001908201803590602001919091929391929390803590602001908201803590602001919091929391929390505050612359565b005b34801561095e57600080fd5b5061099f600480360381019080803573ffffffffffffffffffffffffffffffffffffffff1690602001909291908035151590602001909291905050506127fa565b005b3480156109ad57600080fd5b50610a0e600480360381019080803573ffffffffffffffffffffffffffffffffffffffff16906020019092919080359060200190929190803590602001909291908035906020019082018035906020019190919293919293905050506128fb565b005b348015610a1c57600080fd5b50610a5360048036038101908080359060200190929190803590602001908201803590602001919091929391929390505050612b89565b005b348015610a6157600080fd5b50610a8a6004803603810190808035906020019092919080359060200190929190505050612ebd565b6040518082815260200191505060405180910390f35b348015610aac57600080fd5b50610b01600480360381019080803573ffffffffffffffffffffffffffffffffffffffff169060200190929190803573ffffffffffffffffffffffffffffffffffffffff169060200190929190505050612eed565b604051808215151515815260200191505060405180910390f35b348015610b2757600080fd5b50610ba4600480360381019080803573ffffffffffffffffffffffffffffffffffffffff169060200190929190803590602001908201803590602001919091929391929390803590602001908201803590602001919091929391929390803590602001908201803590602001919091929391929390505050612f81565b005b348015610bb257600080fd5b50610c33600480360381019080803573ffffffffffffffffffffffffffffffffffffffff169060200190929190803573ffffffffffffffffffffffffffffffffffffffff169060200190929190803590602001909291908035906020019092919080359060200190820180359060200191909192939192939050505061333f565b005b60006002600083815260200190815260200160002060008473ffffffffffffffffffffffffffffffffffffffff1673ffffffffffffffffffffffffffffffffffffffff16815260200190815260200160002054905092915050565b60006301ffc9a77c0100000000000000000000000000000000000000000000000000000000027bffffffffffffffffffffffffffffffffffffffffffffffffffffffff1916827bffffffffffffffffffffffffffffffffffffffffffffffffffffffff19161480610d61575063d9b67a267c0100000000000000000000000000000000000000000000000000000000027bffffffffffffffffffffffffffffffffffffffffffffffffffffffff1916827bffffffffffffffffffffffffffffffffffffffffffffffffffffffff1916145b80610dcc5750630e89341c7c0100000000000000000000000000000000000000000000000000000000027bffffffffffffffffffffffffffffffffffffffffffffffffffffffff1916827bffffffffffffffffffffffffffffffffffffffffffffffffffffffff1916145b15610dda5760019050610ddf565b600090505b919050565b60006080829060020a90049050919050565b60003373ffffffffffffffffffffffffffffffffffffffff166006600086815260200190815260200160002060009054906101000a900473ffffffffffffffffffffffffffffffffffffffff1673ffffffffffffffffffffffffffffffffffffffff16141515610ece576040517f08c379a00000000000000000000000000000000000000000000000000000000081526004018080602001828103825260168152602001807f576520617265206e6f7420636f757274206f776e65720000000000000000000081525060200191505060405180910390fd5b600090505b828290508110156110ca5760008383838181101515610eee57fe5b90506020020135118015610f1857506000548383838181101515610f0e57fe5b9050602002013511155b1515610f8c576040517f08c379a00000000000000000000000000000000000000000000000000000000081526004018080602001828103825260158152602001807f436f75727420646f6573206e6f742065786973742e000000000000000000000081525060200191505060405180910390fd5b6004600085815260200190815260200160002060008484848181101515610faf57fe5b90506020020135815260200190815260200160002060009054906101000a900460ff1615156110bf57600160056000868152602001908152602001600020805490500160056000868152602001908152602001600020816110109190614746565b50828282818110151561101f57fe5b9050602002013560056000868152602001908152602001600020600160056000888152602001908152602001600020805490500381548110151561105f57fe5b90600052602060002001819055506001600460008681526020019081526020016000206000858585818110151561109257fe5b90506020020135815260200190815260200160002060006101000a81548160ff0219169083151502179055505b806001019050610ed3565b837f01835e37708ef8e93c16d8a37f55b44f532c6dc9bafa814e7af773f271312d738484604051808060200182810382528484828181526020019250602002808284378201915050935050505060405180910390a250505050565b60056020528160005260406000208181548110151561114057fe5b90600052602060002001600091509150505481565b60008060008073ffffffffffffffffffffffffffffffffffffffff168a73ffffffffffffffffffffffffffffffffffffffff1614151515611224576040517f08c379a00000000000000000000000000000000000000000000000000000000081526004018080602001828103825260258152602001807f64657374696e6174696f6e2061646472657373206d757374206265206e6f6e2d81526020017f7a65726f2e00000000000000000000000000000000000000000000000000000081525060400191505060405180910390fd5b86869050898990501415156112c7576040517f08c379a00000000000000000000000000000000000000000000000000000000081526004018080602001828103825260298152602001807f5f69647320616e64205f76616c756573206172726179206c656e677468206d7581526020017f7374206d617463682e000000000000000000000000000000000000000000000081525060400191505060405180910390fd5b3373ffffffffffffffffffffffffffffffffffffffff168b73ffffffffffffffffffffffffffffffffffffffff16148061138e575060011515600360008d73ffffffffffffffffffffffffffffffffffffffff1673ffffffffffffffffffffffffffffffffffffffff16815260200190815260200160002060003373ffffffffffffffffffffffffffffffffffffffff1673ffffffffffffffffffffffffffffffffffffffff16815260200190815260200160002060009054906101000a900460ff161515145b1515611428576040517f08c379a000000000000000000000000000000000000000000000000000000000815260040180806020018281038252602f8152602001807f4e656564206f70657261746f7220617070726f76616c20666f7220337264207081526020017f61727479207472616e73666572732e000000000000000000000000000000000081525060400191505060405180910390fd5b600092505b8888905083101561147d57888884818110151561144657fe5b905060200201359150868684818110151561145d57fe5b9050602002013590506114728b8b8484613642565b82600101925061142d565b8973ffffffffffffffffffffffffffffffffffffffff168b73ffffffffffffffffffffffffffffffffffffffff163373ffffffffffffffffffffffffffffffffffffffff167f4a39dc06d4c0dbc64b70af90fd698a233a518aa5d07e595d983b8c0526c8f7fb8c8c8c8c6040518080602001806020018381038352878782818152602001925060200280828437820191505083810382528585828181526020019250602002808284378201915050965050505050505060405180910390a461155a8a73ffffffffffffffffffffffffffffffffffffffff166137b6565b156115fe576115fd338c8c8c8c808060200260200160405190810160405280939291908181526020018383602002808284378201915050505050508b8b808060200260200160405190810160405280939291908181526020018383602002808284378201915050505050508a8a8080601f0160208091040260200160405190810160405280939291908181526020018383808284378201915050505050506137c9565b5b5050505050505050505050565b6000816080849060020a0201905092915050565b600073ffffffffffffffffffffffffffffffffffffffff168573ffffffffffffffffffffffffffffffffffffffff16141515156116c4576040517f08c379a00000000000000000000000000000000000000000000000000000000081526004018080602001828103825260158152602001807f5f746f206d757374206265206e6f6e2d7a65726f2e000000000000000000000081525060200191505060405180910390fd5b3373ffffffffffffffffffffffffffffffffffffffff168673ffffffffffffffffffffffffffffffffffffffff16148061178b575060011515600360008873ffffffffffffffffffffffffffffffffffffffff1673ffffffffffffffffffffffffffffffffffffffff16815260200190815260200160002060003373ffffffffffffffffffffffffffffffffffffffff1673ffffffffffffffffffffffffffffffffffffffff16815260200190815260200160002060009054906101000a900460ff161515145b1515611825576040517f08c379a000000000000000000000000000000000000000000000000000000000815260040180806020018281038252602f8152602001807f4e656564206f70657261746f7220617070726f76616c20666f7220337264207081526020017f61727479207472616e73666572732e000000000000000000000000000000000081525060400191505060405180910390fd5b61183186868686613ad7565b8473ffffffffffffffffffffffffffffffffffffffff1660003373ffffffffffffffffffffffffffffffffffffffff167fc3d58168c5ae7397731d063d5bbf3d657854427343f4c083240f7aacaa2d0f628787604051808381526020018281526020019250505060405180910390a46118bf8573ffffffffffffffffffffffffffffffffffffffff166137b6565b1561190557611904338787878787878080601f016020809104026020016040519081016040528093929190818152602001838380828437820191505050505050613d66565b5b505050505050565b60006fffffffffffffffffffffffffffffffff82169050919050565b60606000878790508a8a90501415156119d0576040517f08c379a00000000000000000000000000000000000000000000000000000000081526004018080602001828103825260368152602001807f5f696e746572636f757274546f6b656e7320616e64205f76616c75657320617281526020017f726179206c656e677468206d757374206d617463682e0000000000000000000081525060400191505060405180910390fd5b611a6a8c8c8c8c808060200260200160405190810160405280939291908181526020018383602002808284378201915050505050508b8b808060200260200160405190810160405280939291908181526020018383602002808284378201915050505050508a8a80806020026020016040519081016040528093929190818152602001838360200280828437820191505050505050613ff2565b60008c73ffffffffffffffffffffffffffffffffffffffff163373ffffffffffffffffffffffffffffffffffffffff167f4a39dc06d4c0dbc64b70af90fd698a233a518aa5d07e595d983b8c0526c8f7fb8d8d8d8d6040518080602001806020018381038352878782818152602001925060200280828437820191505083810382528585828181526020019250602002808284378201915050965050505050505060405180910390a48a73ffffffffffffffffffffffffffffffffffffffff1660003373ffffffffffffffffffffffffffffffffffffffff167f4a39dc06d4c0dbc64b70af90fd698a233a518aa5d07e595d983b8c0526c8f7fb8d8d8d8d6040518080602001806020018381038352878782818152602001925060200280828437820191505083810382528585828181526020019250602002808284378201915050965050505050505060405180910390a489899050604051908082528060200260200182016040528015611bee5781602001602082028038833980820191505090505b509150600090505b8151811015611c5e57611c378686600189899050038181101515611c1657fe5b905060200201358b8b848181101515611c2b57fe5b90506020020135612ebd565b8282815181101515611c4557fe5b9060200190602002018181525050806001019050611bf6565b611c7d8b73ffffffffffffffffffffffffffffffffffffffff166137b6565b15611cf257611cf1338d8d858c8c8080602002602001604051908101604052809392919081815260200183836020028082843782019150505050505089898080601f0160208091040260200160405190810160405280939291908181526020018383808284378201915050505050506137c9565b5b505050505050505050505050565b606060056000838152602001908152602001600020805480602002602001604051908101604052809291908181526020018280548015611d5f57602002820191906000526020600020905b815481526020019060010190808311611d4b575b50505050509050919050565b60608060008484905087879050141515611d8457600080fd5b86869050604051908082528060200260200182016040528015611db65781602001602082028038833980820191505090505b509150600090505b86869050811015611e7f57600260008686848181101515611ddb57fe5b90506020020135815260200190815260200160002060008888848181101515611e0057fe5b9050602002013573ffffffffffffffffffffffffffffffffffffffff1673ffffffffffffffffffffffffffffffffffffffff1673ffffffffffffffffffffffffffffffffffffffff168152602001908152602001600020548282815181101515611e6657fe5b9060200190602002018181525050806001019050611dbe565b8192505050949350505050565b60066020528060005260406000206000915054906101000a900473ffffffffffffffffffffffffffffffffffffffff1681565b600080600081546001019190508190559050336006600083815260200190815260200160002060006101000a81548173ffffffffffffffffffffffffffffffffffffffff021916908373ffffffffffffffffffffffffffffffffffffffff160217905550803373ffffffffffffffffffffffffffffffffffffffff167f710eef371f5a53fba3ba016ef4d1dcbe6d090be1d240ca0a7f5b6a640cadff5860405160405180910390a390565b3373ffffffffffffffffffffffffffffffffffffffff166006600084815260200190815260200160002060009054906101000a900473ffffffffffffffffffffffffffffffffffffffff1673ffffffffffffffffffffffffffffffffffffffff16141515611fd757600080fd5b806006600084815260200190815260200160002060006101000a81548173ffffffffffffffffffffffffffffffffffffffff021916908373ffffffffffffffffffffffffffffffffffffffff1602179055508073ffffffffffffffffffffffffffffffffffffffff16827f38b2cbf571fbace074ff0149476c2adcf9c2f47d18bb39f9924473108a47278d60405160405180910390a35050565b60046020528160005260406000206020528060005260406000206000915091509054906101000a900460ff1681565b60608060016040519080825280602002602001820160405280156120d35781602001602082028038833980820191505090505b509150878260008151811015156120e657fe5b906020019060200201818152505060016040519080825280602002602001820160405280156121245781602001602082028038833980820191505090505b5090508681600081518110151561213757fe5b90602001906020020181815250506121818a8a84848a8a80806020026020016040519081016040528093929190818152602001838360200280828437820191505050505050613ff2565b60008a73ffffffffffffffffffffffffffffffffffffffff163373ffffffffffffffffffffffffffffffffffffffff167fc3d58168c5ae7397731d063d5bbf3d657854427343f4c083240f7aacaa2d0f626121f18a8a600081811015156121e457fe5b905060200201358d61160b565b8b604051808381526020018281526020019250505060405180910390a48873ffffffffffffffffffffffffffffffffffffffff1660003373ffffffffffffffffffffffffffffffffffffffff167fc3d58168c5ae7397731d063d5bbf3d657854427343f4c083240f7aacaa2d0f626122838a8a60018d8d905003818110151561227657fe5b905060200201358d61160b565b8b604051808381526020018281526020019250505060405180910390a46122bf8973ffffffffffffffffffffffffffffffffffffffff166137b6565b1561230557612304338b8b8b8b89898080601f016020809104026020016040519081016040528093929190818152602001838380828437820191505050505050613d66565b5b50505050505050505050565b6000806001600081546001019190508190559050807fdcb245c4b02a51eb30e854a8476b3a4640d7648b4c22af3d710a3b1a2f906c8b60405160405180910390a28091505090565b60008060008073ffffffffffffffffffffffffffffffffffffffff168a73ffffffffffffffffffffffffffffffffffffffff1614151515612428576040517f08c379a00000000000000000000000000000000000000000000000000000000081526004018080602001828103825260258152602001807f64657374696e6174696f6e2061646472657373206d757374206265206e6f6e2d81526020017f7a65726f2e00000000000000000000000000000000000000000000000000000081525060400191505060405180910390fd5b86869050898990501415156124cb576040517f08c379a00000000000000000000000000000000000000000000000000000000081526004018080602001828103825260298152602001807f5f69647320616e64205f76616c756573206172726179206c656e677468206d7581526020017f7374206d617463682e000000000000000000000000000000000000000000000081525060400191505060405180910390fd5b3373ffffffffffffffffffffffffffffffffffffffff168b73ffffffffffffffffffffffffffffffffffffffff161480612592575060011515600360008d73ffffffffffffffffffffffffffffffffffffffff1673ffffffffffffffffffffffffffffffffffffffff16815260200190815260200160002060003373ffffffffffffffffffffffffffffffffffffffff1673ffffffffffffffffffffffffffffffffffffffff16815260200190815260200160002060009054906101000a900460ff161515145b151561262c576040517f08c379a000000000000000000000000000000000000000000000000000000000815260040180806020018281038252602f8152602001807f4e656564206f70657261746f7220617070726f76616c20666f7220337264207081526020017f61727479207472616e73666572732e000000000000000000000000000000000081525060400191505060405180910390fd5b600092505b8888905083101561268157888884818110151561264a57fe5b905060200201359150868684818110151561266157fe5b9050602002013590506126768b8b8484613ad7565b826001019250612631565b8973ffffffffffffffffffffffffffffffffffffffff1660003373ffffffffffffffffffffffffffffffffffffffff167f4a39dc06d4c0dbc64b70af90fd698a233a518aa5d07e595d983b8c0526c8f7fb8c8c8c8c6040518080602001806020018381038352878782818152602001925060200280828437820191505083810382528585828181526020019250602002808284378201915050965050505050505060405180910390a46127498a73ffffffffffffffffffffffffffffffffffffffff166137b6565b156127ed576127ec338c8c8c8c808060200260200160405190810160405280939291908181526020018383602002808284378201915050505050508b8b808060200260200160405190810160405280939291908181526020018383602002808284378201915050505050508a8a8080601f0160208091040260200160405190810160405280939291908181526020018383808284378201915050505050506137c9565b5b5050505050505050505050565b80600360003373ffffffffffffffffffffffffffffffffffffffff1673ffffffffffffffffffffffffffffffffffffffff16815260200190815260200160002060008473ffffffffffffffffffffffffffffffffffffffff1673ffffffffffffffffffffffffffffffffffffffff16815260200190815260200160002060006101000a81548160ff0219169083151502179055508173ffffffffffffffffffffffffffffffffffffffff163373ffffffffffffffffffffffffffffffffffffffff167f17307eab39ab6107e8899845ad3d59bd9653f200f220920489ca2b5937696c3183604051808215151515815260200191505060405180910390a35050565b3373ffffffffffffffffffffffffffffffffffffffff168573ffffffffffffffffffffffffffffffffffffffff1614806129c2575060011515600360008773ffffffffffffffffffffffffffffffffffffffff1673ffffffffffffffffffffffffffffffffffffffff16815260200190815260200160002060003373ffffffffffffffffffffffffffffffffffffffff1673ffffffffffffffffffffffffffffffffffffffff16815260200190815260200160002060009054906101000a900460ff161515145b1515612a5c576040517f08c379a000000000000000000000000000000000000000000000000000000000815260040180806020018281038252602f8152602001807f4e656564206f70657261746f7220617070726f76616c20666f7220337264207081526020017f61727479207472616e73666572732e000000000000000000000000000000000081525060400191505060405180910390fd5b612abf836002600087815260200190815260200160002060008873ffffffffffffffffffffffffffffffffffffffff1673ffffffffffffffffffffffffffffffffffffffff1681526020019081526020016000205461455c90919063ffffffff16565b6002600086815260200190815260200160002060008773ffffffffffffffffffffffffffffffffffffffff1673ffffffffffffffffffffffffffffffffffffffff1681526020019081526020016000208190555060008573ffffffffffffffffffffffffffffffffffffffff163373ffffffffffffffffffffffffffffffffffffffff167fc3d58168c5ae7397731d063d5bbf3d657854427343f4c083240f7aacaa2d0f628787604051808381526020018281526020019250505060405180910390a45050505050565b6000803373ffffffffffffffffffffffffffffffffffffffff166006600087815260200190815260200160002060009054906101000a900473ffffffffffffffffffffffffffffffffffffffff1673ffffffffffffffffffffffffffffffffffffffff16141515612c62576040517f08c379a00000000000000000000000000000000000000000000000000000000081526004018080602001828103825260168152602001807f576520617265206e6f7420636f757274206f776e65720000000000000000000081525060200191505060405180910390fd5b60056000868152602001908152602001600020805490509150600090505b83839050811015612e415760008484838181101515612c9b57fe5b90506020020135118015612cc557506000548484838181101515612cbb57fe5b9050602002013511155b1515612d39576040517f08c379a00000000000000000000000000000000000000000000000000000000081526004018080602001828103825260158152602001807f436f75727420646f6573206e6f742065786973742e000000000000000000000081525060200191505060405180910390fd5b6004600086815260200190815260200160002060008585848181101515612d5c57fe5b90506020020135815260200190815260200160002060009054906101000a900460ff1615612e365760006004600087815260200190815260200160002060008686858181101515612da957fe5b90506020020135815260200190815260200160002060006101000a81548160ff021916908315150217905550600560008681526020019081526020016000208260019003925082815481101515612dfc57fe5b90600052602060002001546005600087815260200190815260200160002082815481101515612e2757fe5b90600052602060002001819055505b806001019050612c80565b816005600087815260200190815260200160002081612e609190614746565b50847f9beb7615ce5f9480ff031ec5ffcec6b73e8409db31266fe0d1dab8ed23c935488585604051808060200182810382528484828181526020019250602002808284378201915050935050505060405180910390a25050505050565b6000808314158015612ed0575060008214155b1515612edb57600080fd5b612ee5838361160b565b905092915050565b6000600360008473ffffffffffffffffffffffffffffffffffffffff1673ffffffffffffffffffffffffffffffffffffffff16815260200190815260200160002060008373ffffffffffffffffffffffffffffffffffffffff1673ffffffffffffffffffffffffffffffffffffffff16815260200190815260200160002060009054906101000a900460ff16905092915050565b60008060008686905089899050141515613029576040517f08c379a00000000000000000000000000000000000000000000000000000000081526004018080602001828103825260298152602001807f5f69647320616e64205f76616c756573206172726179206c656e677468206d7581526020017f7374206d617463682e000000000000000000000000000000000000000000000081525060400191505060405180910390fd5b3373ffffffffffffffffffffffffffffffffffffffff168a73ffffffffffffffffffffffffffffffffffffffff1614806130f0575060011515600360008c73ffffffffffffffffffffffffffffffffffffffff1673ffffffffffffffffffffffffffffffffffffffff16815260200190815260200160002060003373ffffffffffffffffffffffffffffffffffffffff1673ffffffffffffffffffffffffffffffffffffffff16815260200190815260200160002060009054906101000a900460ff161515145b151561318a576040517f08c379a000000000000000000000000000000000000000000000000000000000815260040180806020018281038252602f8152602001807f4e656564206f70657261746f7220617070726f76616c20666f7220337264207081526020017f61727479207472616e73666572732e000000000000000000000000000000000081525060400191505060405180910390fd5b600092505b8888905083101561328a5788888481811015156131a857fe5b90506020020135915086868481811015156131bf57fe5b90506020020135905061322b816002600085815260200190815260200160002060008d73ffffffffffffffffffffffffffffffffffffffff1673ffffffffffffffffffffffffffffffffffffffff1681526020019081526020016000205461455c90919063ffffffff16565b6002600084815260200190815260200160002060008c73ffffffffffffffffffffffffffffffffffffffff1673ffffffffffffffffffffffffffffffffffffffff1681526020019081526020016000208190555082600101925061318f565b60008a73ffffffffffffffffffffffffffffffffffffffff163373ffffffffffffffffffffffffffffffffffffffff167f4a39dc06d4c0dbc64b70af90fd698a233a518aa5d07e595d983b8c0526c8f7fb8c8c8c8c6040518080602001806020018381038352878782818152602001925060200280828437820191505083810382528585828181526020019250602002808284378201915050965050505050505060405180910390a450505050505050505050565b600073ffffffffffffffffffffffffffffffffffffffff168573ffffffffffffffffffffffffffffffffffffffff16141515156133e4576040517f08c379a00000000000000000000000000000000000000000000000000000000081526004018080602001828103825260158152602001807f5f746f206d757374206265206e6f6e2d7a65726f2e000000000000000000000081525060200191505060405180910390fd5b3373ffffffffffffffffffffffffffffffffffffffff168673ffffffffffffffffffffffffffffffffffffffff1614806134ab575060011515600360008873ffffffffffffffffffffffffffffffffffffffff1673ffffffffffffffffffffffffffffffffffffffff16815260200190815260200160002060003373ffffffffffffffffffffffffffffffffffffffff1673ffffffffffffffffffffffffffffffffffffffff16815260200190815260200160002060009054906101000a900460ff161515145b1515613545576040517f08c379a000000000000000000000000000000000000000000000000000000000815260040180806020018281038252602f8152602001807f4e656564206f70657261746f7220617070726f76616c20666f7220337264207081526020017f61727479207472616e73666572732e000000000000000000000000000000000081525060400191505060405180910390fd5b61355186868686613642565b8473ffffffffffffffffffffffffffffffffffffffff168673ffffffffffffffffffffffffffffffffffffffff163373ffffffffffffffffffffffffffffffffffffffff167fc3d58168c5ae7397731d063d5bbf3d657854427343f4c083240f7aacaa2d0f628787604051808381526020018281526020019250505060405180910390a46135f48573ffffffffffffffffffffffffffffffffffffffff166137b6565b1561363a57613639338787878787878080601f016020809104026020016040519081016040528093929190818152602001838380828437820191505050505050613d66565b5b505050505050565b6136a5816002600085815260200190815260200160002060008773ffffffffffffffffffffffffffffffffffffffff1673ffffffffffffffffffffffffffffffffffffffff1681526020019081526020016000205461455c90919063ffffffff16565b6002600084815260200190815260200160002060008673ffffffffffffffffffffffffffffffffffffffff1673ffffffffffffffffffffffffffffffffffffffff1681526020019081526020016000208190555061375c6002600084815260200190815260200160002060008573ffffffffffffffffffffffffffffffffffffffff1673ffffffffffffffffffffffffffffffffffffffff168152602001908152602001600020548261465190919063ffffffff16565b6002600084815260200190815260200160002060008573ffffffffffffffffffffffffffffffffffffffff1673ffffffffffffffffffffffffffffffffffffffff1681526020019081526020016000208190555050505050565b600080823b905060008111915050919050565b63bc197c817c0100000000000000000000000000000000000000000000000000000000027bffffffffffffffffffffffffffffffffffffffffffffffffffffffff19168473ffffffffffffffffffffffffffffffffffffffff1663bc197c8188888787876040518663ffffffff167c0100000000000000000000000000000000000000000000000000000000028152600401808673ffffffffffffffffffffffffffffffffffffffff1673ffffffffffffffffffffffffffffffffffffffff1681526020018573ffffffffffffffffffffffffffffffffffffffff1673ffffffffffffffffffffffffffffffffffffffff168152602001806020018060200180602001848103845287818151815260200191508051906020019060200280838360005b838110156139075780820151818401526020810190506138ec565b50505050905001848103835286818151815260200191508051906020019060200280838360005b8381101561394957808201518184015260208101905061392e565b50505050905001848103825285818151815260200191508051906020019080838360005b8381101561398857808201518184015260208101905061396d565b50505050905090810190601f1680156139b55780820380516001836020036101000a031916815260200191505b5098505050505050505050602060405180830381600087803b1580156139da57600080fd5b505af11580156139ee573d6000803e3d6000fd5b505050506040513d6020811015613a0457600080fd5b81019080805190602001909291905050507bffffffffffffffffffffffffffffffffffffffffffffffffffffffff1916141515613acf576040517f08c379a000000000000000000000000000000000000000000000000000000000815260040180806020018281038252603e8152602001807f636f6e74726163742072657475726e656420616e20756e6b6e6f776e2076616c81526020017f75652066726f6d206f6e4552433131353542617463685265636569766564000081525060400191505060405180910390fd5b505050505050565b600080613ae384610de4565b9150613aee8461190d565b905060008214158015613b02575060008114155b1515613b76576040517f08c379a000000000000000000000000000000000000000000000000000000000815260040180806020018281038252600e8152602001807f496e76616c696420746f6b656e2e00000000000000000000000000000000000081525060200191505060405180910390fd5b3373ffffffffffffffffffffffffffffffffffffffff166006600084815260200190815260200160002060009054906101000a900473ffffffffffffffffffffffffffffffffffffffff1673ffffffffffffffffffffffffffffffffffffffff161480613c335750826002600086815260200190815260200160002060008873ffffffffffffffffffffffffffffffffffffffff1673ffffffffffffffffffffffffffffffffffffffff1681526020019081526020016000205410155b1515613ca7576040517f08c379a00000000000000000000000000000000000000000000000000000000081526004018080602001828103825260138152602001807f496e73756666696369656e742066756e64732e0000000000000000000000000081525060200191505060405180910390fd5b613d0a6002600086815260200190815260200160002060008773ffffffffffffffffffffffffffffffffffffffff1673ffffffffffffffffffffffffffffffffffffffff168152602001908152602001600020548461465190919063ffffffff16565b6002600086815260200190815260200160002060008773ffffffffffffffffffffffffffffffffffffffff1673ffffffffffffffffffffffffffffffffffffffff16815260200190815260200160002081905550505050505050565b63f23a6e617c0100000000000000000000000000000000000000000000000000000000027bffffffffffffffffffffffffffffffffffffffffffffffffffffffff19168473ffffffffffffffffffffffffffffffffffffffff1663f23a6e6188888787876040518663ffffffff167c0100000000000000000000000000000000000000000000000000000000028152600401808673ffffffffffffffffffffffffffffffffffffffff1673ffffffffffffffffffffffffffffffffffffffff1681526020018573ffffffffffffffffffffffffffffffffffffffff1673ffffffffffffffffffffffffffffffffffffffff16815260200184815260200183815260200180602001828103825283818151815260200191508051906020019080838360005b83811015613ea5578082015181840152602081019050613e8a565b50505050905090810190601f168015613ed25780820380516001836020036101000a031916815260200191505b509650505050505050602060405180830381600087803b158015613ef557600080fd5b505af1158015613f09573d6000803e3d6000fd5b505050506040513d6020811015613f1f57600080fd5b81019080805190602001909291905050507bffffffffffffffffffffffffffffffffffffffffffffffffffffffff1916141515613fea576040517f08c379a00000000000000000000000000000000000000000000000000000000081526004018080602001828103825260398152602001807f636f6e74726163742072657475726e656420616e20756e6b6e6f776e2076616c81526020017f75652066726f6d206f6e4552433131353552656365697665640000000000000081525060400191505060405180910390fd5b505050505050565b60008060008060008073ffffffffffffffffffffffffffffffffffffffff168973ffffffffffffffffffffffffffffffffffffffff161415151561409e576040517f08c379a00000000000000000000000000000000000000000000000000000000081526004018080602001828103825260158152602001807f5f746f206d757374206265206e6f6e2d7a65726f2e000000000000000000000081525060200191505060405180910390fd5b865188511415156140ab57fe5b60008651141515156140bc57600080fd5b3373ffffffffffffffffffffffffffffffffffffffff168a73ffffffffffffffffffffffffffffffffffffffff161480614183575060011515600360008c73ffffffffffffffffffffffffffffffffffffffff1673ffffffffffffffffffffffffffffffffffffffff16815260200190815260200160002060003373ffffffffffffffffffffffffffffffffffffffff1673ffffffffffffffffffffffffffffffffffffffff16815260200190815260200160002060009054906101000a900460ff161515145b151561421d576040517f08c379a000000000000000000000000000000000000000000000000000000000815260040180806020018281038252602f8152602001807f4e656564206f70657261746f7220617070726f76616c20666f7220337264207081526020017f61727479207472616e73666572732e000000000000000000000000000000000081525060400191505060405180910390fd5b600094505b60018651038510156143365760046000876001880181518110151561424357fe5b9060200190602002015181526020019081526020016000206000878781518110151561426b57fe5b90602001906020020151815260200190815260200160002060009054906101000a900460ff16151561432b576040517f08c379a000000000000000000000000000000000000000000000000000000000815260040180806020018281038252602d8152602001807f4120636f75727420696e207468652070617468206973206e6f7420696e20612081526020017f74727573746564206c6973742e0000000000000000000000000000000000000081525060400191505060405180910390fd5b846001019450614222565b600093505b875184101561455057878481518110151561435257fe5b90602001906020020151925061438086600081518110151561437057fe5b9060200190602002015184612ebd565b91506143a786600188510381518110151561439757fe5b9060200190602002015184612ebd565b905061442387858151811015156143ba57fe5b906020019060200201516002600085815260200190815260200160002060008d73ffffffffffffffffffffffffffffffffffffffff1673ffffffffffffffffffffffffffffffffffffffff1681526020019081526020016000205461455c90919063ffffffff16565b6002600084815260200190815260200160002060008c73ffffffffffffffffffffffffffffffffffffffff1673ffffffffffffffffffffffffffffffffffffffff168152602001908152602001600020819055506144f16002600083815260200190815260200160002060008b73ffffffffffffffffffffffffffffffffffffffff1673ffffffffffffffffffffffffffffffffffffffff1681526020019081526020016000205488868151811015156144d957fe5b9060200190602002015161465190919063ffffffff16565b6002600083815260200190815260200160002060008b73ffffffffffffffffffffffffffffffffffffffff1673ffffffffffffffffffffffffffffffffffffffff1681526020019081526020016000208190555083600101935061433b565b50505050505050505050565b600080838311156040805190810160405280601281526020017f4d4154485f5355425f554e444552464c4f570000000000000000000000000000815250901515614641576040517f08c379a00000000000000000000000000000000000000000000000000000000081526004018080602001828103825283818151815260200191508051906020019080838360005b838110156146065780820151818401526020810190506145eb565b50505050905090810190601f1680156146335780820380516001836020036101000a031916815260200191505b509250505060405180910390fd5b5082840390508091505092915050565b6000808284019050838110156040805190810160405280601181526020017f4d4154485f4144445f4f564552464c4f5700000000000000000000000000000081525090151561473b576040517f08c379a00000000000000000000000000000000000000000000000000000000081526004018080602001828103825283818151815260200191508051906020019080838360005b838110156147005780820151818401526020810190506146e5565b50505050905090810190601f16801561472d5780820380516001836020036101000a031916815260200191505b509250505060405180910390fd5b508091505092915050565b81548183558181111561476d5781836000526020600020918201910161476c9190614772565b5b505050565b61479491905b80821115614790576000816000905550600101614778565b5090565b905600a165627a7a72305820a7c3f3cafb2ac85749ae7701133ca7a8f5034b563c417b6dfe6cb790ec2501be0029",
  "source": "pragma solidity ^0.4.0;\n\nimport \"@aragon/os/contracts/lib/math/SafeMath.sol\";\nimport \"./Address.sol\";\nimport \"./Common.sol\";\nimport \"./IERC1155TokenReceiver.sol\";\nimport \"./IERC1155.sol\";\n\ncontract RewardCourts is IERC1155, ERC165, CommonConstants\n{\n    using SafeMath for uint256;\n    using Address for address;\n\n    uint256 internal courtNonce;\n    uint256 internal icTokenNonce;\n\n    // token => (owner => balance)\n    mapping (uint256 => mapping(address => uint256)) internal balances;\n\n    // owner => (operator => approved)\n    mapping (address => mapping(address => bool)) internal operatorApproval;\n    \n    // token => (owner => spentLimit)\n    //mapping (address => mapping (address => uint256)) public spentLimit; // It is better done in the wrapper (voting) contract.\n    \n    // truster => (trustee => bool)\n    mapping (uint256 => mapping (uint256 => bool)) public trustedCourts; // which courts are trusted\n    \n    // truster => trustees[]\n    mapping (uint256 => uint256[]) public trustedCourtsList;\n    \n    // token => court\n    //mapping (address => uint256) public tokenControllingCourts;\n\n    // token => intercourt token\n    //mapping (address => uint256) public interCourtTokens;\n    \n    // court ID => owner\n    mapping (uint256 => address) public courtOwners;\n\n    event CourtCreated(address indexed owner, uint256 indexed createdCourt);\n    event IntercourtTokenCreated(uint256 indexed ictoken);\n    event SetOwner(uint256 indexed court, address indexed owner);\n    event TrustCourts(uint256 indexed truster, uint256[] trustees);\n    event UntrustCourts(uint256 indexed truster, uint256[] trustees);\n\n/////////////////////////////////////////// ERC165 //////////////////////////////////////////////\n\n    /*\n        bytes4(keccak256('supportsInterface(bytes4)'));\n    */\n    bytes4 constant private INTERFACE_SIGNATURE_ERC165 = 0x01ffc9a7;\n\n    /*\n        bytes4(keccak256(\"safeTransferFrom(address,address,uint256,uint256,bytes)\")) ^\n        bytes4(keccak256(\"safeBatchTransferFrom(address,address,uint256[],uint256[],bytes)\")) ^\n        bytes4(keccak256(\"balanceOf(address,uint256)\")) ^\n        bytes4(keccak256(\"balanceOfBatch(address[],uint256[])\")) ^\n        bytes4(keccak256(\"setApprovalForAll(address,bool)\")) ^\n        bytes4(keccak256(\"isApprovedForAll(address,address)\"));\n    */\n    bytes4 constant private INTERFACE_SIGNATURE_ERC1155 = 0xd9b67a26;\n\n    bytes4 constant private INTERFACE_SIGNATURE_URI = 0x0e89341c;\n    \n    function supportsInterface(bytes4 _interfaceId)\n    public\n    view\n    returns (bool) {\n         if (_interfaceId == INTERFACE_SIGNATURE_ERC165 ||\n             _interfaceId == INTERFACE_SIGNATURE_ERC1155 ||\n             _interfaceId == INTERFACE_SIGNATURE_URI) {\n            return true;\n         }\n\n         return false;\n    }\n\n/////////////////////////////////////////// ERC1155 //////////////////////////////////////////////\n\n    /**\n        @notice Transfers `_value` amount of an `_id` from the `_from` address to the `_to` address specified (with safety call).\n        @dev Caller must be approved to manage the tokens being transferred out of the `_from` account (see \"Approval\" section of the standard).\n        MUST revert if `_to` is the zero address.\n        MUST revert if balance of holder for token `_id` is lower than the `_value` sent.\n        MUST revert on any other error.\n        MUST emit the `TransferSingle` event to reflect the balance change (see \"Safe Transfer Rules\" section of the standard).\n        After the above conditions are met, this function MUST check if `_to` is a smart contract (e.g. code size > 0). If so, it MUST call `onERC1155Received` on `_to` and act appropriately (see \"Safe Transfer Rules\" section of the standard).\n        @param _from    Source address\n        @param _to      Target address\n        @param _id      ID of the token type\n        @param _value   Transfer amount\n        @param _data    Additional data with no specified format, MUST be sent unaltered in call to `onERC1155Received` on `_to`\n    */\n    function safeTransferFrom(address _from, address _to, uint256 _id, uint256 _value, bytes _data) external {\n\n        require(_to != address(0x0), \"_to must be non-zero.\");\n        require(_from == msg.sender || operatorApproval[_from][msg.sender] == true, \"Need operator approval for 3rd party transfers.\");\n\n        _doSafeTransferFrom(_from, _to, _id, _value);\n\n        // MUST emit event\n        emit TransferSingle(msg.sender, _from, _to, _id, _value);\n\n        // Now that the balance is updated and the event was emitted,\n        // call onERC1155Received if the destination is a contract.\n        if (_to.isContract()) {\n            _doSafeTransferAcceptanceCheck(msg.sender, _from, _to, _id, _value, _data);\n        }\n    }\n\n    /**\n        @notice Transfers `_values` amount(s) of `_ids` from the `_from` address to the `_to` address specified (with safety call).\n        @dev Caller must be approved to manage the tokens being transferred out of the `_from` account (see \"Approval\" section of the standard).\n        MUST revert if `_to` is the zero address.\n        MUST revert if length of `_ids` is not the same as length of `_values`.\n        MUST revert if any of the balance(s) of the holder(s) for token(s) in `_ids` is lower than the respective amount(s) in `_values` sent to the recipient.\n        MUST revert on any other error.\n        MUST emit `TransferSingle` or `TransferBatch` event(s) such that all the balance changes are reflected (see \"Safe Transfer Rules\" section of the standard).\n        Balance changes and events MUST follow the ordering of the arrays (_ids[0]/_values[0] before _ids[1]/_values[1], etc).\n        After the above conditions for the transfer(s) in the batch are met, this function MUST check if `_to` is a smart contract (e.g. code size > 0). If so, it MUST call the relevant `ERC1155TokenReceiver` hook(s) on `_to` and act appropriately (see \"Safe Transfer Rules\" section of the standard).\n        @param _from    Source address\n        @param _to      Target address\n        @param _ids     IDs of each token type (order and length must match _values array)\n        @param _values  Transfer amounts per token type (order and length must match _ids array)\n        @param _data    Additional data with no specified format, MUST be sent unaltered in call to the `ERC1155TokenReceiver` hook(s) on `_to`\n    */\n    function safeBatchTransferFrom(address _from, address _to, uint256[] _ids, uint256[] _values, bytes _data) external {\n\n        // MUST Throw on errors\n        require(_to != address(0x0), \"destination address must be non-zero.\");\n        require(_ids.length == _values.length, \"_ids and _values array length must match.\");\n        require(_from == msg.sender || operatorApproval[_from][msg.sender] == true, \"Need operator approval for 3rd party transfers.\");\n\n        for (uint256 i = 0; i < _ids.length; ++i) {\n            uint256 _id = _ids[i];\n            uint256 _value = _values[i];\n\n            _doSafeTransferFrom(_from, _to, _id, _value);\n        }\n\n        // Note: instead of the below batch versions of event and acceptance check you MAY have emitted a TransferSingle\n        // event and a subsequent call to _doSafeTransferAcceptanceCheck in above loop for each balance change instead.\n        // Or emitted a TransferSingle event for each in the loop and then the single _doSafeBatchTransferAcceptanceCheck below.\n        // However it is implemented the balance changes and events MUST match when a check (i.e. calling an external contract) is done.\n\n        // MUST emit event\n        emit TransferBatch(msg.sender, _from, _to, _ids, _values);\n\n        // Now that the balances are updated and the events are emitted,\n        // call onERC1155BatchReceived if the destination is a contract.\n        if (_to.isContract()) {\n            _doSafeBatchTransferAcceptanceCheck(msg.sender, _from, _to, _ids, _values, _data);\n        }\n    }\n\n    /**\n        @notice Get the balance of an account's Tokens.\n        @param _owner  The address of the token holder\n        @param _id     ID of the Token\n        @return        The _owner's balance of the Token type requested\n     */\n    function balanceOf(address _owner, uint256 _id) external view returns (uint256) {\n        // The balance of any account can be calculated from the Transfer events history.\n        // However, since we need to keep the balances to validate transfer request,\n        // there is no extra cost to also privide a querry function.\n        return balances[_id][_owner];\n    }\n\n\n    /**\n        @notice Get the balance of multiple account/token pairs\n        @param _owners The addresses of the token holders\n        @param _ids    ID of the Tokens\n        @return        The _owner's balance of the Token types requested (i.e. balance for each (owner, id) pair)\n     */\n    function balanceOfBatch(address[] _owners, uint256[] _ids) external view returns (uint256[] memory) {\n\n        require(_owners.length == _ids.length);\n\n        uint256[] memory balances_ = new uint256[](_owners.length);\n\n        for (uint256 i = 0; i < _owners.length; ++i) {\n            balances_[i] = balances[_ids[i]][_owners[i]];\n        }\n\n        return balances_;\n    }\n\n    /**\n        @notice Enable or disable approval for a third party (\"operator\") to manage all of the caller's tokens.\n        @dev MUST emit the ApprovalForAll event on success.\n        @param _operator  Address to add to the set of authorized operators\n        @param _approved  True if the operator is approved, false to revoke approval\n    */\n    function setApprovalForAll(address _operator, bool _approved) external {\n        operatorApproval[msg.sender][_operator] = _approved;\n        emit ApprovalForAll(msg.sender, _operator, _approved);\n    }\n\n    /**\n        @notice Queries the approval status of an operator for a given owner.\n        @param _owner     The owner of the Tokens\n        @param _operator  Address of authorized operator\n        @return           True if the operator is approved, false if not\n    */\n    function isApprovedForAll(address _owner, address _operator) external view returns (bool) {\n        return operatorApproval[_owner][_operator];\n    }\n\n/////////////////////////////////////////// Court //////////////////////////////////////////////\n\n    /// Transfer through Multiple Courts ///\n\n    /**\n        @notice Transfer money through several courts with automatic currency conversion between court tokens.\n        @param _from    Source address\n        @param _to      Target address\n        @param _intercourtToken Intercourt token\n        @param _value   Transfer amount\n        @param _courtsPath Through which courts to transfer\n        @param _data    Additional data with no specified format, MUST be sent unaltered in call to `onERC1155Received` on `_to`\n    */\n    function intercourtTransfer(address _from, address _to, uint256 _intercourtToken, uint256 _value, uint256[] _courtsPath, bytes _data) external {\n        uint256[] memory _ids = new uint256[](1);\n        _ids[0] = _intercourtToken;\n        uint256[] memory _values = new uint256[](1);\n        _values[0] = _value;\n        _doIntercourtTransferBatch(_from, _to, _ids, _values, _courtsPath);\n\n        // Using _uncheckedGenerateTokenId because already checked in _doIntercourtTransferBatch().\n        emit TransferSingle(msg.sender, _from, 0x0, _uncheckedGenerateTokenId(_courtsPath[0], _intercourtToken), _value);\n        emit TransferSingle(msg.sender, 0x0, _to, _uncheckedGenerateTokenId(_courtsPath[_courtsPath.length - 1], _intercourtToken), _value);\n\n        // Now that the balance is updated and the event was emitted,\n        // call onERC1155Received if the destination is a contract.\n        if (_to.isContract()) {\n            _doSafeTransferAcceptanceCheck(msg.sender, _from, _to, _intercourtToken, _value, _data);\n        }\n    }\n\n    /**\n        @notice Transfer money through several courts with automatic currency conversion between court tokens.\n        @param _from    Source address\n        @param _to      Target address\n        @param _intercourtTokens Intercourt tokens (order and length must match _values array)\n        @param _values  Transfer amounts per token type (order and length must match _intercourtTokens array)\n        @param _courtsPath Through which courts to transfer\n        @param _data    Additional data with no specified format, MUST be sent unaltered in call to `onERC1155Received` on `_to`\n    */\n    function intercourtTransferBatch(address _from, address _to, uint256[] _intercourtTokens, uint256[] _values, uint256[] _courtsPath, bytes _data) external {\n        require(_intercourtTokens.length == _values.length, \"_intercourtTokens and _values array length must match.\");\n\n        _doIntercourtTransferBatch(_from, _to, _intercourtTokens, _values, _courtsPath);\n\n        emit TransferBatch(msg.sender, _from, 0x0, _intercourtTokens, _values);\n        emit TransferBatch(msg.sender, 0x0, _to, _intercourtTokens, _values);\n\n        uint256[] memory _ids = new uint256[](_intercourtTokens.length);\n        for (uint i = 0; i < _ids.length; ++i) {\n            _ids[i] = _generateTokenId(_courtsPath[_courtsPath.length - 1], _intercourtTokens[i]);\n        }\n        \n        // Now that the balances are updated and the events are emitted,\n        // call onERC1155BatchReceived if the destination is a contract.\n        if (_to.isContract()) {\n            _doSafeBatchTransferAcceptanceCheck(msg.sender, _from, _to, _ids, _values, _data);\n        }\n    }\n\n/////////////////////////////////////////// Minting //////////////////////////////////////////////\n\n    /**\n        @notice Mints `_value` amount of an `_id` from the `_from` address to the `_to` address specified (with safety call).\n        @dev Caller must be approved to manage the tokens being transferred out of the `_from` account (see \"Approval\" section of the standard).\n        MUST revert if `_to` is the zero address.\n        MUST revert on any other error.\n        MUST emit the `TransferSingle` event to reflect the balance change.\n        After the above conditions are met, this function MUST check if `_to` is a smart contract (e.g. code size > 0). If so, it MUST call `onERC1155Received` on `_to` and act appropriately (see \"Safe Transfer Rules\" section of the standard).\n        @param _from    Source address\n        @param _to      Target address\n        @param _id      ID of the token type\n        @param _value   Transfer amount\n        @param _data    Additional data with no specified format, MUST be sent unaltered in call to `onERC1155Received` on `_to`\n    */\n    function mintFrom(address _from, address _to, uint256 _id, uint256 _value, bytes _data) external {\n\n        require(_to != address(0x0), \"_to must be non-zero.\");\n        require(_from == msg.sender || operatorApproval[_from][msg.sender] == true, \"Need operator approval for 3rd party transfers.\");\n\n        _doMintFrom(_from, _to, _id, _value);\n\n        // MUST emit event\n        emit TransferSingle(msg.sender, 0x0, _to, _id, _value);\n\n        // Now that the balance is updated and the event was emitted,\n        // call onERC1155Received if the destination is a contract.\n        if (_to.isContract()) {\n            _doSafeTransferAcceptanceCheck(msg.sender, _from, _to, _id, _value, _data);\n        }\n    }\n\n    /**\n        @notice Mints `_values` amount(s) of `_ids` from the `_from` address to the `_to` address specified (with safety call).\n        @dev Caller must be approved to manage the tokens being transferred out of the `_from` account (see \"Approval\" section of the standard).\n        MUST revert if `_to` is the zero address.\n        MUST revert if length of `_ids` is not the same as length of `_values`.\n        MUST revert on any other error.\n        MUST emit `TransferSingle` or `TransferBatch` event(s) such that all the balance changes are reflected.\n        Balance changes and events MUST follow the ordering of the arrays (_ids[0]/_values[0] before _ids[1]/_values[1], etc).\n        After the above conditions for the transfer(s) in the batch are met, this function MUST check if `_to` is a smart contract (e.g. code size > 0). If so, it MUST call the relevant `ERC1155TokenReceiver` hook(s) on `_to` and act appropriately (see \"Safe Transfer Rules\" section of the standard).\n        @param _from    Source address\n        @param _to      Target address\n        @param _ids     IDs of each token type (order and length must match _values array)\n        @param _values  Transfer amounts per token type (order and length must match _ids array)\n        @param _data    Additional data with no specified format, MUST be sent unaltered in call to the `ERC1155TokenReceiver` hook(s) on `_to`\n    */\n    function batchMintFrom(address _from, address _to, uint256[] _ids, uint256[] _values, bytes _data) external {\n\n        // MUST Throw on errors\n        require(_to != address(0x0), \"destination address must be non-zero.\");\n        require(_ids.length == _values.length, \"_ids and _values array length must match.\");\n        require(_from == msg.sender || operatorApproval[_from][msg.sender] == true, \"Need operator approval for 3rd party transfers.\");\n\n        for (uint256 i = 0; i < _ids.length; ++i) {\n            uint256 _id = _ids[i];\n            uint256 _value = _values[i];\n\n            _doMintFrom(_from, _to, _id, _value);\n        }\n\n        // Note: instead of the below batch versions of event and acceptance check you MAY have emitted a TransferSingle\n        // event and a subsequent call to _doSafeTransferAcceptanceCheck in above loop for each balance change instead.\n        // Or emitted a TransferSingle event for each in the loop and then the single _doSafeBatchTransferAcceptanceCheck below.\n        // However it is implemented the balance changes and events MUST match when a check (i.e. calling an external contract) is done.\n\n        // MUST emit event\n        emit TransferBatch(msg.sender, 0x0, _to, _ids, _values);\n\n        // Now that the balances are updated and the events are emitted,\n        // call onERC1155BatchReceived if the destination is a contract.\n        if (_to.isContract()) {\n            _doSafeBatchTransferAcceptanceCheck(msg.sender, _from, _to, _ids, _values, _data);\n        }\n    }\n\n/////////////////////////////////////////// Burning //////////////////////////////////////////////\n\n    /**\n        @notice Burns `_value` amount of an `_id` from the `_from` address specified (with safety call).\n        @dev Caller must be approved to manage the tokens being transferred out of the `_from` account (see \"Approval\" section of the standard).\n        MUST revert on any other error.\n        MUST emit the `TransferSingle` event to reflect the balance change.\n        @param _from    Source address\n        @param _id      ID of the token type\n        @param _value   Transfer amount\n        @param _data    Additional data with no specified format, MUST be sent unaltered in call to `onERC1155Received` on `_to`\n    */\n    function burnFrom(address _from, uint256 _id, uint256 _value, bytes _data) external {\n\n        require(_from == msg.sender || operatorApproval[_from][msg.sender] == true, \"Need operator approval for 3rd party transfers.\");\n\n        balances[_id][_from] = balances[_id][_from].sub(_value);\n\n        // MUST emit event\n        emit TransferSingle(msg.sender, _from, 0x0, _id, _value);\n    }\n\n    /**\n        @notice Burns `_values` amount(s) of `_ids` from the `_from` address specified (with safety call).\n        @dev Caller must be approved to manage the tokens being transferred out of the `_from` account (see \"Approval\" section of the standard).\n        MUST revert if length of `_ids` is not the same as length of `_values`.\n        MUST revert on any other error.\n        MUST emit `TransferSingle` or `TransferBatch` event(s) such that all the balance changes are reflected.\n        Balance changes and events MUST follow the ordering of the arrays (_ids[0]/_values[0] before _ids[1]/_values[1], etc).\n        @param _from    Source address\n        @param _ids     IDs of each token type (order and length must match _values array)\n        @param _values  Transfer amounts per token type (order and length must match _ids array)\n        @param _data    Additional data with no specified format, MUST be sent unaltered in call to the `ERC1155TokenReceiver` hook(s) on `_to`\n    */\n    function batchBurnFrom(address _from, uint256[] _ids, uint256[] _values, bytes _data) external {\n\n        // MUST Throw on errors\n        require(_ids.length == _values.length, \"_ids and _values array length must match.\");\n        require(_from == msg.sender || operatorApproval[_from][msg.sender] == true, \"Need operator approval for 3rd party transfers.\");\n\n        for (uint256 i = 0; i < _ids.length; ++i) {\n            uint256 _id = _ids[i];\n            uint256 _value = _values[i];\n\n            balances[_id][_from] = balances[_id][_from].sub(_value);\n        }\n\n        // Note: instead of the below batch versions of event and acceptance check you MAY have emitted a TransferSingle\n        // event and a subsequent call to _doSafeTransferAcceptanceCheck in above loop for each balance change instead.\n        // Or emitted a TransferSingle event for each in the loop and then the single _doSafeBatchTransferAcceptanceCheck below.\n        // However it is implemented the balance changes and events MUST match when a check (i.e. calling an external contract) is done.\n\n        // MUST emit event\n        emit TransferBatch(msg.sender, _from, 0x0, _ids, _values);\n    }\n\n/////////////////////////////////////////// Administrativia //////////////////////////////////////////////\n\n    /**\n        @notice Get `trustedCourtsList` for a court.\n        @param _truster Court\n    */\n    function getTrustedCourtsList(uint256 _truster) public view returns (uint256[]) {\n        return trustedCourtsList[_truster];\n    }\n\n    /**\n        @notice Set court owner.\n        @param _court   Court\n        @param _owner   New owner\n    */\n    function setOwner(uint256 _court, address _owner) external {\n        require(courtOwners[_court] == msg.sender);\n\n        courtOwners[_court] = _owner;\n        emit SetOwner(_court, _owner);\n    }\n\n    /**\n        @notice Create a regular court.\n        @return           Court ID\n    */\n    function createCourt() external returns (uint256 _id) {\n        _id = ++courtNonce;\n        courtOwners[_id] = msg.sender;\n        emit CourtCreated(msg.sender, _id);\n    }\n\n\n    /**\n        @notice Create an intercourt token.\n        @return           Intercourt token\n    */\n    function createIntercourtToken(/*string _uri*/) external returns (uint256) {\n        uint256 _id = ++icTokenNonce;\n        // _id is Intercourt token, not a token\n        // if (bytes(_uri).length > 0)\n        //     emit URI(_uri, _id);\n        emit IntercourtTokenCreated(_id);\n        return _id;\n    }\n\n    // function setURI(string _uri, uint256 _id) external {\n    //     // It's impossible to determine _intercourtToken (unless we store it for every token generated\n    //     // what would be to resource-intensive)\n    //     require(courtOwners[_intercourtToken] == msg.sender); // Also, it is not a court.\n    //     emit URI(_uri, _id);\n    // }\n    \n    /**\n        @notice Trust these courts.\n        @param _truster The truster court\n        @param _trustees The trustee courts to add\n    */\n    function trustCourts(uint256 _truster, uint256[] _trustees) external {\n        require(courtOwners[_truster] == msg.sender, \"We are not court owner\");\n\n        for (uint i = 0; i < _trustees.length; ++i) {\n            require(_trustees[i] > 0 && _trustees[i] <= courtNonce, \"Court does not exist.\");\n            if (!trustedCourts[_truster][_trustees[i]]) {\n                trustedCourtsList[_truster].length = trustedCourtsList[_truster].length + 1; // TODO: inefficient\n                trustedCourtsList[_truster][trustedCourtsList[_truster].length - 1] = _trustees[i];\n                trustedCourts[_truster][_trustees[i]] = true;\n            }\n        }\n        emit TrustCourts(_truster, _trustees);\n    }\n\n    /**\n        @notice Do not trust these courts anymore.\n        @param _truster The truster court\n        @param _trustees The trustee courts to remove\n    */\n    function untrustCourts(uint256 _truster, uint256[] _trustees) external {\n        require(courtOwners[_truster] == msg.sender, \"We are not court owner\");\n\n        uint max = trustedCourtsList[_truster].length;\n        for (uint i = 0; i < _trustees.length; ++i) {\n            require(_trustees[i] > 0 && _trustees[i] <= courtNonce, \"Court does not exist.\");\n            if (trustedCourts[_truster][_trustees[i]]) {\n                trustedCourts[_truster][_trustees[i]] = false;\n                trustedCourtsList[_truster][i] = trustedCourtsList[_truster][--max];\n            }\n        }\n        trustedCourtsList[_truster].length = max;\n        emit UntrustCourts(_truster, _trustees);\n    }\n\n/////////////////////////////////////////// Internal //////////////////////////////////////////////\n\n    function _doSafeTransferFrom(address _from, address _to, uint256 _id, uint256 _value) private {\n\n        // SafeMath will throw with insufficient funds _from\n        // or if _id is not valid (balance will be 0)\n        balances[_id][_from] = balances[_id][_from].sub(_value);\n        balances[_id][_to]   = _value.add(balances[_id][_to]);\n    }\n\n    function _doMintFrom(address _from, address _to, uint256 _id, uint256 _value) private {\n\n        uint256 _court = _getCourt(_id);\n        uint256 _intercourtToken = _getIntercourtToken(_id);\n    \n        // FIXME: Seems not to decrease balances of foreign tokens.\n        require(_court != 0 && _intercourtToken != 0, \"Invalid token.\");\n        require(courtOwners[_court] == msg.sender || balances[_id][_from] >= _value, \"Insufficient funds.\");\n\n        balances[_id][_to] = _value.add(balances[_id][_to]); // SafeMath will throw if overflow\n    }\n\n    function _doSafeTransferAcceptanceCheck(address _operator, address _from, address _to, uint256 _id, uint256 _value, bytes memory _data) internal {\n\n        // If this was a hybrid standards solution you would have to check ERC165(_to).supportsInterface(0x4e2312e0) here but as this is a pure implementation of an ERC-1155 token set as recommended by\n        // the standard, it is not necessary. The below should revert in all failure cases i.e. _to isn't a receiver, or it is and either returns an unknown value or it reverts in the call to indicate non-acceptance.\n\n\n        // Note: if the below reverts in the onERC1155Received function of the _to address you will have an undefined revert reason returned rather than the one in the require test.\n        // If you want predictable revert reasons consider using low level _to.call() style instead so the revert does not bubble up and you can revert yourself on the ERC1155_ACCEPTED test.\n        require(ERC1155TokenReceiver(_to).onERC1155Received(_operator, _from, _id, _value, _data) == ERC1155_ACCEPTED, \"contract returned an unknown value from onERC1155Received\");\n    }\n\n    function _doSafeBatchTransferAcceptanceCheck(address _operator, address _from, address _to, uint256[] memory _ids, uint256[] memory _values, bytes memory _data) internal {\n\n        // If this was a hybrid standards solution you would have to check ERC165(_to).supportsInterface(0x4e2312e0) here but as this is a pure implementation of an ERC-1155 token set as recommended by\n        // the standard, it is not necessary. The below should revert in all failure cases i.e. _to isn't a receiver, or it is and either returns an unknown value or it reverts in the call to indicate non-acceptance.\n\n        // Note: if the below reverts in the onERC1155BatchReceived function of the _to address you will have an undefined revert reason returned rather than the one in the require test.\n        // If you want predictable revert reasons consider using low level _to.call() style instead so the revert does not bubble up and you can revert yourself on the ERC1155_BATCH_ACCEPTED test.\n        require(ERC1155TokenReceiver(_to).onERC1155BatchReceived(_operator, _from, _ids, _values, _data) == ERC1155_BATCH_ACCEPTED, \"contract returned an unknown value from onERC1155BatchReceived\");\n    }\n    \n    function _generateTokenId(uint256 _court, uint256 _intercourtToken) public returns (uint256 _token) {\n        require (_court != 0 && _intercourtToken != 0);\n\n        _token = _uncheckedGenerateTokenId(_court, _intercourtToken);\n    }\n\n    function _uncheckedGenerateTokenId(uint256 _court, uint256 _intercourtToken) public returns (uint256 _token) {\n        // without any checks\n        // FIXME: Check for no overflows.\n\n        return (_court << 128) + _intercourtToken;\n    }\n    \n    function _getCourt(uint256 _id) public returns (uint256) {\n        return _id >> 128;\n    }\n    \n    function _getIntercourtToken(uint256 _id) public returns (uint256) {\n        return _id & ((1 << 128) - 1);\n    }\n    \n    function _doIntercourtTransferBatch(address _from, address _to, uint256[] memory _ids, uint256[] memory _values, uint256[] memory _courtsPath) internal {\n        require(_to != address(0x0), \"_to must be non-zero.\");\n        assert(_ids.length == _values.length);\n        require(_courtsPath.length != 0);\n        require(_from == msg.sender || operatorApproval[_from][msg.sender] == true, \"Need operator approval for 3rd party transfers.\");\n        //require(checkNoDuplicates(_courtsPath), \"Duplicate courts.\");\n\n        for (uint i = 0; i < _courtsPath.length - 1; ++i) {\n            require(trustedCourts[_courtsPath[i+1]][_courtsPath[i]], \"A court in the path is not in a trusted list.\");\n        }\n\n        for (uint k = 0; k < _ids.length; ++k) {\n            uint256 _intercourtToken = _ids[k];\n            uint256 _fromToken = _generateTokenId(_courtsPath[0], _intercourtToken);\n            uint256 _toToken = _generateTokenId(_courtsPath[_courtsPath.length-1], _intercourtToken);\n            // SafeMath will throw with insufficient funds _from\n            // or if _intercourtToken is not valid (balance will be 0)\n            balances[_fromToken][_from] = balances[_fromToken][_from].sub(_values[k]);\n            balances[_toToken][_to] = _values[k].add(balances[_toToken][_to]);\n        }\n    }\n\n    // function checkNoDuplicates(uint256[] memory _array) private pure returns (bool) {\n    //     for (uint256 i = 1; i < _array.length; ++i) {\n    //         for (uint256 j = 0; j < i; ++j)\n    //             if (_array[i] == _array[j]) return false;\n    //     }\n    //     return true;\n    // }\n}\n",
  "sourcePath": "/home/porton/Projects/courts/contracts/RewardCourts.sol",
  "compiler": {
    "name": "solc",
    "version": "0.4.24+commit.e67f0147.Emscripten.clang"
  },
  "schemaVersion": "2.0.1",
  "updatedAt": "2020-02-20T23:03:54.271Z"
}