{
  "contractName": "RewardCourtNames",
  "abi": [
    {
      "constant": true,
      "inputs": [
        {
          "name": "",
          "type": "uint256"
        }
      ],
      "name": "courtNameChanges",
      "outputs": [
        {
          "name": "",
          "type": "uint256"
        }
      ],
      "payable": false,
      "stateMutability": "view",
      "type": "function"
    },
    {
      "constant": true,
      "inputs": [
        {
          "name": "",
          "type": "uint256"
        }
      ],
      "name": "icTokenNameChanges",
      "outputs": [
        {
          "name": "",
          "type": "uint256"
        }
      ],
      "payable": false,
      "stateMutability": "view",
      "type": "function"
    },
    {
      "inputs": [
        {
          "name": "_rewardCourts",
          "type": "address"
        }
      ],
      "payable": false,
      "stateMutability": "nonpayable",
      "type": "constructor"
    },
    {
      "anonymous": false,
      "inputs": [
        {
          "indexed": false,
          "name": "courtId",
          "type": "uint256"
        },
        {
          "indexed": false,
          "name": "name",
          "type": "string"
        },
        {
          "indexed": false,
          "name": "previous",
          "type": "uint256"
        }
      ],
      "name": "SetCourtName",
      "type": "event"
    },
    {
      "anonymous": false,
      "inputs": [
        {
          "indexed": false,
          "name": "courtId",
          "type": "uint256"
        },
        {
          "indexed": false,
          "name": "icToken",
          "type": "uint256"
        },
        {
          "indexed": false,
          "name": "name",
          "type": "string"
        },
        {
          "indexed": false,
          "name": "previous",
          "type": "uint256"
        }
      ],
      "name": "SetIntercourtTokenName",
      "type": "event"
    },
    {
      "constant": false,
      "inputs": [
        {
          "name": "_courtId",
          "type": "uint256"
        },
        {
          "name": "_name",
          "type": "string"
        }
      ],
      "name": "setCourtName",
      "outputs": [],
      "payable": false,
      "stateMutability": "nonpayable",
      "type": "function"
    },
    {
      "constant": false,
      "inputs": [
        {
          "name": "_courtId",
          "type": "uint256"
        },
        {
          "name": "_icToken",
          "type": "uint256"
        },
        {
          "name": "_name",
          "type": "string"
        }
      ],
      "name": "setIntercourtTokenName",
      "outputs": [],
      "payable": false,
      "stateMutability": "nonpayable",
      "type": "function"
    }
  ],
  "bytecode": "0x608060405234801561001057600080fd5b506040516020806104fd833981016040525160008054600160a060020a03909216600160a060020a03199092169190911790556104ab806100526000396000f3006080604052600436106100615763ffffffff7c01000000000000000000000000000000000000000000000000000000006000350416632b615a8d8114610066578063ca2e686b14610090578063ef248a4d146100ba578063f8dfcb14146100d2575b600080fd5b34801561007257600080fd5b5061008e600480359060248035916044359182019101356100f6565b005b34801561009c57600080fd5b506100a86004356102ad565b60408051918252519081900360200190f35b3480156100c657600080fd5b506100a86004356102bf565b3480156100de57600080fd5b5061008e6004803590602480359081019101356102d1565b60008054604080517f6bd7fa5d000000000000000000000000000000000000000000000000000000008152600481018890529051339373ffffffffffffffffffffffffffffffffffffffff90931692636bd7fa5d92602480820193602093909283900390910190829087803b15801561016e57600080fd5b505af1158015610182573d6000803e3d6000fd5b505050506040513d602081101561019857600080fd5b505173ffffffffffffffffffffffffffffffffffffffff161461021c57604080517f08c379a000000000000000000000000000000000000000000000000000000000815260206004820152601d60248201527f596f7520646f6e277420636f6e74726f6c207468697320636f7572742e000000604482015290519081900360640190fd5b7f4d49e29848abd4f2b24a3ff6e5480d28487629ee2f977bc98ffb303ea4e0762c84848484600260008a8152602001908152602001600020546040518086815260200185815260200180602001838152602001828103825285858281815260200192508082843760405192018290039850909650505050505050a15050600090815260026020526040902043905550565b60016020526000908152604090205481565b60026020526000908152604090205481565b60008054604080517f6bd7fa5d000000000000000000000000000000000000000000000000000000008152600481018790529051339373ffffffffffffffffffffffffffffffffffffffff90931692636bd7fa5d92602480820193602093909283900390910190829087803b15801561034957600080fd5b505af115801561035d573d6000803e3d6000fd5b505050506040513d602081101561037357600080fd5b505173ffffffffffffffffffffffffffffffffffffffff16146103f757604080517f08c379a000000000000000000000000000000000000000000000000000000000815260206004820152601d60248201527f596f7520646f6e277420636f6e74726f6c207468697320636f7572742e000000604482015290519081900360640190fd5b7fc52b8ebe460e7e9f461d77888cd3e700eac7427949949cea34b56f7fd299dba4838383600160008881526020019081526020016000205460405180858152602001806020018381526020018281038252858582818152602001925080828437604051920182900397509095505050505050a1505060009081526001602052604090204390555600a165627a7a723058200ef1cbf546d19d7cfa9745f6461a1706b6eee43ac13ea79f1c16cf93b7377cc50029",
  "source": "pragma solidity ^0.4.0;\n\nimport './RewardCourts.sol';\n\ncontract RewardCourtNames\n{\n    RewardCourts rewardCourts;\n    \n    // TODO: Should all names be local to the msg.sender?\n\n    // See https://ethereum.stackexchange.com/a/78986/36438\n    // court ID => prevChange\n    mapping (uint256 => uint) public courtNameChanges;\n    mapping (uint256 => uint) public icTokenNameChanges;\n\n    event SetCourtName(uint256 courtId, string name, uint previous);\n    event SetIntercourtTokenName(uint256 courtId, uint256 icToken, string name, uint previous);\n    \n    constructor(RewardCourts _rewardCourts) {\n        rewardCourts = _rewardCourts;\n    }\n\n    function setCourtName(uint256 _courtId, string _name) external {\n        require(rewardCourts.courtOwners(_courtId) == msg.sender, \"You don't control this court.\");\n        emit SetCourtName(_courtId, _name, courtNameChanges[_courtId]);\n        courtNameChanges[_courtId] = block.number;\n    }\n\n    function setIntercourtTokenName(uint256 _courtId, uint256 _icToken, string _name) external {\n        require(rewardCourts.courtOwners(_courtId) == msg.sender, \"You don't control this court.\");\n        emit SetIntercourtTokenName(_courtId, _icToken, _name, icTokenNameChanges[_courtId]);\n        icTokenNameChanges[_icToken] = block.number;\n    }\n}\n",
  "sourcePath": "/home/porton/Projects/courts/contracts/RewardCourtNames.sol",
  "compiler": {
    "name": "solc",
    "version": "0.4.24+commit.e67f0147.Emscripten.clang"
  },
  "schemaVersion": "3.0.21",
  "updatedAt": "2020-01-26T08:20:57.806Z",
  "devdoc": {
    "methods": {}
  },
  "userdoc": {
    "methods": {}
  }
}